:020000040000FA
:1000000070EF05F064EF05F004EF06F0CD6A6D6A5D
:1000100092888998DBEC04F00CEF06F0D9CFE5FF6D
:10002000E1CFD9FF00C0E5FF01C0E5FF02C0E5FF59
:1000300003C0E5FF04C0E5FF05C0E5FF020EDBCF0E
:1000400000F089880044FE0B016E0128006E040D4B
:10005000F45000BE0408026EF3CF00F0000E00243E
:10006000036E040E0220046E034A042A03C0E9FF53
:1000700004C0EAFF000EEF6E84C4F8FF83C4F7FFEC
:1000800082C4F6FF04018051FF0A05E106EC00F08E
:1000900000EF06F090D00401805113E1070E826F4B
:1000A000040E836F000E0024036E040E0220046E03
:1000B000034A042A03C0E9FF04C0EAFF040EEF6EFE
:1000C0007AD004018051010A27E1036A04018151B9
:1000D000035C0FE20900850E0324046E056A040E1A
:1000E000052204C0E9FF05C0EAFFF5CFEFFF032AB0
:1000F000EDD7000E0024036E040E0220046E034AA6
:10010000042A050E04018125056E03C0E9FF04C021
:10011000EAFF05C0EFFF4FD004018051020A28E139
:10012000036A04018151035C0FE2850E0324046E0F
:10013000056A040E052204C0E9FF05C0EAFFEFCFFF
:10014000F5FF0D00032AEDD70A00840EA66E95EC8C
:1001500005F0000E0024036E040E0220046E034A14
:10016000042A03C0E9FF04C0EAFF010EEF6E23D0AA
:1001700004018051030A1FE1940EA66E036A040174
:100180008151035C0AE2A68895EC05F0A698400E22
:10019000F626000EF722032AF2D7000E0024036E83
:1001A000040E0220046E034A042A03C0E9FF04C0BF
:1001B000EAFF010EEF6E000E0026040E0222004A36
:1001C000022A00C0E9FF02C0EAFFEFCF00F00050B2
:1001D00009E004010CAD03D0880E0C6F03D0C80EEB
:1001E00004010C6F0150040DF45001BE0408006EB0
:1001F000F3CF01F0000E0124026E040E0020036E06
:10020000024A032A02C0E9FF03C0EAFF400EEF6E74
:10021000000E0126040E002201C0E9FF00C0EAFF23
:10022000800EEF6EE4CF05F0E4CF04F0E4CF03F0EE
:10023000E4CF02F0E4CF01F0E4CF00F0E4CFD9FF47
:100240001200D9CFE5FFE1CFD9FF00C0E5FF01C023
:10025000E5FF02C0E5FF03C0E5FF04C0E5FF05C000
:10026000E5FF06C0E5FF07C0E5FF08C0E5FF020E99
:10027000DBCF00F0000E0401C95D02E1400EC85D55
:1002800005E2C8C401F0C9C402F003D0400E016EFB
:10029000026A0044FE0B036E0328040DF450036E43
:1002A000F3CF00F0000E0024046E040E0320056E50
:1002B000000E0024066E040E0320076E06C0E9FF40
:1002C00007C0EAFFEFCF06F0FC0E061604C0E9FFF8
:1002D00005C0EAFF06C0EFFF000E0024046E040E06
:1002E0000320056E000E0024066E040E0320076E28
:1002F00006C0E9FF07C0EAFFEFCF06F0030E0214C5
:10030000061204C0E9FF05C0EAFF06C0EFFF000EB9
:100310000024046E040E0320056E044A052A0150D1
:10032000066E04C0E9FF05C0EAFF06C0EFFF000E3D
:100330000026040E0322020E0026D8B0032A400E27
:10034000046E050E056E00C0E9FF03C0EAFF04C09D
:10035000EEFF05C0EFFF01500401C85F0250C95B0A
:10036000050E0401C46F400EC36F800EC56F006A96
:1003700000C003F0046A0250045C02E10150035C17
:100380002BE2C3C403F0C4C404F0C5C405F0C0C468
:1003900006F0C1C407F0C2C408F006C0E9FF07C0F8
:1003A000F3FF085029EC05F0066E0401C02B03E3AF
:1003B000C13F01D0C22B06C0E5FF03C0E9FF04C066
:1003C000F3FF05507BEC05F00401C32B03E3C43FAE
:1003D00001D0C52B002ACCD7E4CF08F0E4CF07F03A
:1003E000E4CF06F0E4CF05F0E4CF04F0E4CF03F06F
:1003F000E4CF02F0E4CF01F0E4CF00F0E4CFD9FF86
:100400001200D9CFE5FFE1CFD9FF00C0E5FF01C061
:10041000E5FF02C0E5FF03C0E5FF04C0E5FF05C03E
:10042000E5FF06C0E5FF07C0E5FF08C0E5FF09C01E
:10043000E5FF020EDBCF00F00044FE0B040DF4508C
:10044000026EF3CF00F0000E0024016E040E0220B5
:10045000036E01C0E9FF03C0EAFFEFCF01F0030E16
:1004600001160150056E046A000E0026040E0222D9
:10047000004A022A00C0E9FF02C0EAFFEFCF00F005
:10048000016A045000120550011200500401C827EF
:100490000150C923050E0401C16F400EC06F800ECC
:1004A000C26F026A036A0150035C02E10050025C01
:1004B0002CE2C3C404F0C4C405F0C5C406F0C0C433
:1004C00007F0C1C408F0C2C409F007C0E9FF08C0C2
:1004D000F3FF095029EC05F0076E0401C02B03E37C
:1004E000C13F01D0C22B07C0E5FF04C0E9FF05C032
:1004F000F3FF06507BEC05F00401C32B03E3C43F7C
:1005000001D0C52B024A032ACED7E4CF09F0E4CFAD
:1005100008F0E4CF07F0E4CF06F0E4CF05F0E4CF35
:1005200004F0E4CF03F0E4CF02F0E4CF01F0E4CF35
:1005300000F0E4CFD9FF120000C0E5FF0401045130
:10054000006E009E0050046F0051006E009E00502F
:10055000006F0401CF6B0401CC6B0401C86BC96B45
:10056000B8EC03F00401CC510BE1400E0401016F23
:10057000000E026F050E036F840E006F046F38D0FB
:10058000050100AF26D00401C9510501075D04E152
:100590000401C8510501065D04E206C5C8F407C59B
:1005A000C9F4000EE56A21EC01F0E652020E0401E6
:1005B000CF6F400E0401016F000E026F050E036F36
:1005C000800E006F400E066F050E076FC80E046F99
:1005D0000FD0010E0401CF6F0401056BC80E046F2C
:1005E000400E016F400E026F050E036FC80E006FC4
:1005F0006D98E4CF00F01200006A0F0EC16E070E76
:10060000B46E92988988310ECD6EA66A140E0F01D1
:100610006F6F800E016E040E026E036A046A036A35
:10062000046A015004010E6F02500F6F0401CE6B7B
:100630000401CD6B016A026A036A046A13EC05F0D7
:1006400094EC04F0012A04E3022A02E3034A042A98
:100650000150FF0A08E10250FF0A05E103500F0AAA
:1006600002E1045004E00401CD51050AE7E1040170
:10067000CD51050A03E0E50E006E8998016A026A11
:1006800094EC04F00150021002E1100E891A014AA4
:10069000022A036A9EB0032A0350010AF1E1002AEC
:1006A0009E90E60E005CECE306EC00F000EF06F036
:1006B000E7D7120000C0E5FF01C0E5FF6C38E84451
:1006C0001F0B006E0050D8A447D06CB422D03C0E53
:1006D00004010015016E0140E8403F0B0D0A03E1E3
:1006E0009CEC02F040D00401CF51010A0FE1000E52
:1006F000E56A01EC02F0E652040100AD03D0880E79
:10070000006F31D0C80E0401006F2DD057EC05F0FA
:100710002AD06E500BE10401CD51040A07E102C555
:100720006EFF6E5003E1030E0401CD6F0401CF5143
:10073000020A0FE1000EE56A21EC01F0E652040125
:1007400004AD03D0880E046F0ED0C80E0401046FF0
:100750000AD057EC05F007D06CB405D00050E56E18
:100760000EEC00F0E652E4CF01F0E4CF00F012000E
:1007700005010051600BD8A458D00151050A09E1C8
:10078000010E0401CC6F040E0401CD6F02C5CBF441
:100790004CD005010151060A03E162EC04F045D09A
:1007A00005010151090A12E1010E0401CC6F4AEC66
:1007B00005F002C5CEF40401CE5104E1040E04019B
:1007C000CD6F33D0050E0401CD6F2FD0050101513F
:1007D000080A0FE1010E0401CC6F040E0401C16F81
:1007E000CE0EC06F800EC26F010E0401C86FC96BC0
:1007F0001CD0050101510A0A11E1010E0401CC6F60
:100800000501406B050E0401C16F400EC06F800EE4
:10081000C26F010E0401C86FC96B07D005010151F9
:100820000B0A03E1010E0401CC6F12001C0EF66EE0
:100830000B0EF76E000EF86E0900F550056E0900FC
:10084000F550066E055002E106503BE00900F550F8
:10085000006E0900F550016E0900F550026E0900A6
:100860000900F550E96E0900F550EA6E090009002B
:100870000900F550036E0900F550046E09000900E7
:10088000F6CF07F0F7CF08F0F8CF09F000C0F6FF79
:1008900001C0F7FF02C0F8FF035002E1045007E077
:1008A0000900F550EE6E0306F8E20406F9D707C01A
:1008B000F6FF08C0F7FF09C0F8FF0506C4E2060608
:1008C000C5D7120005010051800A2DE10501035131
:1008D000010A0FE1010E0401CC6F000E0401C26F8A
:1008E000090EC16FF40EC06F120E0401C86FC96B00
:1008F0001AD005010351020A16E1010E0401CC6F62
:10090000000E0401C26F0A0EC16F060EC06F080E02
:10091000F66E0A0EF76E000EF86E0900F5CFC8F4F9
:100920000900F5CFC9F4120000C0E5FF0401CD5164
:100930001FE068A403D069B49BEC05F0006A6DB2B7
:10094000002A0050010A14E068A003D069B0BBEC93
:1009500004F068A202D069B26892030E0401CD5D72
:1009600007E368A605D069A603D05AEC03F06896A1
:10097000E4CF00F0120000C0E5FF6A6A686A9F0ECB
:100980006B6E7B0E696E6E6A160E706E006A68B6CC
:10099000002A0050010A02E16896F8D76D9857ECDA
:1009A00005F00401CA6B0401CE6B030E0401CD6F88
:1009B000E4CF00F0120000C0E5FF01C0E5FF02C077
:1009C000E5FF03C0E5FFC6C400F0C7C401F000C0E6
:1009D00002F001C003F0FF0E0026012202500310B6
:1009E000F6E1E4CF03F0E4CF02F0E4CF01F0E4CF8E
:1009F00000F0120012010002FF00FF40D804AAFE1E
:100A000007040102000109022000010100C01409CD
:100A100004000002FFFFFF0007050102400000077D
:100A20000581024000006DB606D06D6A696A6D8668
:100A3000010E0401CD6F0401CD51010A09E16DBA27
:100A400007D0686A696A69806988020E0401CD6FFF
:100A50001200E8AE04D0F3CFEAFFEE501200E8BC7B
:100A600002EF00F0E9CFF6FFF3CFF7FFF86E0900D1
:100A7000F5501200F2CFEAFFF29EA69EA69CA68435
:100A8000E9CFA9FFE4CFA8FF86EC05F0A694EABE63
:100A9000F28E12001E0E716E400E04010C6F096F73
:100AA000800E0A6F040E0B6F800E086F1200040197
:100AB000CF6B400E0401016F000E026F050E036F35
:100AC000880E006F046B1200F2CFF6FFF29EA69E16
:100AD000A69CE9CFA9FFA680A850F6BEF28E120010
:100AE00011EEFFF021EEFFF0F86AA69CA68E16EC40
:100AF00004F0FCEC02F0E8AE05D0F3CFEAFFE4CF5F
:100B0000EEFF1200E8BC9FEF05F01200550EA76E35
:100B1000AA0EA76EA682A6B2FED7A94A0100420B72
:100B20000000D004000001000000550EA76EAA0EC0
:100B3000A76EA68212006D926994689412003AEF33
:040B400005F00000BC
:020000040030CA
:0E000000244E381EFF8181FF0FC00FE00F401D
:00000001FF
