:020000040000FA
:0600000087EF05F012007D
:0400080004EF06F00B
:080018000CEF06F000C0E5FF4B
:1000200001C0E5FF02C0E5FF03C0E5FF04C0E5FF36
:1000300005C0E5FF06C0E5FF07C0E5FF08C0E5FF16
:1000400009C0E5FF0AC0E5FF0D01CB51D8B46DEF43
:1000500002F062A406D00F0136A503D06592369552
:100060006294006A65B2002A0050010A02E16DEF55
:1000700002F062A022D00F0136A11FD0636A626A2B
:100080009F0E0F01376F7F0E0F01366F0F01386B18
:10009000160E0F01266F006A62B6002A0050010A90
:1000A00002E16296F8D765986FEC05F00D01C86B18
:1000B0000D01CC6B030E0D01CB6F62A80AD00F01AE
:1000C00036A907D0368562986582A198F290A088FB
:1000D000F28662AC03D00F0136BD629C62AA0FD0DB
:1000E0000F0136AB0CD0006A0F0126B1002A005078
:1000F000010A04E16FEC05F00F012691629A62A2F9
:1001000003D00F0136B36292030E0D01CB5DD8A070
:100110006DEF02F062A66DEF02F00F0136A76DEFF2
:1001200002F06438E8441F0B006E0050D8A465EF5D
:1001300002F064B4A5D13C0E0D010015016E014022
:10014000E8403F0B0D0A01E03ED10D010451016E64
:10015000019E0150046F0051016E019E0150006F1D
:100160000D01CA6B0D01CD6B0D01C66BC76B05018F
:100170004051600BD8A4B1D14151050A09E1010EEB
:100180000D01CD6F040E0D01CB6F42C5C9FDD3D05B
:1001900005014151060A01E07ED005014051800A67
:1001A00001E0C9D005014351010A0FE1010E0D0123
:1001B000CD6F000E0D01C56F090EC46FD60EC36F53
:1001C000120E0D01C66FC76BB6D005014351020A6E
:1001D00017E1010E0D01CD6F000E0D01C56F090E67
:1001E000C46FF20EC36FF40EF66E090EF76E000EBA
:1001F000F86E0900F5CFC6FD0900F5CFC7FD9BD00D
:1002000005014351030A33E1010E0D01CD6F0501D4
:100210004251030DF450026EF3CF01F0036A280E31
:1002200001260A0E0222000E032201C0F6FF02C0C0
:10023000F7FF03C0F8FF0900F5CFC3FD0900F5CFB4
:10024000C4FD0900F5CFC5FDC3CD01F0C4CD02F05A
:10025000C5CD03F001C0E9FF02C0F3FF03505EEC1F
:1002600005F0016E01C0C6FD0D01C76B64D005012C
:100270004351060A01E05FD0010E0D01CD6F000E63
:100280000D01C56F090EC46FE80EC36F0A0E0D0194
:10029000C66FC76B50D005014151090A1DE1010E1F
:1002A0000D01CD6F1E0E0F01276F400E0D010C6F5B
:1002B000096F800E0A6F0D0E0B6F800E086F42C51E
:1002C000CCFD0D01CC5104E1040E0D01CB6F33D0F8
:1002D000050E0D01CB6F2FD005014151080A0FE12A
:1002E000010E0D01CD6F0D0E0D01C46FCC0EC36F4D
:1002F000800EC56F010E0D01C66FC76B1CD00501C6
:1003000041510A0A11E1010E0D01CD6F0501006B8B
:10031000050E0D01C46F000EC36F800EC56F010E78
:100320000D01C66FC76B07D0050141510B0A03E1F0
:10033000010E0D01CD6F0D01CD510BE1400E0D01F0
:10034000016F400E026F050E036F840E006F046F85
:1003500038D0050140AF26D00D01C7510501475DDA
:1003600004E10D01C6510501465D04E246C5C6FD26
:1003700047C5C7FD000EE56AADEC03F0E652020E7C
:100380000D01CA6F400E0D01016F400E026F050E88
:10039000036F800E006F000E066F050E076FC80E0C
:1003A000046F0FD0010E0D01CA6F0D01056BC80E51
:1003B000046F400E016F000E026F050E036FC80E32
:1003C000006F659889D00D01CA51010A01E055D02E
:1003D000030E0D010015026A046E036A01CD01F0DF
:1003E000035001120450021201500D01C6270250A1
:1003F000C723050E0D01C46F000EC36F800EC56FBD
:10040000046A0250045C02E10150035C2CE2C0CD9E
:1004100005F0C1CD06F0C2CD07F0C3CD08F0C4CDC4
:1004200009F0C5CD0AF008C0E9FF09C0F3FF0A5082
:100430005EEC05F0086E0D01C32B03E3C43F01D051
:10044000C52B08C0E5FF05C0E9FF06C0F3FF075054
:100450007CEC05F00D01C02B03E3C13F01D0C22BA2
:10046000034A042ACED70D0100AD03D0880E006FD9
:1004700033D0C80E0D01006F2FD06FEC05F02CD0DB
:100480000F0138510CE10D01CB51040A08E142C5BE
:1004900038FF0F01385103E1030E0D01CB6F0D0141
:1004A000CA51020A0FE1000EE56AADEC03F0E65214
:1004B0000D0104AD03D0880E046F0ED0C80E0D01DF
:1004C000046F0AD06FEC05F007D064B405D000507B
:1004D000E56E84EC02F0E6526296E4CF0AF0E4CFD7
:1004E00009F0E4CF08F0E4CF07F0E4CF06F0E4CF62
:1004F00005F0E4CF04F0E4CF03F0E4CF02F0E4CF62
:1005000001F0E4CF00F01200D9CFE5FFE1CFD9FF31
:1005100000C0E5FF01C0E5FF02C0E5FF03C0E5FF45
:1005200004C0E5FF05C0E5FF020EDBCF00F08B84C1
:100530000044FE0B016E0128006E040DF45000BE55
:100540000408026EF3CF00F0000E0024036E0D0EBF
:100550000220046E034A042A03C0E9FF04C0EAFF34
:10056000000EEF6E84CDF8FF83CDF7FF82CDF6FF4E
:100570000D018051FF0A03E119EC05F0A8D00D012F
:10058000805113E10C0E826F040E836F000E002465
:10059000036E0D0E0220046E034A042A03C0E9FF15
:1005A00004C0EAFF040EEF6E92D00D018051010AE3
:1005B00027E1036A0D018151035C0FE20900850EFA
:1005C0000324046E056A0D0E052204C0E9FF05C070
:1005D000EAFFF5CFEFFF032AEDD7000E0024036EEC
:1005E0000D0E0220046E034A042A050E0D0181251A
:1005F000056E03C0E9FF04C0EAFF05C0EFFF67D046
:100600000D018051020A01E03CD0A40EA66E036ADF
:100610000D018151035C26E203508225F66E850EA2
:100620000324046E056A0D0E052204C0E9FF05C00F
:10063000EAFFEFCFF5FF0D000328046E056A850E73
:1006400004260D0E052204C0E9FF05C0EAFFEFCF26
:10065000F5FF0C00550EA76EAA0EA76EA682032A00
:10066000032AD6D7000E0024036E0D0E0220046E5E
:10067000034A042A03C0E9FF04C0EAFF010EEF6E3B
:1006800026D00D018051030A22E1A40EA66E036A52
:100690000D018151035C0DE2A688550EA76EAA0ECE
:1006A000A76EA682A698040EF726000EF822032A4B
:1006B000EFD7000E0024036E0D0E0220046E034AD5
:1006C000042A03C0E9FF04C0EAFF010EEF6E000E2A
:1006D00000260D0E0222004A022A00C0E9FF02C0D5
:1006E000EAFFEFCF00F0005009E00D010CAD03D0A0
:1006F000880E0C6F03D0C80E0D010C6F0150040D55
:10070000F45001BE0408006EF3CF01F0000E012486
:10071000026E0D0E0020036E024A032A02C0E9FF9A
:1007200003C0EAFF400EEF6E000E01260D0E002200
:1007300001C0E9FF00C0EAFF800EEF6EE4CF05F0D4
:10074000E4CF04F0E4CF03F0E4CF02F0E4CF01F013
:10075000E4CF00F0E4CFD9FF1200D9CFE5FFE1CF1D
:10076000D9FF00C0E5FF01C0E5FF02C0E5FF03C0FF
:10077000E5FF04C0E5FF05C0E5FF06C0E5FF07C0D3
:10078000E5FF08C0E5FF020EDBCF00F0000E0D0113
:10079000C75D02E1400EC65D05E2C6CD01F0C7CDE2
:1007A00002F003D0400E016E026A0044FE0B036E9D
:1007B0000328040DF450036EF3CF00F0000E002464
:1007C000046E0D0E0320056E000E0024066E0D0E45
:1007D0000320076E06C0E9FF07C0EAFFEFCF06F06F
:1007E000FC0E061604C0E9FF05C0EAFF06C0EFFFD5
:1007F000000E0024046E0D0E0320056E000E002472
:10080000066E0D0E0320076E06C0E9FF07C0EAFF63
:10081000EFCF06F0030E0214061204C0E9FF05C074
:10082000EAFF06C0EFFF000E0024046E0D0E032049
:10083000056E044A052A0150066E04C0E9FF05C092
:10084000EAFF06C0EFFF000E00260D0E0322020E87
:100850000026D8B0032A000E046E050E056E00C0F7
:10086000E9FF03C0EAFF04C0EEFF05C0EFFF01503F
:100870000D01C65F0250C75B050E0D01C16F000E72
:10088000C06F800EC26F006A00C003F0046A02509D
:10089000045C02E10150035C2BE2C0CD03F0C1CD4A
:1008A00004F0C2CD05F0C3CD06F0C4CD07F0C5CD30
:1008B00008F006C0E9FF07C0F3FF08505EEC05F042
:1008C000066E0D01C32B03E3C43F01D0C52B06C048
:1008D000E5FF03C0E9FF04C0F3FF05507CEC05F021
:1008E0000D01C02B03E3C13F01D0C22B002ACCD79E
:1008F000E4CF08F0E4CF07F0E4CF06F0E4CF05F052
:10090000E4CF04F0E4CF03F0E4CF02F0E4CF01F051
:10091000E4CF00F0E4CFD9FF1200D0B204D0B30E80
:10092000D01200EF06F0D0BE55D0700ED36ED3A417
:10093000FED7FF0E0F01486F1F0E0F01496FD08EBB
:10094000F29EF29C9D909F90CE6ACF6A310ECD6E42
:1009500094948B84140E0F01396F800E006E0D0E6F
:10096000016E026A036A026A036A00500D010E6F8B
:1009700001500F6F0D01CC6B0D01CB6B006A016A4A
:10098000026A036A45EC05F00EEC00F00050FF0A25
:1009900008E10150FF0A05E102500F0A02E103508D
:1009A00001E002D019EC05F0002A04E3012A02E379
:1009B000024A032A0D01CB51050AE4E10EEC00F0D6
:1009C000006A9EB0002A0050010AF8E19E90040ED1
:1009D0008B1AF4D7120012010002FFFFFF40D80467
:1009E000AAFE1204010200010A060002FFFFFF40F6
:1009F000010009022000010100C07D09040000027D
:100A0000FFFFFF00070501024000000705810240CB
:100A10000000040309040C03520042002B004100B3
:100A20004700060350003800120A00160A00220A86
:100A3000000000C0E5FF01C0E5FF02C0E5FF03C004
:100A4000E5FFCD6A65926596656A0F01396B0F0106
:100A5000366B0F01376BFF0E006E016E00C002F0A7
:100A600001C003F0FF0E0026012202500310F6E140
:100A700094848B9400EF06F0E4CF03F0E4CF02F00F
:100A8000E4CF01F0E4CF00F0120065B607D0656A4C
:100A90000F01366B6586010E0D01CB6F0D01CB5139
:100AA000010A0BE165BA09D0626A0F01366B0F01CA
:100AB00036813689020E0D01CB6F1200E8AE04D0EC
:100AC000F3CFEAFFEE501200E8BC02EF00F0E9CFEE
:100AD000F6FFF3CFF7FFF86E0900F55012000D0195
:100AE000CA6B400E0D01016F400E026F050E036FC1
:100AF000880E006F046B1200E8AE05D0F3CFEAFF5A
:100B0000E4CFEEFF1200E8BC02EF00F0120011EE9D
:0C0B1000FEF021EEFEF08DEC04F0FFD7AB
:020000040001F9
:08FFF800ACF71AFF62F880F17A
:00000001FF
