:020000040000FA
:04000000BDEF05F05B
:0400080004EF06F00B
:040018000CEF06F0F3
:06002A00D9CFE5FFE1CF94
:10003000D9FF00C0E5FF01C0E5FF02C0E5FF03C036
:10004000E5FF04C0E5FF05C0E5FF020EDBCF00F0D1
:100050000044FE0B016E0128006E040DF45000BE3A
:100060000408026EF3CF00F0000E0024036E040EAD
:100070000220046E034A042A03C0E9FF04C0EAFF19
:10008000000EEF6E64C0F8FF63C0F7FF62C0F6FFBA
:1000900089880001605113E1060E626F040E636FE0
:1000A000000E0024036E040E0220046E034A042A8C
:1000B00003C0E9FF04C0EAFF040EEF6E81D0000127
:1000C0006051010A27E1036A00016151035C0FE2FC
:1000D0000900650E0324046E056A000E052204C0A3
:1000E000E9FF05C0EAFFF5CFEFFF032AEDD7000EC9
:1000F0000024036E040E0220046E034A042A050E37
:1001000000016125056E03C0E9FF04C0EAFF05C0D8
:10011000EFFF56D000016051020A28E1036A000196
:100120006151035C0FE2650E0324046E056A000E44
:10013000052204C0E9FF05C0EAFFEFCFF5FF0D007F
:10014000032AEDD70A00840EA66EDCEC05F0000E43
:100150000024036E040E0220046E034A042A03C026
:10016000E9FF04C0EAFF010EEF6E2AD000016051E2
:10017000030A1EE1940EA66E036A00016151035C3E
:1001800008E2DCEC05F0400EF626000EF722032A0A
:10019000F4D7000E0024036E040E0220046E034AFE
:1001A000042A03C0E9FF04C0EAFF010EEF6E08D085
:1001B00000016051FF0A04E1ECEC05F000EF06F0ED
:1001C000000E0026040E0222004A022A00C0E9FFA7
:1001D00002C0EAFFEFCF00F0005009E004010CADCF
:1001E00003D0880E0C6F03D0C80E04010C6F0150B1
:1001F000040DF45001BE0408006EF3CF01F0000EB0
:100200000124026E040E0020036E024A032A02C07B
:10021000E9FF03C0EAFF400EEF6E000E0126040E58
:10022000002201C0E9FF00C0EAFF800EEF6EE4CFBC
:1002300005F0E4CF04F0E4CF03F0E4CF02F0E4CF24
:1002400001F0E4CF00F0E4CFD9FF1200D9CFE5FFF1
:10025000E1CFD9FF00C0E5FF01C0E5FF02C0E5FF27
:1002600003C0E5FF04C0E5FF05C0E5FF06C0E5FFEC
:1002700007C0E5FF08C0E5FF020EDBCF00F0000E6F
:100280000001A75D02E1400EA65D05E2A6C001F0F7
:10029000A7C002F003D0400E016E026A0044FE0BBC
:1002A000036E0328040DF450036EF3CF00F0000E2C
:1002B0000024046E040E0320056E000E0024066E5A
:1002C000040E0320076E06C0E9FF07C0EAFFEFCF68
:1002D00006F0FC0E061604C0E9FF05C0EAFF06C0E2
:1002E000EFFF000E0024046E040E0320056E000EC6
:1002F0000024066E040E0320076E06C0E9FF07C047
:10030000EAFFEFCF06F0030E0214061204C0E9FF65
:1003100005C0EAFF06C0EFFF000E0024046E040EC5
:100320000320056E044A052A0150066E04C0E9FF49
:1003300005C0EAFF06C0EFFF000E0026040E0322F0
:10034000020E0026D8B0032A400E046E050E056E7C
:1003500000C0E9FF03C0EAFF04C0EEFF05C0EFFFE5
:1003600001500001A65F0250A75B050E0001A46FBB
:10037000400EA36F800EA56F006A00C003F0046AF0
:100380000250045C02E10150035C2BE2A3C003F0C5
:10039000A4C004F0A5C005F0A0C006F0A1C007F0FD
:1003A000A2C008F006C0E9FF07C0F3FF085076ECD2
:1003B00005F0066E0001A02B03E3A13F01D0A22BA4
:1003C00006C0E5FF03C0E9FF04C0F3FF0550C8EC19
:1003D00005F00001A32B03E3A43F01D0A52B002AC5
:1003E000CCD7E4CF08F0E4CF07F0E4CF06F0E4CFB9
:1003F00005F0E4CF04F0E4CF03F0E4CF02F0E4CF63
:1004000001F0E4CF00F0E4CFD9FF1200D9CFE5FF2F
:10041000E1CFD9FF00C0E5FF01C0E5FF02C0E5FF65
:1004200003C0E5FF04C0E5FF05C0E5FF06C0E5FF2A
:1004300007C0E5FF08C0E5FF09C0E5FF020EDBCFFE
:1004400000F00044FE0B040DF450026EF3CF00F0F8
:10045000000E0024016E040E0220036E01C0E9FFAD
:1004600003C0EAFFEFCF01F0030E01160150056E45
:10047000046A000E0026040E0222004A022A00C06E
:10048000E9FF02C0EAFFEFCF00F0016A045000125A
:100490000550011200500001A6270150A723050EA8
:1004A0000001A16F400EA06F800EA26F026A036A66
:1004B0000150035C02E10050025C2CE2A3C004F096
:1004C000A4C005F0A5C006F0A0C007F0A1C008F0C8
:1004D000A2C009F007C0E9FF08C0F3FF095076EC9D
:1004E00005F0076E0001A02B03E3A13F01D0A22B72
:1004F00007C0E5FF04C0E9FF05C0F3FF0650C8ECE4
:1005000005F00001A32B03E3A43F01D0A52B024A71
:10051000032ACED7E4CF09F0E4CF08F0E4CF07F008
:10052000E4CF06F0E4CF05F0E4CF04F0E4CF03F02D
:10053000E4CF02F0E4CF01F0E4CF00F0E4CFD9FF44
:10054000120000C0E5FF01C0E5FF02C0E5FF0501A4
:100550000051800A01E05CD003C500F002C501F043
:100560000050010A0FE1010E0001AA6F000E000108
:10057000A26F090EA16FC80EA06F120E0001A66F28
:10058000A76B46D00050020A17E1010E0001AA6FC6
:10059000000E0001A26F090EA16FDA0EA06FDC0E33
:1005A000F66E090EF76E000EF86E0900F5CFA6F094
:1005B0000900F5CFA7F02CD00050030A29E1010E65
:1005C0000001AA6F0150030DF450006EF3CF01F04B
:1005D000026A280E01260A0E0022000E0222025094
:1005E0000001A26F0050A16F0150A06FA0C000F0E9
:1005F000A1C001F0A2C002F000C0E9FF01C0F3FFFA
:10060000025076EC05F0006E00C0A6F00001A76B6A
:10061000E4CF02F0E4CF01F0E4CF00F0120000C01C
:10062000E5FF01C0E5FF6138E8441F0B006E005094
:10063000D8A44DD061B422D03C0E04010015016E47
:100640000140E8403F0B0D0A03E1D9EC03F049D02B
:100650000001AD51010A0FE1000EE56A06EC02F05F
:10066000E652040100AD03D0880E006F3AD0C80EE8
:100670000401006F36D0A4EC05F033D0016A61B4F8
:10068000012A0150010A2DE163500BE10001AB5139
:10069000040A07E102C563FF635003E1030E000192
:1006A000AB6F0001AD51020A0FE1000EE56A26ECC6
:1006B00001F0E652040104AD03D0880E046F11D09E
:1006C000C80E0401046F0DD0A4EC05F00AD0005050
:1006D000010A07E161B405D00050E56E15EC00F0A9
:1006E000E652E4CF01F0E4CF00F01200006A700E91
:1006F000D36ED3A4FED75B6B5C6B5D6B92988988DD
:10070000310ECD6EF28CF28EA66A140E0F01626F5E
:10071000600E016E000E026E036A046A036A046AC8
:10072000015004010E6F02500F6F0001AC6B00010D
:10073000AB6B016A026A036A046A60EC05F019ECAB
:1007400005F0012A04E3022A02E3034A042A0150C5
:10075000FF0A08E10250FF0A05E103500F0A02E117
:10076000045004E00001AB51050AE7E10001AB5180
:10077000050A03E0E50E006E8998016A026A19EC29
:1007800005F00150021002E1100E891A014A022AF6
:10079000036A9EB0032A0350010AF1E1002A9E90E9
:1007A000E60E005CECE3ECEC05F000EF06F0E7D7BA
:1007B000120000C0E5FF04010451006E009E0050CD
:1007C000046F0051006E009E0050006F0001AD6B81
:1007D0000001AA6B0001A66BA76B39EC04F00001C5
:1007E000AA510BE1400E0401016F000E026F050ECD
:1007F000036F840E006F046F38D0050100AF26D060
:100800000001A7510501075D04E10001A6510501A2
:10081000065D04E206C5A6F007C5A7F0000EE56A6E
:1008200026EC01F0E652020E0001AD6F400E04010D
:10083000016F000E026F050E036F800E006F400EF9
:10084000066F050E076FC80E046F0FD0010E000172
:10085000AD6F0401056BC80E046F400E016F400EB2
:10086000026F050E036FC80E006F6098E4CF00F0B2
:10087000120000C0E5FF01C500F005010051600B4A
:10088000D8A453D00050050A09E1010E0001AA6F57
:10089000040E0001AB6F02C5A9F047D00050060A54
:1008A00003E1A1EC02F041D00050090A12E1010E6F
:1008B0000001AA6F97EC05F002C5ACF00001AC5145
:1008C00004E1040E0001AB6F30D0050E0001AB6FE8
:1008D0002CD00050080A0FE1010E0001AA6F000E93
:1008E0000001A16FAC0EA06F800EA26F010E00017F
:1008F000A66FA76B1AD000500A0A11E1010E000181
:10090000AA6F0501406B050E0001A16F400EA06F9C
:10091000800EA26F010E0001A66FA76B06D00050DB
:100920000B0A03E1010E0001AA6FE4CF00F01200F0
:10093000E60EF66E0B0EF76E000EF86E0900F5501F
:10094000056E0900F550066E055002E106503BE0C9
:100950000900F550006E0900F550016E0900F550D0
:10096000026E09000900F550E96E0900F550EA6EC3
:10097000090009000900F550036E0900F550046EE6
:1009800009000900F6CF07F0F7CF08F0F8CF09F01B
:1009900000C0F6FF01C0F7FF02C0F8FF035002E1FC
:1009A000045007E00900F550EE6E0306F8E2040675
:1009B000F9D707C0F6FF08C0F7FF09C0F8FF050622
:1009C000C4E20606C5D7120012010002FF00FF4074
:1009D000D804AAFE06040102000109022000010158
:1009E00000C0140904000002FFFFFF000705010218
:1009F00040000007058102400000040309041803B9
:100A000052002E00200042004C0041004E004300E6
:100A100048004F0054001203500069006E00670048
:100A2000750069006E006F00FA0900FE0900160AE1
:100A3000000000C0E5FF0001AB511FE065A403D03A
:100A400064B4FAEC05F0006A60B2002A0050010AB2
:100A500014E065A003D064B040EC05F065A202D0BC
:100A600064B26592030E0001AB5D07E365A605D095
:100A700064A603D00FEC03F06596E4CF00F01200FB
:100A800000C0E5FF676A656A9F0E666E7B0E646E46
:100A9000636A160E6A6E006A65B6002A0050010A83
:100AA00002E16596F8D76098A4EC05F00001A86B08
:100AB0000001AC6B030E0001AB6FE4CF00F012003D
:100AC00060B606D0606A646A6086010E0001AB6F92
:100AD0000001AB51010A09E160BA07D0656A646A96
:100AE00064806488020E0001AB6F1200E8AE04D08F
:100AF000F3CFEAFFEE501200E8BCFEEF05F0E9CFBD
:100B0000F6FFF3CFF7FFF86E0900F5501200F2CFB1
:100B1000EAFFF29EA69EA69CA684E9CFA9FFE4CF99
:100B2000A8FFE4EC05F0A694EABEF28E12001E0EB9
:100B30006B6E400E04010C6F096F600E0A6F000EA1
:100B40000B6F800E086F12000001AD6B400E0401A8
:100B5000016F000E026F050E036F880E006F046BAD
:100B60001200F2CFF6FFF29EA69EA69CE9CFA9FF47
:100B7000A680A850F6BEF28E120012EEFEF022EE13
:100B8000FEF0F86AA68EA69C98EC04F076EC03F0D2
:100B9000E8AE05D0F3CFEAFFE4CFEEFF1200E8BCE9
:100BA00000EF06F01200FF0E006EFF0E016E002E29
:100BB000FED7012EFCD71200F29E550EA76EAA0E8C
:100BC000A76EA682F28E1200550EA76EAA0EA76E11
:100BD000A682A6B2FED7A94ACD6A606A9288899891
:100BE000D3EC05F012000100040C0000AE00000080
:100BF000010000006092649465941200B1EF05F06A
:060C000087EF05F0000083
:020000040030CA
:0E00000003285F3EFF91A5FF0FC00FE00F40E9
:00000001FF
