:020000040000FA
:0400000064EF05F0B4
:0400080004EF06F00B
:040018000CEF06F0F3
:06002A00D9CFE5FFE1CF94
:10003000D9FF00C0E5FF01C0E5FF02C0E5FF03C036
:10004000E5FF04C0E5FF05C0E5FF020EDBCF00F0D1
:100050000044FE0B016E0128006E040DF45000BE3A
:100060000408026EF3CF00F0000E0024036E040EAD
:100070000220046E034A042A03C0E9FF04C0EAFF19
:10008000000EEF6E82EC05F089880001605113E1EB
:10009000040E626F636F000E0024036E040E0220D4
:1000A000046E034A042A03C0E9FF04C0EAFF040EF9
:1000B000EF6ECD6A88D000016051010A27E1036A22
:1000C00000016151035C0FE20900650E0324046E18
:1000D000056A000E052204C0E9FF05C0EAFFF5CF5E
:1000E000EFFF032AEDD7000E0024036E040E02205A
:1000F000046E034A042A050E00016125056E03C043
:10010000E9FF04C0EAFF05C0EFFF5DD000016051C8
:10011000020A2FE1F00EF616840EA66E036A0001A5
:100120006151035C17E2650E0324046E056A000E3C
:10013000052204C0E9FF05C0EAFFEFCFF5FF0D007F
:100140000F0E0314046E0F0A03E10A0089EC05F098
:10015000032AE5D7000E0024036E040E0220046E6D
:10016000034A042A03C0E9FF04C0EAFF010EEF6E50
:100170002AD000016051030A1EE1940EA66E036AA4
:1001800000016151035C08E289EC05F0400EF6269F
:10019000000EF722032AF4D7000E0024036E040E8B
:1001A0000220046E034A042A03C0E9FF04C0EAFFE8
:1001B000010EEF6E08D000016051FF0A04E1EEEC81
:1001C00004F000EF06F0000E0026040E0222004AA2
:1001D000022A00C0E9FF02C0EAFFEFCF00F00050A2
:1001E00009E004010CAD03D0880E0C6F03D0C80EDB
:1001F00004010C6F0150040DF45001BE0408006EA0
:10020000F3CF01F0000E0124026E040E0020036EF5
:10021000024A032A02C0E9FF03C0EAFF400EEF6E64
:10022000000E0126040E002201C0E9FF00C0EAFF13
:10023000800EEF6EE4CF05F0E4CF04F0E4CF03F0DE
:10024000E4CF02F0E4CF01F0E4CF00F0E4CFD9FF37
:100250001200D9CFE5FFE1CFD9FF00C0E5FF01C013
:10026000E5FF02C0E5FF03C0E5FF04C0E5FF05C0F0
:10027000E5FF06C0E5FF07C0E5FF08C0E5FF020E89
:10028000DBCF00F0000E0001A75D02E1400EA65D8D
:1002900005E2A6C001F0A7C002F003D0400E016E37
:1002A000026A0044FE0B036E0328040DF450036E33
:1002B000F3CF00F0000E0024046E040E0320056E40
:1002C000000E0024066E040E0320076E06C0E9FF30
:1002D00007C0EAFFEFCF06F0FC0E061604C0E9FFE8
:1002E00005C0EAFF06C0EFFF000E0024046E040EF6
:1002F0000320056E000E0024066E040E0320076E18
:1003000006C0E9FF07C0EAFFEFCF06F0030E0214B4
:10031000061204C0E9FF05C0EAFF06C0EFFF000EA9
:100320000024046E040E0320056E044A052A0150C1
:10033000066E04C0E9FF05C0EAFF06C0EFFF000E2D
:100340000026040E0322020E0026D8B0032A400E17
:10035000046E050E056E00C0E9FF03C0EAFF04C08D
:10036000EEFF05C0EFFF01500001A65F0250A75B42
:10037000050E0001A46F400EA36F800EA56F006AEA
:1003800000C003F0046A0250045C02E10150035C07
:100390002BE2A3C003F0A4C004F0A5C005F0A0C0E8
:1003A00006F0A1C007F0A2C008F006C0E9FF07C030
:1003B000F3FF08501BEC05F0066E0001A02B03E3D1
:1003C000A13F01D0A22B06C0E5FF03C0E9FF04C096
:1003D000F3FF05506FEC05F00001A32B03E3A43FEE
:1003E00001D0A52B002ACCD7E4CF08F0E4CF07F04A
:1003F000E4CF06F0E4CF05F0E4CF04F0E4CF03F05F
:10040000E4CF02F0E4CF01F0E4CF00F0E4CFD9FF75
:100410001200D9CFE5FFE1CFD9FF00C0E5FF01C051
:10042000E5FF02C0E5FF03C0E5FF04C0E5FF05C02E
:10043000E5FF06C0E5FF07C0E5FF08C0E5FF09C00E
:10044000E5FF020EDBCF00F00044FE0B040DF4507C
:10045000026EF3CF00F0000E0024016E040E0220A5
:10046000036E01C0E9FF03C0EAFFEFCF01F0030E06
:1004700001160150056E046A000E0026040E0222C9
:10048000004A022A00C0E9FF02C0EAFFEFCF00F0F5
:10049000016A045000120550011200500001A62705
:1004A0000150A723050E0001A16F400EA06F800E22
:1004B000A26F026A036A0150035C02E10050025C11
:1004C0002CE2A3C004F0A4C005F0A5C006F0A0C0B3
:1004D00007F0A1C008F0A2C009F007C0E9FF08C0FA
:1004E000F3FF09501BEC05F0076E0001A02B03E39E
:1004F000A13F01D0A22B07C0E5FF04C0E9FF05C062
:10050000F3FF06506FEC05F00001A32B03E3A43FBB
:1005100001D0A52B024A032ACED7E4CF09F0E4CFBD
:1005200008F0E4CF07F0E4CF06F0E4CF05F0E4CF25
:1005300004F0E4CF03F0E4CF02F0E4CF01F0E4CF25
:1005400000F0E4CFD9FF120000C0E5FF01C0E5FFD5
:100550006C38E8441F0B006E0050D8A44DD06CB42A
:1005600022D03C0E04010015016E0140E8403F0B13
:100570000D0A03E10BEC03F049D00001AD51010A73
:100580000FE1000EE56A09EC02F0E652040100AD4D
:1005900003D0880E006F3AD0C80E0401006F36D029
:1005A0004BEC05F033D0016A6CB4012A0150010A0A
:1005B0002DE16E500BE10001AB51040A07E102C5C9
:1005C0006EFF6E5003E1030E0001AB6F0001AD51F1
:1005D000020A0FE1000EE56A29EC01F0E65204017F
:1005E00004AD03D0880E046F11D0C80E0401046F4F
:1005F0000DD04BEC05F00AD00050010A07E16CB4B5
:1006000005D00050E56E15EC00F0E652E4CF01F0A5
:10061000E4CF00F0120000C0E5FF04010451006EB9
:10062000009E0050046F0051006E009E0050006F4D
:100630000001AD6B0001AA6B0001A66BA76B6BEC10
:1006400003F00001AA510BE1400E0401016F000EFE
:10065000026F050E036F840E006F046F38D0050122
:1006600000AF26D00001A7510501075D04E100019C
:10067000A6510501065D04E206C5A6F007C5A7F070
:10068000000EE56A29EC01F0E652020E0001AD6FA2
:10069000400E0401016F000E026F050E036F800E05
:1006A000006F400E066F050E076FC80E046F0FD067
:1006B000010E0001AD6F0401056BC80E046F400E02
:1006C000016F400E026F050E036FC80E006F6D982C
:1006D000E4CF00F0120000C0E5FF01C500F0050105
:1006E0000051600BD8A453D00050050A09E1010E57
:1006F0000001AA6F040E0001AB6F02C5A9F047D03C
:100700000050060A03E156EC04F041D00050090AFB
:1007100012E1010E0001AA6F3CEC05F002C5ACF03D
:100720000001AC5104E1040E0001AB6F30D0050EA6
:100730000001AB6F2CD00050080A0FE1010E000140
:10074000AA6F000E0001A16FAC0EA06F800EA26F09
:10075000010E0001A66FA76B1AD000500A0A11E122
:10076000010E0001AA6F0501406B050E0001A16F8B
:10077000400EA06F800EA26F010E0001A66FA76B46
:1007800006D000500B0A03E1010E0001AA6FE4CF6E
:1007900000F01200200EF66E0B0EF76E000EF86ED3
:1007A0000900F550056E0900F550066E055002E18E
:1007B00006503BE00900F550006E0900F550016E4F
:1007C0000900F550026E09000900F550E96E0900B4
:1007D000F550EA6E090009000900F550036E0900A2
:1007E000F550046E09000900F6CF07F0F7CF08F0C6
:1007F000F8CF09F000C0F6FF01C0F7FF02C0F8FF14
:10080000035002E1045007E00900F550EE6E0306C4
:10081000F8E20406F9D707C0F6FF08C0F7FF09C0E1
:10082000F8FF0506C4E20606C5D71200600E006E8A
:10083000000E016E005004010E6F01500F6F000199
:10084000AC6B0F0EC16E92988988310ECD6EF28C12
:10085000F28E000EA66E140E0F016F6F0001AB6BCF
:100860000001AB51050A05E005EC05F08EEC04F043
:10087000F7D7006A016A026A8EEC04F0005001109A
:1008800002E1100E891A004A012A036A9EB0032A67
:100890000350010AF1E1022A9E90E60E025CECE3AD
:1008A000EEEC04F000EF06F0E7D7120000C0E5FF21
:1008B00005010051800A2FE103C500F002C5E8FFE1
:1008C0000050010A0FE1010E0001AA6F000E0001A5
:1008D000A26F090EA16FAA0EA06F120E0001A66FE3
:1008E000A76B19D00050020A16E1010E0001AA6F91
:1008F000000E0001A26F090EA16FBC0EA06FBE0E0C
:10090000F66E090EF76E000EF86E0900F5CFA6F030
:100910000900F5CFA7F0E4CF00F0120000C0E5FF1A
:100920000001AB511FE068A403D069B497EC05F057
:10093000006A6DB2002A0050010A14E068A003D0DA
:1009400069B0B5EC04F068A202D069B26892030EF7
:100950000001AB5D07E368A605D069A603D0A4EC4F
:1009600002F06896E4CF00F0120000C0E5FF6A6A6A
:10097000686A9F0E6B6E7B0E696E6E6A160E706EE5
:10098000006A68B6002A0050010A02E16896F8D7AA
:100990006D984BEC05F00001A86B0001AC6B030EE9
:1009A0000001AB6FE4CF00F0120012010002020060
:1009B0000040D804AAFE0100000000010902200046
:1009C00001010003140904000002000000000705F3
:1009D00001024000000705810240000000C0E5FF61
:1009E00001C0E5FFCD6A6D6A92888998FF0E006E9E
:1009F000016E0050011004E0FF0E00260122F9D71D
:100A0000E4CF01F0E4CF00F012006DB606D06D6ABD
:100A1000696A6D86010E0001AB6F0001AB51010ADE
:100A200009E16DBA07D0686A696A69806988020E4F
:100A30000001AB6F1200E8AE04D0F3CFEAFFEE5036
:100A40001200E8BC9BEF05F0E9CFF6FFF3CFF7FF0C
:100A5000F86E0900F5501200F2CFEAFFF29EA69E52
:100A6000A69CA684E9CFA9FFE4CFA8FF7AEC05F005
:100A7000A694EABEF28E120071887184718271862A
:100A8000400E04010C6F096F600E0A6F000E0B6FB1
:100A9000800E086F12000001AD6B400E0401016F63
:100AA000000E026F050E036F880E006F046B1200BC
:100AB000F2CFF6FFF29EA69EA69CE9CFA9FFA680E4
:100AC000A850F6BEF28E120012EEFEF022EEFEF0FC
:100AD000F86AA68EA69CCAEC03F016EC04F0E8AE09
:100AE00005D0F3CFEAFFE4CFEEFF1200E8BC9DEFA4
:100AF00005F01200550EA76EAA0EA76EA682A6B22A
:100B0000FED7A94A64C0F8FF63C0F7FF62C0F6FFD2
:100B10001200550EA76EAA0EA76EA6820000120044
:100B200001003E0B0000AE000000010000006D92CD
:100B300069946894120058EF05F02CEF05F000005E
:00000001FF
