:020000040000FA
:04000000BEEF05F05A
:0400080004EF06F00B
:040018000CEF06F0F3
:06002A00D9CFE5FFE1CF94
:10003000D9FF00C0E5FF01C0E5FF02C0E5FF03C036
:10004000E5FF04C0E5FF05C0E5FF020EDBCF00F0D1
:100050008B840044FE0B016E0128006E040DF450E9
:1000600000BE0408026EF3CF00F0000E0024036E01
:10007000040E0220046E034A042A03C0E9FF04C0F0
:10008000EAFF000EEF6E84C4F8FF83C4F7FF82C45A
:10009000F6FF04018051FF0A05E1E3EC05F000EFF3
:1000A00006F0A0D00401805113E1080E826F040E07
:1000B000836F000E0024036E040E0220046E034AB8
:1000C000042A03C0E9FF04C0EAFF040EEF6E8AD0E1
:1000D00004018051010A27E1036A04018151035C94
:1000E0000FE20900850E0324046E056A040E052242
:1000F00004C0E9FF05C0EAFFF5CFEFFF032AEDD703
:10010000000E0024036E040E0220046E034A042A2B
:10011000050E04018125056E03C0E9FF04C0EAFF56
:1001200005C0EFFF5FD004018051020A01E039D021
:10013000A68A036A04018151035C23E203508225ED
:10014000F66E850E0324046E056A040E052204C0B3
:10015000E9FF05C0EAFFEFCFF5FF0D000328046EAD
:10016000056A850E0426040E052204C0E9FF05C0B9
:10017000EAFFEFCFF5FF0C00D4EC05F0032A032AC9
:10018000D9D7A69A000E0024036E040E0220046E36
:10019000034A042A03C0E9FF04C0EAFF010EEF6E20
:1001A00021D004018051030A1DE1036A0401815139
:1001B000035C0AE2A688D4EC05F0A698040EF726A4
:1001C000000EF822032AF2D7000E0024036E040E5C
:1001D0000220046E034A042A03C0E9FF04C0EAFFB8
:1001E000010EEF6E000E0026040E0222004A022AC3
:1001F00000C0E9FF02C0EAFFEFCF00F0005009E0C5
:1002000004010CAD03D0880E0C6F03D0C80E04019E
:100210000C6F0150040DF45001BE0408006EF3CFC2
:1002200001F0000E0124026E040E0020036E024A4B
:10023000032A02C0E9FF03C0EAFF400EEF6E000E82
:100240000126040E002201C0E9FF00C0EAFF800E73
:10025000EF6EE4CF05F0E4CF04F0E4CF03F0E4CF99
:1002600002F0E4CF01F0E4CF00F0E4CFD9FF1200B8
:10027000D9CFE5FFE1CFD9FF00C0E5FF01C0E5FF21
:1002800002C0E5FF03C0E5FF04C0E5FF05C0E5FFD0
:1002900006C0E5FF07C0E5FF08C0E5FF020EDBCFA3
:1002A00000F0000E0401C95D02E1400EC85D05E2E8
:1002B000C8C401F0C9C402F003D0400E016E026A46
:1002C0000044FE0B036E0328040DF450036EF3CFBD
:1002D00000F0000E0024046E040E0320056E000ED4
:1002E0000024066E040E0320076E06C0E9FF07C057
:1002F000EAFFEFCF06F0FC0E061604C0E9FF05C0CA
:10030000EAFF06C0EFFF000E0024046E040E032077
:10031000056E000E0024066E040E0320076E06C054
:10032000E9FF07C0EAFFEFCF06F0030E0214061242
:1003300004C0E9FF05C0EAFF06C0EFFF000E00247D
:10034000046E040E0320056E044A052A0150066E51
:1003500004C0E9FF05C0EAFF06C0EFFF000E00265B
:10036000040E0322020E0026D8B0032A400E046EAB
:10037000050E056E00C0E9FF03C0EAFF04C0EEFFF2
:1003800005C0EFFF01500401C85F0250C95B050EB4
:100390000401C46F400EC36F800EC56F006A00C0B9
:1003A00003F0046A0250045C02E10150035C2BE29A
:1003B000C3C403F0C4C404F0C5C405F0C0C406F04F
:1003C000C1C407F0C2C408F006C0E9FF07C0F3FFCC
:1003D000085092EC05F0066E0401C02B03E3C13F08
:1003E00001D0C22B06C0E5FF03C0E9FF04C0F3FF44
:1003F0000550C9EC05F00401C32B03E3C43F01D051
:10040000C52B002ACCD7E4CF08F0E4CF07F0E4CF27
:1004100006F0E4CF05F0E4CF04F0E4CF03F0E4CF3E
:1004200002F0E4CF01F0E4CF00F0E4CFD9FF1200F6
:10043000D9CFE5FFE1CFD9FF00C0E5FF01C0E5FF5F
:1004400002C0E5FF03C0E5FF04C0E5FF05C0E5FF0E
:1004500006C0E5FF07C0E5FF08C0E5FF09C0E5FFEE
:10046000020EDBCF00F00044FE0B040DF450026ED0
:10047000F3CF00F0000E0024016E040E0220036E84
:1004800001C0E9FF03C0EAFFEFCF01F0030E011640
:100490000150056E046A000E0026040E0222004A76
:1004A000022A00C0E9FF02C0EAFFEFCF00F0016AB4
:1004B000045000120550011200500401C8270150D9
:1004C000C923050E0401C16F400EC06F800EC26FBC
:1004D000026A036A0150035C02E10050025C2CE2F4
:1004E000C3C404F0C4C405F0C5C406F0C0C407F01A
:1004F000C1C408F0C2C409F007C0E9FF08C0F3FF97
:10050000095092EC05F0076E0401C02B03E3C13FD4
:1005100001D0C22B07C0E5FF04C0E9FF05C0F3FF0F
:100520000650C9EC05F00401C32B03E3C43F01D01E
:10053000C52B024A032ACED7E4CF09F0E4CF08F056
:10054000E4CF07F0E4CF06F0E4CF05F0E4CF04F009
:10055000E4CF03F0E4CF02F0E4CF01F0E4CF00F009
:10056000E4CFD9FF120000C0E5FF01C0E5FF02C0E3
:10057000E5FF05010051800A01E064D00501035147
:10058000010A0FE1010E0401CC6F000E0401C26FDD
:100590000A0EC16F4C0EC06F120E0401C86FC96BFA
:1005A00051D005010351020A17E1010E0401CC6F7D
:1005B000000E0401C26F0A0EC16F5E0EC06F600EA6
:1005C000F66E0A0EF76E000EF86E0900F5CFC8F44D
:1005D0000900F5CFC9F436D005010351030A32E111
:1005E000010E0401CC6F05010251030DF450016EA0
:1005F000F3CF00F0026AAA0E00260A0E0122000EB6
:10060000022200C0F6FF01C0F7FF02C0F8FF090098
:10061000F5CFC0F40900F5CFC1F40900F5CFC2F45D
:10062000C0C400F0C1C401F0C2C402F000C0E9FFC0
:1006300001C0F3FF025092EC05F0006E00C0C8F458
:100640000401C96BE4CF02F0E4CF01F0E4CF00F085
:10065000120000C0E5FF01C0E5FF6438E8441F0B4D
:10066000006E0050D8A449D064B422D03C0E0401DE
:100670000015016E0140E8403F0B0D0A03E189ECD3
:1006800003F042D00401CF51010A0FE1000EE56AE8
:1006900018EC02F0E652040100AD03D0880E006FA2
:1006A00033D0C80E0401006F2FD0B1EC05F02CD070
:1006B0000F0138510CE10401CD51040A08E102C5D3
:1006C00038FF0F01385103E1030E0401CD6F04011F
:1006D000CF51020A0FE1000EE56A38EC01F0E65254
:1006E000040104AD03D0880E046F0ED0C80E0401BF
:1006F000046F0AD0B1EC05F007D064B405D0005007
:10070000E56E15EC00F0E652E4CF01F0E4CF00F026
:10071000120000C0E5FF04010451006E009E00506D
:10072000046F0051006E009E0050006F0401CF6BFB
:100730000401CC6B0401C86BC96BE9EC03F0040144
:10074000CC510BE1400E0401016F000E026F050E4B
:10075000036F840E006F046F38D0050100AF26D000
:100760000401C9510501075D04E10401C8510501F7
:10077000065D04E206C5C8F407C5C9F4000EE56AC3
:1007800038EC01F0E652020E0401CF6F400E040176
:10079000016F000E026F050E036F800E006F400E9A
:1007A000066F050E076FC80E046F0FD0010E04010F
:1007B000CF6F0401056BC80E046F400E016F400E31
:1007C000026F050E036FC80E006F6598E4CF00F04E
:1007D000120005010051600BD8A458D00151050A40
:1007E00009E1010E0401CC6F040E0401CD6F02C5B6
:1007F000CBF44CD005010151060A03E1B3EC02F041
:1008000045D005010151090A12E1010E0401CC6F26
:10081000A3EC05F002C5CEF40401CE5104E1040EB0
:100820000401CD6F33D0050E0401CD6F2FD005012B
:100830000151080A0FE1010E0401CC6F040E0401FE
:10084000C16FCE0EC06F800EC26F010E0401C86F63
:10085000C96B1CD0050101510A0A11E1010E040106
:10086000CC6F0501406B050E0401C16F400EC06FD7
:10087000800EC26F010E0401C86FC96B07D005015D
:1008800001510B0A03E1010E0401CC6F120000C0FC
:10089000E5FF0401CD51D8B444D062A406D00F01C5
:1008A00036A503D0659236956294006A65B2002A37
:1008B0000050010A01E135D062A022D00F0136A11B
:1008C0001FD0636A626A9F0E0F01376F7B0E0F01A4
:1008D000366F0F01386B160E0F01266F006A62B675
:1008E000002A0050010A02E16296F8D76598B1EC3F
:1008F00005F00401CA6B0401CE6B030E0401CD6F39
:1009000062A203D00F0136B36292030E0401CD5DE3
:1009100008E362A606D00F0136A703D029EC03F046
:100920006296E4CF00F01200B80EF66E0B0EF76E72
:10093000000EF86E0900F550056E0900F550066EC0
:10094000055002E106503BE00900F550006E090039
:10095000F550016E0900F550026E09000900F550CE
:10096000E96E0900F550EA6E090009000900F5502A
:10097000036E0900F550046E09000900F6CF07F078
:10098000F7CF08F0F8CF09F000C0F6FF01C0F7FF7D
:1009900002C0F8FF035002E1045007E00900F550DF
:1009A000EE6E0306F8E20406F9D707C0F6FF08C0AA
:1009B000F7FF09C0F8FF0506C4E20606C5D7120016
:1009C0009B8C5AEC05F0FF0E486F1F0E496FD08EBE
:1009D00094948B84310ECD6EA66A140E0F01396F7C
:1009E000800E006E040E016E026A036A026A036AD8
:1009F000005004010E6F01500F6F0401CE6B040113
:100A0000CD6B79EC05F047EC04F00401CD51050AFB
:100A1000F8E1006A016A026A47EC04F00050011034
:100A200002E1040E8B1A004A012A036A9EB0032ACF
:100A30000350010AF1E1022A9E90E60E025CECE30B
:100A4000E3EC05F000EF06F0E7D712001201000218
:100A5000FF00FF40D804AAFE0804010200010902B9
:100A60002000010100C0140904000002FFFFFF0084
:100A70000705010240000007058102400000040351
:100A80000904160352002E0042006C0061006E0043
:100A9000630068006F0074001203500069006E006C
:100AA0006700750069006E006F007E0A00820A0010
:100AB000980A000000C0E5FF01C0E5FF02C0E5FFA5
:100AC00003C0E5FFC6C400F0C7C401F000C002F0D7
:100AD00001C003F0FF0E0026012202500310F6E1D0
:100AE000E4CF03F0E4CF02F0E4CF01F0E4CF00F074
:100AF000120065B607D0656A0F01366B6586010E78
:100B00000401CD6F0401CD51010A0BE165BA09D092
:100B1000626A0F01366B0F0136813689020E0401BD
:100B2000CD6F1200E8AE04D0F3CFEAFFEE50120012
:100B3000E8BCEAEF05F0E9CFF6FFF3CFF7FFF86E78
:100B40000900F55012001E0E0F01276F400E040120
:100B50000C6F096F800E0A6F040E0B6F800E086F0A
:100B600012000401CF6B400E0401016F000E026FF2
:100B7000050E036F880E006F046B120017EEFFF076
:100B800027EEFFF0F86AA684A68294EC04F0E0EC6D
:100B900004F0E8AE05D0F3CFEAFFE4CFEEFF120099
:100BA000E8BCEAEF05F01200A684550EA76EAA0E67
:100BB000A76EA682A69412000100D20B0000D004FA
:100BC000000001000000CD6A656A94848B945AECA1
:060BD00005F00000120018
:08FFF800ACF71AF861F881F181
:00000001FF
