:020000040000FA
:1000000010EF03F059EF05F004EF06F0550EA76E60
:10001000AA0EA76EA68212000CEF06F0D9CFE5FF5C
:10002000E1CFD9FF00C0E5FF01C0E5FF02C0E5FF59
:1000300003C0E5FF04C0E5FF05C0E5FF020EDBCF0E
:1000400000F089880044FE0B016E0128006E040D4B
:10005000F45000BE0408026EF3CF00F0000E00243E
:10006000036E040E0220046E034A042A03C0E9FF53
:1000700004C0EAFF000EEF6E84C4F8FF83C4F7FFEC
:1000800082C4F6FF04018051FF0A05E181EC05F00E
:1000900000EF06F08ED00401805113E1070E826F4D
:1000A000040E836F000E0024036E040E0220046E03
:1000B000034A042A03C0E9FF04C0EAFF040EEF6EFE
:1000C00078D004018051010A27E1036A04018151BB
:1000D000035C0FE20900850E0324046E056A040E1A
:1000E000052204C0E9FF05C0EAFFF5CFEFFF032AB0
:1000F000EDD7000E0024036E040E0220046E034AA6
:10010000042A050E04018125056E03C0E9FF04C021
:10011000EAFF05C0EFFF4DD004018051020A28E13B
:10012000036A04018151035C0FE2850E0324046E0F
:10013000056A040E052204C0E9FF05C0EAFFEFCFFF
:10014000F5FF0D00032AEDD70A00840EA66E06EC1B
:1001500000F0000E0024036E040E0220046E034A19
:10016000042A03C0E9FF04C0EAFF010EEF6E21D0AC
:1001700004018051030A1DE1940EA66E036A040176
:100180008151035C08E206EC00F0400EF626000EFA
:10019000F722032AF4D7000E0024036E040E022077
:1001A000046E034A042A03C0E9FF04C0EAFF010EFB
:1001B000EF6E000E0026040E0222004A022A00C042
:1001C000E9FF02C0EAFFEFCF00F0005009E00401B0
:1001D0000CAD03D0880E0C6F03D0C80E04010C6F59
:1001E0000150040DF45001BE0408006EF3CF01F07D
:1001F000000E0124026E040E0020036E024A032A40
:1002000002C0E9FF03C0EAFF400EEF6E000E0126B8
:10021000040E002201C0E9FF00C0EAFF800EEF6E6D
:10022000E4CF05F0E4CF04F0E4CF03F0E4CF02F034
:10023000E4CF01F0E4CF00F0E4CFD9FF1200D9CF32
:10024000E5FFE1CFD9FF00C0E5FF01C0E5FF02C037
:10025000E5FF03C0E5FF04C0E5FF05C0E5FF06C0FC
:10026000E5FF07C0E5FF08C0E5FF020EDBCF00F0A9
:10027000000E0401C75D02E1400EC65D05E2C6C482
:1002800001F0C7C402F003D0400E016E026A0044C0
:10029000FE0B036E0328040DF450036EF3CF00F041
:1002A000000E0024046E040E0320056E000E0024D0
:1002B000066E040E0320076E06C0E9FF07C0EAFFC2
:1002C000EFCF06F0FC0E061604C0E9FF05C0EAFFFA
:1002D00006C0EFFF000E0024046E040E0320056E1E
:1002E000000E0024066E040E0320076E06C0E9FF10
:1002F00007C0EAFFEFCF06F0030E0214061204C097
:10030000E9FF05C0EAFF06C0EFFF000E0024046EFF
:10031000040E0320056E044A052A0150066E04C02F
:10032000E9FF05C0EAFF06C0EFFF000E0026040E3D
:100330000322020E0026D8B0032A400E046E050EDA
:10034000056E00C0E9FF03C0EAFF04C0EEFF05C070
:10035000EFFF01500401C65F0250C75B050E0401A8
:10036000C46F400EC36F800EC56F006A00C003F0FB
:10037000046A0250045C02E10150035C2BE2C3C436
:1003800003F0C4C404F0C5C405F0C0C406F0C1C481
:1003900007F0C2C408F006C0E9FF07C0F3FF085029
:1003A0001EEC05F0066E0401C02B03E3C13F01D033
:1003B000C22B06C0E5FF03C0E9FF04C0F3FF0550F0
:1003C00065EC05F00401C32B03E3C43F01D0C52B4A
:1003D000002ACCD7E4CF08F0E4CF07F0E4CF06F052
:1003E000E4CF05F0E4CF04F0E4CF03F0E4CF02F073
:1003F000E4CF01F0E4CF00F0E4CFD9FF1200D9CF71
:10040000E5FFE1CFD9FF00C0E5FF01C0E5FF02C075
:10041000E5FF03C0E5FF04C0E5FF05C0E5FF06C03A
:10042000E5FF07C0E5FF08C0E5FF09C0E5FF020ED4
:10043000DBCF00F00044FE0B040DF450026EF3CF4E
:1004400000F0000E0024016E040E0220036E01C0B5
:10045000E9FF03C0EAFFEFCF01F0030E01160150E0
:10046000056E046A000E0026040E0222004A022ACB
:1004700000C0E9FF02C0EAFFEFCF00F0016A0450BC
:1004800000120550011200500401C6270150C72375
:10049000050E0401C16F400EC06F800EC26F026A6C
:1004A000036A0150035C02E10050025C2CE2C3C409
:1004B00004F0C4C405F0C5C406F0C0C407F0C1C44C
:1004C00008F0C2C409F007C0E9FF08C0F3FF0950F3
:1004D0001EEC05F0076E0401C02B03E3C13F01D001
:1004E000C22B07C0E5FF04C0E9FF05C0F3FF0650BB
:1004F00065EC05F00401C32B03E3C43F01D0C52B19
:10050000024A032ACED7E4CF09F0E4CF08F0E4CFC3
:1005100007F0E4CF06F0E4CF05F0E4CF04F0E4CF39
:1005200003F0E4CF02F0E4CF01F0E4CF00F0E4CF39
:10053000D9FF120000C0E5FF01C0E5FF02C0E5FFE2
:1005400005010051800A01E064D005010351010A50
:100550000FE1010E0401CA6F000E0401C26F090E03
:10056000C16F1A0EC06F120E0401C66FC76B51D057
:1005700005010351020A17E1010E0401CA6F000EC2
:100580000401C26F090EC16F2C0EC06F2E0EF66EE5
:10059000090EF76E000EF86E0900F5CFC6F40900DB
:1005A000F5CFC7F436D005010351030A32E1010E3D
:1005B0000401CA6F05010251030DF450016EF3CF1F
:1005C00000F0026A780E0026090E0122000E0222B7
:1005D00000C0F6FF01C0F7FF02C0F8FF0900F5CF29
:1005E000C0F40900F5CFC1F40900F5CFC2F4C0C4CE
:1005F00000F0C1C401F0C2C402F000C0E9FF01C0B4
:10060000F3FF02501EEC05F0006E00C0C6F40401BA
:10061000C76BE4CF02F0E4CF01F0E4CF00F01200AA
:10062000006A700ED36ED3A4FED75B6B5C6B5D6B00
:1006300092988988310ECD6EA66A140E0F01626FF2
:10064000800E016E040E026E036A046A036A046A75
:10065000015004010E6F02500F6F0401CC6B0401B6
:10066000CB6B016A026A036A046A08EC05F0C1EC0C
:1006700004F0012A04E3022A02E3034A042A015097
:10068000FF0A08E10250FF0A05E103500F0A02E1E8
:10069000045004E00401CB51050AE7E10401CB5109
:1006A000050A03E0E50E006E8998016A026AC1EC52
:1006B00004F00150021002E1100E891A014A022AC8
:1006C000036A9EB0032A0350010AF1E1002A9E90BA
:1006D000E60E005CECE381EC05F000EF06F0E7D7F6
:1006E000120000C0E5FF04010451006E009E00509E
:1006F000046F0051006E009E0050006F0401CD6B2E
:100700000401CA6B0401C66BC76B2FEC04F0040133
:10071000CA510BE1400E0401016F000E026F050E7D
:10072000036F840E006F046F38D0050100AF26D030
:100730000401C7510501075D04E10401C65105012B
:10074000065D04E206C5C6F407C5C7F4000EE56AF7
:100750001FEC01F0E652020E0401CD6F400E0401C1
:10076000016F000E026F050E036F800E006F400ECA
:10077000066F050E076FC80E046F0FD0010E04013F
:10078000CD6F0401056BC80E046F400E016F400E63
:10079000026F050E036FC80E006F6098E4CF00F083
:1007A000120000C0E5FF01C0E5FF6138E8441F0BFF
:1007B000006E0050D8A447D061B422D03C0E040192
:1007C0000015016E0140E8403F0B0D0A03E171EC9A
:1007D00003F040D00401CD51010A0FE1000EE56A9B
:1007E000FFEC01F0E652040100AD03D0880E006F6B
:1007F00031D0C80E0401006F2DD04CEC05F02AD08A
:1008000063500BE10401CB51040A07E102C563FF09
:10081000635003E1030E0401CB6F0401CD51020AC2
:100820000FE1000EE56A1FEC01F0E652040104AD91
:1008300003D0880E046F0ED0C80E0401046F0AD0D6
:100840004CEC05F007D061B405D00050E56E0EEC1D
:1008500000F0E652E4CF01F0E4CF00F01200050111
:100860000051600BD8A458D00151050A09E1010ECE
:100870000401CA6F040E0401CB6F02C5C9F44CD049
:1008800005010151060A03E19AEC02F045D0050189
:100890000151090A12E1010E0401CA6F3FEC05F093
:1008A00002C5CCF40401CC5104E1040E0401CB6F69
:1008B00033D0050E0401CB6F2FD005010151080A7A
:1008C0000FE1010E0401CA6F040E0401C16FCC0ECA
:1008D000C06F800EC26F010E0401C66FC76B1CD0C3
:1008E000050101510A0A11E1010E0401CA6F050157
:1008F000406B050E0401C16F400EC06F800EC26FC9
:10090000010E0401C66FC76B07D0050101510B0A28
:1009100003E1010E0401CA6F120012010002FF0080
:10092000FF40D804AAFE07040102000109022000CA
:10093000010100C0140904000002FFFFFF000705C9
:100940000102400000070581024000000403090481
:10095000160352002E0042006C0061006E0063001E
:1009600068006F0074001203500069006E00670099
:10097000750069006E006F004C090050090066099F
:10098000000000C0E5FF0401CB511FE065A403D0C7
:1009900064B488EC05F0006A60B2002A0050010AD5
:1009A00014E065A003D064B0E8EC04F065A202D0C6
:1009B00064B26592030E0401CB5D07E365A605D022
:1009C00064A603D0D1EC03F06596E4CF00F01200EA
:1009D00000C0E5FF676A656A9F0E666E7B0E646EF7
:1009E000636A160E6A6E006A65B6002A0050010A34
:1009F00002E16596F8D760984CEC05F00401C86BED
:100A00000401CC6B030E0401CB6FE4CF00F01200A5
:100A100060B606D0606A646A6086010E0401CB6F1E
:100A20000401CB51010A09E160BA07D0656A646A22
:100A300064806488020E0401CB6F1200E8AE04D01B
:100A4000F3CFEAFFEE501200E8BC02EF00F0E9CF6E
:100A5000F6FFF3CFF7FFF86E0900F5501200F2CF62
:100A6000EAFFF29EA69EA69CA684E9CFA9FFE4CF4A
:100A7000A8FF79EC05F0A694EABEF28E12001E0ED5
:100A80006B6E400E04010C6F096F800E0A6F040E2E
:100A90000B6F800E086F12000401CD6B400E040135
:100AA000016F000E026F050E036F880E006F046B5E
:100AB0001200F2CFF6FFF29EA69EA69CE9CFA9FFF8
:100AC000A680A850F6BEF28E1200E8AE05D0F3CF95
:100AD000EAFFE4CFEEFF1200E8BC8CEF05F0120055
:100AE000FF0E006EFF0E016E002EFED7012EFCD70A
:100AF0001200550EA76EAA0EA76EA682A6B2FED74A
:100B0000A94ACD6A606A9288899870EC05F0120053
:0C0B100060926494659412002FEF05F0D1
:020000040030CA
:0E00000003285F3EFF91A5FF0FC00FE00F40E9
:00000001FF
