:020000040000FA
:10000000E3EF05F00000120004EF06F0CD6A656A28
:1000100094848B9474EC05F00CEF06F0D9CFE5FFD7
:10002000E1CFD9FF00C0E5FF01C0E5FF02C0E5FF59
:1000300003C0E5FF04C0E5FF05C0E5FF020EDBCF0E
:1000400000F08B840044FE0B016E0128006E040D4D
:10005000F45000BE0408026EF3CF00F0000E00243E
:10006000036E0D0E0220046E034A042A03C0E9FF4A
:1000700004C0EAFF000EEF6E84CDF8FF83CDF7FFDA
:1000800082CDF6FF0D018051FF0A05E106EC00F07C
:1000900000EF06F0A0D00D01805113E1090E826F30
:1000A000040E836F000E0024036E0D0E0220046EFA
:1000B000034A042A03C0E9FF04C0EAFF040EEF6EFE
:1000C0008AD00D018051010A27E1036A0D01815197
:1000D000035C0FE20900850E0324046E056A0D0E11
:1000E000052204C0E9FF05C0EAFFF5CFEFFF032AB0
:1000F000EDD7000E0024036E0D0E0220046E034A9D
:10010000042A050E0D018125056E03C0E9FF04C018
:10011000EAFF05C0EFFF5FD00D018051020A01E048
:1001200039D0A68A036A0D018151035C23E2035092
:100130008225F66E850E0324046E056A0D0E0522D7
:1001400004C0E9FF05C0EAFFEFCFF5FF0D0003286B
:10015000046E056A850E04260D0E052204C0E9FF13
:1001600005C0EAFFEFCFF5FF0C00ECEC05F0032A29
:10017000032AD9D7A69A000E0024036E0D0E022082
:10018000046E034A042A03C0E9FF04C0EAFF010E1B
:10019000EF6E21D00D018051030A1DE1036A0D01AC
:1001A0008151035C0AE2A688ECEC05F0A698040EE7
:1001B000F726000EF822032AF2D7000E0024036E61
:1001C0000D0E0220046E034A042A03C0E9FF04C096
:1001D000EAFF010EEF6E000E00260D0E0222004A0D
:1001E000022A00C0E9FF02C0EAFFEFCF00F0005092
:1001F00009E00D010CAD03D0880E0C6F03D0C80EC2
:100200000D010C6F0150040DF45001BE0408006E86
:10021000F3CF01F0000E0124026E0D0E0020036EDC
:10022000024A032A02C0E9FF03C0EAFF400EEF6E54
:10023000000E01260D0E002201C0E9FF00C0EAFFFA
:10024000800EEF6EE4CF05F0E4CF04F0E4CF03F0CE
:10025000E4CF02F0E4CF01F0E4CF00F0E4CFD9FF27
:100260001200D9CFE5FFE1CFD9FF00C0E5FF01C003
:10027000E5FF02C0E5FF03C0E5FF04C0E5FF05C0E0
:10028000E5FF06C0E5FF07C0E5FF08C0E5FF020E79
:10029000DBCF00F0000E0D01C95D02E1400EC85D2C
:1002A00005E2C8CD01F0C9CD02F003D0400E016EC9
:1002B000026A0044FE0B036E0328040DF450036E23
:1002C000F3CF00F0000E0024046E0D0E0320056E27
:1002D000000E0024066E0D0E0320076E06C0E9FF17
:1002E00007C0EAFFEFCF06F0FC0E061604C0E9FFD8
:1002F00005C0EAFF06C0EFFF000E0024046E0D0EDD
:100300000320056E000E0024066E0D0E0320076EFE
:1003100006C0E9FF07C0EAFFEFCF06F0030E0214A4
:10032000061204C0E9FF05C0EAFF06C0EFFF000E99
:100330000024046E0D0E0320056E044A052A0150A8
:10034000066E04C0E9FF05C0EAFF06C0EFFF000E1D
:1003500000260D0E0322020E0026D8B0032A400EFE
:10036000046E050E056E00C0E9FF03C0EAFF04C07D
:10037000EEFF05C0EFFF01500D01C85F0250C95BE1
:10038000050E0D01C46F400EC36F800EC56F006A6D
:1003900000C003F0046A0250045C02E10150035CF7
:1003A0002BE2C3CD03F0C4CD04F0C5CD05F0C0CD24
:1003B00006F0C1CD07F0C2CD08F006C0E9FF07C0C6
:1003C000F3FF0850ACEC05F0066E0D01C02B03E303
:1003D000C13F01D0C22B06C0E5FF03C0E9FF04C046
:1003E000F3FF0550D8EC05F00D01C32B03E3C43F28
:1003F00001D0C52B002ACCD7E4CF08F0E4CF07F01A
:10040000E4CF06F0E4CF05F0E4CF04F0E4CF03F04E
:10041000E4CF02F0E4CF01F0E4CF00F0E4CFD9FF65
:100420001200D9CFE5FFE1CFD9FF00C0E5FF01C041
:10043000E5FF02C0E5FF03C0E5FF04C0E5FF05C01E
:10044000E5FF06C0E5FF07C0E5FF08C0E5FF09C0FE
:10045000E5FF020EDBCF00F00044FE0B040DF4506C
:10046000026EF3CF00F0000E0024016E0D0E02208C
:10047000036E01C0E9FF03C0EAFFEFCF01F0030EF6
:1004800001160150056E046A000E00260D0E0222B0
:10049000004A022A00C0E9FF02C0EAFFEFCF00F0E5
:1004A000016A045000120550011200500D01C827C6
:1004B0000150C923050E0D01C16F400EC06F800EA3
:1004C000C26F026A036A0150035C02E10050025CE1
:1004D0002CE2C3CD04F0C4CD05F0C5CD06F0C0CDEF
:1004E00007F0C1CD08F0C2CD09F007C0E9FF08C090
:1004F000F3FF0950ACEC05F0076E0D01C02B03E3D0
:10050000C13F01D0C22B07C0E5FF04C0E9FF05C011
:10051000F3FF0650D8EC05F00D01C32B03E3C43FF5
:1005200001D0C52B024A032ACED7E4CF09F0E4CF8D
:1005300008F0E4CF07F0E4CF06F0E4CF05F0E4CF15
:1005400004F0E4CF03F0E4CF02F0E4CF01F0E4CF15
:1005500000F0E4CFD9FF120000C0E5FF01C0E5FFC5
:1005600002C0E5FF05010051800A01E064D00501E9
:100570000351010A0FE1010E0D01CC6F000E0D01B8
:10058000C26F0A0EC16F800EC06F120E0D01C86FD0
:10059000C96B51D005010351020A17E1010E0D018B
:1005A000CC6F000E0D01C26F0A0EC16F920EC06FAC
:1005B000940EF66E0A0EF76E000EF86E0900F5CF77
:1005C000C8FD0900F5CFC9FD36D005010351030A66
:1005D00032E1010E0D01CC6F05010251030DF45003
:1005E000016EF3CF00F0026ADE0E00260A0E012231
:1005F000000E022200C0F6FF01C0F7FF02C0F8FFA4
:100600000900F5CFC0FD0900F5CFC1FD0900F5CF08
:10061000C2FDC0CD00F0C1CD01F0C2CD02F000C0DE
:10062000E9FF01C0F3FF0250ACEC05F0006E00C022
:10063000C8FD0D01C96BE4CF02F0E4CF01F0E4CFB7
:1006400000F01200006A700ED36ED3A4FED7FF0E26
:10065000486F496FD08E94948B84310ECD6EA66A0C
:10066000140E0F01396F800E016E0D0E026E036ABB
:10067000046A036A046A01500D010E6F02500F6F85
:100680000D01CE6B0D01CD6B016A026A036A046A2B
:1006900093EC05F0A7EC04F0012A04E3022A02E33C
:1006A000034A042A0150FF0A08E10250FF0A05E14B
:1006B00003500F0A02E1045004E00D01CD51050A78
:1006C000E7E10D01CD51050A03E0E50E006E8B94C4
:1006D000056A066A0150021003100410D8A4A7ECA2
:1006E00004F00550061002E1040E8B1A054A062A92
:1006F000076A9EB0072A0750010AECE1002A9E9083
:10070000E60E005CE7E306EC00F000EF06F0E2D74F
:10071000120000C0E5FF01C0E5FF6438E8441F0B8C
:10072000006E0050D8A449D064B422D03C0E0D0114
:100730000015016E0140E8403F0B0D0A03E1E9ECB2
:1007400003F042D00D01CF51010A0FE1000EE56A1E
:1007500011EC02F0E6520D0100AD03D0880E006FDF
:1007600033D0C80E0D01006F2FD0CBEC05F02CD08C
:100770000F0138510CE10D01CD51040A08E102C509
:1007800038FF0F01385103E1030E0D01CD6F0D014C
:10079000CF51020A0FE1000EE56A31EC01F0E6529A
:1007A0000D0104AD03D0880E046F0ED0C80E0D01EC
:1007B000046F0AD0CBEC05F007D064B405D000502C
:1007C000E56E0EEC00F0E652E4CF01F0E4CF00F06D
:1007D000120000C0E5FF0D010451006E009E0050A4
:1007E000046F0051006E009E0050006F0D01CF6B32
:1007F0000D01CC6B0D01C86BC96B49EC04F00D0108
:10080000CC510BE1400E0D01016F000E026F050E81
:10081000036F840E006F046F38D0050100AF26D03F
:100820000D01C9510501075D04E10D01C851050124
:10083000065D04E206C5C8FD07C5C9FD000EE56AF0
:1008400031EC01F0E652020E0D01CF6F400E0D01AA
:10085000016F000E026F050E036F800E006F400ED9
:10086000066F050E076FC80E046F0FD0010E0D0145
:10087000CF6F0D01056BC80E046F400E016F400E67
:10088000026F050E036FC80E006F6598E4CF00F08D
:10089000120005010051600BD8A458D00151050A7F
:1008A00009E1010E0D01CC6F040E0D01CD6F02C5E3
:1008B000CBFD4CD005010151060A03E1ACEC02F07E
:1008C00045D005010151090A12E1010E0D01CC6F5D
:1008D000BDEC05F002C5CEFD0D01CE5104E1040EC4
:1008E0000D01CD6F33D0050E0D01CD6F2FD0050159
:1008F0000151080A0FE1010E0D01CC6F0D0E0D0123
:10090000C16FCE0EC06F800EC26F010E0D01C86F99
:10091000C96B1CD0050101510A0A11E1010E0D013C
:10092000CC6F0501406B050E0D01C16F400EC06F0D
:10093000800EC26F010E0D01C86FC96B07D0050193
:1009400001510B0A03E1010E0D01CC6F120000C032
:10095000E5FF0D01CD51D8B444D062A406D00F01FB
:1009600036A503D0659236956294006A65B2002A76
:100970000050010A01E135D062A022D00F0136A15A
:100980001FD0636A626A9F0E0F01376F7B0E0F01E3
:10099000366F0F01386B160E0F01266F006A62B6B4
:1009A000002A0050010A02E16296F8D76598CBEC64
:1009B00005F00D01CA6B0D01CE6B030E0D01CD6F5D
:1009C00062A203D00F0136B36292030E0D01CD5D1A
:1009D00008E362A606D00F0136A703D089EC03F026
:1009E0006296E4CF00F01200E80EF66E0B0EF76E82
:1009F000000EF86E0900F550056E0900F550066E00
:100A0000055002E106503BE00900F550006E090078
:100A1000F550016E0900F550026E09000900F5500D
:100A2000E96E0900F550EA6E090009000900F55069
:100A3000036E0900F550046E09000900F6CF07F0B7
:100A4000F7CF08F0F8CF09F000C0F6FF01C0F7FFBC
:100A500002C0F8FF035002E1045007E00900F5501E
:100A6000EE6E0306F8E20406F9D707C0F6FF08C0E9
:100A7000F7FF09C0F8FF0506C4E20606C5D7120055
:100A800012010002FF00FF40D804AAFE090401027F
:100A9000000109022000010100C014090400000245
:100AA000FFFFFF000705010240000007058102402B
:100AB000000004030904160352002E0042006C00DB
:100AC00061006E00630068006F0074001203500044
:100AD00069006E006700750069006E006F00B20A61
:100AE00000B60A00CC0A000000C0E5FF01C0E5FF27
:100AF00002C0E5FF03C0E5FFC6CD00F0C7CD01F0A1
:100B000000C002F001C003F0FF0E002601220250D7
:100B10000310F6E1E4CF03F0E4CF02F0E4CF01F0FC
:100B2000E4CF00F0120065B607D0656A0F01366B9E
:100B30006586010E0D01CD6F0D01CD51010A0BE14E
:100B400065BA09D0626A0F01366B0F0136813689AA
:100B5000020E0D01CD6F1200E8AE04D0F3CFEAFF14
:100B6000EE501200E8BC03EF00F0E9CFF6FFF3CF40
:100B7000F7FFF86E0900F55012001E0E0F01276FE7
:100B8000400E0D010C6F096F800E0A6F0D0E0B6F7A
:100B9000800E086F12000D01CF6B400E0D01016F2A
:100BA000000E026F050E036F880E006F046B1200BB
:100BB000E8AE05D0F3CFEAFFE4CFEEFF1200E8BCC9
:100BC00003EF00F0120017EEFFF027EEFFF0F86AD7
:100BD000F4EC04F022EC03F0A684550EA76EAA0EE6
:100BE000A76EA682A6941200010004000000D00D9A
:060BF000000001000000FE
:020000040001F9
:08FFF800ACF71DFF61F880F178
:00000001FF
