:020000040000FA
:0400080010EF10F0F5
:0800180000EF20F0FFFFFFFFE5
:10002000FFFFFFFFFFFFFFFFFFFFFFFFFFFFFFFFE0
:10003000FFFFFFFFFFFFFFFFFFFFFFFFFFFFFFFFD0
:10004000FFFFFFFFFFFFFFFFFFFFFFFFFFFFFFFFC0
:10005000FFFFFFFFFFFFFFFFFFFFFFFFFFFFFFFFB0
:10006000FFFFFFFFFFFFFFFFFFFFFFFFFFFFFFFFA0
:0A007000FFFFFFFFFFFFFFFFFFFF90
:10200000004C2F00B02F00423000E8300084310037
:102010002032005C32001A20000013EF2CF0120076
:10202000D8CFE5FFE0CFE5FFE56EF3CFE5FFF4CFD6
:10203000E5FFE9CFE5FFEACFE5FFFACFE5FFFBCF0C
:10204000E5FFE4CFFBFFE4CFFAFFE4CFEAFFE4CF04
:10205000E9FFE4CFF4FFE4CFF3FFE450E4CFE0FF87
:10206000E4CFD8FF100000C0E5FF01C0E5FF02C0CB
:10207000E5FF03C0E5FF04C0E5FF05C0E5FF06C0BE
:10208000E5FF07C0E5FF08C0E5FF09C0E5FF0AC09E
:10209000E5FF0BC0E5FF0CC0E5FF0DC0E5FF0EC07E
:1020A000E5FF0FC0E5FF03012851D8B4DBD13AECBE
:1020B0002CF0006EF3CF01F0F4CF02F0E9CF03F083
:1020C0000201A751005C046EA8510158056EA95188
:1020D0000258066EAA510358076E24C308F025C3A0
:1020E00009F0E86A030125BFFF0E0A6E075C08E1EC
:1020F0000A50065C05E10950055C02E10850045CE9
:10210000D8A0B0D11BC304F01CC305F01DC306F05A
:1021100004C0E9FF05C0F3FF06502FEC00F0046E89
:10212000F3CF05F0F4CF06F0E9CF07F01EC308F0B7
:102130001FC309F020C30AF008C0E9FF09C0F3FF7C
:102140000A502FEC00F0086EF3CF09F0F4CF0AF03C
:10215000E9CF0BF00750E56E0650E56E0550E56ED1
:102160000450E56E0B50E56E0A50E56E0950E56EC1
:102170000850E56ED0EC20F0086EF3CF09F0F4CFF4
:102180000AF0E9CF0BF0080EE1260B50E56E0A507D
:10219000E56E0950E56E0850E56E0201BE51E56E30
:1021A000BD51E56EBC51E56EBB51E56E1FEC14F000
:1021B0000C6EF3CF0DF0F4CF0EF0E9CF0FF0080E58
:1021C000E1260F50E56E0E50E56E0D50E56E0C5099
:1021D000E56E0201AE51E56EAD51E56EAC51E56EB6
:1021E000AB51E56E53EC12F00201AB6FF3CFACF2E2
:1021F000F4CFADF2E9CFAEF2080EE1260201B25102
:10220000E56EB151E56EB051E56EAF51E56E02017C
:10221000AE51E56EAD51E56EAC51E56EAB51E56E7C
:102220007AEC21F00C6E080EE1260C5009E0AFC2EA
:10223000ABF2B0C2ACF2B1C2ADF2B2C2AEF221D0DA
:102240000201B651E56EB551E56EB451E56EB3517C
:10225000E56E0201AE51E56EAD51E56EAC51E56E35
:10226000AB51E56E0AEC22F00C6E080EE1260C5024
:1022700008E0B3C2ABF2B4C2ACF2B5C2ADF2B6C2C2
:10228000AEF20201BA51E56EB951E56EB851E56E94
:10229000B751E56E0750E56E0650E56E0550E56EE8
:1022A0000450E56ED0EC20F00C6EF3CF0DF0F4CFBF
:1022B0000EF0E9CF0FF0080EE1260B50E56E0A5044
:1022C000E56E0950E56E0850E56E0201C251E56EFB
:1022D000C151E56EC051E56EBF51E56E1FEC14F0C3
:1022E000086EF3CF09F0F4CF0AF0E9CF0BF0080E37
:1022F000E1260201AE51E56EAD51E56EAC51E56EE1
:10230000AB51E56E0B50E56E0A50E56E0950E56E77
:102310000850E56E53EC12F0086EF3CF09F0F4CFDD
:102320000AF0E9CF0BF0080EE1260F50E56E0E50D3
:10233000E56E0D50E56E0C50E56E0201C651E56E7E
:10234000C551E56EC451E56EC351E56E1FEC14F046
:102350000C6EF3CF0DF0F4CF0EF0E9CF0FF0080EB6
:10236000E1260F50E56E0E50E56E0D50E56E0C50F7
:10237000E56E0B50E56E0A50E56E0950E56E0850AB
:10238000E56ED0EC20F0086EF3CF09F0F4CF0AF040
:10239000E9CF0BF0080EE1260201B251E56EB15112
:1023A000E56EB051E56EAF51E56E0B50E56E0A502B
:1023B000E56E0950E56E0850E56E7AEC21F00C6E82
:1023C000080EE1260C5009E0AFC208F0B0C209F0D7
:1023D000B1C20AF0B2C20BF020D00201B651E56ED4
:1023E000B551E56EB451E56EB351E56E0B50E56E37
:1023F0000A50E56E0950E56E0850E56E0AEC22F0D1
:102400000C6E080EE1260C5008E0B3C208F0B4C20E
:1024100009F0B5C20AF0B6C20BF018C30CF019C32C
:102420000DF01AC30EF008C0E5FF09C0F4FF0AC0A2
:10243000F6FF0BC0F7FF0CC0E9FF0DC0F3FF0E5015
:10244000E6EC2BF004C0B7F205C0B8F206C0B9F252
:1024500007C0BAF200C0A7F201C0A8F202C0A9F2F8
:1024600003C0AAF2E4CF0FF0E4CF0EF0E4CF0DF0FA
:10247000E4CF0CF0E4CF0BF0E4CF0AF0E4CF09F0A6
:10248000E4CF08F0E4CF07F0E4CF06F0E4CF05F0A6
:10249000E4CF04F0E4CF03F0E4CF02F0E4CF01F0A6
:1024A000E4CF00F01200D9CFE5FFE1CFD9FF00C0A3
:1024B000E5FF01C0E5FF02C0E5FF03C0E5FF04C082
:1024C000E5FF05C0E5FF06C0E5FF07C0E5FF08C062
:1024D000E5FF09C0E5FF0AC0E5FF0BC0E5FF0CC042
:1024E000E5FF0DC0E5FF0EC0E5FF0FC0E5FF10C022
:1024F000E5FF020EDBCF00F0030EDBCF01F0040E90
:10250000DBCF02F0050EDBCF03F0060EDBCF04F0CD
:10251000070EDBCF05F0080EDBCF06F0090EDBCF90
:1025200007F0086A096A0A6A0B6A00500301106F13
:102530000150116F0250126F0350136F04500301CA
:10254000146F0550156F0650166F0750176F030173
:10255000105111111211131109E117C3E9FF16C32C
:10256000F4FF15C3F3FF0301145144D103011451C7
:1025700015111611171109E113C3E9FF12C3F4FF76
:1025800011C3F3FF0301105135D103011235133587
:10259000006E016A0136026A036A016A026A036A0E
:1025A000030116351735026E190F046E000E032055
:1025B000800FF36E0150800FF35C02E10050045C69
:1025C00009E213C3E9FF12C3F4FF11C3F3FF0301D0
:1025D000105110D10050190F046E000E0120800F11
:1025E000F36E0350800FF35C02E10250045C09E2D9
:1025F00017C3E9FF16C3F4FF15C3F3FF030114511A
:10260000F9D003011051046E1151056E7F0E1215A1
:10261000066E076A068E030114510C6E15510D6E7D
:102620007F0E16150E6E0F6A0E8E03011351800B6E
:10263000E844106E10500AE0071E061E051E046CCA
:1026400005E1052A03E1062AD8B4072A0301175138
:10265000800BE844106E10500AE00F1E0E1E0D1E77
:102660000C6C05E10D2A03E10E2AD8B40F2A0350A1
:10267000800FF36E0150800FF35C02E10050025CAA
:102680001BE20250005C106E03500158105032E003
:102690000BE6E86CD8900FBED8800F320E320D32A8
:1026A0000C32010FF8E326D0D8900C360D360E36DA
:1026B0000F36010FFAE31ED00050025C106E01507D
:1026C0000358105013E00BE6E86CD89007BED88092
:1026D0000732063205320432010FF8E307D0D890F2
:1026E0000436053606360736010FFAE302C000F05D
:1026F00003C001F00C5004260D5005220E50062296
:102700000F500722D88007AED89010E3071E061E90
:10271000051E046C05E1052A03E1062AD8B4072A40
:10272000086A096A0A6A800E0B6E0AD00450051006
:102730000610071005E1E96AF46AF36AE86A5AD0FC
:10274000045006500C6E07500D6E0CBE0BD00D5091
:1027500009E104500426053606360736FF0E00262A
:102760000122EED70450026E0550036E06500C6E27
:1027700007500D6E10E004A006D0020E0426000ED5
:1027800005220622072207340732063205320432B8
:10279000004A012AE7D70250046E0350056E7F0EEF
:1027A0000C14066E0D50076EE86A013000300F6E93
:1027B0000E6A0E320C6A0C50081209120E500A12E0
:1027C0000F500B12045008120550091206500A123D
:1027D00007500B1208500301106F0950116F0A5077
:1027E000126F0B50136F13C3E9FF12C3F4FF11C331
:1027F000F3FF1051E4CF10F0E4CF0FF0E4CF0EF070
:10280000E4CF0DF0E4CF0CF0E4CF0BF0E4CF0AF00E
:10281000E4CF09F0E4CF08F0E4CF07F0E4CF06F00E
:10282000E4CF05F0E4CF04F0E4CF03F0E4CF02F00E
:10283000E4CF01F0E4CF00F0E4CFD9FF1200D9CF0C
:10284000E5FFE1CFD9FF00C0E5FF01C0E5FF02C011
:10285000E5FF03C0E5FF04C0E5FF05C0E5FF06C0D6
:10286000E5FF07C0E5FF08C0E5FF09C0E5FF0AC0B6
:10287000E5FF0BC0E5FF0CC0E5FF0EC0E5FF0FC094
:10288000E5FF020EDBCF00F0030EDBCF01F0040EFC
:10289000DBCF02F0050EDBCF03F0060EDBCF04F03A
:1028A000070EDBCF05F0080EDBCF06F0090EDBCFFD
:1028B00007F000500201E76F0150E86F0250E96F26
:1028C0000350EA6F04500201EB6F0550EC6F0650A5
:1028D000ED6F0750EE6F0201E751E811E911EA11BF
:1028E00006E00201EB51EC11ED11EE1105E1E96A90
:1028F000F46AF36AE86A4CD10201EA51800BE844B9
:10290000006E0201EE51800BE844001A0201E93525
:10291000EA35016E036A046A026A820E0126FF0E1E
:102920000222032204220201ED35EE35036E046A11
:1029300001C007F002C008F0075003260850042227
:102940000350016E0450026E0201E751036EE8511C
:10295000046E7F0EE915056E058E0350E76F045077
:10296000E86F0550E96FEA6B0201EB51036EEC5121
:10297000046E7F0EED15056E058E0350EB6F04504F
:10298000EC6F0550ED6FEE6B0201E851036EE951FB
:10299000046EEA51056E0201EC51076EED51086EAE
:1029A000EE51E56AE56E0850E56E0750E56EE56AA2
:1029B0000550E56E0450E56E0350E56E25EC00F021
:1029C000036EF3CF04F0F4CF05F0E9CF06F0080E64
:1029D000E1260201E751076E0201EC510B6EED5149
:1029E0000C6EEE51E56AE56E0C50E56E0B50E56E2F
:1029F000E56AE56AE56A0750E56E25EC00F0F3CF7D
:102A000008F0F4CF09F0E9CF0AF0080EE1260850EB
:102A1000076E0950086E0A50096E0A6A07500326AD
:102A200008500422095005220A5006220201EB51E7
:102A3000076E0201E8510B6EE9510C6EEA51E56A2E
:102A4000E56E0C50E56E0B50E56EE56AE56AE56AE9
:102A50000750E56E25EC00F0F3CF08F0F4CF09F055
:102A6000E9CF0AF0080EE1260850076E0950086EFB
:102A70000A50096E0A6A07500326085004220950BA
:102A800005220A500622400E0326000E04220522CB
:102A9000062206AE0ED0400E0326000E04220522AA
:102AA00006220450036E0550046E0650056E066A39
:102AB00011D003340434036E046A04360550E8442C
:102AC000FE0B041205340634056E066A0636FF0E48
:102AD00001260222059E0250800F7F0F02E1000EA8
:102AE000015C19E3005006E0076A086A096A800E73
:102AF0000A6E04D0076A086A096A0A6A098E7F0E9C
:102B00000A1207500201E76F0850E86F0950E96F99
:102B10000A50EA6F35D0D88002AED89006E30201A1
:102B2000E76BE86BE96BEA6B2BD0005006E0006ABC
:102B3000076A086A800E096E04D0006A076A086A8C
:102B4000096AE86A023001300F6E0E6A0E320C6AB2
:102B50000C50001207120E5008120F5009120050AC
:102B600003120750041208500512095006120350B0
:102B70000201E76F0450E86F0550E96F0650EA6FF5
:102B8000EAC2E9FFE9C2F4FFE8C2F3FF0201E7513C
:102B9000E4CF0FF0E4CF0EF0E4CF0CF0E4CF0BF075
:102BA000E4CF0AF0E4CF09F0E4CF08F0E4CF07F077
:102BB000E4CF06F0E4CF05F0E4CF04F0E4CF03F077
:102BC000E4CF02F0E4CF01F0E4CF00F0E4CFD9FF8E
:102BD0001200D9CFE5FFE1CFD9FF00C0E5FF01C06A
:102BE000E5FF02C0E5FF03C0E5FF04C0E5FF05C047
:102BF000E5FF06C0E5FF07C0E5FF08C0E5FF09C027
:102C0000E5FF0AC0E5FF0BC0E5FF0CC0E5FF0DC006
:102C1000E5FF0EC0E5FF0FC0E5FF10C0E5FF11C0E6
:102C2000E5FF12C0E5FF13C0E5FF14C0E5FF15C0C6
:102C3000E5FF16C0E5FF020EDBCF00F0030EDBCF91
:102C400001F0040EDBCF02F0050EDBCF03F0060E21
:102C5000DBCF04F0070EDBCF05F0080EDBCF06F06C
:102C6000090EDBCF07F000500201F36F0150F46F43
:102C70000250F56F0350F66F04500201F76F0550D4
:102C8000F86F0650F96F0750FA6F0201F551026EA6
:102C9000F651036E02340334006E016A0136026A93
:102CA000036A016A026A036A0201F951046EFA5169
:102CB000056E0434053400C006F0076A065C026E37
:102CC00003500758036E0250006E0350016E7E0ED3
:102CD0000026D8B0012A0201F651800BE844026EAA
:102CE0000201FA51800BE844021AF751F811F91168
:102CF000FA110EE1F76BF86BC00EF96F7F0EFA6FE9
:102D0000FAC2E9FFF9C2F4FFF8C2F3FFF751EDD0C0
:102D10000201F351F411F511F61105E1E96AF46AC3
:102D2000F36AE86AE2D00201F351036EF451046ED3
:102D3000F551056EF651059E066A058E0201F751A2
:102D4000076EF851086EF951096EFA51099E0A6A28
:102D5000098E0650800FF36E0A50800FF35C08E175
:102D60000950055C05E10850045C02E10750035C72
:102D700008E203500326043605360636FF0E002609
:102D800001220B6A0C6A0D6A010E0E6E0F6A106A40
:102D9000116A126A0B500C100D100E1037E006501D
:102DA000800FF36E0A50800FF35C08E10950055C58
:102DB00005E10850045C02E10750035C1CE30F507E
:102DC000136E1050146E1150156E1250166E0B507B
:102DD00013100F6E0C501410106E0D501510116E54
:102DE0000E501610126E0750035E0850045A095018
:102DF000055A0A50065A035003260436053606368D
:102E0000D8900E320D320C320B32C4D70F2A04E3A5
:102E1000102A02E3114A122A004A012A12341232FD
:102E2000113210320F321150056E7F0E0514116EE3
:102E30000150800F7F0F02E1000E005C19E3025089
:102E400006E0036A046A056A800E066E04D0036A0F
:102E5000046A056A066A058E7F0E06120350020197
:102E6000F36F0450F46F0550F56F0650F66F35D0D0
:102E7000D88001AED89006E30201F36BF46BF56BDA
:102E8000F66B2BD0025006E0026A036A046A800ED9
:102E9000056E04D0026A036A046A056AE86A0130B2
:102EA00000300B6E0A6A0A32086A085002120312D6
:102EB0000A5004120B5005120F5002121050031248
:102EC000115004121250051202500201F36F035008
:102ED000F46F0450F56F0550F66FF6C2E9FFF5C2C6
:102EE000F4FFF4C2F3FF0201F351E4CF16F0E4CF94
:102EF00015F0E4CF14F0E4CF13F0E4CF12F0E4CFF8
:102F000011F0E4CF10F0E4CF0FF0E4CF0EF0E4CFF7
:102F10000DF0E4CF0CF0E4CF0BF0E4CF0AF0E4CFF7
:102F200009F0E4CF08F0E4CF07F0E4CF06F0E4CFF7
:102F300005F0E4CF04F0E4CF03F0E4CF02F0E4CFF7
:102F400001F0E4CF00F0E4CFD9FF1200120100023B
:102F5000FF00FF08D804AAFE0001010203030902D2
:102F60001200010104C0000904000000FFFFFF047B
:102F700009022000010205C0000904000002FFFF51
:102F8000FF0507050102400000070582024000001E
:102F900009022000010304C0000904000002FFFF31
:102FA000FF060705010240000007058202400000FD
:102FB0005E2F00702F00902F0000040309042603E9
:102FC0004A00650061006E002D0050006900650038
:102FD00072007200650020004D0041004E00440068
:102FE0004F004E002203500069006E00670075001C
:102FF00069006E006F002000500072006F006A00D0
:103000006500630074000403310010034400650090
:103010006600610075006C0074000C0346006C00D3
:103020006100730068001C03500069006E006700B7
:10303000750069006E006F00200061007000700074
:103040006C00BA2F00BE2F00E42F000630000A30BB
:10305000001A3000263000002E00001E20001E2026
:10306000001E20001E20001E20001E20001E20002A
:103070001E20001E20001E20001E20001E20001EFC
:1030800020001E20001E20002E00003A00004200FA
:10309000001E20001E20001E20001E20001E2000FA
:1030A0001E20001E20001E20001E20001E20001ECC
:1030B00020001E20001E20002E0000DE5800E058D8
:1030C000001E20001E20001E20001E20001E2000CA
:1030D0001E20001E20001E20001E20001E20001E9C
:1030E00020001E20001E200058300058300088307C
:1030F00000B830003200001E20001E20001E2000FC
:103100001E20001E20001E20001E20001E20001E6B
:1031100020001E20001E20001E20001E20001E2059
:10312000001E20003200001E20004600001E20006D
:103130001E20001E20001E20001E20001E20001E3B
:1031400020001E20001E20001E20001E20001E2029
:10315000001E20003200001E2000E458001E200047
:103160001E20001E20001E20001E20001E20001E0B
:1031700020001E20001E20001E20001E20001E20F9
:10318000001E2000F43000F43000243100543100DF
:103190002E00001E20001E20001E20001E20001EEB
:1031A00020001E20001E20001E20001E20001E20C9
:1031B000001E20001E20001E20001E20001E2000D9
:1031C0002E00003E00001E20001E20001E20001EBB
:1031D00020001E20001E20001E20001E20001E2099
:1031E000001E20001E20001E20001E20001E2000A9
:1031F0002E0000E258001E20001E20001E20001E8F
:1032000020001E20001E20001E20001E20001E2068
:10321000001E20001E20001E20001E20001E200078
:10322000903100903100C03100F031003600001EB6
:1032300020001E20001E20001E20001E20001E2038
:10324000001E20001E20001E20001E20001E200048
:103250001E20001E20001E20001E20002C32002CEC
:1032600032002C32002C320001020306127A0000D8
:1032700048E8010090D0030020A1070040420F0061
:1032800080841E0000093D0000127A00010204083B
:103290001020408040800102040102040820100038
:1032A000010101010101010102020202020000000C
:1032B00000000000D9CFE5FFE1CFD9FF00C0E5FF56
:1032C00001C0E5FF02C0E5FF03C0E5FF04C0E5FF64
:1032D00005C0E5FF06C0E5FF07C0E5FF08C0E5FF44
:1032E000020EDBCF00F0030EDBCF01F0040EDBCFCC
:1032F00002F0050EDBCF03F0060EDBCF04F0070E65
:10330000DBCF05F0080EDBCF06F0090EDBCF07F0B0
:103310000750E56E0650E56E0550E56E0450E56E0B
:103320000350E56E0250E56E0150E56E0050E56E0B
:103330000AEC22F0086E080EE1260850D8B4DAD064
:1033400000C0B3F201C0B4F202C0B5F203C0B6F2DD
:1033500004C0AFF205C0B0F206C0B1F207C0B2F2CD
:1033600003012851D8B4C6D018C300F019C301F026
:103370001AC302F000C0E9FF01C0F3FF02502FECB6
:1033800000F0006EF3CF01F0F4CF02F0E9CF03F0CC
:103390000201B251E56EB151E56EB051E56EAF512B
:1033A000E56E0350E56E0250E56E0150E56E00508B
:1033B000E56E7AEC21F0006E080EE126005016E072
:1033C00018C300F019C301F01AC302F0AFC2E5FF41
:1033D000B0C2F4FFB1C2F6FFB2C2F7FF00C0E9FF0E
:1033E00001C0F3FF0250E6EC2BF041D018C300F00F
:1033F00019C301F01AC302F000C0E9FF01C0F3FFD6
:1034000002502FEC00F0006EF3CF01F0F4CF02F089
:10341000E9CF03F00201B651E56EB551E56EB45146
:10342000E56EB351E56E0350E56E0250E56E015056
:10343000E56E0050E56E0AEC22F0006E080EE12603
:10344000005015E018C300F019C301F01AC302F0D0
:10345000B3C2E5FFB4C2F4FFB5C2F6FFB6C2F7FFD0
:1034600000C0E9FF01C0F3FF0250E6EC2BF00201BF
:10347000B251E56EB151E56EB051E56EAF51E56EFA
:103480000201AE51E56EAD51E56EAC51E56EAB514A
:10349000E56E7AEC21F0006E080EE126005009E09E
:1034A000AFC2ABF2B0C2ACF2B1C2ADF2B2C2AEF2D8
:1034B00021D00201B651E56EB551E56EB451E56E0D
:1034C000B351E56E0201AE51E56EAD51E56EAC5102
:1034D000E56EAB51E56E0AEC22F0006E080EE126B7
:1034E000005008E0B3C2ABF2B4C2ACF2B5C2ADF268
:1034F000B6C2AEF2E4CF08F0E4CF07F0E4CF06F0B6
:10350000E4CF05F0E4CF04F0E4CF03F0E4CF02F021
:10351000E4CF01F0E4CF00F0E4CFD9FF1200D9CF1F
:10352000E5FFE1CFD9FF00C0E5FF01C0E5FF02C024
:10353000E5FF03C0E5FF020EDBCF00F0030EDBCF9B
:1035400001F001500CE1630E0024026E036A020ECA
:10355000032202C0E9FF03C0EAFFEF6A0CD0630E4A
:103560000024026E036A020E032202C0E9FF03C0B8
:10357000EAFF010EEF6E005001E164D00050010A35
:1035800001E16AD00050020A01E16ED00050030A46
:1035900001E173D00050090A39E000500A0A01E144
:1035A0003ED000500B0A01E144D000500D0A01E169
:1035B0006DD000500E0A01E19AD000500F0A01E1CF
:1035C000A0D00050100A01E1ADD00050120A01E174
:1035D0007BD00050130A01E181D00050160A01E1AE
:1035E00069D00050170A01E194D00050180A01E197
:1035F000A3D00050190A01E1B2D000501A0A01E12B
:10360000A4D000501C0A01E14BD0B2D00150010BF4
:10361000E838F46EF250EF0BF410F26EA9D00150BE
:10362000010BE838E840F46EF050F70BF410F06E40
:103630009FD00150010BE838F46EF050EF0BF410FE
:10364000F06E96D00150010BE838E844F46EF25069
:10365000DF0BF410F26E8CD00150010BF46E9D5014
:10366000FE0BF4109D6E84D00150010BE844F46E03
:103670009D50FD0BF4109D6E7BD00150010BE84472
:10368000F46EA050FD0BF410A06E72D00150010B2F
:10369000E838E840F46EF250F70BF410F26E68D0A0
:1036A0000150010BE838E844F46EA050DF0BF41031
:1036B000A06E5ED00150010BE840E840F46E9D50D2
:1036C000BF0BF4109D6E54D00150010BE838E84454
:1036D000F46E9D50DF0BF4109D6E4AD00150010B2B
:1036E000E838F46E9D50EF0BF4109D6E41D0015000
:1036F000010BE844E844F46E9D50FB0BF4109D6E02
:1037000037D00150010BF46EA050FE0BF410A06EE8
:103710002FD00150010BE840F46EA0507F0BF41045
:10372000A06E26D00150010BE840E840F46EA05096
:10373000BF0BF410A06E1CD00150010BE838F46EE2
:10374000A050EF0BF410A06E13D00150010BE8381D
:10375000E840F46EA050F70BF410A06E09D00150B1
:10376000010BE844E844F46EA050FB0BF410A06E8B
:10377000E4CF03F0E4CF02F0E4CF01F0E4CF00F0B7
:10378000E4CFD9FF1200D9CFE5FFE1CFD9FF00C0C8
:10379000E5FF01C0E5FF02C0E5FF03C0E5FF04C08F
:1037A000E5FF05C0E5FF06C0E5FF07C0E5FF08C06F
:1037B000E5FF09C0E5FF0AC0E5FF0BC0E5FF0CC04F
:1037C000E5FF0DC0E5FF0EC0E5FF0FC0E5FF020EEF
:1037D000DBCF00F0030EDBCF01F0040EDBCF02F0F5
:1037E000050EDBCF03F0060EDBCF04F0070EDBCFB8
:1037F00005F0080EDBCF06F0090EDBCF07F00A0E4E
:10380000DBCF08F00B0EDBCF09F00C0EDBCF0AF09C
:103810000D0EDBCF0BF0E56AE56AE56AE56A035059
:10382000E56E0250E56E0150E56E0050E56E0AEC63
:1038300022F00C6E080EE1260C5026E1E56AE56ADE
:10384000E56AE56A0750E56E0650E56E0550E56EDF
:103850000450E56E0AEC22F00C6E080EE1260C50C6
:1038600013E1E56AE56AE56AE56A0B50E56E0A5020
:10387000E56E0950E56E0850E56E0AEC22F00C6E1C
:10388000080EE1260C50D8A48ED000C0C7F201C0AB
:10389000C8F202C0C9F203C0CAF204C0CBF205C02C
:1038A000CCF206C0CDF207C0CEF208C0CFF209C0FC
:1038B000D0F20AC0D1F20BC0D2F203012551E56E5D
:1038C0002451E56EB4EC2AF00C6EF3CF0DF0F4CF7A
:1038D0000EF0E9CF0FF0E652E652440EE56E7A0E96
:1038E000E56EE56AE56A0F50E56E0E50E56E0D5027
:1038F000E56E0C50E56EE9EC15F00C6EF3CF0DF0B3
:10390000F4CF0EF0E9CF0FF0080EE12600C0BFF2B1
:1039100001C0C0F202C0C1F203C0C2F20F50E56E96
:103920000E50E56E0D50E56E0C50E56E0750E56EDD
:103930000650E56E0550E56E0450E56E1FEC14F080
:103940000201BB6FF3CFBCF2F4CFBDF2E9CFBEF200
:10395000080EE1260F50E56E0E50E56E0D50E56E37
:103960000C50E56E0B50E56E0A50E56E0950E56EA1
:103970000850E56EE9EC15F00201C36FF3CFC4F215
:10398000F4CFC5F2E9CFC6F2080EE12603012651B5
:10399000010A02E1275101E006D00201C27F0201C3
:1039A000BE7F0201C67FE4CF0FF0E4CF0EF0E4CF7C
:1039B0000DF0E4CF0CF0E4CF0BF0E4CF0AF0E4CF4D
:1039C00009F0E4CF08F0E4CF07F0E4CF06F0E4CF4D
:1039D00005F0E4CF04F0E4CF03F0E4CF02F0E4CF4D
:1039E00001F0E4CF00F0E4CFD9FF1200D9CFE5FF1A
:1039F000E1CFD9FF00C0E5FF01C0E5FF02C0E5FF50
:103A000003C0E5FF04C0E5FF05C0E5FF06C0E5FF14
:103A100007C0E5FF08C0E5FF09C0E5FF0AC0E5FFF4
:103A20000BC0E5FF0CC0E5FF0DC0E5FF020EDBCFCC
:103A30001BF3030EDBCF1CF3040EDBCF1DF3050ECF
:103A4000DBCF18F3060EDBCF19F3070EDBCF1AF32B
:103A5000080EDBCF1EF3090EDBCF1FF30A0EDBCF00
:103A600020F30B0EDBCF00F00C0EDBCF01F00D0EC0
:103A7000DBCF02F00E0EDBCF03F00F0EDBCF04F036
:103A8000100EDBCF05F0110EDBCF06F0120EDBCFF0
:103A900007F0130EDBCF08F0140EDBCF09F0150E84
:103AA000DBCF0AF0160EDBCF0BF0170EDBCF0CF0DE
:103AB000180EDBCF0DF0430EE56E7F0EE56E000EA7
:103AC000E56AE56AE56AE56AE56AE56A5AEC19F0CD
:103AD000080EE126640E0301246F256B0D50E56E80
:103AE0000C50E56E4EEC2BF0E652E6520B50E56EB4
:103AF0000A50E56E0950E56E0850E56E0750E56E18
:103B00000650E56E0550E56E0450E56E0350E56E17
:103B10000250E56E0150E56E0050E56EC3EC1BF0FF
:103B20000C0EE1263AEC2CF0006EF3CF01F0F4CF4E
:103B300002F0E9CF03F024C304F025C305F0E86ADE
:103B4000030125BFFF0E066E076E0450005C0201E4
:103B5000A76F05500158A86F06500258A96F07506B
:103B60000358AA6F0301286BE4CF0DF0E4CF0CF0EB
:103B7000E4CF0BF0E4CF0AF0E4CF09F0E4CF08F093
:103B8000E4CF07F0E4CF06F0E4CF05F0E4CF04F093
:103B9000E4CF03F0E4CF02F0E4CF01F0E4CF00F093
:103BA000E4CFD9FF1200D9CFE5FFE1CFD9FF00C0A4
:103BB000E5FF01C0E5FF02C0E5FF03C0E5FF04C06B
:103BC000E5FF05C0E5FF06C0E5FF07C0E5FF08C04B
:103BD000E5FF09C0E5FF0AC0E5FF0BC0E5FF0CC02B
:103BE000E5FF0DC0E5FF020EDBCF00F0030EDBCFDB
:103BF00001F0040EDBCF02F0050EDBCF03F0060E62
:103C0000DBCF04F0070EDBCF05F0080EDBCF06F0AC
:103C1000090EDBCF07F0D88003AED890086A0836CB
:103C200008500FE0031C0C6E021C0B6E011C0A6E88
:103C3000001C096E092A0DE10A2A0BE10B4A0C2A25
:103C400008D000C009F001C00AF002C00BF003C0A8
:103C50000CF0D88007AED890006A003600500FE014
:103C6000071C0D6E061C036E051C026E041C016E03
:103C7000012A0DE1022A0BE1034A0D2A08D004C0F3
:103C800001F005C002F006C003F007C00DF00D50B2
:103C9000E56E0350E56E0250E56E0150E56E0C5086
:103CA000E56E0B50E56E0A50E56E0950E56E99EC35
:103CB00022F0016EF3CF02F0F4CF03F0E9CF04F06D
:103CC000080EE1260050081A085016E0041C076E82
:103CD000031C066E021C056E011C006E002A04E126
:103CE000052A02E1064A072A07C0E9FF06C0F4FFD9
:103CF00005C0F3FF005007D004C0E9FF03C0F4FF84
:103D000002C0F3FF0150E4CF0DF0E4CF0CF0E4CF9C
:103D10000BF0E4CF0AF0E4CF09F0E4CF08F0E4CFF1
:103D200007F0E4CF06F0E4CF05F0E4CF04F0E4CFF1
:103D300003F0E4CF02F0E4CF01F0E4CF00F0E4CFF1
:103D4000D9FF1200D9CFE5FFE1CFD9FF00C0E5FFD1
:103D500001C0E5FF02C0E5FF03C0E5FF04C0E5FFC9
:103D600005C0E5FF06C0E5FF07C0E5FF08C0E5FFA9
:103D700009C0E5FF020EDBCF00F0030EDBCF01F040
:103D80000150800F800F02E1010E005CD8A079D0B5
:103D90000150E56E0050E56EB4EC2AF0026EF3CFF0
:103DA00003F0F4CF04F0E9CF05F0E652E652030148
:103DB0002551E56E2451E56EB4EC2AF0066EF3CF82
:103DC00007F0F4CF08F0E9CF09F0E652E6520950C7
:103DD000E56E0850E56E0750E56E0650E56E05503D
:103DE000E56E0450E56E0350E56E0250E56EE9ECB9
:103DF00015F0026EF3CF03F0F4CF04F0E9CF05F035
:103E0000080EE1260550E56E0450E56E0350E56EA0
:103E10000250E56E0201BE51E56EBD51E56EBC512A
:103E2000E56EBB51E56E1FEC14F00201BB6FF3CFE2
:103E3000BCF2F4CFBDF2E9CFBEF2080EE126055088
:103E4000E56E0450E56E0350E56E0250E56E02012A
:103E5000C651E56EC551E56EC451E56EC351E56EC0
:103E6000E9EC15F00201C36FF3CFC4F2F4CFC5F251
:103E7000E9CFC6F2080EE12600500301246F01507D
:103E8000256FE4CF09F0E4CF08F0E4CF07F0E4CFEA
:103E900006F0E4CF05F0E4CF04F0E4CF03F0E4CF84
:103EA00002F0E4CF01F0E4CF00F0E4CFD9FF12003C
:103EB000D9CFE5FFE1CFD9FF00C0E5FF01C0E5FFA5
:103EC00002C0E5FF03C0E5FF04C0E5FF020EDBCF43
:103ED00000F08C0E0024016E026A320E0222036A88
:103EE000000E032201C0F6FF02C0F7FF03C0F8FF77
:103EF0000900F5CF01F021C3E9FF22C3F3FF03015D
:103F0000235129EC00F0026E01500216025033E1F9
:103F1000A00E0024026E036A320E0322046A000E11
:103F2000042202C0F6FF03C0F7FF04C0F8FF090037
:103F3000F5CF02F0036A800E02260F0E0322035013
:103F40000301226F0250216F800E236F21C3E9FF0E
:103F500022C3F3FF235129EC00F0026E015002123C
:103F600002C0E5FF21C3E9FF22C3F3FF0301235190
:103F700031EC00F032D0026A036AA00E0026320E45
:103F80000222000E032200C0F6FF02C0F7FF03C0AA
:103F9000F8FF0900F5CF00F0026A800E00260F0E30
:103FA000022202500301226F0050216F800E236F06
:103FB00021C3E9FF22C3F3FF235129EC00F0006E77
:103FC0000150FF08001600C0E5FF21C3E9FF22C32E
:103FD000F3FF0301235131EC00F0E4CF04F0E4CF10
:103FE00003F0E4CF02F0E4CF01F0E4CF00F0E4CF3F
:103FF000D9FF12000F0EC16E070EB46E1200120030
:10400000D8CFE5FFE0CFE5FFE56EF3CFE5FFF4CFD6
:10401000E5FFE9CFE5FFEACFE5FFFACFE5FFFBCF0C
:10402000E5FFFFEC1FF0E4CFFBFFE4CFFAFFE4CFA6
:10403000EAFFE4CFE9FFE4CFF4FFE4CFF3FFE4507D
:10404000E4CFE0FFE4CFD8FF1000D9CFE5FFE1CF08
:10405000D9FF00C0E5FF01C0E5FF02C0E5FF03C0D6
:10406000E5FF04C0E5FF05C0E5FF06C0E5FF07C0AA
:10407000E5FF08C0E5FF09C0E5FF0AC0E5FF0BC08A
:10408000E5FF020EDBCF00F0030EDBCF01F0040EE4
:10409000DBCF02F0050EDBCF03F000500110021061
:1040A000031005E1E96AF46AF36AE86A5ED0960EE5
:1040B000046E056A035008E0D890033202320132E0
:1040C0000032044A052AF6D704C006F005C007F0FE
:1040D00002BE12D0035010E1005000260136023615
:1040E0000336FF0E0426052202BE02D00350F4E080
:1040F00004C006F005C007F00050046E0150056EC4
:104100007F0E0214086E096A0450FF0A08E1055088
:10411000FF0A05E108507F0A02E1095001E006D0DC
:10412000006A016A026A036A064A072A029EE86A6E
:10413000073006300B6E0A6A0A32086A085000120D
:1041400001120A5002120B50031200500201EF6FCD
:104150000150F06F0250F16F0350F26FF2C2E9FFAD
:10416000F1C2F4FFF0C2F3FFEF51E4CF0BF0E4CF64
:104170000AF0E4CF09F0E4CF08F0E4CF07F0E4CF91
:1041800006F0E4CF05F0E4CF04F0E4CF03F0E4CF91
:1041900002F0E4CF01F0E4CF00F0E4CFD9FF120049
:1041A000D9CFE5FFE1CFD9FF00C0E5FF01C0E5FFB2
:1041B00002C0E5FF03C0E5FF04C0E5FF05C0E5FF61
:1041C00006C0E5FF07C0E5FF020EDBCF00F0030EDF
:1041D000DBCF01F0040EDBCF02F0050EDBCF03F0E6
:1041E000060EDBCF04F0070EDBCF05F0080EDBCFA9
:1041F00006F0090EDBCF07F000500301006F0150FD
:10420000016F0250026F0350036F04500301046FEB
:104210000550056F0650066F0750076F04510511D2
:104220000611071109E103C3E9FF02C3F4FF01C34B
:10423000F3FF030100514BD00301005101110211A2
:10424000031111E104C300F005C301F006C302F03D
:1042500007C303F0037E03C0E9FF02C0F4FF01C0FF
:10426000F3FF005034D003010451006E0551016E7C
:104270000651026E0751036E037E0050046F015019
:10428000056F0250066F0350076FE56E0651E56E2D
:104290000551E56E0451E56E03010351E56E0251CF
:1042A000E56E0151E56E0051E56E53EC12F0006EC3
:1042B000F3CF01F0F4CF02F0E9CF03F0080EE126CE
:1042C00003C0E9FF02C0F4FF01C0F3FF0050E4CFD8
:1042D00007F0E4CF06F0E4CF05F0E4CF04F0E4CF3C
:1042E00003F0E4CF02F0E4CF01F0E4CF00F0E4CF3C
:1042F000D9FF1200D9CFE5FFE1CFD9FF00C0E5FF1C
:1043000001C0E5FF02C0E5FF03C0E5FF04C0E5FF13
:1043100005C0E5FF06C0E5FF07C0E5FF020EDBCFE5
:1043200000F0030EDBCF01F0040EDBCF02F0050E30
:10433000DBCF03F0060EDBCF04F0070EDBCF05F07A
:10434000080EDBCF06F0090EDBCF07F000500301AB
:10435000086F0150096F02500A6F03500B6F045031
:1043600003010C6F05500D6F06500E6F07500F6F55
:10437000D88003010BAFD89020E3D88003010FAFA2
:10438000D8901BE303010B51800FF36E03010F5113
:10439000800FF35C0DE10E5103010A5D09E1030199
:1043A0000D510301095D04E103010C510301085D96
:1043B00002E2010E1CD0E86A1AD003010F51800FEF
:1043C000F36E03010B51800FF35C0DE10A51030101
:1043D0000E5D09E10301095103010D5D04E10301D3
:1043E000085103010C5D02E2010E01D0E86AE4CF3E
:1043F00007F0E4CF06F0E4CF05F0E4CF04F0E4CF1B
:1044000003F0E4CF02F0E4CF01F0E4CF00F0E4CF1A
:10441000D9FF1200D9CFE5FFE1CFD9FF00C0E5FFFA
:1044200001C0E5FF02C0E5FF03C0E5FF04C0E5FFF2
:1044300005C0E5FF06C0E5FF07C0E5FF020EDBCFC4
:1044400000F0030EDBCF01F0040EDBCF02F0050E0F
:10445000DBCF03F0060EDBCF04F0070EDBCF05F059
:10446000080EDBCF06F0090EDBCF07F0005002018B
:10447000DF6F0150E06F0250E16F0350E26F0450B4
:104480000201E36F0550E46F0650E56F0750E66FD9
:10449000D8800201E2AFD8901FE3D8800201E6AFD6
:1044A000D8901AE3E651800FF36E0201E251800FBB
:1044B000F35C0DE1E1510201E55D09E10201E0512A
:1044C0000201E45D04E10201DF510201E35D02E269
:1044D000010E1CD0E86A1AD00201E251800FF36E7F
:1044E0000201E651800FF35C0DE1E5510201E15D4F
:1044F00009E10201E4510201E05D04E10201E3513E
:104500000201DF5D02E2010E01D0E86AE4CF07F0AC
:10451000E4CF06F0E4CF05F0E4CF04F0E4CF03F0FD
:10452000E4CF02F0E4CF01F0E4CF00F0E4CFD9FF14
:104530001200D9CFE5FFE1CFD9FF00C0E5FF01C0F0
:10454000E5FF02C0E5FF03C0E5FF04C0E5FF05C0CD
:10455000E5FF06C0E5FF07C0E5FF08C0E5FF09C0AD
:10456000E5FF0AC0E5FF0BC0E5FF0CC0E5FF0DC08D
:10457000E5FF020EDBCF00F0030EDBCF01F0040EEF
:10458000DBCF02F0050EDBCF03F0060EDBCF04F02D
:10459000070EDBCF05F0080EDBCF06F0090EDBCFF0
:1045A00007F0086A096A0A6A0B6A200E0C6E03504B
:1045B000800BE8440D6E00500026013602360336AB
:1045C0000850082609360A360B360D50D8A4088044
:1045D00007500B5C08E106500A5C05E10550095CD8
:1045E00002E10450085C09E30450085E0550095AD2
:1045F00006500A5A07500B5A00800C2ED8D703C019
:10460000E9FF02C0F4FF01C0F3FF0050E4CF0DF05A
:10461000E4CF0CF0E4CF0BF0E4CF0AF0E4CF09F0E4
:10462000E4CF08F0E4CF07F0E4CF06F0E4CF05F0E4
:10463000E4CF04F0E4CF03F0E4CF02F0E4CF01F0E4
:10464000E4CF00F0E4CFD9FF1200D9CFE5FFE1CFEE
:10465000D9FF00C0E5FF01C0E5FF02C0E5FF03C0D0
:10466000E5FF04C0E5FF05C0E5FF06C0E5FF07C0A4
:10467000E5FF020EDBCF00F0030EDBCF01F0040EEE
:10468000DBCF02F0050EDBCF03F0D89002019831AA
:10469000076E9731066E9631056E9531046ED8908F
:1046A00007320632053204320350E56E0250E56EE1
:1046B0000150E56E0050E56E0750E56E0650E56E60
:1046C0000550E56E0450E56E99EC22F0006EF3CFD4
:1046D00001F0080EE12600500201996F01509A6F17
:1046E000100E9A5D02E1010E995D27E2010E0201B2
:1046F0009A5D02E1010E995D03E20301296B1DD071
:10470000040E02019A5D02E1010E995D0BE2D89060
:1047100002019A339933D8909A339933010E0301E9
:10472000296F0BD0F00E02019917993B9A3B9A150D
:104730009A1B9927020E0301296FE4CF07F0E4CFFB
:1047400006F0E4CF05F0E4CF04F0E4CF03F0E4CFCB
:1047500002F0E4CF01F0E4CF00F0E4CFD9FF120083
:10476000D9CFE5FFE1CFD9FF00C0E5FF01C0E5FFEC
:1047700002C0E5FF03C0E5FF04C0E5FF05C0E5FF9B
:1047800006C0E5FF07C0E5FF020EDBCF00F0030E19
:10479000DBCF01F0040EDBCF02F0050EDBCF03F020
:1047A000D88003AED8902AE3031C076E021C066E65
:1047B000011C056E001C046E042A04E1052A02E1B6
:1047C000064A072A0750E56E0650E56E0550E56E6D
:1047D0000450E56E25EC20F0046EF3CF05F0F4CF25
:1047E00006F0E9CF07F0040EE126077E07C0E9FFD7
:1047F00006C0F4FF05C0F3FF04501AD00350E56E65
:104800000250E56E0150E56E0050E56E25EC20F09B
:10481000006EF3CF01F0F4CF02F0E9CF03F0040E05
:10482000E12603C0E9FF02C0F4FF01C0F3FF00501E
:10483000E4CF07F0E4CF06F0E4CF05F0E4CF04F0D6
:10484000E4CF03F0E4CF02F0E4CF01F0E4CF00F0D6
:10485000E4CFD9FF120000C0E5FF01C0E5FF02C0B0
:10486000E5FF18C300F019C301F01AC302F000C03D
:10487000E9FF01C0F3FF02502FEC00F00201AB6F23
:10488000F3CFACF2F4CFADF2E9CFAEF21BC300F040
:104890001CC301F01DC302F000C0E9FF01C0F3FF1B
:1048A00002502FEC00F00201B76FF3CFB8F2F4CF53
:1048B000B9F2E9CFBAF20201B251E56EB151E56E3B
:1048C000B051E56EAF51E56E0201AE51E56EAD51EE
:1048D000E56EAC51E56EAB51E56E7AEC21F0006E01
:1048E000080EE126005009E0AFC2ABF2B0C2ACF254
:1048F000B1C2ADF2B2C2AEF221D00201B651E56E44
:10490000B551E56EB451E56EB351E56E0201AE519D
:10491000E56EAD51E56EAC51E56EAB51E56E0AEC5E
:1049200022F0006E080EE126005008E0B3C2ABF2A0
:10493000B4C2ACF2B5C2ADF2B6C2AEF2E4CF02F090
:10494000E4CF01F0E4CF00F01200D9CFE5FFE1CFD2
:10495000D9FF00C0E5FF01C0E5FF02C0E5FF03C0CD
:10496000E5FF04C0E5FF05C0E5FF020EDBCF00F068
:10497000030EDBCF01F0040EDBCF02F0050EDBCF20
:1049800003F000500201FB6F0150FC6F0250FD6FFD
:104990000350FE6FFB51FC11FD11FE1106E0FE51AC
:1049A000800BE844006E005005E0E96AF46AF36A9F
:1049B000E86A36D00201FB51FD51026EFE51036ED2
:1049C00002340334006E016A6A0E0026FF0E0122D3
:1049D000FB51026EFC51036EFD51046EFE51049EAC
:1049E000056A048E011E006CD8B4012A005011E043
:1049F00009E6E86CD8900532043203320232010F26
:104A0000FAE307D0D8900236033604360536010F94
:104A1000FAE305C0E9FF04C0F4FF03C0F3FF02504E
:104A2000E4CF05F0E4CF04F0E4CF03F0E4CF02F0EC
:104A3000E4CF01F0E4CF00F0E4CFD9FF1200D9CFEA
:104A4000E5FFE1CFD9FF00C0E5FF01C0E5FF02C0EF
:104A5000E5FF03C0E5FF04C0E5FF05C0E5FF020E6A
:104A6000DBCF00F0030EDBCF01F0040EDBCF02F052
:104A70000250FC0B03E00168030E026E010EE56EAE
:104A80000050E56E96EC25F0E652E652020199518F
:104A9000036E0304CB6E00500B0A17E000500C0AA3
:104AA00027E10F0EBD6E030E0114036E046A033876
:104AB000F00BBD12D8900230056E0130046ED89014
:104AC000053204320450BE6E13D00F0EBA6E030EC0
:104AD0000114046E056A0450036E0338F00BBA1219
:104AE000D89002320132D890023201320150BB6EAE
:104AF000010E0201656F29C3CAFFCA849EA2FED7B8
:104B0000E56A0050E56E96EC25F0E652E652E4CFF9
:104B100005F0E4CF04F0E4CF03F0E4CF02F0E4CFFB
:104B200001F0E4CF00F0E4CFD9FF1200D9CFE5FFC8
:104B3000E1CFD9FF00C0E5FF01C0E5FF02C0E5FFFE
:104B400003C0E5FF04C0E5FF020EDBCF00F0030E5B
:104B5000DBCF01F08C0E0024026E036A320E0322BA
:104B6000046A000E042202C0F6FF03C0F7FF04C06F
:104B7000F8FF0900F5CF02F0036A046AA00E0026D0
:104B8000320E0322000E042200C0F6FF03C0F7FF1E
:104B900004C0F8FF0900F5CF00F0036A920E00266A
:104BA0000F0E0322800E046E015014E000C0E9FFD6
:104BB00003C0F3FF045029EC00F0016E0250011213
:104BC00001C0E5FF00C0E9FF03C0F3FF045031EC72
:104BD00000F014D000C0E9FF03C0F3FF045029EC3B
:104BE00000F0016E0250FF08011601C0E5FF00C091
:104BF000E9FF03C0F3FF045031EC00F0E4CF04F010
:104C0000E4CF03F0E4CF02F0E4CF01F0E4CF00F012
:104C1000E4CFD9FF1200D9CFE5FFE1CFD9FF00C023
:104C2000E5FF01C0E5FF02C0E5FF03C0E5FF04C0EA
:104C3000E5FF020EDBCF00F0030EDBCF01F08C0EA0
:104C40000024026E036A320E0322046A000E04225C
:104C500002C0F6FF03C0F7FF04C0F8FF0900F5CF5C
:104C600002F0036A046AA00E0026320E0322000E30
:104C7000042200C0F6FF03C0F7FF04C0F8FF0900DC
:104C8000F5CF00F0036A800E00260F0E0322800E7F
:104C9000046E015014E000C0E9FF03C0F3FF0450AC
:104CA00029EC00F0016E0250011201C0E5FF00C0C6
:104CB000E9FF03C0F3FF045031EC00F014D000C052
:104CC000E9FF03C0F3FF045029EC00F0016E02502D
:104CD000FF08011601C0E5FF00C0E9FF03C0F3FFB4
:104CE000045031EC00F0E4CF04F0E4CF03F0E4CF63
:104CF00002F0E4CF01F0E4CF00F0E4CFD9FF1200DE
:104D0000D9CFE5FFE1CFD9FF00C0E5FF020EDBCF31
:104D100000F0005001E13ED00050010A01E13CD01A
:104D20000050020A3BE00050030A3AE00050090A32
:104D30002BE000500A0A2AE000500B0A29E000503C
:104D40000D0A30E000500E0A37E000500F0A36E03E
:104D50000050100A37E00050120A2AE00050130AEF
:104D600029E00050160A22E00050170A29E00050FE
:104D7000180A2AE00050190A2BE000501A0A26E00F
:104D800000501C0A11E025D0F29223D0F09021D0DF
:104D9000F0921FD0F2941DD09E901BD09E9219D0FD
:104DA000A19217D0F29015D0A19A13D09E9C11D049
:104DB0009E9A0FD09E980DD09E940BD0A19009D0B2
:104DC000A19E07D0A19C05D0A19803D0A19601D0A7
:104DD000A194E4CF00F0E4CFD9FF1200D9CFE5FFD2
:104DE000E1CFD9FF00C0E5FF01C0E5FF02C0E5FF4C
:104DF00003C0E5FF04C0E5FF05C0E5FF020EDBCF01
:104E000000F0030EDBCF01F0015003E1026A036AF8
:104E100030D0640E015C08E302019951FF0F026E6D
:104E2000FF0E9A21036E25D0D89002019A31056EAB
:104E30009931046ED890053204320550E56E045065
:104E4000E56EE56A0150E56E27EC00F0016EF3CFE8
:104E500004F0040EE126E56A190EE56E0450E56ED5
:104E60000150E56E61EC28F0026EF3CF03F0040E02
:104E7000E1260250016E01260334046ED8900136FB
:104E800004360450E56E0150E56E0050E56E1FECEF
:104E900025F0030EE126E4CF05F0E4CF04F0E4CFE3
:104EA00003F0E4CF02F0E4CF01F0E4CF00F0E4CF70
:104EB000D9FF120000C0E5FF01C0E5FF000EE56A62
:104EC00054EC29F0006EF3CF01F0E6520150E56E8C
:104ED0000050E56EEEEC2AF00201D36FF3CFD4F26E
:104EE000F4CFD5F2E9CFD6F2E652E6520201D76B03
:104EF000D86BC80ED96F420EDA6FE56AE56A3F0ECD
:104F0000E56E800EE56EE56AE56A400EE56EA00E80
:104F1000E56EE56AE56A400EE56EE56AE56AE56A12
:104F2000800EE56E020EE56ED70EE56E800EE56E24
:104F3000020EE56EDB0EE56E800EE56E020EE56E8E
:104F4000D30EE56EF6EC1CF0170EE126E56A010EB5
:104F5000E56E35EC2AF0E652E652E4CF01F0E4CFFC
:104F600000F01200D9CFE5FFE1CFD9FF00C0E5FF87
:104F700001C0E5FF02C0E5FF03C0E5FF04C0E5FF97
:104F800005C0E5FF06C0E5FF07C0E5FF020EDBCF69
:104F900000F0030EDBCF01F0040EDBCF02F0050EB4
:104FA000DBCF03F00250046E0350056E066A076AF9
:104FB0000450F86E0150046E0250056E0350066EE8
:104FC000076A0450F76E0050F66E0900F5CF00F046
:104FD0000900F5CF01F0026A0150046E036A056A08
:104FE000005003260550042204C0F3FF0350E4CF11
:104FF00007F0E4CF06F0E4CF05F0E4CF04F0E4CF0F
:1050000003F0E4CF02F0E4CF01F0E4CF00F0E4CF0E
:10501000D9FF120000C0E5FF01C0E5FF02C0E5FFB7
:1050200003C0E5FF010E0201636FF29EF29CD8906F
:1050300002019831036E9731026E9631016E9531FF
:10504000006ED8900332023201320032E56AE56A1E
:10505000030EE56EE80EE56E0350E56E0250E56E58
:105060000150E56E0050E56E99EC22F0006EF3CF32
:1050700001F0F4CF02F0E9CF03F0080EE126D8905A
:1050800003320232013200320050FF08FF0E015499
:10509000D76E0050FF08D66E880ED56EF184F28A66
:1050A000F294F28EF28C0201A36BA46BA56BA66B3B
:1050B000E4CF03F0E4CF02F0E4CF01F0E4CF00F05E
:1050C0001200D9CFE5FFE1CFD9FF00C0E5FF01C055
:1050D000E5FF02C0E5FF03C0E5FF04C0E5FF05C032
:1050E000E5FF06C0E5FF07C0E5FF020EDBCF00F0DD
:1050F000030EDBCF01F0040EDBCF02F0050EDBCF99
:1051000003F0046A056A100E066E0150800BE84435
:10511000076E00500026013604500426053607505D
:10512000D8A404800350055C02E10250045C05E34E
:105130000250045E0350055A0080062EE6D701C0D7
:10514000F3FF0050E4CF07F0E4CF06F0E4CF05F022
:10515000E4CF04F0E4CF03F0E4CF02F0E4CF01F0B9
:10516000E4CF00F0E4CFD9FF1200D9CFE5FFE1CFC3
:10517000D9FF00C0E5FF01C0E5FF02C0E5FF03C0A5
:10518000E5FF020EDBCF00F0A00E0024016E026AE4
:10519000320E0222036A000E032201C0F6FF02C093
:1051A000F7FF03C0F8FF0900F5CF01F0026A800E97
:1051B00001260F0E0222800E01C0E9FF02C0F3FF9C
:1051C00029EC00F0016E026A036A8C0E0026320E92
:1051D0000222000E032200C0F6FF02C0F7FF03C048
:1051E000F8FF0900F5CF00F000500116015002E170
:1051F000E86A01D0010EE4CF03F0E4CF02F0E4CF7F
:1052000001F0E4CF00F0E4CFD9FF120000C0E5FFC9
:1052100001C0E5FF02C0E5FF03C0E5FFE56A300E0F
:10522000E56E000EE56AE56AB2EC27F0006E040E4A
:10523000E126180E0016016A026A680E0026320E78
:105240000122000E022200C0F6FF01C0F7FF02C0DB
:10525000F8FF0900F5CF00F0E56AE56AE56A00505D
:10526000E56E020EE56EDC0EE56E6C0EE56E000E70
:10527000E56AD3EC1DF0006EF3CF01F0F4CF02F03D
:10528000E9CF03F0080EE12603C0E9FF02C0F4FFF6
:1052900001C0F3FF0050E4CF03F0E4CF02F0E4CF0D
:1052A00001F0E4CF00F01200D9CFE5FFE1CFD9FF44
:1052B00000C0E5FF01C0E5FF02C0E5FF03C0E5FF58
:1052C000020EDBCF00F00D0E005C0AE3120E005C54
:1052D00007E2F30E0024016E040DF3CFC2FF07D0E6
:1052E000060E005C04E20050040DF3CFC2FFC28042
:1052F000090E006E016A0000FF0E00260122005018
:105300000110F9E1C282C2B2FED7C4CF00F0016A37
:105310000050036E026AC3CF00F0016A00500226FB
:1053200001500322C29003C0F3FF0250E4CF03F008
:10533000E4CF02F0E4CF01F0E4CF00F0E4CFD9FFF6
:105340001200B40EF66E580EF76E000EF86E0900DD
:10535000F550056E0900F550066E055002E1065045
:105360003BE00900F550006E0900F550016E0900A0
:10537000F550026E09000900F550E96E0900F5507C
:10538000EA6E090009000900F550036E0900F550A6
:10539000046E09000900F6CF07F0F7CF08F0F8CF48
:1053A00009F000C0F6FF01C0F7FF02C0F8FF03508C
:1053B00002E1045007E00900F550EE6E0306F8E242
:1053C0000406F9D707C0F6FF08C0F7FF09C0F8FFC9
:1053D0000506C4E20606C5D71200D9CFE5FFE1CF26
:1053E000D9FF00C0E5FF01C0E5FF02C0E5FF03C033
:1053F000E5FF020EDBCF00F0030EDBCF01F0040E61
:10540000DBCF02F0050EDBCF03F00350E56E025058
:10541000E56E0150E56E0050E56EA5EC24F0006EDF
:10542000F3CF01F0F4CF02F0E9CF03F0040EE12650
:10543000000E035C08E1000E025C05E1FF0E015C5A
:1054400002E1FF0E005C03E3F368E86803D001C0EB
:10545000F3FF0050E4CF03F0E4CF02F0E4CF01F01B
:10546000E4CF00F0E4CFD9FF1200D9CFE5FFE1CFC0
:10547000D9FF00C0E5FF01C0E5FF02C0E5FF03C0A2
:10548000E5FF04C0E5FF020EDBCF00F0030EDBCF2B
:1054900001F00050010A05E1015003E1006A002A11
:1054A00001D0006A00C001F0026A03012851D880CF
:1054B000E866D890036A0336046A03BE04680150A4
:1054C000031803E10250041801E002D02BEC24F091
:1054D00000C028F3E4CF04F0E4CF03F0E4CF02F0FF
:1054E000E4CF01F0E4CF00F0E4CFD9FF120000C018
:1054F000E5FF01C0E5FF000EE56A54EC29F0006EFF
:10550000F3CF01F0E6520150E56E0050E56EEEEC8F
:105510002AF00201D36FF3CFD4F2F4CFD5F2E9CF62
:10552000D6F2E652E65233EC10F00201DE51E56E9F
:10553000DD51E56EDC51E56EDB51E56EEDEC29F0F9
:10554000006EF3CF01F0040EE1260150E56E00502D
:10555000E56E030EE56E1FEC25F0030EE126E4CFA9
:1055600001F0E4CF00F01200D9CFE5FFE1CFD9FF81
:1055700000C0E5FF01C0E5FF02C0E5FF03C0E5FF95
:10558000020EDBCF00F0030EDBCF01F0E86A01BEB4
:10559000FF0E026EE56E0250E56E0150E56E0050A2
:1055A000E56EB0EC23F0006EF3CF01F0F4CF02F023
:1055B000E9CF03F0040EE12603C0E9FF02C0F4FFC7
:1055C00001C0F3FF0050E4CF03F0E4CF02F0E4CFDA
:1055D00001F0E4CF00F0E4CFD9FF1200D9CFE5FF0E
:1055E000E1CFD9FF00C0E5FF01C0E5FF02C0E5FF44
:1055F00003C0E5FF020EDBCF00F0030EDBCF01F0AE
:10560000E56AE56A0150E56E0050E56E25EC20F094
:10561000006EF3CF01F0F4CF02F0E9CF03F0040EF7
:10562000E12603C0E9FF02C0F4FF01C0F3FF005010
:10563000E4CF03F0E4CF02F0E4CF01F0E4CF00F0D8
:10564000E4CFD9FF120000C0E5FF01C0E5FF02C0B2
:10565000E5FF03C0E5FF06EC29F0006EF3CF01F093
:10566000F4CF02F0E9CF03F0D890033202320132D6
:105670000032D890033202320132003203C0E9FF17
:1056800002C0F4FF01C0F3FF0050E4CF03F0E4CF09
:1056900002F0E4CF01F0E4CF00F01200D9CFE5FF33
:1056A000E1CFD9FF00C0E5FF01C0E5FF020EDBCF6F
:1056B00000F0030EDBCF01F0030128510DE0005094
:1056C0000301261903E10150271906E00201C27FF8
:1056D0000201BE7F0201C67F00C026F301C027F38E
:1056E000E4CF01F0E4CF00F0E4CFD9FF1200F2CF15
:1056F000EAFFF29EA69EA69CA684E9CFA9FFE4CF6E
:10570000A8FF4BEC2CF0F4CFA8FF4BEC2CF0F6CF1D
:10571000A8FF4BEC2CF0F7CFA8FF4BEC2CF0A69495
:10572000EABEF28E1200D9CFE5FFE1CFD9FF00C06B
:10573000E5FF020EDBCF00F0010EE56E0050E56ED6
:105740008FEC1AF0E652E652E4CF00F0E4CFD9FF36
:105750001200D9CFE5FFE1CFD9FF00C0E5FF020E6F
:10576000DBCF00F0E56A0050E56E8FEC1AF0E652F0
:10577000E652E4CF00F0E4CFD9FF120000C0E5FF0D
:10578000D08EF28EF28C006AE56A0050E56E8FECE6
:105790001AF0E652E652002A210E005CF5E3E4CF4F
:1057A00000F01200D9CFE5FFE1CFD9FF00C0E5FF3F
:1057B000020EDBCF00F0005004E00050010A01E1CE
:1057C000C188E4CF00F0E4CFD9FF1200E8AE0BD0DF
:1057D000F3CFEAFFE4CFEEFFF4CFEEFFF6CFEEFF1C
:1057E000F7CFEEFF1200E8BC6AEF2CF01200FAECE3
:1057F0001FF043EC2CF0BEEC2BF053EC2CF05AECE9
:1058000027F077EC2AF0FDD7120000C0E5FF030176
:10581000285103E0010E006E01D0006AF36A0050C7
:10582000E4CF00F0120011EEFFF021EEFFF0F86A75
:10583000A68EA69CA1EC29F0F7EC2BF0FFD7D2C2E4
:10584000E9FFD1C2F4FFD0C2F3FF0201CF51120031
:10585000CEC2E9FFCDC2F4FFCCC2F3FF0201CB51AF
:105860001200CAC2E9FFC9C2F4FFC8C2F3FF0201B5
:10587000C7511200A6C2E9FFA5C2F4FFA4C2F3FFFC
:105880000201A3511200D9CFE5FFE1CFD9FF0000FB
:10589000E4CFD9FF1200550EA76EAA0EA76EA682FE
:1058A000A6B2FED7A94A2F0E92120A0EC16EBD0EE5
:1058B000C06E12000100CC580000940200000700E6
:1058C000000027C3F3FF03012651120000006CDC27
:1058D0000200010077EF2BF01200120012001200FC
:0658E0001200120012008C
:00000001FF
