:020000040000FA
:1000000084EF05F065EF05F004EF06F048EF05F02A
:080018000CEF06F000C0E5FF4B
:1000200001C0E5FF02C0E5FF03C0E5FF04C0E5FF36
:1000300005C0E5FF06C0E5FF07C0E5FF08C0E5FF16
:1000400009C0E5FF0AC0E5FF0401CB51D8B45DEF5C
:1000500002F065A405D064A403D060926494659412
:10006000006A60B2002A0050010A02E15DEF02F06E
:1000700065A01DD064A01BD0676A656A9F0E666E7E
:100080007F0E646E636A160E6A6E006A65B6002A99
:100090000050010A02E16596F8D7609858EC05F027
:1000A0000401C86B0401CC6B030E0401CB6F65A87F
:1000B00009D064A807D0648465986082A494F29003
:1000C000A384F28665AC02D064BC659C65AA0CD0A2
:1000D00064AA0AD0006A6AB0002A0050010A03E14B
:1000E00058EC05F06A90659A65A202D064B26592F8
:1000F000030E0401CB5DD8A05DEF02F065A65DEFB5
:1001000002F064A65DEF02F06138E8441F0B006E58
:100110000050D8A455EF02F061B4A4D13C0E040104
:100120000015016E0140E8403F0B0D0A01E03DD192
:1001300004010451016E019E0150046F0051016ED3
:10014000019E0150006F0401CA6B0401CD6B0401D4
:10015000C66BC76B05014051600BD8A4AED14151AD
:10016000050A09E1010E0401CD6F040E0401CB6FF5
:1001700042C5C9F4D2D005014151060A01E07ED042
:1001800005014051800A01E0C8D005014351010A30
:100190000FE1010E0401CD6F000E0401C56F090EC1
:1001A000C46F940EC36F120E0401C66FC76BB5D037
:1001B00005014351020A17E1010E0401CD6F000E43
:1001C0000401C56F090EC46FB00EC36FB20EF66E98
:1001D000090EF76E000EF86E0900F5CFC6F409009F
:1001E000F5CFC7F49AD005014351030A33E1010E5C
:1001F0000401CD6F05014251030DF450026EF3CF9F
:1002000001F0036AE60E0126090E0222000E032207
:1002100001C0F6FF02C0F7FF03C0F8FF0900F5CFE9
:10022000C3F40900F5CFC4F40900F5CFC5F4C3C485
:1002300001F0C4C402F0C5C403F001C0E9FF02C06C
:10024000F3FF035037EC05F0016E01C0C6F4040162
:10025000C76B63D005014351060A01E05ED0010E71
:100260000401CD6F000E0401C56F090EC46FA60E08
:10027000C36F0A0E0401C66FC76B4FD00501415111
:10028000090A1CE1010E0401CD6F1E0E6B6E400EBB
:1002900004010C6F096F800E0A6F040E0B6F800E45
:1002A000086F42C5CCF40401CC5104E1040E0401F2
:1002B000CB6F33D0050E0401CB6F2FD00501415118
:1002C000080A0FE1010E0401CD6F040E0401C46F92
:1002D000CC0EC36F800EC56F010E0401C66FC76BD5
:1002E0001CD0050141510A0A11E1010E0401CD6F34
:1002F0000501006B050E0401C46F000EC36F800E74
:10030000C56F010E0401C66FC76B07D005014151CF
:100310000B0A03E1010E0401CD6F0401CD510BE185
:10032000400E0401016F400E026F050E036F840E34
:10033000006F046F38D0050140AF26D00401C751CB
:100340000501475D04E10401C6510501465D04E273
:1003500046C5C6F447C5C7F4000EE56A8DEC03F048
:10036000E652020E0401CA6F400E0401016F400EF6
:10037000026F050E036F800E006F000E066F050EF4
:10038000076FC80E046F0FD0010E0401CA6F04017D
:10039000056BC80E046F400E016F000E026F050E54
:1003A000036FC80E006F609887D00401CA51010A1C
:1003B00001E055D0030E04010015026A046E036AC1
:1003C00001C401F003500112045002120150040153
:1003D000C6270250C723050E0401C46F000EC36F69
:1003E000800EC56F046A0250045C02E10150035C98
:1003F0002CE2C0C405F0C1C406F0C2C407F0C3C4F7
:1004000008F0C4C409F0C5C40AF008C0E9FF09C077
:10041000F3FF0A5037EC05F0086E0401C32B03E329
:10042000C43F01D0C52B08C0E5FF05C0E9FF06C0E9
:10043000F3FF075071EC05F00401C02B03E3C13F4B
:1004400001D0C22B034A042ACED7040100AD03D049
:10045000880E006F31D0C80E0401006F2DD058EC0B
:1004600005F02AD063500BE10401CB51040A07E1E7
:1004700042C563FF635003E1030E0401CB6F040127
:10048000CA51020A0FE1000EE56A8DEC03F0E65254
:10049000040104AD03D0880E046F0ED0C80E040111
:1004A000046F0AD058EC05F007D061B405D00050B5
:1004B000E56E74EC02F0E6526596E4CF0AF0E4CF04
:1004C00009F0E4CF08F0E4CF07F0E4CF06F0E4CF82
:1004D00005F0E4CF04F0E4CF03F0E4CF02F0E4CF82
:1004E00001F0E4CF00F01200D9CFE5FFE1CFD9FF52
:1004F00000C0E5FF01C0E5FF02C0E5FF03C0E5FF66
:1005000004C0E5FF05C0E5FF020EDBCF00F08988DF
:100510000044FE0B016E0128006E040DF45000BE75
:100520000408026EF3CF00F0000E0024036E040EE8
:100530000220046E034A042A03C0E9FF04C0EAFF54
:10054000000EEF6E84C4F8FF83C4F7FF82C4F6FF89
:1005500004018051FF0A03E1F8EC04F098D0040193
:10056000805113E10C0E826F040E836F000E002485
:10057000036E040E0220046E034A042A03C0E9FF3E
:1005800004C0EAFF040EEF6E82D004018051010A1C
:1005900027E1036A04018151035C0FE20900850E23
:1005A0000324046E056A040E052204C0E9FF05C099
:1005B000EAFFF5CFEFFF032AEDD7000E0024036E0C
:1005C000040E0220046E034A042A050E040181254C
:1005D000056E03C0E9FF04C0EAFF05C0EFFF57D076
:1005E00004018051020A2CE1A40EA66E036A0401E4
:1005F0008151035C0FE2850E0324046E056A040E2C
:10060000052204C0E9FF05C0EAFFEFCFF5FF0D00AA
:10061000032AEDD70A00550EA76EAA0EA76EA68272
:100620000000000E0024036E040E0220046E034A34
:10063000042A03C0E9FF04C0EAFF010EEF6E27D0D1
:1006400004018051030A23E1A40EA66E036A04018B
:100650008151035C0EE2A688550EA76EAA0EA76E06
:10066000A682A6980000400EF626000EF722032A66
:10067000EED7000E0024036E040E0220046E034A1F
:10068000042A03C0E9FF04C0EAFF010EEF6E000E6A
:100690000026040E0222004A022A00C0E9FF02C01E
:1006A000EAFFEFCF00F0005009E004010CAD03D0E9
:1006B000880E0C6F03D0C80E04010C6F0150040D9E
:1006C000F45001BE0408006EF3CF01F0000E0124C7
:1006D000026E040E0020036E024A032A02C0E9FFE4
:1006E00003C0EAFF400EEF6E000E0126040E00224A
:1006F00001C0E9FF00C0EAFF800EEF6EE4CF05F015
:10070000E4CF04F0E4CF03F0E4CF02F0E4CF01F053
:10071000E4CF00F0E4CFD9FF1200D9CFE5FFE1CF5D
:10072000D9FF00C0E5FF01C0E5FF02C0E5FF03C03F
:10073000E5FF04C0E5FF05C0E5FF06C0E5FF07C013
:10074000E5FF08C0E5FF020EDBCF00F0000E04015C
:10075000C75D02E1400EC65D05E2C6C401F0C7C434
:1007600002F003D0400E016E026A0044FE0B036EDD
:100770000328040DF450036EF3CF00F0000E0024A4
:10078000046E040E0320056E000E0024066E040E97
:100790000320076E06C0E9FF07C0EAFFEFCF06F0AF
:1007A000FC0E061604C0E9FF05C0EAFF06C0EFFF15
:1007B000000E0024046E040E0320056E000E0024BB
:1007C000066E040E0320076E06C0E9FF07C0EAFFAD
:1007D000EFCF06F0030E0214061204C0E9FF05C0B5
:1007E000EAFF06C0EFFF000E0024046E040E032093
:1007F000056E044A052A0150066E04C0E9FF05C0D3
:10080000EAFF06C0EFFF000E0026040E0322020ED0
:100810000026D8B0032A000E046E050E056E00C037
:10082000E9FF03C0EAFF04C0EEFF05C0EFFF01507F
:100830000401C65F0250C75B050E0401C16F000EC4
:10084000C06F800EC26F006A00C003F0046A0250DD
:10085000045C02E10150035C2BE2C0C403F0C1C49C
:1008600004F0C2C405F0C3C406F0C4C407F0C5C494
:1008700008F006C0E9FF07C0F3FF085037EC05F0A9
:10088000066E0401C32B03E3C43F01D0C52B06C091
:10089000E5FF03C0E9FF04C0F3FF055071EC05F06C
:1008A0000401C02B03E3C13F01D0C22B002ACCD7E7
:1008B000E4CF08F0E4CF07F0E4CF06F0E4CF05F092
:1008C000E4CF04F0E4CF03F0E4CF02F0E4CF01F092
:1008D000E4CF00F0E4CFD9FF1200D0B204D0B30EC1
:1008E000D01200EF06F0D0BE54D0700ED36ED3A459
:1008F000FED70F015B6B0F015C6B0F015D6BD08E40
:10090000F29EF29C9D909F90CE6ACF6A310ECD6E82
:1009100092988988140E626E800E006E040E016E2D
:10092000026A036A026A036A005004010E6F0150F2
:100930000F6F0401CC6B0401CB6B006A016A026A81
:10094000036A21EC05F00EEC00F00050FF0A08E10C
:100950000150FF0A05E102500F0A02E1035001E0D5
:1009600002D0F8EC04F0002A04E3012A02E3024A70
:10097000032A0401CB51050AE4E10EEC00F0006A01
:100980009EB0002A0050010AF8E19E90100E891ACC
:10099000F4D7120012010002FFFFFF40D804AAFEA4
:1009A0001204010200010A060002FFFFFF400100DD
:1009B00009022000010100C07D0904000002FFFFC0
:1009C000FF0007050102400000070581024000000A
:1009D000040309040C03520042002B0041004700AD
:1009E000060350003800D00900D40900E0090000D7
:1009F00000C0E5FF01C0E5FF02C0E5FF03C0E5FF61
:100A0000CD6A60926096606A626A646A666AFF0E86
:100A1000006E016E00C002F001C003F0FF0E002660
:100A2000012202500310F6E19288899800EF06F047
:100A3000E4CF03F0E4CF02F0E4CF01F0E4CF00F024
:100A4000120060B606D0606A646A6086010E040116
:100A5000CB6F0401CB51010A09E160BA07D0656A86
:100A6000646A64806488020E0401CB6F1200E8AEF1
:100A700004D0F3CFEAFFEE501200E8BC02EF00F022
:100A8000E9CFF6FFF3CFF7FFF86E0900F55012003B
:100A9000F2CFEAFFF29EA69EA69CA684E9CFA9FF0C
:100AA000E4CFA8FF7CEC05F0A694EABEF28E12001B
:100AB0000401CA6B400E0401016F400E026F050E67
:100AC000036F880E006F046B1200F2CFF6FFF29EE8
:100AD000A69EA69CE9CFA9FFA680A850F6BEF28EDE
:100AE0001200E8AE05D0F3CFEAFFE4CFEEFF12002C
:100AF000E8BC06EF00F01200550EA76EAA0EA76E16
:100B0000A682A6B2FED7A94A11EEFEF021EEFEF0B3
:060B10006DEC04F0FFD7BC
:020000040030CA
:0400000003285F3E34
:020005009181E7
:060008000FC00FE00F40E5
:00000001FF
