:020000040000FA
:0400000049EF05F0CF
:0400080004EF06F00B
:040018000CEF06F0F3
:06002A00D9CFE5FFE1CF94
:10003000D9FF00C0E5FF01C0E5FF02C0E5FF03C036
:10004000E5FF04C0E5FF020EDBCF00F00044FE0B2D
:10005000016E0128006E040DF3CF00F0000E0024A5
:10006000026E036A00BE0368040E0322024A032ADA
:1000700002C0E9FF03C0EAFF000EEF6E8B840401AB
:10008000905116E1020E926F040E936F000E002441
:10009000026E036A00BE0368040E0322024A032AAA
:1000A00002C0E9FF03C0EAFF040EEF6ECD6A9FD0E5
:1000B00004019051010A2BE152EC05F0026A04019F
:1000C0009151025C0FE20900950E0224036E046A4E
:1000D000040E042203C0E9FF04C0EAFFF5CFEFFFDE
:1000E000022AEDD7000E0024026E036A00BE0368E8
:1000F000040E0322024A032A050E04019125046E10
:1001000002C0E9FF03C0EAFF04C0EFFF70D00401A2
:100110009051020A01E03DD052EC05F0A68A026A35
:1001200004019151025C23E202509225F66E950E75
:100130000224036E046A040E042203C0E9FF04C013
:10014000EAFFEFCFF5FF0D000228036E046A950E5B
:100150000326040E042203C0E9FF04C0EAFFEFCF28
:10016000F5FF0C003FEC05F0022A022AD9D7A69A27
:10017000000E0024026E036A00BE0368040E032210
:10018000024A032A02C0E9FF03C0EAFF010EEF6E34
:100190002ED004019051030A22E152EC05F0026ACC
:1001A00004019151025C0AE2A6883FEC05F0A69892
:1001B000040EF726000EF822022AF2D7000E0024C1
:1001C000026E036A00BE0368040E0322024A032A79
:1001D00002C0E9FF03C0EAFF010EEF6E08D0040180
:1001E0009051FF0A04E1EFEC04F000EF06F0026A20
:1001F00000BE0268000E0026040E0222004A022AF7
:1002000000C0E9FF02C0EAFFEFCF00F0005009E0B4
:1002100004010CAD03D0880E0C6F03D0C80E04018E
:100220000C6F0150040DF3CF01F0000E0124006E9D
:10023000026A01BE0268040E0222004A022A00C0BD
:10024000E9FF02C0EAFF400EEF6E006A01BE0068DF
:10025000000E0126040E002201C0E9FF00C0EAFFE3
:10026000800EEF6EE4CF04F0E4CF03F0E4CF02F0B1
:10027000E4CF01F0E4CF00F0E4CFD9FF1200D9CFF2
:10028000E5FFE1CFD9FF00C0E5FF01C0E5FF02C0F7
:10029000E5FF03C0E5FF04C0E5FF05C0E5FF06C0BC
:1002A000E5FF07C0E5FF08C0E5FF020EDBCF00F069
:1002B000000E0401D75D02E1400ED65D05E2D6C412
:1002C00001F0D7C402F003D0400E016E026A004470
:1002D000FE0B036E0328040DF3CF00F0000E002484
:1002E000036E046A040E0422000E0024056E066AE2
:1002F000040E062205C0E9FF06C0EAFFEFCF05F0B5
:10030000FC0E051603C0E9FF04C0EAFF05C0EFFFBD
:10031000000E0024036E046A040E0422000E002462
:10032000056E066A040E062205C0E9FF06C0EAFF54
:10033000EFCF05F0030E0214051203C0E9FF04C05D
:10034000EAFF05C0EFFF000E0024036E046A040EEE
:100350000422034A042A0150056E03C0E9FF04C0C9
:10036000EAFF05C0EFFF036A000E0026040E032219
:10037000020E0026D8B0032A500E046E040E056E3D
:1003800000C0E9FF03C0EAFF04C0EEFF05C0EFFFB5
:1003900001500401D65F0250D75B040E0401D46FF4
:1003A000500ED36F800ED56F006A00C003F0046A50
:1003B0000250045C02E10150035C2BE2D3C403F061
:1003C000D4C404F0D5C405F0D0C406F0D1C407F0FD
:1003D000D2C408F006C0E9FF07C0F3FF085006ECDE
:1003E00005F0066E0401D02B03E3D13F01D0D22BE0
:1003F00006C0E5FF03C0E9FF04C0F3FF055034EC7D
:1004000005F00401D32B03E3D43F01D0D52B002A00
:10041000CCD7E4CF08F0E4CF07F0E4CF06F0E4CF88
:1004200005F0E4CF04F0E4CF03F0E4CF02F0E4CF32
:1004300001F0E4CF00F0E4CFD9FF1200D9CFE5FFFF
:10044000E1CFD9FF00C0E5FF01C0E5FF02C0E5FF35
:1004500003C0E5FF04C0E5FF05C0E5FF06C0E5FFFA
:1004600007C0E5FF08C0E5FF09C0E5FF020EDBCFCE
:1004700000F00044FE0B040DF3CF00F0000E00244A
:10048000016E026A040E022201C0E9FF02C0EAFF07
:10049000EFCF01F0030E01160150046E036A016AEA
:1004A000000E0026040E0122004A012A00C0E9FFC6
:1004B00001C0EAFFEFCF00F0016A005003120150C3
:1004C00004120350006E0450016E00500401D62740
:1004D0000150D723040E0401D16F500ED06F800E4F
:1004E000D26F026A036A0150035C02E10050025CB1
:1004F0002CE2D3C404F0D4C405F0D5C406F0D0C4B3
:1005000007F0D1C408F0D2C409F007C0E9FF08C061
:10051000F3FF095006EC05F0076E0401D02B03E34E
:10052000D13F01D0D22B07C0E5FF04C0E9FF05C0D1
:10053000F3FF065034EC05F00401D32B03E3D43F62
:1005400001D0D52B024A032ACED7E4CF09F0E4CF5D
:1005500008F0E4CF07F0E4CF06F0E4CF05F0E4CFF5
:1005600004F0E4CF03F0E4CF02F0E4CF01F0E4CFF5
:1005700000F0E4CFD9FF120000C0E5FF01C0E5FFA5
:100580006438E8441F0B006E0050D8A44FD064B408
:1005900022D03C0E04010015016E0140E8403F0BE3
:1005A0000D0A03E125EC03F04BD00401DD51010AF3
:1005B0000FE1000EE56A1EEC02F0E652040100AD08
:1005C00003D0880E006F3CD0C80E0401006F38D0F5
:1005D00027EC05F035D0016A64B4012A0150010A04
:1005E0002FE10F0138510CE10401DB51040A08E14D
:1005F00012C438FF0F01385103E1030E0401DB6F11
:100600000401DD51020A0FE1000EE56A3FEC01F042
:10061000E652040104AD03D0880E046F11D0C80E59
:100620000401046F0DD027EC05F00AD00050010A38
:1006300007E164B405D00050E56E15EC00F0E65219
:10064000E4CF01F0E4CF00F0120000C0E5FF0401A8
:100650000451006E009E0050046F0051006E009E19
:100660000050006F0401DD6B0401DA6B0401D66BEE
:10067000D76B85EC03F00401DA510BE1400E040165
:10068000016F100E026F040E036F840E006F046F73
:1006900038D0040110AF26D00401D7510401175DF2
:1006A00004E10401D6510401165D04E216C4D6F437
:1006B00017C4D7F4000EE56A3FEC01F0E652020ED3
:1006C0000401DD6F400E0401016F100E026F040E75
:1006D000036F800E006F500E066F040E076FC80E7A
:1006E000046F0FD0010E0401DD6F0401056BC80E0D
:1006F000046F400E016F500E026F040E036FC80EA0
:10070000006F6598E4CF00F0120000C0E5FF11C44F
:1007100000F004011051600BD8A453D00050050A1A
:1007200009E1010E0401DA6F040E0401DB6F12C44B
:10073000D9F447D00050060A03E12EEC04F041D072
:100740000050090A12E1010E0401DA6F17EC05F0FE
:1007500012C4DCF40401DC5104E1040E0401DB6F7B
:1007600030D0050E0401DB6F2CD00050080A0FE1D9
:10077000010E0401DA6F040E0401D16FDC0ED06F9C
:10078000800ED26F010E0401D66FD76B1AD00050C5
:100790000A0A11E1010E0401DA6F0401506B040E24
:1007A0000401D16F500ED06F800ED26F010E040184
:1007B000D66FD76B06D000500B0A03E1010E04017F
:1007C000DA6FE4CF00F01200900E006E040E016E9E
:1007D000005004010E6F01500F6F0401DC6B9B8C05
:1007E000FF0E006EFF0E016E002EFED7012EFCD70D
:1007F0000F0E486F496F94948B84310ECD6EF28C3E
:10080000F28E000EA66E140E0F01396F0401DB6B21
:100810000401DB51050A05E0D6EC04F06EEC04F0AF
:10082000F7D7006A016A026A6EEC04F0005001100A
:1008300002E1040E8B1A004A012A036A9EB0032AC1
:100840000350010AF1E1022A9E90E60E025CECE3FD
:10085000EFEC04F000EF06F0E7D7120000C0E5FF70
:1008600004011051800A01E036D013C400F012C414
:10087000E8FF0050010A0FE1010E0401DA6F000EDB
:100880000401D26F090ED16F7A0ED06F120E0401DF
:10089000D66FD76B20D00050020A17E1010E040179
:1008A000DA6F000E0401D26F090ED16F8C0ED06F7B
:1008B0008E0EF66E090EF76E000EF86E0900F5CF7B
:1008C000D6F40900F5CFD7F406D00050060A03E1AC
:1008D000010E0401DA6FE4CF00F0120000C0E5FF62
:1008E0000401DB5123E062A404D00F0136B559ECBA
:1008F00005F0006A65B2002A0050010A17E062A004
:1009000004D00F0136B199EC04F062A203D00F01BC
:1009100036B36292030E0401DB5D08E362A606D0E3
:100920000F0136A703D0BCEC02F06296E4CF00F0D2
:10093000120000C0E5FF636A626A9F0E0F01376F05
:100940007B0E0F01366F0F01386B160E0F01266FED
:10095000006A62B6002A0050010A02E16296F8D7E6
:10096000659827EC05F00401D86B0401DC6B030EDD
:100970000401DB6FE4CF00F012001201000202005C
:100980000040D804AAFE0100000000010902200076
:100990000101000314090400000200000000070523
:1009A00001024000000705810240000065B607D043
:1009B000656A0F01366B6586010E0401DB6F040169
:1009C000DB51010A0BE165BA09D0626A0F01366B8F
:1009D0000F0136813689020E0401DB6F120000C060
:1009E000E5FF01C0E5FFCD6A656A94848B94FF0E34
:1009F000006E016E0050011004E0FF0E002601227F
:100A0000F9D7E4CF01F0E4CF00F01200E8AE04D053
:100A1000F3CFEAFFEE501200E8BC5EEF05F0E9CF3D
:100A2000F6FFF3CFF7FFF86E0900F55012000F0143
:100A30002789278527832787400E04010C6F096FBC
:100A4000900E0A6F040E0B6F800E086F12000401E7
:100A5000DD6B400E0401016F100E026F040E036F78
:100A6000880E006F046B1200E8AE05D0F3CFEAFFEA
:100A7000E4CFEEFF1200E8BC5EEF05F01200A684A2
:100A8000F29E550EA76EAA0EA76EA682A694F28EAF
:100A9000120012EEFEF022EEFEF0F86AA68EA69C80
:100AA000E4EC03F094C4F8FF93C4F7FF92C4F6FF9C
:0E0AB000120065920F0136956294120012003A
:08FFF800ACF71DFF61F881F177
:00000001FF
