:020000040000FA
:100C00002BEF09F0D9CFE5FFE1CFD9FF00C0E5FF19
:100C100001C0E5FF02C0E5FF03C0E5FF04C0E5FF3A
:100C2000020EDBCF00F0030EDBCF01F0120E00242A
:100C3000026E036A130E0322046A000E042202C02D
:100C4000F6FF03C0F7FF04C0F8FF0900F5CF02F07C
:100C5000050E025CD8B0F8D0FA6AFB6A0234FA36A4
:100C6000E834FA36FC0B760FE56E0C0EFA22000E15
:100C7000FB22E450F96E45EF06F072EF06F09FEFAD
:100C800006F0CCEF06F0F9EF06F0015015E0040E87
:100C90000024026E036A130E0322046A000E04226B
:100CA00002C0F6FF03C0F7FF04C0F8FF0900F5CF4C
:100CB00002F002509212C8D0040E0024026E036AA1
:100CC000130E0322046A000E042202C0F6FF03C0C2
:100CD000F7FF04C0F8FF0900F5CF02F00250FF084B
:100CE0009216B2D0015015E0040E0024026E036A81
:100CF000130E0322046A000E042202C0F6FF03C092
:100D0000F7FF04C0F8FF0900F5CF02F0025093127C
:100D10009BD0040E0024026E036A130E0322046AA1
:100D2000000E042202C0F6FF03C0F7FF04C0F8FF64
:100D30000900F5CF02F00250FF08931685D001504C
:100D400015E0040E0024026E036A130E0322046AE7
:100D5000000E042202C0F6FF03C0F7FF04C0F8FF34
:100D60000900F5CF02F0025094126ED0040E002458
:100D7000026E036A130E0322046A000E042202C0EC
:100D8000F6FF03C0F7FF04C0F8FF0900F5CF02F03B
:100D90000250FF08941658D0015015E0040E0024AC
:100DA000026E036A130E0322046A000E042202C0BC
:100DB000F6FF03C0F7FF04C0F8FF0900F5CF02F00B
:100DC0000250951241D0040E0024026E036A130EE5
:100DD0000322046A000E042202C0F6FF03C0F7FFDC
:100DE00004C0F8FF0900F5CF02F00250FF08951685
:100DF0002BD0015015E0040E0024016E026A130E80
:100E00000222036A000E032201C0F6FF02C0F7FFB0
:100E100003C0F8FF0900F5CF01F00150961214D07D
:100E2000016A026A040E0026130E0122000E02223D
:100E300000C0F6FF01C0F7FF02C0F8FF0900F5CFC0
:100E400000F00050FF089616E4CF04F0E4CF03F062
:100E5000E4CF02F0E4CF01F0E4CF00F0E4CFD9FF1B
:100E60001200D9CFE5FFE1CFD9FF00C0E5FF01C0F7
:100E7000E5FF02C0E5FF03C0E5FF04C0E5FF020E89
:100E8000DBCF00F0030EDBCF01F0120E0024026E68
:100E9000036A130E0322046A000E042202C0F6FF46
:100EA00003C0F7FF04C0F8FF0900F5CF02F0050EFC
:100EB000025CD8B0F8D0FA6AFB6A0234FA36E83439
:100EC000FA36FC0BD40FE56E0E0EFA22000EFB2252
:100ED000E450F96E74EF07F0A1EF07F0CEEF07F0E2
:100EE000FBEF07F028EF08F0015015E0040E002496
:100EF000026E036A130E0322046A000E042202C06B
:100F0000F6FF03C0F7FF04C0F8FF0900F5CF02F0B9
:100F100002508912C8D0040E0024026E036A130E18
:100F20000322046A000E042202C0F6FF03C0F7FF8A
:100F300004C0F8FF0900F5CF02F00250FF0889163F
:100F4000B2D0015015E0040E0024026E036A130EA5
:100F50000322046A000E042202C0F6FF03C0F7FF5A
:100F600004C0F8FF0900F5CF02F002508A129BD0AE
:100F7000040E0024026E036A130E0322046A000E9C
:100F8000042202C0F6FF03C0F7FF04C0F8FF090007
:100F9000F5CF02F00250FF088A1685D0015015E007
:100FA000040E0024026E036A130E0322046A000E6C
:100FB000042202C0F6FF03C0F7FF04C0F8FF0900D7
:100FC000F5CF02F002508B126ED0040E0024026E98
:100FD000036A130E0322046A000E042202C0F6FF05
:100FE00003C0F7FF04C0F8FF0900F5CF02F002507C
:100FF000FF088B1658D0015015E0040E0024026E35
:10100000036A130E0322046A000E042202C0F6FFD4
:1010100003C0F7FF04C0F8FF0900F5CF02F002504B
:101020008C1241D0040E0024026E036A130E0322B8
:10103000046A000E042202C0F6FF03C0F7FF04C0DA
:10104000F8FF0900F5CF02F00250FF088C162BD0F4
:10105000015015E0040E0024016E026A130E0222F4
:10106000036A000E032201C0F6FF02C0F7FF03C0AF
:10107000F8FF0900F5CF01F001508D1214D0016A7C
:10108000026A040E0026130E0122000E022200C086
:10109000F6FF01C0F7FF02C0F8FF0900F5CF00F02E
:1010A0000050FF088D16E4CF04F0E4CF03F0E4CF46
:1010B00002F0E4CF01F0E4CF00F0E4CFD9FF12005A
:1010C000D9CFE5FFE1CFD9FF00C0E5FF01C0E5FFC3
:1010D00002C0E5FF03C0E5FF020EDBCF00F0120EF9
:1010E0000024016E026A130E0222036A000E03221C
:1010F00001C0F6FF02C0F7FF03C0F8FF0900F5CFFB
:1011000001F0050E015CD8B09AD0FA6AFB6A01348E
:10111000FA36E834FA36FC0B280FE56E110EFA2287
:10112000000EFB22E450F96E9EEF08F0B8EF08F0D5
:10113000D2EF08F0ECEF08F006EF09F0040E0024FF
:10114000016E026A130E0222036A000E032201C01E
:10115000F6FF02C0F7FF03C0F8FF0900F5CF01F06A
:1011600080500116015002E0010E6AD0E86A68D092
:10117000040E0024016E026A130E0222036A000E9E
:10118000032201C0F6FF02C0F7FF03C0F8FF090009
:10119000F5CF01F081500116015002E0010E50D050
:1011A000E86A4ED0040E0024016E026A130E022279
:1011B000036A000E032201C0F6FF02C0F7FF03C05E
:1011C000F8FF0900F5CF01F082500116015002E04E
:1011D000010E36D0E86A34D0040E0024016E026A93
:1011E000130E0222036A000E032201C0F6FF02C0A2
:1011F000F7FF03C0F8FF0900F5CF01F08350011697
:10120000015002E0010E1CD0E86A1AD0016A026A9D
:10121000040E0026130E0122000E022200C0F6FF6B
:1012200001C0F7FF02C0F8FF0900F5CF00F08450BD
:101230000016005002E0010E03D0E86A01D0E86A0F
:10124000E4CF03F0E4CF02F0E4CF01F0E4CF00F00C
:10125000E4CFD9FF120017EEFFF027EEFFF0F86A97
:10126000A68EA69CBF0EE96E0E0EEA6E0068ED6AB1
:101270000050FDE1BE0EF66E140EF76E000EF86E15
:101280000900F5CF05F00900F5CF06F034D00900CC
:10129000F5CF00F00900F5CF01F00900F5CF02F01D
:1012A00009000900F5CFE9FF0900F5CFEAFF0900C1
:1012B00009000900F5CF03F00900F5CF04F009009B
:1012C0000900F6CF07F0F7CF08F0F8CF09F000C01B
:1012D000F6FF01C0F7FF02C0F8FF03D00900F5CF09
:1012E000EEFF0306FBE20406F9E207C0F6FF08C0C2
:1012F000F7FF09C0F8FF0506CAE20606C8E223ECBC
:101300000AF0FFD7804004080104020204081020FC
:1013100040800101000003010103030303030303F1
:10132000E806E56E630EA3EC09F0E4500BE000D094
:10133000E56E630EA3EC09F000D000D00000E4508D
:10134000E82EF6D71200E8060000E85007E000D0CB
:1013500000D000D000D00000E82EFAD71200D9CF7C
:10136000E5FFE1CFD9FF00C0E5FF01C0E5FF02C006
:10137000E5FF03C0E5FF020EDBCF00F0030EDBCF7D
:1013800001F0026A036A0150035C02E10050025C52
:1013900006E20C0E90EC09F0024A032AF4D7E4CFDF
:1013A00003F0E4CF02F0E4CF01F0E4CF00F0E4CFAB
:1013B000D9FF1200D9CFE5FFE1CFD9FF00C0E5FF8B
:1013C00001C0E5FF02C0E5FF03C0E5FF020EDBCF71
:1013D00000F0030EDBCF01F0026A036A0150035CE8
:1013E00002E10050025C03E2024A032AF7D7E4CF8D
:1013F00003F0E4CF02F0E4CF01F0E4CF00F0E4CF5B
:10140000D9FF1200D9CFE5FFE1CFD9FF00C0E5FF3A
:1014100001C0E5FF020EDBCF00F00050E56E60EC8E
:1014200008F0016EE65201700150E56E0050E56E65
:1014300031EC07F0E652E652E4CF01F0E4CF00F0E1
:10144000E4CFD9FF1200D0B202D0930ED012D35005
:10145000030B800F7D0F02E3D3A4FED7F29EF29C14
:101460003AEC0AF066EC0AF057EC0AF04AEC0AF0A3
:10147000FDD71200896A8A6A400E8B6E8C6A8D6A6B
:10148000926A936A949094929494949C949E956A90
:10149000966A1200140EE56E02EC0AF0E652E56A56
:1014A000320EE56EAFEC09F0E652E6521200E56A44
:1014B000140EE56E02EC06F0E652E6521200010050
:1014C000D614000000040000010000000F0EC16EE1
:0814D000070EB46E12000000CB
:00000001FF
