:020000040000FA
:100C00002BEF21F0629C1200D9EF1EF00F01486912
:100C10001F0E0F01496F12007DEF1FF0D9CFE5FFC6
:100C2000E1CFD9FF00C0E5FF01C0E5FF02C0E5FF4D
:100C300003C0E5FF04C0E5FF05C0E5FF06C0E5FF12
:100C400007C0E5FF08C0E5FF09C0E5FF0AC0E5FFF2
:100C50000BC0E5FF0CC0E5FF0DC0E5FF0EC0E5FFD2
:100C60000FC0E5FF10C0E5FF11C0E5FF12C0E5FFB2
:100C700013C0E5FF14C0E5FF15C0E5FF020EDBCF92
:100C800000F0030EDBCF01F0040EDBCF02F0050E07
:100C9000DBCF03F0060EDBCF04F0070EDBCF05F051
:100CA000080EDBCF06F0090EDBCF07F00A0EDBCF14
:100CB00008F0096A020E0A6E0B6A03C0E9FF04C05D
:100CC000F3FF0550C8EC20F00C6E0C50D8B40BEFBD
:100CD00009F00C50250A02E0F2EF08F00C6A0D6AE8
:100CE000032A02E3044A052A03C0E9FF04C0F3FF14
:100CF0000550C8EC20F00E6E0E50D8B40BEF09F082
:100D00000E50250A02E1F2EF08F00E502D0A06E11E
:100D1000032A02E3044A052A010E0C6E03C00EF0FA
:100D200004C00FF005C010F00EC0E9FF0FC0F3FFC4
:100D30001050C8EC20F0300A06E10E2A02E30F4AF8
:100D4000102A0C82F1D70EC0E9FF0FC0F3FF10503C
:100D5000C8EC20F0116E300E115C13E33A0E115CFA
:100D600010E20D500A0DF3CF0DF0D00E11260D50EC
:100D7000126E115012240D6E0E2A02E30F4A102A31
:100D8000E2D70EC003F00FC004F010C005F00EC093
:100D9000E9FF0FC0F3FF1050C8EC20F02E0A0AE163
:100DA0000E50010F036E000E0F20046E000E102077
:100DB000056E0A6A03C00EF004C00FF005C010F003
:100DC0000EC0E9FF0FC0F3FF1050C8EC20F0116E09
:100DD000300E115C13E33A0E115C10E20A500A0D5A
:100DE000F3CF0AF0D00E11260A50126E11501224C1
:100DF0000A6E0E2A02E30F4A102AE2D70EC003F051
:100E00000FC004F010C005F00EC0E9FF0FC0F3FFE3
:100E10001050C8EC20F0116E660A01E03FD0065079
:100E2000040F126E000E0720136E000E0820146EC1
:100E300012C006F013C007F014C008F0FC0E122612
:100E4000FF0E1322142212C0E9FF13C0F3FF145047
:100E5000A0EC1FF0126EF3CF13F0F4CF14F0E9CF33
:100E600015F00A50E56EE56A0C50E56E0D50E56E22
:100E70001550E56E1450E56E1350E56E1250E56E98
:100E80000250E56E0150E56E0050E56E53EC09F03E
:100E9000126E0B0EE12612500926B7D11150730ABB
:100EA00001E044D00650030F126E000E0720136EAF
:100EB000000E0820146E12C006F013C007F014C014
:100EC00008F0FD0E1226FF0E1322142212C0E9FFB5
:100ED00013C0F3FF14501AEC20F0126EF3CF13F08E
:100EE000F4CF14F01310141006E1000E146E250E4A
:100EF000136E1A0E126E0C50E56E0D50E56E145006
:100F0000E56E1350E56E1250E56E0250E56E01502D
:100F1000E56E0050E56E90EC11F0126E080EE126C1
:100F20000950136E12501324096E6FD111506C0AC0
:100F30000BE10E50010F036E000E0F20046E000E29
:100F40001020056E010E0B6E0B5023E00650040FAF
:100F50000E6E000E07200F6E000E0820106E0EC0E1
:100F600006F00FC007F010C008F0FC0E0E26FF0EB2
:100F70000F2210220EC0E9FF0FC0F3FF1050A0ECAB
:100F80001FF00E6EF3CF0FF0F4CF10F0E9CF11F099
:100F900024D00650020F126E000E0720136E000EB2
:100FA0000820146E12C006F013C007F014C008F039
:100FB000FE0E1226FF0E1322142212C0E9FF13C0E8
:100FC000F3FF14507AEC20F0126EF3CF13F012C03E
:100FD0000EF013C00FF0106A116A03C0E9FF04C0DD
:100FE000F3FF0550C8EC20F0126E750A20E1610E87
:100FF000E56EE56A0C50E56E0D50E56EE56A0A0E89
:10100000E56E1150E56E1050E56E0F50E56E0E5016
:10101000E56E0250E56E0150E56E0050E56E28EC7D
:101020000CF0136E0D0EE12613500926EED012506F
:10103000640A03E01250690A21E1610EE56EE56A77
:101040000C50E56E0D50E56E010EE56E0A0EE56E74
:101050001150E56E1050E56E0F50E56E0E50E56EC6
:101060000250E56E0150E56E0050E56E28EC0CF084
:10107000136E0D0EE12613500926C7D01250780AC0
:1010800003E01250700A20E1610EE56EE56A0C5033
:10109000E56E0D50E56EE56A100EE56E1150E56ED9
:1010A0001050E56E0F50E56E0E50E56E0250E56E85
:1010B0000150E56E0050E56E28EC0CF0136E0D0E3D
:1010C000E12613500926A1D01250580A03E012500D
:1010D000500A20E1410EE56EE56A0C50E56E0D50B8
:1010E000E56EE56A100EE56E1150E56E1050E56E86
:1010F0000F50E56E0E50E56E0250E56E0150E56E44
:101100000050E56E28EC0CF0136E0D0EE126135026
:1011100009267BD01250620A20E1610EE56EE56A75
:101120000C50E56E0D50E56EE56A020EE56E11504D
:10113000E56E1050E56E0F50E56E0E50E56E0250F4
:10114000E56E0150E56E0050E56E28EC0CF0136E74
:101150000D0EE1261350092658D012506F0A20E1D7
:10116000610EE56EE56A0C50E56E0D50E56EE56AC0
:10117000080EE56E1150E56E1050E56E0F50E56EED
:101180000E50E56E0250E56E0150E56E0050E56EC2
:1011900028EC0CF0136E0D0EE1261350092635D005
:1011A0001250630A32E10E500E01736F746B0C50D3
:1011B000E56E0D50E56E800EE56E0E0EE56E730E5B
:1011C000E56E0250E56E0150E56E0050E56E90EC64
:1011D00011F00C6E080EE12609500D6E0C500D2416
:1011E000096E13D003C0E9FF04C0F3FF0550C8EC3B
:1011F00020F0E56E0250E56E0150E56E0050E56EA0
:10120000D2EC17F0040EE126092A032A02E3044A6D
:10121000052A5DEF06F000500110021014E000C036
:10122000E9FF01C0F3FF02501AEC20F0006EF3CF8B
:1012300001F0F4CF02F0E56A00C0E9FF01C0F3FF5E
:10124000025036EC21F00950E4CF15F0E4CF14F051
:10125000E4CF13F0E4CF12F0E4CF11F0E4CF10F0BC
:10126000E4CF0FF0E4CF0EF0E4CF0DF0E4CF0CF0BC
:10127000E4CF0BF0E4CF0AF0E4CF09F0E4CF08F0BC
:10128000E4CF07F0E4CF06F0E4CF05F0E4CF04F0BC
:10129000E4CF03F0E4CF02F0E4CF01F0E4CF00F0BC
:1012A000E4CFD9FF1200D9CFE5FFE1CFD9FF00C0CD
:1012B000E5FF01C0E5FF02C0E5FF03C0E5FF04C094
:1012C000E5FF05C0E5FF06C0E5FF07C0E5FF08C074
:1012D000E5FF09C0E5FF0AC0E5FF0BC0E5FF0CC054
:1012E000E5FF0DC0E5FF0EC0E5FF0FC0E5FF10C034
:1012F000E5FF11C0E5FF12C0E5FF13C0E5FF14C014
:10130000E5FF15C0E5FF16C0E5FF17C0E5FF18C0F3
:10131000E5FF19C0E5FF1AC0E5FF1BC0E5FF1CC0D3
:10132000E5FF1DC0E5FF1EC0E5FF1FC0E5FF20C0B3
:10133000E5FF020EDBCF00F0030EDBCF01F0040E61
:10134000DBCF02F0050EDBCF03F0060EDBCF04F09F
:10135000070EDBCF05F0080EDBCF06F0090EDBCF62
:1013600007F00A0EDBCF08F00C0EDBCF09F00A6A9B
:101370000B6A0C6A0D6A0E6A0F6A106A116A0E0E09
:10138000136E400E126E800E146E0E0E166E4C0E04
:10139000156E800E176E186A0B0E196E035004013D
:1013A000FA6F0450FB6F0550FC6F0650FD6FD8803C
:1013B000FDAFD89023E3075012E008A210D02D0E05
:1013C000E56E0250E56E0150E56E0050E56ED2EC20
:1013D00017F0040EE126010E186E07060FD02D0E31
:1013E000E56E12C0E9FF13C0F3FF145036EC21F094
:1013F000122A02E3134A142A0A0E196E0401FC355C
:10140000FD35036E046A810E0326FA51046EFB510A
:10141000056E7F0EFC15066E1A6A068E0350800F4D
:10142000610F04E20350800F970F1FE2690E0E0157
:10143000406F6E0E416F660E426F436B0850E56E53
:101440000750E56E800EE56E0E0EE56E400EE56E01
:101450000250E56E0150E56E0050E56E90EC11F023
:101460001B6E080EE1261B50AED10350800F690F92
:1014700025E303C01BF01C6A03BE1C68E90E1B2693
:10148000D8A01C0604C00AF005C00BF006C00CF082
:101490001AC00DF01B5011E009E6E86CD8900A362E
:1014A0000B360C360D36010FFAE37CD0D8900D3296
:1014B0000C320B320A32010FFAE374D0D88003AE3B
:1014C000D890D8B04AD003C01BF01C6A03BE1C6879
:1014D0001B5017081D6E000E1C5404C00AF005C0F6
:1014E0000BF006C00CF01AC00DF01D5011E009E61B
:1014F000E86CD8900D320C320B320A32010FFAE34D
:1015000007D0D8900A360B360C360D36010FFAE3A9
:101510001B4A1C2A04C01DF005C01EF006C01FF0A7
:101520001AC020F01B5011E009E6E86CD8901D3677
:101530001E361F362036010FFAE307D0D89020322E
:101540001F321E321D32010FFAE31D500E6E1E5067
:101550000F6E1F50106E116A25D01A6A1B6A03BEE7
:101560001B68034A1B2A1B1E036CD8B41B2A04C029
:101570000EF005C00FF006C010F01AC011F00350B5
:1015800011E009E6E86CD890113210320F320E32B9
:10159000010FFAE307D0D8900E360F361036113609
:1015A000010FFAE30A500B100C100D100FE1300E72
:1015B000E56E12C0E9FF13C0F3FF145036EC21F0C2
:1015C000122A02E3134A142A190678D015C003F030
:1015D00016C004F017C005F0066A19C015F00A50CD
:1015E0000B100C100D10D8B43CD0E56AE56AE56A22
:1015F0000A0EE56E0D50E56E0C50E56E0B50E56E73
:101600000A50E56E9AEC15F0166E080EE126300EC3
:10161000162616C0E5FF03C0E9FF04C0F3FF05501E
:1016200036EC21F0032A02E3044A052AE56AE56A5A
:10163000E56A0A0EE56E0D50E56E0C50E56E0B5036
:10164000E56E0A50E56EBCEC16F00A6EF3CF0BF0B7
:10165000F4CF0CF0E9CF0DF0080EE126062A1506AE
:10166000BED715C019F012C00AF013C00BF014C099
:101670000CF006C00DF006060D501AE0FF0E032612
:101680000422052203C0E9FF04C0F3FF0550C8ECA3
:1016900020F00D6E0DC0E5FF0AC0E9FF0BC0F3FF9F
:1016A0000C5036EC21F00A2AE4E30B4A0C2AE1D76D
:1016B0000AC012F00BC013F00CC014F0070E095C46
:1016C00002E3060E096E0950195CD8A019C009F092
:1016D000010E095CD8A057D02E0EE56E12C0E9FFAE
:1016E00013C0F3FF145036EC21F0122A02E3134A20
:1016F000142A12C003F013C004F014C005F0066AE7
:101700000950065C3AE20E500E240A6E0F340B6E3E
:1017100010340C6E11340D6E0A500A260B360C363E
:101720000D360A500A260B360C360D360E500E2496
:10173000156E0F34166E1034176E1134196E155065
:101740000A240E6E16500B200F6E17500C20106ED0
:1017500019500D200A6E300E0A260AC0E5FF03C09C
:10176000E9FF04C0F3FF055036EC21F0032A02E341
:10177000044A052A116A062AC3D703C012F004C01E
:1017800013F005C014F0E56A12C0E9FF13C0F3FFBF
:10179000145036EC21F00850E56E0750E56E800ECF
:1017A000E56E0E0EE56E400EE56E0250E56E0150E0
:1017B000E56E0050E56E90EC11F0006E080EE1262B
:1017C000185000260050E4CF20F0E4CF1FF0E4CF03
:1017D0001EF0E4CF1DF0E4CF1CF0E4CF1BF0E4CF0B
:1017E0001AF0E4CF19F0E4CF18F0E4CF17F0E4CF0B
:1017F00016F0E4CF15F0E4CF14F0E4CF13F0E4CF0B
:1018000012F0E4CF11F0E4CF10F0E4CF0FF0E4CF0A
:101810000EF0E4CF0DF0E4CF0CF0E4CF0BF0E4CF0A
:101820000AF0E4CF09F0E4CF08F0E4CF07F0E4CF0A
:1018300006F0E4CF05F0E4CF04F0E4CF03F0E4CF0A
:1018400002F0E4CF01F0E4CF00F0E4CFD9FF1200C2
:10185000D9CFE5FFE1CFD9FF00C0E5FF01C0E5FF2B
:1018600002C0E5FF03C0E5FF04C0E5FF05C0E5FFDA
:1018700006C0E5FF07C0E5FF08C0E5FF09C0E5FFBA
:101880000AC0E5FF0BC0E5FF0CC0E5FF0DC0E5FF9A
:101890000EC0E5FF0FC0E5FF10C0E5FF11C0E5FF7A
:1018A00012C0E5FF13C0E5FF14C0E5FF15C0E5FF5A
:1018B00016C0E5FF17C0E5FF18C0E5FF19C0E5FF3A
:1018C0001AC0E5FF1BC0E5FF020EDBCF00F0030EE0
:1018D000DBCF01F0040EDBCF02F0050EDBCF03F00F
:1018E000060EDBCF04F0070EDBCF05F0080EDBCFD2
:1018F00006F0090EDBCF07F00A0EDBCF08F00B0E67
:10190000DBCF09F00C0EDBCF0AF00E0EDBCF0BF0B5
:101910000C6A0D6A03C00EF004C00FF005C010F091
:1019200006C011F003500410051006101BE1300E24
:101930000401EE6FEF6B0A50E56E0950E56E800E04
:10194000E56E040EE56EEE0EE56E0250E56E01509A
:10195000E56E0050E56E90EC11F0126E080EE12677
:101960001250CDD0085017E007500A0A14E1D88071
:1019700006AED89010E3010E0C6E061C116E051C0D
:10198000106E041C0F6E031C0E6E0E2A04E10F2A4B
:1019900002E1104A112A040E046EF90E036E800E45
:1019A000056EE56A03C0E9FF04C0F3FF36EC21F0E1
:1019B00003C006F004C008F005C012F00E500F106E
:1019C00010101110D8B45AD007C013F0146A156A59
:1019D000166AE56AE56AE56A1350E56E1150E56E30
:1019E0001050E56E0F50E56E0E50E56E9AEC15F056
:1019F000176EF3CF18F0F4CF19F0E9CF1AF0080EF4
:101A0000E126000E1A5C08E1000E195C05E1000EEB
:101A1000185C02E10A0E175C06E30BC01BF0C60E51
:101A20001B261B501726FF0E062608221222300EF8
:101A3000172617C0E5FF06C0E9FF08C0F3FF1250E4
:101A400036EC21F01650E56E1550E56E1450E56E3B
:101A50001350E56E1150E56E1050E56E0F50E56EB7
:101A60000E50E56EBCEC16F00E6EF3CF0FF0F4CF17
:101A700010F0E9CF11F0080EE126A0D706C003F060
:101A800008C004F012C005F00C5021E0095012E02B
:101A90000AA210D02D0EE56E0250E56E0150E56EE3
:101AA0000050E56ED2EC17F0040EE126010E0D6E2B
:101AB00009060DD0FF0E0326042205222D0EE56E29
:101AC00003C0E9FF04C0F3FF055036EC21F00A50D3
:101AD000E56E0950E56E0550E56E0450E56E035065
:101AE000E56E0250E56E0150E56E0050E56E90EC3B
:101AF00011F0006E080EE1260D5000260050E4CFD4
:101B00001BF0E4CF1AF0E4CF19F0E4CF18F0E4CFE3
:101B100017F0E4CF16F0E4CF15F0E4CF14F0E4CFE3
:101B200013F0E4CF12F0E4CF11F0E4CF10F0E4CFE3
:101B30000FF0E4CF0EF0E4CF0DF0E4CF0CF0E4CFE3
:101B40000BF0E4CF0AF0E4CF09F0E4CF08F0E4CFE3
:101B500007F0E4CF06F0E4CF05F0E4CF04F0E4CFE3
:101B600003F0E4CF02F0E4CF01F0E4CF00F0E4CFE3
:101B7000D9FF1200D9CFE5FFE1CFD9FF00C0E5FFC3
:101B800001C0E5FF02C0E5FF020ED924006E000E81
:101B9000DA20016E800E026E030E0026000E012276
:101BA000022200C0E9FF01C0F3FF0250A0EC1FF0C9
:101BB000006E010A01E19AD00050020A01E1F0D062
:101BC0000050080A01E1BFD000500A0A35E0005079
:101BD000100A01E15ED00050200A01E00ED107C0DA
:101BE000E5FF08C0E5FF09C0E5FF020EDBCF07F007
:101BF000030EDBCF08F0040EDBCF09F007C000F0C6
:101C000008C001F009C002F0E4CF09F0E4CF08F009
:101C1000E4CF07F0E56A0250E56E0150E56E005032
:101C2000E56E000EE56E250EE56E220EE56EA5EC66
:101C300019F0070EE12615D107C0E5FF08C0E5FF42
:101C400009C0E5FF020EDBCF07F0030EDBCF08F083
:101C5000040EDBCF09F007C000F008C001F009C096
:101C600002F0E4CF09F0E4CF08F0E4CF07F0E56A32
:101C70000250E56E0150E56E0050E56E000EE56E17
:101C8000250EE56E260EE56EA5EC19F0070EE12691
:101C9000E8D007C0E5FF08C0E5FF09C0E5FF020E78
:101CA000DBCF07F0030EDBCF08F0040EDBCF09F02B
:101CB00007C000F008C001F009C002F0E4CF09F04D
:101CC000E4CF08F0E4CF07F0E56A0250E56E01507A
:101CD000E56E0050E56E000EE56E250EE56E2A0EEF
:101CE000E56EA5EC19F0070EE126BBD007C0E5FFB5
:101CF00008C0E5FF09C0E5FF020EDBCF07F0030EC9
:101D0000DBCF08F0040EDBCF09F007C000F008C0FD
:101D100001F009C002F0E4CF09F0E4CF08F0E4CF0D
:101D200007F0E56A0250E56E0150E56E0050E56E81
:101D3000000EE56E250EE56E260EE56EA5EC19F09B
:101D4000070EE1268ED007C0E5FF08C0E5FF09C0F9
:101D5000E5FF020EDBCF07F0030EDBCF08F0040E29
:101D6000DBCF09F007C000F008C001F009C002F0A5
:101D7000E4CF09F0E4CF08F0E4CF07F0E56A0250C1
:101D8000E56E0150E56E0050E56E000EE56E250E25
:101D9000E56E2E0EE56EA5EC19F0070EE12661D07A
:101DA00007C0E5FF08C0E5FF09C0E5FF020EDBCF75
:101DB00007F0030EDBCF08F0040EDBCF09F007C0FD
:101DC00000F008C001F009C002F0E4CF09F0E4CF50
:101DD00008F0E4CF07F0E56A0250E56E0150E56EC9
:101DE0000050E56E000EE56E250EE56E320EE56ED6
:101DF000A5EC19F0070EE12634D007C0E5FF08C0B6
:101E0000E5FF09C0E5FF020EDBCF07F0030EDBCFD5
:101E100008F0040EDBCF09F0E4CF09F0E4CF08F0BE
:101E2000E4CF07F007C0E5FF08C0E5FF09C0E5FF04
:101E3000020EDBCF07F0030EDBCF08F0040EDBCF82
:101E400009F00950E56E0850E56E0750E56EE4CFE5
:101E500009F0E4CF08F0E4CF07F0A5EC19F0030E89
:101E6000E126E4CF02F0E4CF01F0E4CF00F0E4CFCC
:101E7000D9FF120000C0E5FF01C0E5FF02C0E5FF89
:101E800003C0E5FF04C0E5FF06C0E5FF07C0E5FFAE
:101E9000E56A0C0EE56EC3EC18F0E652E652000E51
:101EA000E56E250EE56E620EE56EA5EC19F0030EEB
:101EB000E1266BEC21F00401E245FE0B006E009080
:101EC0000050E56EFEEC1FF0006EE65200C001F01F
:101ED000E56A0150E56E000EE56E250EE56E700EAA
:101EE000E56EA5EC19F0050EE1260401E451E56E5E
:101EF000FEEC1FF0006EE65200C001F0E56A0150F2
:101F0000E56E000EE56E250EE56E860EE56EA5EC1F
:101F100019F0050EE1260401E351E56EFEEC1FF019
:101F2000006EE65200C001F0E56A0150E56E000E59
:101F3000E56E250EE56E9A0EE56EA5EC19F0050E20
:101F4000E126016A080E015C38E2E50E0124026E0A
:101F5000036A040E032202C0E9FF03C0EAFFEFCFC9
:101F600004F00450E56EFEEC1FF0006EE65200C077
:101F700004F002C0E9FF03C0EAFFEFCF02F001C0A6
:101F800006F0076A0401E3510626E4510722E56AD8
:101F90000450E56EE56A0250E56E0750E56E0650A6
:101FA000E56E000EE56E250EE56EAC0EE56EA5EC59
:101FB00019F0090EE126012AC5D7000EE56E250E9F
:101FC000E56E360EE56EA5EC19F0030EE12665EC24
:101FD00021F0030EE56EE80EE56E04EC1FF0E6520C
:101FE000E652010EE56E0C0EE56EC3EC18F0E652FB
:101FF000E652000EE56E250EE56EC80EE56EA5EC08
:1020000019F0030EE1266BEC21F00401E245FE0B12
:10201000016E01900150E56EFEEC1FF0006EE6527D
:1020200000C001F0E56A0150E56E000EE56E250E78
:10203000E56E700EE56EA5EC19F0050EE1260401C3
:10204000E451E56EFEEC1FF0006EE65200C001F0B8
:10205000E56A0150E56E000EE56E250EE56E860E12
:10206000E56EA5EC19F0050EE1260401E351E56EDD
:10207000FEEC1FF0006EE65200C001F0E56A015070
:10208000E56E000EE56E250EE56E9A0EE56EA5EC8A
:1020900019F0050EE1266BEC21F00401E245FE0B80
:1020A000016E012A0150E56EFEEC1FF0E652E56A72
:1020B000E56E000EE56E250EE56E700EE56EA5EC84
:1020C00019F0050EE126006A090E005C26E2F8EC24
:1020D00020F0016E00C003F0046A0401E3510326FE
:1020E000E4510422E56A0150E56E0450E56E0350A8
:1020F000E56E000EE56E250EE56ED60EE56EA5ECDE
:1021000019F0070EE126080E005C03E341EC21F014
:1021100002D049EC21F0002AD7D7000EE56E250E3B
:10212000E56E360EE56EA5EC19F0030EE12665ECC2
:1021300021F0030EE56EE80EE56E04EC1FF0E652AA
:10214000E652E4CF07F0E4CF06F0E4CF04F0E4CFAA
:1021500003F0E4CF02F0E4CF01F0E4CF00F012008E
:10216000D9CFE5FFE1CFD9FF00C0E5FF01C0E5FF12
:1021700002C0E5FF03C0E5FF04C0E5FF05C0E5FFC1
:1021800006C0E5FF07C0E5FF08C0E5FF020EDBCF94
:1021900000F0000E0401FF5D02E1400EFE5D05E26D
:1021A000FEC401F0FFC402F003D0400E016E026ACB
:1021B0000044FE0B036E0328040DF450036EF3CFAE
:1021C00000F0000E0024046E040E0320056E000EC5
:1021D0000024066E040E0320076E06C0E9FF07C048
:1021E000EAFFEFCF06F0FC0E061604C0E9FF05C0BB
:1021F000EAFF06C0EFFF000E0024046E040E032069
:10220000056E000E0024066E040E0320076E06C045
:10221000E9FF07C0EAFFEFCF06F0030E0214061233
:1022200004C0E9FF05C0EAFF06C0EFFF000E00246E
:10223000046E040E0320056E044A052A0150066E42
:1022400004C0E9FF05C0EAFF06C0EFFF000E00264C
:10225000040E0322020E0026D8B0032A400E046E9C
:10226000050E056E00C0E9FF03C0EAFF04C0EEFFE3
:1022700005C0EFFF01500401FE5F0250FF5B050E39
:102280000E016E6F400E6D6F800E6F6F006A00C0A2
:1022900003F0046A0250045C02E10150035C2BE28B
:1022A0006DCE03F06ECE04F06FCE05F06ACE06F070
:1022B0006BCE07F06CCE08F006C0E9FF07C0F3FF55
:1022C0000850C8EC20F0066E0E016A2B03E36B3F4A
:1022D00001D06C2B06C0E5FF03C0E9FF04C0F3FF8B
:1022E000055036EC21F00E016D2B03E36E3F01D05B
:1022F0006F2B002ACCD7E4CF08F0E4CF07F0E4CF6F
:1023000006F0E4CF05F0E4CF04F0E4CF03F0E4CF2F
:1023100002F0E4CF01F0E4CF00F0E4CFD9FF1200E7
:10232000D9CFE5FFE1CFD9FF00C0E5FF01C0E5FF50
:1023300002C0E5FF03C0E5FF04C0E5FF05C0E5FFFF
:1023400006C0E5FF07C0E5FF08C0E5FF09C0E5FFDF
:102350000AC0E5FF0BC0E5FF0CC0E5FF0DC0E5FFBF
:102360000EC0E5FF020EDBCF00F0030EDBCF01F065
:10237000040EDBCF02F0050EDBCF03F0060EDBCF41
:1023800004F0070EDBCF05F0080EDBCF06F0090ED8
:10239000DBCF07F0086A200E096E065022E00A6AB9
:1023A00003C00BF004C00CF005C00DF00BC0E9FF3A
:1023B0000CC0F3FF0D50C8EC20F00E6E0E5006E07E
:1023C0000A2A0B2AF3E30C4A0D2AF0D706500A5CBE
:1023D00002E3066A02D00A50065E07A202D0300E5F
:1023E000096E07B019D0076A06C00AF00A5005E165
:1023F00007C008F00AC006F00FD00950E56E025081
:10240000E56E0150E56E0050E56ED2EC17F0040E5B
:10241000E126072A0A06EAD708C007F003C0E9FF49
:1024200004C0F3FF0550C8EC20F0086E085012E01D
:102430000850E56E0250E56E0150E56E0050E56E05
:10244000D2EC17F0040EE126072A032AE7E3044A38
:10245000052AE4D707C003F006C004F004500FE0DB
:102460000950E56E0250E56E0150E56E0050E56ED4
:10247000D2EC17F0040EE126032A0406EFD7F36A24
:102480000350E4CF0EF0E4CF0DF0E4CF0CF0E4CF36
:102490000BF0E4CF0AF0E4CF09F0E4CF08F0E4CF8A
:1024A00007F0E4CF06F0E4CF05F0E4CF04F0E4CF8A
:1024B00003F0E4CF02F0E4CF01F0E4CF00F0E4CF8A
:1024C000D9FF12001201000202000040D804ABFE46
:1024D0000000000100010902430002010003140989
:1024E000040000010202010005240010010424027E
:1024F00000052406000105240100010705820310E0
:10250000000209040100020A00000007050302405E
:1025100000000705830240000000286E756C6C29DE
:102520000000256600002564000025780000256F66
:102530000000256200000A0D000025630000010272
:102540000408102040804080010204010204082099
:102550000101010101010101020202020200000069
:10256000000057726974696E67202E2E2E0A0D00C6
:10257000436F6E74726F6C20427974652041636B97
:102580003D25640D0A00486967682042797465201A
:1025900041636B3D25640D0A00004C6F7720427942
:1025A00074652041636B3D25640D0A0057726974A0
:1025B0006520307825303458205B25635D2C204120
:1025C000636B3D25640D0A0052656164696E672086
:1025D0002E2E2E0A0D00526561642030782530348D
:1025E00058205B25635D0D0A0000E806E56E090EC4
:1025F0000EEC13F0630E21EC13F0E4500EE000D06B
:10260000E56E090E0EEC13F0630E21EC13F000D012
:1026100000D00000E450E82EF3D71200E806E56E83
:10262000630E21EC13F0E4500BE000D0E56E630E76
:1026300021EC13F000D000D00000E450E82EF6D7D3
:102640001200E8060000E85007E000D000D000D0FB
:1026500000D00000E82EFAD71200D9CFE5FFE1CF75
:10266000D9FF00C0E5FF01C0E5FF02C0E5FF03C0E0
:10267000E5FF04C0E5FF05C0E5FF06C0E5FF07C0B4
:10268000E5FF08C0E5FF09C0E5FF0AC0E5FF020E4F
:10269000DBCF00F0030EDBCF01F0040EDBCF02F046
:1026A000050EDBCF03F0046A800E056E0E017D512E
:1026B000050A02E0E86A55D00401E15102E1E86A46
:1026C00050D004011CBF4CD0410E035C02E3400E0D
:1026D000036E066A0350065C26E2C00E0624076EEF
:1026E000086A050E082206500024096EE86A0120D7
:1026F0000A6EE86A022009C0E9FF0AC0F3FFC8ECCD
:1027000020F0096E07C0E9FF08C0EAFF09C0EFFF2B
:1027100005C007F007C008F007060850FBE107C036
:1027200005F0062AD7D706C004F0065004011D6F35
:10273000400E1C151C6F006A1CBD002A0050D8807A
:10274000E866D890006A00360050010BE840E84087
:10275000F46E1C51BF0BF4101C6F880E1C111C6F03
:102760000450E4CF0AF0E4CF09F0E4CF08F0E4CF5E
:1027700007F0E4CF06F0E4CF05F0E4CF04F0E4CFB7
:1027800003F0E4CF02F0E4CF01F0E4CF00F0E4CFB7
:10279000D9FF1200D9CFE5FFE1CFD9FF00C0E5FF97
:1027A00001C0E5FF02C0E5FF03C0E5FF04C0E5FF8F
:1027B00005C0E5FF06C0E5FF07C0E5FF08C0E5FF6F
:1027C00009C0E5FF020EDBCF00F00044FE0B040D54
:1027D000F450026EF3CF00F0000E0024016E040EE0
:1027E0000220036E01C0E9FF03C0EAFFEFCF01F052
:1027F000030E01160150056E046A000E0026040E39
:102800000222004A022A00C0E9FF02C0EAFFEFCF1D
:1028100000F0016A0450001205500112005004013A
:10282000FE270150FF23050E0E016B6F400E6A6FED
:10283000800E6C6F026A036A0150035C02E1005073
:10284000025C2CE26DCE04F06ECE05F06FCE06F089
:102850006ACE07F06BCE08F06CCE09F007C0E9FF36
:1028600008C0F3FF0950C8EC20F0076E0E016A2B78
:1028700003E36B3F01D06C2B07C0E5FF04C0E9FF09
:1028800005C0F3FF065036EC21F00E016D2B03E37B
:102890006E3F01D06F2B024A032ACED7E4CF09F056
:1028A000E4CF08F0E4CF07F0E4CF06F0E4CF05F082
:1028B000E4CF04F0E4CF03F0E4CF02F0E4CF01F082
:1028C000E4CF00F0E4CFD9FF120000C0E5FF01C063
:1028D000E5FF02C0E5FF03C0E5FF04C0E5FF05C05A
:1028E000E5FF1F0E05010015006E02C501F0005046
:1028F00012E10150010A01E076D0010E0E017A6F5B
:1029000005010151030A04E1010E0E017C6F6BD039
:102910000E017C6B68D00050020A01E064D00F0EFB
:1029200005010415006E800E0415026E0150D8A436
:102930005AD00050D8B457D0010E0E017A6F040E51
:10294000036E000E016E800E046E0050080DF450F0
:10295000056EF3CF00F0005001240E016D6F05509D
:1029600003206E6FE86A05BEE86804206F6F0250AE
:1029700005E0040E6D27000E6E236F230501015143
:10298000030A10E16DCE00F06ECE01F06FCE03F0C1
:10299000840EE56E00C0E9FF01C0F3FF035036EC82
:1029A00021F021D00250010A0FE16DCE00F06ECE71
:1029B00001F06FCE02F0E56A00C0E9FF01C0F3FF4D
:1029C000025036EC21F00FD06DCE00F06ECE01F04B
:1029D0006FCE02F0880EE56E00C0E9FF01C0F3FF84
:1029E000025036EC21F0E4CF05F0E4CF04F0E4CF60
:1029F00003F0E4CF02F0E4CF01F0E4CF00F01200E6
:102A0000D9CFE5FFE1CFD9FF00C0E5FF01C0E5FF69
:102A100002C0E5FF03C0E5FF04C0E5FF05C0E5FF18
:102A200006C0E5FF07C0E5FF020EDBCF00F03E0E5B
:102A30000024016E026A250E0222036A000E0322A0
:102A400001C0F6FF02C0F7FF03C0F8FF0900F5CF91
:102A500001F0026A036A500E0026250E0222000EC3
:102A6000032200C0F6FF02C0F7FF03C0F8FF090011
:102A7000F5CF00F0026A800E00260F0E0222800EB3
:102A8000036E00C004F002C005F003C006F004C0ED
:102A9000E9FF05C0F3FF0650C8EC20F0076E0150B7
:102AA000071607501AE100C004F002C005F003C089
:102AB00006F004C0E9FF05C0F3FF0650C8EC20F0A3
:102AC000076E0150071207C0E5FF04C0E9FF05C00B
:102AD000F3FF065036EC21F01AD000C004F002C01B
:102AE00005F003C006F004C0E9FF05C0F3FF06507F
:102AF000C8EC20F0006E0150FF08001600C0E5FF92
:102B000004C0E9FF05C0F3FF065036EC21F0E4CF26
:102B100007F0E4CF06F0E4CF05F0E4CF04F0E4CF13
:102B200003F0E4CF02F0E4CF01F0E4CF00F0E4CF13
:102B3000D9FF1200D9CFE5FFE1CFD9FF00C0E5FFF3
:102B400001C0E5FF02C0E5FF03C0E5FF04C0E5FFEB
:102B500005C0E5FF06C0E5FF07C0E5FF08C0E5FFCB
:102B600009C0E5FF0AC0E5FF020EDBCF00F0030E4F
:102B7000DBCF01F0040EDBCF02F0050EDBCF03F05C
:102B8000060EDBCF04F0070EDBCF05F0080EDBCF1F
:102B900006F0090EDBCF07F0086A096A0750800BC0
:102BA000E8440A6E0A501BE1045004260536063636
:102BB00007360750035C08E10650025C05E105504A
:102BC000015C02E10450005C06E2D8900732063254
:102BD0000532043204D0092A09C008F0DFD70750B3
:102BE000035C08E10650025C05E10550015C02E16E
:102BF0000450005C08E30450005E0550015A065082
:102C0000025A0750035AD89007320632053204326E
:102C100008C009F008060950E2E103C0E9FF02C05C
:102C2000F4FF01C0F3FF0050E4CF0AF0E4CF09F055
:102C3000E4CF08F0E4CF07F0E4CF06F0E4CF05F0EE
:102C4000E4CF04F0E4CF03F0E4CF02F0E4CF01F0EE
:102C5000E4CF00F0E4CFD9FF1200D9CFE5FFE1CFF8
:102C6000D9FF00C0E5FF01C0E5FF02C0E5FF03C0DA
:102C7000E5FF04C0E5FF05C0E5FF06C0E5FF07C0AE
:102C8000E5FF08C0E5FF09C0E5FF020EDBCF00F05D
:102C9000030EDBCF01F0040EDBCF02F0036A0E015E
:102CA0007D51050A02E0E86A50D00401E15102E1D9
:102CB000E86A4BD0040118BF47D0400E195DD8A078
:102CC00019C4E8FF046A04011951045C20E20450AD
:102CD0000024056EE86A0120066EE86A0220076E8D
:102CE000800E0424086E096A050E092208C0E9FF57
:102CF00009C0EAFFEFCF08F008C0E5FF05C0E9FF13
:102D000006C0F3FF075036EC21F0042ADCD704C0DC
:102D100003F0400E04011815186F006A18BD002A50
:102D20000050D880E866D890006A00360050010B49
:102D3000E840E840F46E1851BF0BF410186F400ED5
:102D4000196F880E1811186F0350E4CF09F0E4CF03
:102D500008F0E4CF07F0E4CF06F0E4CF05F0E4CFCD
:102D600004F0E4CF03F0E4CF02F0E4CF01F0E4CFCD
:102D700000F0E4CFD9FF1200D9CFE5FFE1CFD9FFB2
:102D800000C0E5FF01C0E5FF02C0E5FF03C0E5FFAD
:102D900004C0E5FF05C0E5FF06C0E5FF07C0E5FF8D
:102DA00008C0E5FF09C0E5FF0AC0E5FF0BC0E5FF6D
:102DB0000CC0E5FF0DC0E5FF020EDBCF00F0030EF7
:102DC000DBCF01F0040EDBCF02F0050EDBCF03F00A
:102DD000060EDBCF04F0070EDBCF05F0080EDBCFCD
:102DE00006F0090EDBCF07F0086A096A0A6A0B6A67
:102DF000200E0C6E0350800BE8440D6E0050002630
:102E00000136023603360850082609360A360B36D4
:102E10000D50D8A4088007500B5C08E106500A5CEE
:102E200005E10550095C02E10450085C09E3045027
:102E3000085E0550095A06500A5A07500B5A00807E
:102E40000C2ED8D703C0E9FF02C0F4FF01C0F3FF86
:102E50000050E4CF0DF0E4CF0CF0E4CF0BF0E4CF62
:102E60000AF0E4CF09F0E4CF08F0E4CF07F0E4CFB4
:102E700006F0E4CF05F0E4CF04F0E4CF03F0E4CFB4
:102E800002F0E4CF01F0E4CF00F0E4CFD9FF12006C
:102E900000C0E5FF01C0E5FF02C0E5FF03C0E5FF9C
:102EA00004C0E5FF05C0E5FF1F0E05010015006E1B
:102EB0000501406B416B005013E1010E0E017A6F6A
:102EC0000E017B5104E0010E05014011406F0E011F
:102ED0007C51D8B44CD0020E05014011406F47D050
:102EE0000050010A04E1010E0E017A6F40D000503B
:102EF000020A01E03CD00F0E05010415006E800EA1
:102F00000415016E010E0E017A6F040E036E000EA1
:102F1000026E800E046E0050080DF450056EF3CF63
:102F200000F0005002240E016D6F055003206E6FFB
:102F3000E86A05BEE86804206F6F015005E0040EE2
:102F40006D27000E6E236F236DCE00F06ECE01F064
:102F50006FCE02F000C0E9FF01C0F3FF0250C8ECE1
:102F600020F0006E00A403D0010E0501406F0E0199
:102F70007A510BE0050E0E016B6F400E6A6F800EEA
:102F80006C6F020E0401FE6FFF6BE4CF05F0E4CF1F
:102F900004F0E4CF03F0E4CF02F0E4CF01F0E4CF9B
:102FA00000F01200D9CFE5FFE1CFD9FF00C0E5FF67
:102FB00001C0E5FF02C0E5FF03C0E5FF04C0E5FF77
:102FC00005C0E5FF06C0E5FF020EDBCF00F0030EF3
:102FD000DBCF01F0040EDBCF02F0050EDBCF03F0F8
:102FE00000500110021033E000C0E9FF01C0F3FF00
:102FF00002501AEC20F0046EF3CF05F0F4CF06F087
:1030000003C0E5FF04C0E9FF05C0F3FF065036EC3E
:1030100021F000C0E9FF01C0F3FF02501AEC20F0DC
:10302000046EF3CF05F0F4CF06F0042A02E3054A5C
:10303000062A04C0E5FF05C0F4FF06C0F6FF00C085
:10304000E9FF01C0F3FF0250E9EC20F016D0035075
:10305000E56EF2CFE5FFF29E0500780EFD6E300EB4
:10306000FE6E000EFF6EE4BEF28E69CEFBFF68CEF0
:10307000FAFF0E016751F96EE652E4CF06F0E4CF95
:1030800005F0E4CF04F0E4CF03F0E4CF02F0E4CFA6
:1030900001F0E4CF00F0E4CFD9FF1200D9CFE5FF73
:1030A000E1CFD9FF00C0E5FF01C0E5FF02C0E5FFA9
:1030B00003C0E5FF04C0E5FF020EDBCF00F0030E06
:1030C000DBCF01F03E0E0024026E036A250E0322C0
:1030D000046A000E042202C0F6FF03C0F7FF04C01A
:1030E000F8FF0900F5CF02F0036A046A500E0026CB
:1030F000250E0322000E042200C0F6FF03C0F7FFD6
:1031000004C0F8FF0900F5CF00F0036A920E002614
:103110000F0E0322800E046E015014E000C0E9FF80
:1031200003C0F3FF0450C8EC20F0016E02500112FE
:1031300001C0E5FF00C0E9FF03C0F3FF045036EC17
:1031400021F014D000C0E9FF03C0F3FF0450C8EC25
:1031500020F0016E0250FF08011601C0E5FF00C01B
:10316000E9FF03C0F3FF045036EC21F0E4CF04F094
:10317000E4CF03F0E4CF02F0E4CF01F0E4CF00F0BD
:10318000E4CFD9FF1200D9CFE5FFE1CFD9FF00C0CE
:10319000E5FF01C0E5FF02C0E5FF03C0E5FF04C095
:1031A000E5FF020EDBCF00F0030EDBCF01F03E0E99
:1031B0000024026E036A250E0322046A000E042214
:1031C00002C0F6FF03C0F7FF04C0F8FF0900F5CF07
:1031D00002F0036A046A500E0026250E0322000E38
:1031E000042200C0F6FF03C0F7FF04C0F8FF090087
:1031F000F5CF00F0036A800E00260F0E0322800E2A
:10320000046E015014E000C0E9FF03C0F3FF045056
:10321000C8EC20F0016E0250011201C0E5FF00C0B1
:10322000E9FF03C0F3FF045036EC21F014D000C0D6
:10323000E9FF03C0F3FF0450C8EC20F0016E025018
:10324000FF08011601C0E5FF00C0E9FF03C0F3FF5E
:10325000045036EC21F0E4CF04F0E4CF03F0E4CFE7
:1032600002F0E4CF01F0E4CF00F0E4CFD9FF120088
:1032700000C0E5FF01C500F005010051600BD8A4B6
:1032800061D00050050A09E1010E0E017A6F040EAB
:103290000E017D6F02C575FE55D00050060A03E190
:1032A000B8EC1DF04FD00050090A12E1010E0E01DA
:1032B0007A6F02C57EFE0E017E5104E1040E0E01FE
:1032C0007D6F40D0050E0E017D6FA7EC1EF03AD049
:1032D0000050080A0FE1010E0E017A6F0E0E0E016A
:1032E0006B6F7E0E6A6F800E6C6F010E0401FE6FB5
:1032F000FF6B28D0005003E148EC17F023D00050BA
:10330000010A03E00050030A03E165EC14F01AD04F
:1033100000500A0A11E1010E0E017A6F0501406B9F
:10332000050E0E016B6F400E6A6F800E6C6F010E02
:103330000401FE6FFF6B06D000500B0A03E1010E83
:103340000E017A6FE4CF00F01200D9CFE5FFE1CF94
:10335000D9FF500EE15ED8A0E20600C0E5FF01C033
:10336000E5FF02C0E5FF03C0E5FF04C0E5FF05C0BF
:10337000E5FF06C0E5FF020ED924006E000EDA203C
:10338000016E800E026E030E0026000E0122022244
:10339000B10ED924036EFF0EDA20046E066E0350C0
:1033A000056E0250E56E0150E56E0050E56E040EAC
:1033B000DBCFE5FF030EDBCFE5FF020EDBCFE5FF42
:1033C000800EE56E0650E56E0550E56E30EC1CF0A3
:1033D000006E090EE1260050E56E800EE56E045089
:1033E000E56E0350E56E2DEC13F0040EE126E4CFFC
:1033F00006F0E4CF05F0E4CF04F0E4CF03F0E4CF2F
:1034000002F0E4CF01F0E4CF00F0E66E4F0EE126CB
:10341000D8B0E22AE81EE350E4CFD9FF120000C082
:10342000E5FF04010451006E009E0050046F00513E
:10343000006E009E0050006F0E017F6B0E017A6BD4
:103440000E01766B0401FE6BFF6B38EC19F01F0E5A
:1034500005010015010A02E136EC1BF00E017A515C
:103460000BE1400E0401016F000E026F050E036FA9
:10347000840E006F046F38D0050100AF26D0040120
:10348000FF510501075D04E10401FE510501065DE0
:1034900004E206C5FEF407C5FFF4000EE56AB0ECD1
:1034A00010F0E652020E0E017F6F400E0401016F14
:1034B000000E026F050E036F800E006F400E066F48
:1034C000050E076FC80E046F0FD0010E0E017F6F3F
:1034D0000401056BC80E046F400E016F400E026FB1
:1034E000050E036FC80E006F6598E4CF00F0120060
:1034F000D9CFE5FFE1CFD9FF00C0E5FF01C0E5FF6F
:1035000002C0E5FF020ED924006E000EDA20016E23
:10351000800E026E030E0026000E0122022203C05E
:10352000E5FF04C0E5FF05C0E5FF020EDBCF03F0B9
:10353000030EDBCF04F0040EDBCF05F0E4CF05F083
:10354000E4CF04F0E4CF03F00250E56E0150E56EE5
:103550000050E56E03C0E5FF04C0E5FF05C0E5FFD0
:10356000020EDBCF03F0030EDBCF04F0040EDBCF43
:1035700005F00550E56E0450E56E0350E56EE4CFAE
:1035800005F0E4CF04F0E4CF03F0A5EC19F0060E4B
:10359000E126000EE56E250EE56E360EE56EA5EC15
:1035A00019F0030EE126E4CF02F0E4CF01F0E4CFFE
:1035B00000F0E4CFD9FF120000C0E5FF01C0E5FF35
:1035C00002C0E5FF03C0E5FF006A90EC20F0016E49
:1035D00001C002F0E56A0250E56E000EE56E250EB0
:1035E000E56E3A0EE56EA5EC19F0050EE12600C079
:1035F00002F0002A036A800E0226040E032202C093
:10360000E9FF03C0EAFF01C0EFFF01500D0A03E12B
:10361000016A012A01D0016A0150D880E866D89079
:10362000016A0136500E005CD870026A0236025000
:1036300001160150CAE1016A800E0026040E012223
:1036400000C0E9FF01C0EAFFEF6A016E800E026E62
:1036500002C0F4FF01C0F3FF800EE4CF03F0E4CF1B
:1036600002F0E4CF01F0E4CF00F0120000C0E5FF6B
:10367000600E05010015200A01E049D001C500F0E7
:10368000005001E144D00050010A01E140D0005057
:10369000200A07E00050210A13E00050220A1FE030
:1036A00036D00E0E0E016B6F600E6A6F800E6C6F5F
:1036B000070E0401FE6FFF6B010E0E017A6F27D01B
:1036C0000E0E0E016B6F600E6A6F800E6C6F070E30
:1036D0000401FE6FFF6B010E0E017A6F18D0050119
:1036E0000251030A04E1010E0401E16F02D004015A
:1036F000E16B0E0E0E016B6F580E6A6F800E6C6FD1
:10370000080E0401FE6FFF6B010E0E017A6FE4CF0D
:1037100000F01200D9CFE5FFE1CFD9FF00C0E5FFEF
:1037200001C0E5FF02C0E5FF020EDBCF00F0030E93
:10373000DBCF01F0040EDBCF02F0938A93880050B8
:1037400011E00050010A0EE1000E025C02E1810E60
:10375000015C03E32F0EC66E02D02E0EC66E015022
:10376000C86E1FD0280EC66E0150640A02E10250D6
:1037700015E00150900A03E10250010A0BE00150EC
:10378000E80A03E10250030A01E008D0C78E0B0EDD
:10379000C86E07D0C79E1D0EC86E03D0C78E770EA9
:1037A000C86EC56A9E96A196E4CF02F0E4CF01F000
:1037B000E4CF00F0E4CFD9FF120000C0E5FF64B40D
:1037C00022D03C0E04010015006E0040E8403F0B83
:1037D0000D0A03E10FEC1AF040D00E017F51010AEF
:1037E0000FE1000EE56ACAEC13F0E652040100ADE9
:1037F00003D0880E006F31D0C80E0401006F2DD0A9
:1038000013EC21F02AD0006A64B4002A0050010AA7
:1038100024E10F0138510CE10E017D51040A08E149
:1038200002C538FF0F01385103E1030E0E017D6F11
:103830000E017F51020A0FE1000EE56AB0EC10F0B4
:10384000E652040104AD03D0880E046F06D0C80E02
:103850000401046F02D013EC21F0E4CF00F0120059
:10386000D9CFE5FFE1CFD9FF00C0E5FF01C0E5FFFB
:1038700002C0E5FF03C0E5FF04C0E5FF05C0E5FFAA
:10388000020EDBCF70FE030EDBCF71FE040EDBCF2A
:1038900072FE050EDBCF00F0060EDBCF01F0070E47
:1038A000DBCF02F0080EDBCF03F0090EDBCF04F014
:1038B0000A0EDBCF05F00550E56E0450E56E0350AF
:1038C000E56E0250E56E0150E56E0050E56E800E2B
:1038D000E56E0E0EE56E700EE56E0EEC06F0006EF7
:1038E000090EE1260050E4CF05F0E4CF04F0E4CF68
:1038F00003F0E4CF02F0E4CF01F0E4CF00F0E4CF36
:10390000D9FF1200D9CFE5FFE1CFD9FF00C0E5FF15
:1039100001C0E5FF02C0E5FF03C0E5FF020EDBCFFB
:1039200000F0500E0024016E026A250E0222036A86
:10393000000E032201C0F6FF02C0F7FF03C0F8FF2C
:103940000900F5CF01F0026A800E01260F0E022257
:10395000800E01C0E9FF02C0F3FFC8EC20F0016E49
:10396000026A036A3E0E0026250E0222000E032282
:1039700000C0F6FF02C0F7FF03C0F8FF0900F5CF53
:1039800000F000500116015002E1E86A01D0010E7A
:10399000E4CF03F0E4CF02F0E4CF01F0E4CF00F095
:1039A000E4CFD9FF1200D9CFE5FFE1CFD9FF00C0A6
:1039B000E5FF01C0E5FF02C0E5FF03C0E5FF04C06D
:1039C000E5FF05C0E5FF020EDBCF67FE030EDBCF90
:1039D00068FE040EDBCF69FE050EDBCF00F0060E9D
:1039E000DBCF01F0070EDBCF02F0080EDBCF03F0D8
:1039F000090EDBCF04F00A0EDBCF05F00550E56EB3
:103A00000450E56E0350E56E0250E56E0150E56E20
:103A10000050E56E000EE56AE56AE56A0EEC06F018
:103A2000006E090EE1260050E4CF05F0E4CF04F06B
:103A3000E4CF03F0E4CF02F0E4CF01F0E4CF00F0F4
:103A4000E4CFD9FF1200B00EF66E420EF76E000EF4
:103A5000F86E0900F550056E0900F550066E055028
:103A600002E106503BE00900F550006E0900F550F8
:103A7000016E0900F550026E09000900F550E96E6B
:103A80000900F550EA6E090009000900F550036EBF
:103A90000900F550046E09000900F6CF07F0F7CFD2
:103AA00008F0F8CF09F000C0F6FF01C0F7FF02C030
:103AB000F8FF035002E1045007E00900F550EE6EF4
:103AC0000306F8E20406F9D707C0F6FF08C0F7FFBF
:103AD00009C0F8FF0506C4E20606C5D71200D9CF13
:103AE000E5FFE1CFD9FF00C0E5FF01C0E5FF02C05F
:103AF000E5FF03C0E5FF04C0E5FF050ED924006E15
:103B0000000EDA20016E800E026E030E0026000EFB
:103B100001220222020ED924036E000EDA20046E66
:103B20000250E56E0150E56E0050E56E070EDBCFEA
:103B3000E5FF060EDBCFE5FF050EDBCFE5FF800ED0
:103B4000E56E0450E56E0350E56E0EEC06F0006E77
:103B5000090EE1260050E4CF04F0E4CF03F0E4CFF7
:103B600002F0E4CF01F0E4CF00F0E4CFD9FF12007F
:103B700000C0E5FF05010051800A01E036D003C511
:103B800000F002C5E8FF0050010A0FE1010E0E012E
:103B90007A6F000E0E016C6F240E6B6FC40E6A6F8D
:103BA000120E0401FE6FFF6B20D00050020A17E1D5
:103BB000010E0E017A6F000E0E016C6F240E6B6FFA
:103BC000D60E6A6FD80EF66E240EF76E000EF86EE3
:103BD0000900F5CFFEF40900F5CFFFF406D0005040
:103BE000060A03E1010E0E017A6FE4CF00F0120025
:103BF000F26A656A0F01396B0F01266B0F01276BA3
:103C00000F01286B0F01296B0F012A6B0F012B6B22
:103C10000F012C6B0F012D6B0F012E6B0F012F6B02
:103C20000F01306B0F01316B0F01326B0F01336BE2
:103C30000F01346B0F01356B070EE56ED00EE56E8C
:103C400004EC1FF0E652E652140E0F01396F0E011C
:103C50007D6B0E017C6B0E017E6B0E017D51050AA2
:103C600005E035EC20F037EC1EF0F7D7120000C06D
:103C7000E5FF0E017D51D8B435D062A404D00F0108
:103C800036B571EC21F0006A65B2002A0050010AD5
:103C900029E062A004D00F0136B157EC1FF062A8F2
:103CA00004D00F0136B964EC20F062AC04D00F01EF
:103CB00036BD02EC06F062AA04D00F0136BBB7ECA9
:103CC00020F062A203D00F0136B36292030E0E0100
:103CD0007D5D08E362A606D00F0136A703D0DDECB8
:103CE0001BF06296E4CF00F0120000C0E5FF01C0B7
:103CF000E5FF02C0E5FF03C0E5FF9B8C580E006E98
:103D0000020E016E00C002F001C003F0FF0E00269B
:103D1000012202500310F6E19D6AA06A81EC21F0B5
:103D200006EC06F006EC21F0F8EC1DF0A088F28C11
:103D3000F28ED9EC20F03AEC0FF0FDD7E4CF03F08F
:103D4000E4CF02F0E4CF01F0E4CF00F012000E0166
:103D5000606BC20E616F010E626F636B646B656BAB
:103D6000080E666F0E01586B596B5A6B5B6B5C6B80
:103D70005D6B5E6B5F6B1A0E0F01286F1E0E0F01DD
:103D8000296FD00E0401166F040E176F400E146FCA
:103D9000196F800E1A6F050E1B6F880E186FC00EFC
:103DA0001E6F050E1F6F400E1C6F050E0E017D6FFE
:103DB0001200D8CFE5FFE0CFE5FFE56EF3CFE5FFDA
:103DC000F4CFE5FFE9CFE5FFEACFE5FFFACFE5FF66
:103DD000FBCFE5FFA1A806D037EC1EF0629C6290F5
:103DE000A198636AE4CFFBFFE4CFFAFFE4CFEAFFD8
:103DF000E4CFE9FFE4CFF4FFE4CFF3FFE450E4CFF6
:103E0000E0FFE4CFD8FF1000D9CFE5FFE1CFD9FF25
:103E100000C0E5FF01C0E5FF02C0E5FF03C0E5FF0C
:103E2000020EDBCF00F0030EDBCF01F0026A036A63
:103E30000150035C02E10050025C06E2010EF5EC69
:103E400012F0024A032AF4D7E4CF03F0E4CF02F0E1
:103E5000E4CF01F0E4CF00F0E4CFD9FF1200D9CFD6
:103E6000E5FFE1CFD9FF00C0E5FF01C0E5FF02C0DB
:103E7000E5FF03C0E5FF020EDBCF00F0030EDBCF52
:103E800001F0026A036A0150035C02E10050025C27
:103E900003E2024A032AF7D7E4CF03F0E4CF02F0AB
:103EA000E4CF01F0E4CF00F0E4CFD9FF120000C06E
:103EB000E5FF636A626A9F0E0F01376F7B0E0F0189
:103EC000366F0F01386B160E0F01266F006A62B64F
:103ED000002A0050010A02E16296F8D7659813ECB7
:103EE00021F00E017C6B0E017B6B0E017E6B030ECD
:103EF0000E017D6FE4CF00F01200D8CFE5FFE0CFD8
:103F0000E5FFE56EF3CFE5FFF4CFE5FFE9CFE5FF91
:103F1000EACFE5FFFACFE5FFFBCFE5FFE4CFFBFFFC
:103F2000E4CFFAFFE4CFEAFFE4CFE9FFE4CFF4FF08
:103F3000E4CFF3FFE450E4CFE0FFE4CFD8FF10007C
:103F4000E8AE0AD0F3CFEAFFEE50EECFF3FFEECFAC
:103F5000F4FFEECFE9FF1200E8BC82EF21F0E9CFD9
:103F6000F6FFF3CFF7FFF86E0900F5500900F5CF23
:103F7000F3FF0900F5CFF4FF0900F5CFE9FF1200C8
:103F8000D9CFE5FFE1CFD9FF00C0E5FF01C0E5FFD4
:103F9000020EDBCF00F0030EDBCF01F00150E56E27
:103FA0000050E56E010EE56E8AEC1BF0030EE12673
:103FB000E4CF01F0E4CF00F0E4CFD9FF1200D9CF75
:103FC000E5FFE1CFD9FF00C0E5FF01C0E5FF020E2C
:103FD000DBCF00F0030EDBCF01F00150E56E0050A7
:103FE000E56E000EE56A8AEC1BF0030EE126E4CFD5
:103FF00001F0E4CF00F0E4CFD9FF1200D9CFE5FF04
:10400000E1CFD9FF00C0E5FF020EDBCFC9FFA4EC72
:1040100020F0A4EC20F0006AC5BC002A0050D88033
:10402000E866D890006A00360050E4CF00F0E4CF94
:10403000D9FF1200E8AE08D0F3CFEAFFEE50EECF82
:10404000F3FFEECFF4FF1200E8BC82EF21F0E9CFDE
:10405000F6FFF3CFF7FFF86E0900F5500900F5CF32
:10406000F3FF0900F5CFF4FF120065B607D0656ACB
:104070000F01366B6586010E0E017D6F0E017D51BD
:10408000010A0BE165BA09D0626A0F01366B0F01B4
:1040900036813689020E0E017D6F1200D9CFE5FF01
:1040A000E1CFD9FF020EDBCF80FE010EE56E800E60
:1040B000E56E0E0EE56E800EE56E2DEC13F0040E2F
:1040C000E126E4CFD9FF1200D9CFE5FFE1CFD9FF38
:1040D0000F01368562986582A198F290A088F286D9
:1040E000AC98AD9A0300AC88AD8AA098F296E4CF64
:1040F000D9FF1200E8AE06D0F3CFEAFFEE50EECFC4
:10410000F3FF1200E8BC82EF21F0E9CFF6FFF3CF16
:10411000F7FFF86E0900F5500900F5CFF3FF120024
:1041200000C0E5FF800EE56E0E0EE56E000EE56E3A
:104130002DEC16F0006E030EE1260050F3E00E01A8
:104140000051E4CF00F0120000C0E5FF01C0E5FF20
:104150001F0EC514006E016AC7B4012A0150001277
:104160000050F6E1E4CF01F0E4CF00F0120000C00F
:10417000E5FF006A0F0126B1002A0050010A04E1A0
:1041800013EC21F00F012691629AE4CF00F01200A7
:10419000E8AE04D0F3CFEAFFEE501200E8BC82EFA5
:1041A00021F0E9CFF6FFF3CFF7FFF86E0900F550E5
:1041B0001200E56A0C0EE56E4EEC18F0E652E6527F
:1041C000010EE56E900EE56EDFEC1FF0E652E65252
:1041D0001200E8AE09D0F3CFEAFFE4CFEEFFF4CF50
:1041E000EEFFF6CFEEFF1200E8BC82EF21F01200E6
:1041F00000C0E5FFA4EC20F0C5869E96C9CF00F074
:104200009EA6FED70050E4CF00F0120020EC21F073
:104210000E01FF9176EC21F020EC21F00E01FF81E0
:1042200076EC21F012000E017F6B400E0401016F4D
:10423000000E026F050E036F880E006F046B1200F4
:10424000F2AE04D0F29E010E0401E06F550EA76E8F
:10425000AA0EA76E120018EEFFF028EEFFF0F86A23
:10426000A684A68223EC1DF075EC1EF0E8AE05D006
:10427000F3CFEAFFE4CFEEFF1200E8BC82EF21F0BB
:104280001200A4EC20F0C58A9E96C5889EA6FED793
:104290001200A4EC20F0C59A9E96C5889EA6FED773
:1042A0001200000050001050494E4755494E4F0033
:1042B0000100A2420000E00400000E000000A4EC97
:1042C00020F0C582C5B2FED71200A4EC20F0C58450
:1042D000C5B4FED71200A4EC20F0C580C5B0FED74F
:1042E000120065920F013695629412000401E051AC
:1042F000D8A4F28E12009EA6FED79E961200FFD77B
:0643000012001200120081
:00000001FF
