:020000040000FA
:100C0000D1EF20F0D9CFE5FFE1CFD9FF00C0E5FF5C
:100C100001C0E5FF02C0E5FF03C0E5FF04C0E5FF3A
:100C200005C0E5FF06C0E5FF07C0E5FF08C0E5FF1A
:100C300009C0E5FF0AC0E5FF0BC0E5FF0CC0E5FFFA
:100C40000DC0E5FF0EC0E5FF0FC0E5FF10C0E5FFDA
:100C5000020EDBCF00F0030EDBCF01F0040EDBCF82
:100C600002F0050EDBCF03F0060EDBCF04F0070E1B
:100C7000DBCF05F0080EDBCF06F0090EDBCF07F067
:100C8000086A096A0A6A0B6A005000018C6F0150F9
:100C90008D6F02508E6F03508F6F04500001906F64
:100CA0000550916F0650926F0750936F00018C5161
:100CB0008D118E118F1109E193C0E9FF92C0F4FFED
:100CC00091C0F3FF0001905144D100019051911166
:100CD0009211931109E18FC0E9FF8EC0F4FF8DC01E
:100CE000F3FF00018C5135D100018E358F35006E38
:100CF000016A0136026A036A016A026A036A000134
:100D000092359335026E190F046E000E0320800F8A
:100D1000F36E0150800FF35C02E10050045C09E2C5
:100D20008FC0E9FF8EC0F4FF8DC0F3FF00018C512E
:100D300010D10050190F046E000E0120800FF36EC9
:100D40000350800FF35C02E10250045C09E293C09F
:100D5000E9FF92C0F4FF91C0F3FF00019051F9D078
:100D600000018C51046E8D51056E7F0E8E15066E3E
:100D7000076A068E000190510C6E91510D6E7F0E28
:100D800092150E6E0F6A0E8E00018F51800BE84493
:100D9000106E10500AE0071E061E051E046C05E1C9
:100DA000052A03E1062AD8B4072A00019351800BD3
:100DB000E844106E10500AE00F1E0E1E0D1E0C6C43
:100DC00005E10D2A03E10E2AD8B40F2A0350800F43
:100DD000F36E0150800FF35C02E10050025C1BE2F5
:100DE0000250005C106E03500158105032E00BE6C8
:100DF000E86CD8900FBED8800F320E320D320C3214
:100E0000010FF8E326D0D8900C360D360E360F368B
:100E1000010FFAE31ED00050025C106E015003581F
:100E2000105013E00BE6E86CD89007BED88007326C
:100E3000063205320432010FF8E307D0D8900436A9
:100E4000053606360736010FFAE302C000F003C08C
:100E500001F00C5004260D5005220E5006220F50B2
:100E60000722D88007AED89010E3071E061E051E85
:100E7000046C05E1052A03E1062AD8B4072A086AAA
:100E8000096A0A6A800E0B6E0AD00450051006101B
:100E9000071005E1E96AF46AF36AE86A5AD0045077
:100EA00006500C6E07500D6E0CBE0BD00D5009E1B4
:100EB00004500426053606360736FF0E00260122AA
:100EC000EED70450026E0550036E06500C6E0750AC
:100ED0000D6E10E004A006D0020E0426000E0522BE
:100EE0000622072207340732063205320432004A4E
:100EF000012AE7D70250046E0350056E7F0E0C14D2
:100F0000066E0D50076EE86A013000300F6E0E6AF3
:100F10000E320C6A0C50081209120E500A120F50B1
:100F20000B12045008120550091206500A120750FD
:100F30000B12085000018C6F09508D6F0A508E6F94
:100F40000B508F6F8FC0E9FF8EC0F4FF8DC0F3FF91
:100F50008C51E4CF10F0E4CF0FF0E4CF0EF0E4CFEB
:100F60000DF0E4CF0CF0E4CF0BF0E4CF0AF0E4CFC7
:100F700009F0E4CF08F0E4CF07F0E4CF06F0E4CFC7
:100F800005F0E4CF04F0E4CF03F0E4CF02F0E4CFC7
:100F900001F0E4CF00F0E4CFD9FF1200D9CFE5FF94
:100FA000E1CFD9FF00C0E5FF01C0E5FF02C0E5FFCA
:100FB00003C0E5FF04C0E5FF05C0E5FF06C0E5FF8F
:100FC00007C0E5FF08C0E5FF09C0E5FF0AC0E5FF6F
:100FD0000BC0E5FF0CC0E5FF0EC0E5FF0FC0E5FF4D
:100FE000020EDBCF00F0030EDBCF01F0040EDBCFEF
:100FF00002F0050EDBCF03F0060EDBCF04F0070E88
:10100000DBCF05F0080EDBCF06F0090EDBCF07F0D3
:1010100000500001946F0150956F0250966F03507D
:10102000976F04500001986F0550996F06509A6FA2
:1010300007509B6F0001945195119611971106E08E
:101040000001985199119A119B1105E1E96AF46A1E
:10105000F36AE86A4CD100019751800BE844006EB6
:1010600000019B51800BE844001A0001963597352A
:10107000016E036A046A026A820E0126FF0E0222D2
:101080000322042200019A359B35036E046A01C0D5
:1010900007F002C008F0075003260850042203504E
:1010A000016E0450026E00019451036E9551046E5E
:1010B0007F0E9615056E058E0350946F0450956F44
:1010C0000550966F976B00019851036E9951046E0D
:1010D0007F0E9A15056E058E0350986F0450996F18
:1010E00005509A6F9B6B00019551036E9651046EEB
:1010F0009751056E00019951076E9A51086E9B51E8
:10110000E56AE56E0850E56E0750E56EE56A055044
:10111000E56E0450E56E0350E56E8BEC12F0036E45
:10112000F3CF04F0F4CF05F0E9CF06F0080EE12686
:1011300000019451076E000199510B6E9A510C6E8B
:101140009B51E56AE56E0C50E56E0B50E56EE56A65
:10115000E56AE56A0750E56E8BEC12F0F3CF08F014
:10116000F4CF09F0E9CF0AF0080EE1260850076E27
:101170000950086E0A50096E0A6A07500326085083
:101180000422095005220A50062200019851076ED8
:10119000000195510B6E96510C6E9751E56AE56E04
:1011A0000C50E56E0B50E56EE56AE56AE56A07509E
:1011B000E56E8BEC12F0F3CF08F0F4CF09F0E9CF35
:1011C0000AF0080EE1260850076E0950086E0A5012
:1011D000096E0A6A075003260850042209500522A6
:1011E0000A500622400E0326000E04220522062283
:1011F00006AE0ED0400E0326000E04220522062263
:101200000450036E0550046E0650056E066A11D038
:1012100003340434036E046A04360550E844FE0BBC
:10122000041205340634056E066A0636FF0E0126E2
:101230000222059E0250800F7F0F02E1000E015C2A
:1012400019E3005006E0076A086A096A800E0A6E10
:1012500004D0076A086A096A0A6A098E7F0E0A12B0
:1012600007500001946F0850956F0950966F0A500F
:10127000976F35D0D88002AED89006E30001946B0A
:10128000956B966B976B2BD0005006E0006A076A4F
:10129000086A800E096E04D0006A076A086A096A43
:1012A000E86A023001300F6E0E6A0E320C6A0C5082
:1012B000001207120E5008120F50091200500312AC
:1012C000075004120850051209500612035000017D
:1012D000946F0450956F0550966F0650976F97C0A6
:1012E000E9FF96C0F4FF95C0F3FF00019451E4CFED
:1012F0000FF0E4CF0EF0E4CF0CF0E4CF0BF0E4CF2E
:101300000AF0E4CF09F0E4CF08F0E4CF07F0E4CF2F
:1013100006F0E4CF05F0E4CF04F0E4CF03F0E4CF2F
:1013200002F0E4CF01F0E4CF00F0E4CFD9FF1200E7
:10133000D9CFE5FFE1CFD9FF00C0E5FF01C0E5FF50
:1013400002C0E5FF03C0E5FF04C0E5FF05C0E5FFFF
:1013500006C0E5FF07C0E5FF08C0E5FF09C0E5FFDF
:101360000AC0E5FF0BC0E5FF0CC0E5FF0DC0E5FFBF
:101370000EC0E5FF0FC0E5FF020EDBCFC0F0030E8D
:10138000DBCFC1F0040EDBCFC2F0050EDBCFC3F024
:10139000060EDBCFC4F0070EDBCFC5F0080EDBCFA7
:1013A000C6F0090EDBCFC7F00001C2510001C65DD7
:1013B000006E0001C3510001C759E56E0050E56E93
:1013C0000AEC25F0006EF3CF01F0E652E652000180
:1013D000C0510001C45D026E0001C1510001C55938
:1013E000E56E0250E56E0AEC25F0026EF3CF03F0D5
:1013F000E652E6520350800FF36E0150800FF35C0B
:1014000002E10050025CD870006A0036016A00BE3A
:10141000016800500110D8B440D0C20EC00A03E1E8
:10142000000E000A1AE00001C2510001C05F000175
:10143000C3510001C15BC0510001C2270001C1516D
:101440000001C3230001C0510001C25D0001C06F53
:10145000C1510001C3590001C16FC60EC40A03E1A6
:10146000000E000A1AE00001C6510001C45F00012D
:10147000C7510001C55BC4510001C6270001C55119
:101480000001C7230001C4510001C65D0001C46F03
:10149000C5510001C7590001C56F0001C1510001CC
:1014A000C55D04E10001C0510001C45DD8B040D069
:1014B000C40EC00A03E1000E000A1AE00001C45184
:1014C0000001C05F0001C5510001C15BC0510001B6
:1014D000C4270001C1510001C5230001C051000112
:1014E000C45D0001C06FC1510001C5590001C16F49
:1014F000C60EC20A03E1000E000A1AE00001C6513E
:101500000001C25F0001C7510001C35BC25100016D
:10151000C6270001C3510001C7230001C2510001C9
:10152000C65D0001C26FC3510001C7590001C36FFE
:101530000001C0510001C45D026E0001C1510001F3
:10154000C559036E0001C2510001C65D046E000161
:10155000C3510001C759E56E0450E56E0AEC25F051
:10156000046EF3CF05F0E652E652066A076AC2C07F
:1015700008F0C3C009F00001C7510001C35D04E1D8
:101580000001C6510001C25D04E2010E0A6E0B6A41
:1015900002D00A680B68C0C00CF0C1C00DF00C503E
:1015A0000E6E0D500F6E0001C5510F5C02E1C4516B
:1015B0000E5C38E2005001100DE00D50E56E0C504D
:1015C000E56E0950E56E0850E56EC2EC25F0040E9C
:1015D000E1260CD00950E56E0850E56E0D50E56E21
:1015E0000C50E56EC2EC25F0040EE12604500626F0
:1015F0000550072206500E6E0E260734800FF36E3C
:101600000350800FF35C02E102500E5C08E30A50C5
:1016100008260B5009220250065E0350075A0C4A56
:101620000D2ABDD7E4CF0FF0E4CF0EF0E4CF0DF0DC
:10163000E4CF0CF0E4CF0BF0E4CF0AF0E4CF09F0F4
:10164000E4CF08F0E4CF07F0E4CF06F0E4CF05F0F4
:10165000E4CF04F0E4CF03F0E4CF02F0E4CF01F0F4
:10166000E4CF00F0E4CFD9FF1200D9CFE5FFE1CFFE
:10167000D9FF00C0E5FF01C0E5FF02C0E5FF03C0E0
:10168000E5FF04C0E5FF05C0E5FF06C0E5FF07C0B4
:10169000E5FF08C0E5FF09C0E5FF0AC0E5FF0BC094
:1016A000E5FF0CC0E5FF0DC0E5FF0EC0E5FF0FC074
:1016B000E5FF10C0E5FF11C0E5FF12C0E5FF13C054
:1016C000E5FF14C0E5FF15C0E5FF16C0E5FF17C034
:1016D000E5FF020EDBCF00F0030EDBCF01F0040EBE
:1016E000DBCF02F0050EDBCF03F0060EDBCF04F0FC
:1016F000070EDBCF05F004500108066E000E0554FE
:10170000076E0550E56E0450E56EE568FE0EE56E69
:101710001EEC22F0086EF3CF09F0040EE12604500F
:1017200002240A6E05500320E56E0A50E56E015052
:10173000E56E0050E56EC2EC25F0040EE126045083
:10174000025C0A6E05500358E56E0A50E56E0150C2
:10175000E56E0050E56EC2EC25F0040EE126045063
:1017600000240A6E055001200B6E0350E56E0250F6
:10177000E56E0B50E56E0A50E56EC2EC25F0040EE6
:10178000E1260450005C0A6E055001580B6E0350B0
:10179000E56E0250E56E0B50E56E0A50E56EC2EC48
:1017A00025F0040EE1260A6A0B6A010E0C6E0D6A22
:1017B0000B50800FF36E0550800FF35C02E1045074
:1017C0000A5CD8B0AED0D88007AED8900BE2FF0E3E
:1017D00004260522020E0826D8B0092A085006263B
:1017E000095007220A4A0B2A020E0C26D8B00D2AED
:1017F0000C5006260D5007220A500E6E0B500F6E2D
:101800000E500024106E0F500120116E0450126E05
:101810000550136E12500224146E13500320156EDF
:10182000E56E1450E56E1150E56E1050E56EC2EC99
:1018300025F0040EE1260E50005C166E0F50015884
:10184000176E1550E56E1450E56E1750E56E165084
:10185000E56EC2EC25F0040EE1261250025C146E17
:1018600013500358156EE56E1450E56E1150E56E79
:101870001050E56EC2EC25F0040EE1261550E56E21
:101880001450E56E1750E56E1650E56EC2EC25F06B
:10189000040EE12612500024106E13500120116E28
:1018A0000E500224146E0F500320156EE56E145076
:1018B000E56E1150E56E1050E56EC2EC25F0040E99
:1018C000E1261250005C126E13500158136E155031
:1018D000E56E1450E56E1350E56E1250E56EC2ECE5
:1018E00025F0040EE1260E50025C0E6E0F500358D8
:1018F0000F6EE56E0E50E56E1150E56E1050E56E00
:10190000C2EC25F0040EE1260F50E56E0E50E56E98
:101910001350E56E1250E56EC2EC25F0040EE12680
:1019200047D7E4CF17F0E4CF16F0E4CF15F0E4CFBB
:1019300014F0E4CF13F0E4CF12F0E4CF11F0E4CFD1
:1019400010F0E4CF0FF0E4CF0EF0E4CF0DF0E4CFD1
:101950000CF0E4CF0BF0E4CF0AF0E4CF09F0E4CFD1
:1019600008F0E4CF07F0E4CF06F0E4CF05F0E4CFD1
:1019700004F0E4CF03F0E4CF02F0E4CF01F0E4CFD1
:1019800000F0E4CFD9FF1200D9CFE5FFE1CFD9FFB6
:1019900000C0E5FF01C0E5FF02C0E5FF03C0E5FFB1
:1019A00004C0E5FF05C0E5FF06C0E5FF07C0E5FF91
:1019B00008C0E5FF09C0E5FF0AC0E5FF0BC0E5FF71
:1019C000020EDBCF00F0030EDBCF01F00150E56E1D
:1019D0000050E56EC3EC23F0006EF3CF01F0F4CFBE
:1019E00002F0E9CF03F0E652E6520350E56E0250F2
:1019F000E56E0150E56E0050E56E3C0EE56E8E0E14
:101A0000E56EFA0EE56E340EE56ECEEC07F0006E74
:101A1000F3CF01F0F4CF02F0E9CF03F0080EE12696
:101A20000350E56E0250E56E0150E56E0050E56E24
:101A30003F0EE56EA20EE56EF90EE56E830EE56EC5
:101A4000CEEC07F0046EF3CF05F0F4CF06F0E9CF4B
:101A500007F0080EE1260350E56E0250E56E0150D6
:101A6000E56E0050E56EBE0EE56ECF0EE56E810EA2
:101A7000E56E7B0EE56ECEEC07F0086EF3CF09F055
:101A8000F4CF0AF0E9CF0BF0080EE1260350E56E23
:101A90000250E56E0150E56E0050E56E0B50E56EAC
:101AA0000A50E56E0950E56E0850E56ECEEC07F081
:101AB000006EF3CF01F0F4CF02F0E9CF03F0080E8F
:101AC000E1260350E56E0250E56E0150E56E0050D0
:101AD000E56E0750E56E0650E56E0550E56E045064
:101AE000E56E02EC06F0006EF3CF01F0F4CF02F0E9
:101AF000E9CF03F0080EE1260350E56E0250E56ED3
:101B00000150E56E0050E56E0350E56E0250E56E43
:101B10000150E56E0050E56ECEEC07F0046EF3CF99
:101B200005F0F4CF06F0E9CF07F0080EE1260350E8
:101B3000E56E0250E56E0150E56E0050E56E07500F
:101B4000E56E0650E56E0550E56E0450E56E78ECE6
:101B500019F0046EF3CF05F0F4CF06F0E9CF07F0EB
:101B6000080EE1260750E56E0650E56E0550E56E5D
:101B70000450E56E3E0EE56E660EE56EE56EE56EB2
:101B8000CEEC07F0046EF3CF05F0F4CF06F0E9CF0A
:101B900007F0080EE1260350E56E0250E56E015095
:101BA000E56E0050E56E0750E56E0650E56E055097
:101BB000E56E0450E56E02EC06F0006EF3CF01F026
:101BC000F4CF02F0E9CF03F0080EE12603C0E9FFED
:101BD00002C0F4FF01C0F3FF0050E4CF0BF0E4CFEC
:101BE0000AF0E4CF09F0E4CF08F0E4CF07F0E4CF47
:101BF00006F0E4CF05F0E4CF04F0E4CF03F0E4CF47
:101C000002F0E4CF01F0E4CF00F0E4CFD9FF1200FE
:101C1000D9CFE5FFE1CFD9FF00C0E5FF01C0E5FF67
:101C200002C0E5FF03C0E5FF04C0E5FF020EDBCF05
:101C300000F0030EDBCF01F0280E0024026E036AD1
:101C4000470E0322046A000E042202C0F6FF03C0FE
:101C5000F7FF04C0F8FF0900F5CF02F0050E025CA3
:101C6000D8B0F8D0FA6AFB6A0234FA36E834FA36A9
:101C7000FC0B820FE56E1C0EFA22000EFB22E450D4
:101C8000F96E4BEF0EF078EF0EF0A5EF0EF0D2EFFD
:101C90000EF0FFEF0EF0015015E0080E0024026E6A
:101CA000036A470E0322046A000E042202C0F6FFF4
:101CB00003C0F7FF04C0F8FF0900F5CF02F002509F
:101CC0009212C8D0080E0024026E036A470E032247
:101CD000046A000E042202C0F6FF03C0F7FF04C02E
:101CE000F8FF0900F5CF02F00250FF089216B2D0BB
:101CF000015015E0080E0024026E036A470E03220D
:101D0000046A000E042202C0F6FF03C0F7FF04C0FD
:101D1000F8FF0900F5CF02F0025093129BD0080E95
:101D20000024026E036A470E0322046A000E042296
:101D300002C0F6FF03C0F7FF04C0F8FF0900F5CFAB
:101D400002F00250FF08931685D0015015E0080EEE
:101D50000024026E036A470E0322046A000E042266
:101D600002C0F6FF03C0F7FF04C0F8FF0900F5CF7B
:101D700002F0025094126ED0080E0024026E036A24
:101D8000470E0322046A000E042202C0F6FF03C0BD
:101D9000F7FF04C0F8FF0900F5CF02F00250FF087A
:101DA000941658D0015015E0080E0024026E036A04
:101DB000470E0322046A000E042202C0F6FF03C08D
:101DC000F7FF04C0F8FF0900F5CF02F002509512AA
:101DD00041D0080E0024026E036A470E0322046AF3
:101DE000000E042202C0F6FF03C0F7FF04C0F8FF94
:101DF0000900F5CF02F00250FF0895162BD00150D4
:101E000015E0080E0024016E026A470E0222036AE2
:101E1000000E032201C0F6FF02C0F7FF03C0F8FF67
:101E20000900F5CF01F00150961214D0016A026A40
:101E3000080E0026470E0122000E022200C0F6FF07
:101E400001C0F7FF02C0F8FF0900F5CF00F0005015
:101E5000FF089616E4CF04F0E4CF03F0E4CF02F0DD
:101E6000E4CF01F0E4CF00F0E4CFD9FF1200D9CFE6
:101E7000E5FFE1CFD9FF00C0E5FF01C0E5FF02C0EB
:101E8000E5FF03C0E5FF04C0E5FF020EDBCF00F075
:101E9000030EDBCF01F0280E0024026E036A470E0A
:101EA0000322046A000E042202C0F6FF03C0F7FFFB
:101EB00004C0F8FF0900F5CF02F0050E025CD8B0AF
:101EC000F8D0FA6AFB6A0234FA36E834FA36FC0BC8
:101ED000E00FE56E1E0EFA22000EFB22E450F96EB2
:101EE0007AEF0FF0A7EF0FF0D4EF0FF001EF10F043
:101EF0002EEF10F0015015E0080E0024026E036A68
:101F0000470E0322046A000E042202C0F6FF03C03B
:101F1000F7FF04C0F8FF0900F5CF02F00250891264
:101F2000C8D0080E0024026E036A470E0322046A1A
:101F3000000E042202C0F6FF03C0F7FF04C0F8FF42
:101F40000900F5CF02F00250FF088916B2D0015007
:101F500015E0080E0024026E036A470E0322046A8D
:101F6000000E042202C0F6FF03C0F7FF04C0F8FF12
:101F70000900F5CF02F002508A129BD0080E00240F
:101F8000026E036A470E0322046A000E042202C096
:101F9000F6FF03C0F7FF04C0F8FF0900F5CF02F019
:101FA0000250FF088A1685D0015015E0080E002463
:101FB000026E036A470E0322046A000E042202C066
:101FC000F6FF03C0F7FF04C0F8FF0900F5CF02F0E9
:101FD00002508B126ED0080E0024026E036A470E68
:101FE0000322046A000E042202C0F6FF03C0F7FFBA
:101FF00004C0F8FF0900F5CF02F00250FF088B166D
:1020000058D0015015E0080E0024026E036A470EF6
:102010000322046A000E042202C0F6FF03C0F7FF89
:1020200004C0F8FF0900F5CF02F002508C1241D035
:10203000080E0024026E036A470E0322046A000E93
:10204000042202C0F6FF03C0F7FF04C0F8FF090036
:10205000F5CF02F00250FF088C162BD0015015E08E
:10206000080E0024016E026A470E0222036A000E67
:10207000032201C0F6FF02C0F7FF03C0F8FF09000A
:10208000F5CF01F001508D1214D0016A026A080EDA
:102090000026470E0122000E022200C0F6FF01C0FA
:1020A000F7FF02C0F8FF0900F5CF00F00050FF086D
:1020B0008D16E4CF04F0E4CF03F0E4CF02F0E4CFD8
:1020C00001F0E4CF00F0E4CFD9FF1200D9CFE5FF53
:1020D000E1CFD9FF00C0E5FF01C0E5FF02C0E5FF89
:1020E00003C0E5FF04C0E5FF05C0E5FF06C0E5FF4E
:1020F00007C0E5FF08C0E5FF09C0E5FF0AC0E5FF2E
:102100000BC0E5FF020EDBCF00F07DC001F07EC00A
:1021100002F083C003F0E56A0350E56E00017051E0
:10212000E56E6F51E56E28EC21F0036EF3CF04F0FD
:10213000040EE1260450025C02E10350015C14E34A
:102140000350015E0450025A015000017D6F02509D
:102150007E6F7FC001F080C002F0014A022A015068
:102160007F6F0250806FD1D77FC001F080C002F036
:10217000000E025C02E1060E015C03E372EC1CF04F
:10218000F3D70050036E090A13E003500A0A04E073
:1021900003500D0A09E01AD0014A022A0150000139
:1021A0007F6F0250806F90D000017D6B7E6B8CD072
:1021B00000017D51040F016E000E7E21030E0116F9
:1021C000026A01507D6F02507E6B7ED0016A83C02F
:1021D00002F00250015CD8B06CD0E56A0250E56EA6
:1021E00000017E51E56E7D51E56E1EEC22F0026E1F
:1021F000F3CF03F0040EE12600017051E56E6F513C
:10220000E56E8051E56E7F51E56E1EEC22F0046EA6
:10221000F3CF05F0040EE1260450022605500322F8
:1022200001C004F0056A0450076A02260750032221
:10223000010E0226060E032285C006F086C007F0B6
:1022400087C008F000C009F00A6AE00E0926D8A08D
:102250000A0683C00BF0E56A0B50E56E0A50E56E86
:102260000950E56E1EEC22F0096EF3CF0AF0040E61
:10227000E126020E0926D8B00A2A095004260A507F
:1022800005220450062605500722E86A05BEE868C4
:10229000082206C0E9FF07C0F3FF0850EFEC27F063
:1022A000066E02C0E9FF03C0EAFF06C0EFFF012A85
:1022B0008ED77DC000F07EC001F0004A012A005098
:1022C00000017D6F01507E6FE4CF0BF0E4CF0AF088
:1022D000E4CF09F0E4CF08F0E4CF07F0E4CF06F054
:1022E000E4CF05F0E4CF04F0E4CF03F0E4CF02F054
:1022F000E4CF01F0E4CF00F0E4CFD9FF120000C03A
:10230000E5FF01C0E5FF02C0E5FF03C0E5FF04C033
:10231000E5FF05C0E5FF06C0E5FF07C0E5FF0701D3
:10232000FA51E56EF951E56EA2EC24F0006EF3CFA0
:1023300001F0F4CF02F0E9CF03F0E652E652035089
:10234000E56E0250E56E0150E56E0050E56E410EFF
:10235000E56EC00EE56E000EE56AE56ACEEC07F0AC
:10236000006EF3CF01F0F4CF02F0E9CF03F0080ED6
:10237000E1260001CE51E56E3BEC25F0046EF3CF73
:1023800005F0F4CF06F0E9CF07F0E6520350E56E12
:102390000250E56E0150E56E0050E56E0750E56EA7
:1023A0000650E56E0550E56E0450E56E02EC06F051
:1023B000006EF3CF01F0F4CF02F0E9CF03F0080E86
:1023C000E1260350E56E0250E56E0150E56E0050C7
:1023D000E56EB8EC22F00001D06F040EE126070193
:1023E000FA51E56EF951E56EBFEC1AF0006EF3CFCD
:1023F00001F0F4CF02F0E9CF03F0E652E6520350C9
:10240000E56E0250E56E0150E56E0050E56E410E3E
:10241000E56EC00EE56E000EE56AE56ACEEC07F0EB
:10242000006EF3CF01F0F4CF02F0E9CF03F0080E15
:10243000E1260001CF51E56E3BEC25F0046EF3CFB1
:1024400005F0F4CF06F0E9CF07F0E6520350E56E51
:102450000250E56E0150E56E0050E56E0750E56EE6
:102460000650E56E0550E56E0450E56E02EC06F090
:10247000006EF3CF01F0F4CF02F0E9CF03F0080EC5
:10248000E1260350E56E0250E56E0150E56E005006
:10249000E56EB8EC22F00001D16F040EE126B8EC35
:1024A00027F00001D151E56E0001D051E56E000129
:1024B000CF51E56E0001CE51E56ED7EC24F0040E4D
:1024C000E12663EC1EF00701F951010F006E000ECA
:1024D000FA21016E010EE56E680EE56E0150E56EA3
:1024E0000050E56E74EC20F00701F96FF3CFFAF7B6
:1024F000040EE126E4CF07F0E4CF06F0E4CF05F0C8
:10250000E4CF04F0E4CF03F0E4CF02F0E4CF01F035
:10251000E4CF00F01200D9CFE5FFE1CFD9FF00C032
:10252000E5FF01C0E5FF02C0E5FF03C0E5FF04C011
:10253000E5FF05C0E5FF06C0E5FF07C0E5FF020EA9
:10254000DBCF00F0030EDBCF01F0040EDBCF02F097
:10255000050EDBCF03F0060EDBCF04F0070EDBCF5A
:1025600005F0080EDBCF06F0090EDBCF07F00050B8
:102570000001A86F0150A96F0250AA6F0350AB6F02
:1025800004500001AC6F0550AD6F0650AE6F0750A0
:10259000AF6F0001A8510001AE03F4CF01F0F3CFFB
:1025A00000F000500001B26F0150B36F0001A8515C
:1025B0000001AC03F4CF01F0F3CF00F000500001B4
:1025C000B06F0150B16F0001AB510001AC03F3CF0C
:1025D00000F00001B35100260050B36F0001AA5172
:1025E0000001AD03F3CF00F00001B351002600500D
:1025F000B36F0001AA510001AC03F4CF01F0F3CF97
:1026000000F00001B2510026B35101220050B26F18
:102610000150B36F0001A9510001AD03F4CF01F0E7
:10262000F3CF00F00001B2510026B3510122005057
:10263000B26F0150B36F0001A9510001AE03F3CF97
:1026400000F000500001B76F0001A9510001AC0378
:10265000F4CF01F0F3CF00F000500001B56F01504E
:10266000B66F0001A8510001AF03F3CF00F0005096
:102670000001BB6F0001A8510001AD03F4CF01F0D0
:10268000F3CF00F000500001B96F0150BA6F0001A4
:10269000B46B0001B86B0001B4510001B025006EAD
:1026A0000001B5510001B121016E0001B6510001D8
:1026B000B221026E0001B7510001B321036E005038
:1026C000B06F0150B16F0250B26F0350B36F000191
:1026D000B8510001B025006E0001B9510001B121CF
:1026E000016E0001BA510001B221026E0001BB511E
:1026F0000001B321036E03C0E9FF02C0F4FF01C073
:10270000F3FF0050E4CF07F0E4CF06F0E4CF05F08C
:10271000E4CF04F0E4CF03F0E4CF02F0E4CF01F023
:10272000E4CF00F0E4CFD9FF120000000000000069
:102730000000000000000000000000000000000099
:102740000000000000000000000000000000000089
:1027500000C0E0F0F8FCFCFEFFFCE0000000000020
:102760000000000000000000000000000000000069
:102770000000000000000000000000000000000059
:102780000000000000000000000000000000000049
:10279000F8F8F8F8F8F8F8F8F8F8F8F8F0F0E0E0F9
:1027A000C080C0FCFFFFFFFF7F3F7FFFFFFFFFFFF9
:1027B0000000000000000000000000000000000019
:1027C0000000000000000000000000000000000009
:1027D00000000000000000000000000000000000F9
:1027E00000000000000F1F3F7FFFFFFFFFFFFFFF04
:1027F000FFE7C7C7878F9F9FFFFFFFC1C0E0FCFFB8
:10280000FFFFFFFFFCFCFCFCFEFEFEFCFCF8F8F00A
:10281000E0C0C00000000000000000000000000058
:1028200000000000000000000000000000000000A8
:1028300000000000000000000000000080C0E0F187
:10284000FBFFFFFFFFFF7F1F0F0F87E7FFFFFF1F4C
:102850001F3FF9F8F8F8F8F8F8FDFFFFFFFFFFFF5A
:10286000FFFFFF7F3F0F0701000000000000000096
:102870000000000000000000000000000000000058
:102880000000000000000000000000000000F0FE5A
:10289000FFFFFFFFFFFFFFFFFFFFFE7E3F3F0F1F1A
:1028A000FFFFFFFCF0E0F1FFFFFFFFFFFCF0010185
:1028B0000101010101010000000000000000000012
:1028C0000000000000000000000000000000000008
:1028D00000000000000000000000000000000000F8
:1028E00000000303030303030303010101010000CC
:1028F0000000000000030F1F3F7F7FFFFFFFFF7FEF
:102900007F1F030000000000000000000000000026
:1029100000000000000000000000000000000000B7
:1029200000000000000100000000D9CFE5FFE1CF6A
:10293000D9FF00C0E5FF01C0E5FF02C0E5FF03C00D
:10294000E5FF04C0E5FF05C0E5FF06C0E5FF07C0E1
:10295000E5FF08C0E5FF09C0E5FF0AC0E5FF0BC0C1
:10296000E5FF0CC0E5FF0DC0E5FF0EC0E5FF0FC0A1
:10297000E5FF10C0E5FF11C0E5FF12C0E5FF13C081
:10298000E5FF020EDBCF00F0030EDBCF01F0040EFB
:10299000DBCF02F0050EDBCF03F0060EDBCF04F039
:1029A000070EDBCF05F0080EDBCF06F0090EDBCFFC
:1029B00007F00A0EDBCF08F00B0EDBCF09F00C0E90
:1029C000DBCF0AF00D0EDBCF0BF00E0EDBCF0CF0E1
:1029D0000F0EDBCF0DF0100EDBCF0EF0110EDBCFA4
:1029E0000FF0120EDBCF10F0130EDBCF11F0140E30
:1029F000DBCF12F0150EDBCF13F00450005E055054
:102A0000015A0650025A0750035A0C50105E0D50DE
:102A1000115A0E50125A0F50135A1350E56E12509D
:102A2000E56E1150E56E1050E56E0350E56E0250F4
:102A3000E56E0150E56E0050E56E8BEC12F0006E15
:102A4000F3CF01F0F4CF02F0E9CF03F0080EE12656
:102A50000450085C046E05500958056E06500A586B
:102A6000066E07500B58E56E0650E56E0550E56E94
:102A70000450E56E0350E56E0250E56E0150E56EC0
:102A80000050E56E38EC17F0006EF3CF01F0F4CF94
:102A900002F0E9CF03F0080EE12600500C260150A9
:102AA0000D2202500E2203500F220FC0E9FF0EC06C
:102AB000F4FF0DC0F3FF0C50E4CF13F0E4CF12F09D
:102AC000E4CF11F0E4CF10F0E4CF0FF0E4CF0EF03C
:102AD000E4CF0DF0E4CF0CF0E4CF0BF0E4CF0AF03C
:102AE000E4CF09F0E4CF08F0E4CF07F0E4CF06F03C
:102AF000E4CF05F0E4CF04F0E4CF03F0E4CF02F03C
:102B0000E4CF01F0E4CF00F0E4CFD9FF1200D9CF39
:102B1000E5FFE1CFD9FF00C0E5FF01C0E5FF02C03E
:102B2000E5FF03C0E5FF04C0E5FF05C0E5FF06C003
:102B3000E5FF07C0E5FF08C0E5FF09C0E5FF0AC0E3
:102B4000E5FF0BC0E5FF0CC0E5FF0DC0E5FF0EC0C3
:102B5000E5FF0FC0E5FF10C0E5FF11C0E5FF12C0A3
:102B6000E5FF13C0E5FF020EDBCF00F0030EDBCF65
:102B700001F0040EDBCF02F0050EDBCF03F0060EF2
:102B8000DBCF04F0070EDBCF05F0051C076E041C3D
:102B9000066E064A072A06C008F007C009F005506D
:102BA000E56E0450E56E0550E56E0450E56E1EECD2
:102BB00022F00A6EF3CF0BF0040EE12608500C6EE3
:102BC0000950055C02E10C50045CD8A053D00950B8
:102BD000E56E0850E56E0950E56E0850E56E1EEC96
:102BE00022F00C6EF3CF0DF0040EE12606C00EF0BD
:102BF00007C00FF00E50106E0F50116E055C02E111
:102C00001050045C34E30F50E56E0E50E56E0F502B
:102C1000E56E0E50E56E1EEC22F0126EF3CF13F04F
:102C2000040EE1260C5012260D50132213500B5C9B
:102C300002E112500A5C18E30050102601501122E4
:102C40000850126E0950136E0250122603501322C0
:102C50001350E56E1250E56E1150E56E1050E56EA2
:102C6000C2EC25F0040EE1260E4A0F2AC3D7084A0B
:102C7000092AA4D7E4CF13F0E4CF12F0E4CF11F087
:102C8000E4CF10F0E4CF0FF0E4CF0EF0E4CF0DF07E
:102C9000E4CF0CF0E4CF0BF0E4CF0AF0E4CF09F07E
:102CA000E4CF08F0E4CF07F0E4CF06F0E4CF05F07E
:102CB000E4CF04F0E4CF03F0E4CF02F0E4CF01F07E
:102CC000E4CF00F0E4CFD9FF1200D9CFE5FFE1CF88
:102CD000D9FF00C0E5FF01C0E5FF02C0E5FF03C06A
:102CE000E5FF04C0E5FF020EDBCF00F0030EDBCFF3
:102CF00001F0040EDBCF02F0050EDBCF03F0060E71
:102D0000DBCF04F004500001636F0350646F025086
:102D1000626F0150606F0050616F540E6F6F706B87
:102D2000300E716F726B010E656F7F6B806B7D6B08
:102D30007E6B666F7B6F7C6B766B776BE56E02509C
:102D4000E56E37EC0FF0E652E652010EE56E00013B
:102D50006451E56E37EC0FF0E652E652010EE56E77
:102D600000016351E56E37EC0FF0E652E652010EBA
:102D7000E56E00016051E56E37EC0FF0E652E65269
:102D8000010EE56E00016151E56E37EC0FF0E65281
:102D9000E652E56A00016051E56E08EC0EF0E6527D
:102DA000E652E56A00016151E56E08EC0EF0E6526C
:102DB000E652E56A00016251E56E08EC0EF0E6525B
:102DC000E65263C000F0005007E0E56A0050E56E8F
:102DD00008EC0EF0E652E6520001645107E0E56AA5
:102DE0006451E56E08EC0EF0E652E65200016351C4
:102DF00017E0E56A6351E56E37EC0FF0E652E652F4
:102E0000E56A1E0EE56EEDEC25F0E652E652010E87
:102E1000E56E00016351E56E37EC0FF0E652E652C5
:102E2000210EE56E6CEC24F0E652140EE56E6CECAF
:102E300024F0E652FF0EE5686CEC24F0E652200E1A
:102E4000E56E6CEC24F0E6520C0EE56E6CEC24F0B2
:102E5000E65263EC1EF0E4CF04F0E4CF03F0E4CFDD
:102E600002F0E4CF01F0E4CF00F0E4CFD9FF12008C
:102E7000D9CFE5FFE1CFD9FF00C0E5FF01C0E5FFF5
:102E800002C0E5FF03C0E5FF04C0E5FF05C0E5FFA4
:102E900006C0E5FF07C0E5FF08C0E5FF09C0E5FF84
:102EA0000AC0E5FF0BC0E5FF0CC0E5FF0DC0E5FF64
:102EB000020EDBCF00F0030EDBCF01F0040EDBCF00
:102EC00002F0050EDBCF03F0060EDBCF04F0070E99
:102ED000DBCF05F0080EDBCF06F0090EDBCF07F0E5
:102EE000D88003AED890086A083608500FE0031C5B
:102EF0000C6E021C0B6E011C0A6E001C096E092A66
:102F00000DE10A2A0BE10B4A0C2A08D000C009F097
:102F100001C00AF002C00BF003C00CF0D88007AE6D
:102F2000D890006A003600500FE0071C0D6E061C9A
:102F3000036E051C026E041C016E012A0DE1022ABB
:102F40000BE1034A0D2A08D004C001F005C002F0CD
:102F500006C003F007C00DF00D50E56E0350E56E9E
:102F60000250E56E0150E56E0C50E56E0B50E56EBB
:102F70000A50E56E0950E56EE6EC1BF0016EF3CFEA
:102F800002F0F4CF03F0E9CF04F0080EE126005080
:102F9000081A085016E0041C076E031C066E021C7B
:102FA000056E011C006E002A04E1052A02E1064AB2
:102FB000072A07C0E9FF06C0F4FF05C0F3FF005071
:102FC00007D004C0E9FF03C0F4FF02C0F3FF0150C3
:102FD000E4CF0DF0E4CF0CF0E4CF0BF0E4CF0AF037
:102FE000E4CF09F0E4CF08F0E4CF07F0E4CF06F037
:102FF000E4CF05F0E4CF04F0E4CF03F0E4CF02F037
:10300000E4CF01F0E4CF00F0E4CFD9FF1200D9CF34
:10301000E5FFE1CFD9FF00C0E5FF01C0E5FF02C039
:10302000E5FF03C0E5FF04C0E5FF05C0E5FF06C0FE
:10303000E5FF07C0E5FF08C0E5FF09C0E5FF0AC0DE
:10304000E5FF0BC0E5FF0CC0E5FF020EDBCF00F093
:10305000030EDBCF01F0040EDBCF02F0050EDBCF59
:1030600003F0060EDBCF04F0070EDBCF05F0080EF1
:10307000DBCF06F0090EDBCF07F0D88003AED89087
:10308000086A083608500FE0031C0C6E021C0B6E19
:10309000011C0A6E001C096E092A0DE10A2A0BE1C7
:1030A0000B4A0C2A08D000C009F001C00AF002C087
:1030B0000BF003C00CF0D88007AED8900FE3071CCC
:1030C000036E061C026E051C016E041C006E002AB5
:1030D0000DE1012A0BE1024A032A08D004C000F0E6
:1030E00005C001F006C002F007C003F00350E56E12
:1030F0000250E56E0150E56E0050E56E0C50E56E35
:103100000B50E56E0A50E56E0950E56E22EC1AF0A0
:10311000006EF3CF01F0F4CF02F0E9CF03F0080E18
:10312000E126085016E0031C076E021C066E011C07
:10313000056E001C046E042A04E1052A02E1064A19
:10314000072A07C0E9FF06C0F4FF05C0F3FF0450DB
:1031500007D003C0E9FF02C0F4FF01C0F3FF005035
:10316000E4CF0CF0E4CF0BF0E4CF0AF0E4CF09F0A9
:10317000E4CF08F0E4CF07F0E4CF06F0E4CF05F0A9
:10318000E4CF04F0E4CF03F0E4CF02F0E4CF01F0A9
:10319000E4CF00F0E4CFD9FF1200D9CFE5FFE1CFB3
:1031A000D9FF00C0E5FF01C0E5FF02C0E5FF03C095
:1031B000E5FF04C0E5FF05C0E5FF06C0E5FF07C069
:1031C000E5FF08C0E5FF09C0E5FF0AC0E5FF0BC049
:1031D000E5FF020EDBCF00F0030EDBCF01F0040EA3
:1031E000DBCF02F0050EDBCF03F000500110021020
:1031F000031005E1E96AF46AF36AE86A5ED0960EA4
:10320000046E056A035008E0D8900332023201329E
:103210000032044A052AF6D704C006F005C007F0BC
:1032200002BE12D0035010E10050002601360236D3
:103230000336FF0E0426052202BE02D00350F4E03E
:1032400004C006F005C007F00050046E0150056E82
:103250007F0E0214086E096A0450FF0A08E1055047
:10326000FF0A05E108507F0A02E1095001E006D09B
:10327000006A016A026A036A064A072A029EE86A2D
:10328000073006300B6E0A6A0A32086A08500012CC
:1032900001120A5002120B50031200500001BC6FC1
:1032A0000150BD6F0250BE6F0350BF6FBFC0E9FF3A
:1032B000BEC0F4FFBDC0F3FFBC51E4CF0BF0E4CFC0
:1032C0000AF0E4CF09F0E4CF08F0E4CF07F0E4CF50
:1032D00006F0E4CF05F0E4CF04F0E4CF03F0E4CF50
:1032E00002F0E4CF01F0E4CF00F0E4CFD9FF120008
:1032F000D9CFE5FFE1CFD9FF00C0E5FF01C0E5FF71
:1033000002C0E5FF03C0E5FF04C0E5FF05C0E5FF1F
:1033100006C0E5FF07C0E5FF020EDBCF00F0030E9D
:10332000DBCF01F0040EDBCF02F0050EDBCF03F0A4
:10333000060EDBCF04F0070EDBCF05F0080EDBCF67
:1033400006F0090EDBCF07F000500001A06F01501E
:10335000A16F0250A26F0350A36F04500001A46F2D
:103360000550A56F0650A66F0750A76FA451A51171
:10337000A611A71109E1A3C0E9FFA2C0F4FFA1C0F3
:10338000F3FF0001A0514BD00001A051A111A211E7
:10339000A31111E1A4C000F0A5C001F0A6C002F085
:1033A000A7C003F0037E03C0E9FF02C0F4FF01C021
:1033B000F3FF005034D00001A451006EA551016EFE
:1033C000A651026EA751036E037E0050A46F0150F8
:1033D000A56F0250A66F0350A76FE56EA651E56E6C
:1033E000A551E56EA451E56E0001A351E56EA25111
:1033F000E56EA151E56EA051E56E02EC06F0006E9F
:10340000F3CF01F0F4CF02F0E9CF03F0080EE1268C
:1034100003C0E9FF02C0F4FF01C0F3FF0050E4CF96
:1034200007F0E4CF06F0E4CF05F0E4CF04F0E4CFFA
:1034300003F0E4CF02F0E4CF01F0E4CF00F0E4CFFA
:10344000D9FF1200D9CFE5FFE1CFD9FF00C0E5FFDA
:1034500001C0E5FF02C0E5FF03C0E5FF04C0E5FFD2
:1034600005C0E5FF06C0E5FF07C0E5FF08C0E5FFB2
:1034700009C0E5FF0AC0E5FF020EDBCF00F0030E36
:10348000DBCF01F0040EDBCF02F0050EDBCF03F043
:10349000060EDBCF04F0070EDBCF05F0080EDBCF06
:1034A00006F0090EDBCF07F0086A0450051006107D
:1034B000071005E1E968F468F368E86847D0096A2D
:1034C0000750800BE8440A6E0A501BE104500426A2
:1034D0000536063607360750035C08E10650025CE5
:1034E00005E10550015C02E10450005C06E2D89061
:1034F000073206320532043204D0092A09C008F026
:10350000DFD70750035C08E10650025C05E1055077
:10351000015C02E10450005C08E30450005E0550C9
:10352000015A0650025A0750035AD8900732063201
:103530000532043208C009F008060950E2E103C070
:10354000E9FF02C0F4FF01C0F3FF0050E4CF0AF02E
:10355000E4CF09F0E4CF08F0E4CF07F0E4CF06F0C1
:10356000E4CF05F0E4CF04F0E4CF03F0E4CF02F0C1
:10357000E4CF01F0E4CF00F0E4CFD9FF1200D9CFBF
:10358000E5FFE1CFD9FF00C0E5FF01C0E5FF02C0C4
:10359000E5FF03C0E5FF04C0E5FF05C0E5FF020E3F
:1035A000DBCF00F0030EDBCF01F0026AD88001AE62
:1035B000D8901CE3011C046E001C036E034A042A0D
:1035C000010EE56E680EE56E0450E56E0350E56E83
:1035D00042EC1FF0036EF3CF04F0040EE12603501B
:1035E0006808006E010E0454016E0FD0010EE56EE6
:1035F000680EE56E0150E56E0050E56E42EC1FF07E
:10360000006EF3CF01F0040EE1260150800F800F11
:1036100002E1B40E005C06E34C0E0026D8A00106C1
:10362000010E026E0150800F800F02E15B0E005C04
:1036300005E30050B408006E000E0156025016E07B
:103640000150E56E0050E56EC4EC0CF0F3CF03F0D2
:10365000F4CF04F0E9CF05F0E652E652057E05C04E
:10366000E9FF04C0F4FF03C0F3FF14D00150E56E7E
:103670000050E56EC4EC0CF0F3CF01F0F4CF02F093
:10368000E9CF03F0E652E65203C0E9FF02C0F4FFBF
:1036900001C0F3FFE4CF05F0E4CF04F0E4CF03F082
:1036A000E4CF02F0E4CF01F0E4CF00F0E4CFD9FFA3
:1036B0001200D9CFE5FFE1CFD9FF00C0E5FF01C07F
:1036C000E5FF02C0E5FF03C0E5FF04C0E5FF05C05C
:1036D000E5FF06C0E5FF07C0E5FF08C0E5FF09C03C
:1036E000E5FF0AC0E5FF0BC0E5FF0CC0E5FF0DC01C
:1036F000E5FF0EC0E5FF0FC0E5FF020EDBCF00F0D7
:10370000030EDBCF01F0040EDBCF02F0050EDBCFA2
:1037100003F0060EDBCF04F0070EDBCF05F0080E3A
:10372000DBCF06F0090EDBCF07F0086A096A075005
:10373000095C02E10650085C26E2085002240A6E89
:10374000095003200B6E0C6A0D6A05500D5C02E1F6
:1037500004500C5C15E20C5000240E6E0D5001203C
:103760000F6E0B50E56E0A50E56E0F50E56E0E5071
:10377000E56EC2EC25F0040EE1260C4A0D2AE5D7D1
:10378000084A092AD4D7E4CF0FF0E4CF0EF0E4CFF3
:103790000DF0E4CF0CF0E4CF0BF0E4CF0AF0E4CF6F
:1037A00009F0E4CF08F0E4CF07F0E4CF06F0E4CF6F
:1037B00005F0E4CF04F0E4CF03F0E4CF02F0E4CF6F
:1037C00001F0E4CF00F0E4CFD9FF1200D9CFE5FF3C
:1037D000E1CFD9FF00C0E5FF01C0E5FF02C0E5FF72
:1037E00003C0E5FF04C0E5FF05C0E5FF06C0E5FF37
:1037F00007C0E5FF08C0E5FF09C0E5FF0AC0E5FF17
:103800000BC0E5FF0CC0E5FF0DC0E5FF020EDBCFEE
:1038100000F0030EDBCF01F0040EDBCF02F0050E4B
:10382000DBCF03F0060EDBCF04F0070EDBCF05F095
:10383000080EDBCF06F0090EDBCF07F0086A096A35
:103840000A6A0B6A200E0C6E0350800BE8440D6E62
:103850000050002601360236033608500826093685
:103860000A360B360D50D8A4088007500B5C08E1CF
:1038700006500A5C05E10550095C02E10450085C51
:1038800009E30450085E0550095A06500A5A0750C9
:103890000B5A00800C2ED8D703C0E9FF02C0F4FFFA
:1038A00001C0F3FF0050E4CF0DF0E4CF0CF0E4CF03
:1038B0000BF0E4CF0AF0E4CF09F0E4CF08F0E4CF56
:1038C00007F0E4CF06F0E4CF05F0E4CF04F0E4CF56
:1038D00003F0E4CF02F0E4CF01F0E4CF00F0E4CF56
:1038E000D9FF120000C0E5FF01C0E5FF02C0E5FFFF
:1038F00003C0E5FF04C0E5FF05C0E5FF06C0E5FF26
:1039000007C0E5FF010E006E540E016E026A036AE5
:1039100003C004F0056A00C006F0076AFF0E062621
:1039200007220750E56E0650E56EE56A540EE56E17
:103930001EEC22F0066EF3CF07F0040EE1260450D1
:10394000062605500722010E0626060E0722015004
:10395000042602500522010E0426060E052204C08C
:10396000E9FF05C0EAFFEFCF04F006C0E9FF07C09A
:10397000EAFF04C0EFFF032A540E035CC9E3540EB0
:103980000126D8B0022A002A060E005CD8A0BFD7B4
:10399000006A00C001F0026AA40E0126D8B0022A13
:1039A000022A010E0126060E022201C0E9FF02C012
:1039B000EAFFEF6A002A540E005CEBE37FC000F0E0
:1039C00080C001F0FF0E00260122005000017F6F31
:1039D0000150806FE4CF07F0E4CF06F0E4CF05F0AC
:1039E000E4CF04F0E4CF03F0E4CF02F0E4CF01F041
:1039F000E4CF00F01200D9CFE5FFE1CFD9FF00C03E
:103A0000E5FF01C0E5FF02C0E5FF03C0E5FF04C01C
:103A1000E5FF05C0E5FF06C0E5FF07C0E5FF020EB4
:103A2000DBCF00F0030EDBCF01F0040EDBCF02F0A2
:103A3000050EDBCF03F0D88003AED8902AE3031C39
:103A4000076E021C066E011C056E001C046E042A23
:103A500004E1052A02E1064A072A0750E56E0650EE
:103A6000E56E0550E56E0450E56ECDEC18F0046E81
:103A7000F3CF05F0F4CF06F0E9CF07F0040EE1260E
:103A8000077E07C0E9FF06C0F4FF05C0F3FF04503E
:103A90001AD00350E56E0250E56E0150E56E0050FD
:103AA000E56ECDEC18F0006EF3CF01F0F4CF02F02C
:103AB000E9CF03F0040EE12603C0E9FF02C0F4FFE2
:103AC00001C0F3FF0050E4CF07F0E4CF06F0E4CFED
:103AD00005F0E4CF04F0E4CF03F0E4CF02F0E4CF4C
:103AE00001F0E4CF00F0E4CFD9FF1200D9CFE5FF19
:103AF000E1CFD9FF00C0E5FF01C0E5FF02C0E5FF4F
:103B000003C0E5FF04C0E5FF05C0E5FF020EDBCF03
:103B100000F0030EDBCF01F0040EDBCF02F0050E48
:103B2000DBCF03F0005000019C6F01509D6F0250ED
:103B30009E6F03509F6F9C519D119E119F1106E037
:103B40009F51800BE844006E005005E0E96AF46A7A
:103B5000F36AE86A36D000019C519E51026E9F5173
:103B6000036E02340334006E016A6A0E0026FF0EF3
:103B700001229C51026E9D51036E9E51046E9F5115
:103B8000049E056A048E011E006CD8B4012A005000
:103B900011E009E6E86CD8900532043203320232B3
:103BA000010FFAE307D0D890023603360436053603
:103BB000010FFAE305C0E9FF04C0F4FF03C0F3FFFF
:103BC0000250E4CF05F0E4CF04F0E4CF03F0E4CFFB
:103BD00002F0E4CF01F0E4CF00F0E4CFD9FF12000F
:103BE000D9CFE5FFE1CFD9FF00C0E5FF01C0E5FF78
:103BF00002C0E5FF03C0E5FF04C0E5FF05C0E5FF27
:103C000006C0E5FF020EDBCF00F0030EDBCF01F0B4
:103C1000040EDBCF02F000C0E9FF01C0F3FF025049
:103C2000E1EC26F0036EF3CF04F0F4CF05F0E9CF1A
:103C300006F00650E56E0550E56E0450E56E035043
:103C4000E56E410EE56EC60EE56E4E0EE56E6D0E2E
:103C5000E56E8BEC12F0036EF3CF04F0F4CF05F0B9
:103C6000E9CF06F0080EE126390E0326300E0422B5
:103C7000000E0522062203C0E5FF04C0F4FF05C0C4
:103C8000F6FF06C0F7FF00C0E9FF01C0F3FF0250D6
:103C9000DEEC27F0069E06C0E9FF05C0F4FF04C075
:103CA000F3FF0350E4CF06F0E4CF05F0E4CF04F0D7
:103CB000E4CF03F0E4CF02F0E4CF01F0E4CF00F072
:103CC000E4CFD9FF120000C0E5FF01C0E5FF02C04C
:103CD000E5FF03C0E5FF04C0E5FF05C0E5FF006A9E
:103CE000016A026A400E0010E56E6CEC24F0E652A8
:103CF000800EE56E6CEC24F0E652010EE56E0001DC
:103D00006251E56E37EC0FF0E652E65264C003F004
:103D1000035007E0E56A0350E56E37EC0FF0E6521A
:103D2000E652036A540E035C18E203C004F0056A0D
:103D30000150042602500522010E0426060E05221B
:103D400004C0E9FF05C0EAFFEFCF04F00450E56EC0
:103D500041EC23F0E652032AE5D764C003F0035098
:103D600008E0010EE56E0350E56E37EC0FF0E65209
:103D7000E652540E0126D8B0022A002A060E005C34
:103D8000D8A0B0D7400EE56E6CEC24F0E652E4CF3C
:103D900005F0E4CF04F0E4CF03F0E4CF02F0E4CF89
:103DA00001F0E4CF00F01200D9CFE5FFE1CFD9FF59
:103DB00000C0E5FF01C0E5FF02C0E5FF03C0E5FF6D
:103DC00004C0E5FF05C0E5FF06C0E5FF020EDBCF3E
:103DD00000F0030EDBCF01F0040EDBCF02F000C0D9
:103DE000E9FF01C0F3FF0250E1EC26F00001886F0B
:103DF000F3CF89F0F4CF8AF0E9CF8BF0800EE56E37
:103E0000000EE56E880EE56EF0EC1DF0036EF3CF4C
:103E100004F0F4CF05F0E9CF06F0030EE12603C06D
:103E2000E5FF04C0F4FF05C0F6FF06C0F7FF00C0C1
:103E3000E9FF01C0F3FF0250DEEC27F000C0E9FF0C
:103E400001C0F3FF0250E1EC26F0F3CF01F0F4CF14
:103E500002F0E9CF03F003C0E9FF02C0F4FF01C0A4
:103E6000F3FFE4CF06F0E4CF05F0E4CF04F0E4CFB5
:103E700003F0E4CF02F0E4CF01F0E4CF00F0E4CFB0
:103E8000D9FF1200D9CFE5FFE1CFD9FF00C0E5FF90
:103E900001C0E5FF02C0E5FF03C0E5FF04C0E5FF88
:103EA00005C0E5FF06C0E5FF020EDBCF00F0030E04
:103EB000DBCF01F0040EDBCF02F0050EDBCF03F009
:103EC000D88001AED890046A0436045007E0011C83
:103ED000066E001C056E054A062A04D000C005F0D7
:103EE00001C006F0D88003AED89007E3031C016E32
:103EF000021C006E004A012A04D002C000F003C078
:103F000001F00150E56E0050E56E0650E56E05507B
:103F1000E56E74EC20F0006EF3CF01F0040EE126A4
:103F200004500AE0011C036E001C026E024A032AC0
:103F300003C0F3FF025003D001C0F3FF0050E4CFF1
:103F400006F0E4CF05F0E4CF04F0E4CF03F0E4CFD3
:103F500002F0E4CF01F0E4CF00F0E4CFD9FF12008B
:103F6000D9CFE5FFE1CFD9FF00C0E5FF01C0E5FFF4
:103F700002C0E5FF03C0E5FF04C0E5FF05C0E5FFA3
:103F800006C0E5FF07C0E5FF08C0E5FF09C0E5FF83
:103F9000020EDBCF00F0030EDBCF01F0040EDBCF0F
:103FA00002F0050EDBCF03F0060EDBCF04F001506C
:103FB000066E0050056E800E076E03C008F004C048
:103FC00009F0FF0E03260422085009100EE002C07B
:103FD000E5FF05C0E9FF06C0F3FF075000EC28F03D
:103FE000052AEBE3064A072AE8D7800E026E02C0D4
:103FF000F4FF01C0F3FF0050E4CF09F0E4CF08F074
:10400000E4CF07F0E4CF06F0E4CF05F0E4CF04F00E
:10401000E4CF03F0E4CF02F0E4CF01F0E4CF00F00E
:10402000E4CFD9FF1200D9CFE5FFE1CFD9FF00C01F
:10403000E5FF01C0E5FF02C0E5FF03C0E5FF04C0E6
:10404000E5FF05C0E5FF06C0E5FF07C0E5FF08C0C6
:10405000E5FF020EDBCF00F0030EDBCF01F0040E14
:10406000DBCF02F0050EDBCF03F06AEC26F0046E26
:10407000F3CF05F0F4CF06F0E9CF07F0E86A03BE0E
:10408000FF0E086EE56E0850E56E0350E56E0250B7
:10409000E56E0750E56E0650E56E0550E56E04507E
:1040A000E56E07EC18F0026EF3CF03F0080EE12680
:1040B000005002260150032203C0F3FF0250E4CF58
:1040C00008F0E4CF07F0E4CF06F0E4CF05F0E4CF4A
:1040D00004F0E4CF03F0E4CF02F0E4CF01F0E4CF4A
:1040E00000F0E4CFD9FF1200D9CFE5FFE1CFD9FF2F
:1040F00000C0E5FF01C0E5FF02C0E5FF03C0E5FF2A
:1041000004C0E5FF05C0E5FF06C0E5FF020EDBCFFA
:1041100000F0030EDBCF01F0040EDBCF02F0050E42
:10412000DBCF03F0046A056A0350800BE844066E97
:10413000065011E10250022603360350015C02E1F1
:104140000250005C04E2D8900332023204D0052A07
:1041500005C004F0E9D70350015C02E10250005CA5
:1041600004E30250005E0350015AD8900332023239
:1041700004C005F004060550EEE101C0F3FF005055
:10418000E4CF06F0E4CF05F0E4CF04F0E4CF03F091
:10419000E4CF02F0E4CF01F0E4CF00F0E4CFD9FFA8
:1041A000120014EEFFF024EEFFF0F86AA68EA69C33
:1041B000BF0EE96E0E0EEA6E0068ED6A0050FDE17A
:1041C000160EF66E500EF76E000EF86E0900F5CF63
:1041D00005F00900F5CF06F034D00900F5CF00F066
:1041E0000900F5CF01F00900F5CF02F00900090040
:1041F000F5CFE9FF0900F5CFEAFF09000900090042
:10420000F5CF03F00900F5CF04F009000900F6CF5F
:1042100007F0F7CF08F0F8CF09F000C0F6FF01C0B3
:10422000F7FF02C0F8FF03D00900F5CFEEFF030649
:10423000FBE20406F9E207C0F6FF08C0F7FF09C079
:10424000F8FF0506CAE20606C8E2BBEC26F0FFD777
:10425000D9CFE5FFE1CFD9FF00C0E5FF01C0E5FF01
:1042600002C0E5FF03C0E5FF04C0E5FF05C0E5FFB0
:1042700006C0E5FF07C0E5FF020EDBCF00F0030E2E
:10428000DBCF01F0040EDBCF02F0050EDBCF03F035
:10429000046A056A100E066E0150800BE844076E32
:1042A0000050002601360450042605360750D8A4D5
:1042B00004800350055C02E10250045C05E30250F7
:1042C000045E0350055A0080062EE6D701C0F3FFB6
:1042D0000050E4CF07F0E4CF06F0E4CF05F0E4CFE0
:1042E00004F0E4CF03F0E4CF02F0E4CF01F0E4CF38
:1042F00000F0E4CFD9FF1200D9CFE5FFE1CFD9FF1D
:1043000000C0E5FF01C0E5FF02C0E5FF03C0E5FF17
:1043100004C0E5FF020EDBCF00F0030EDBCF01F09F
:10432000540E005C2DE2300E015C2AE2026A013874
:10433000E8441F0B540DF450046EF3CF03F0035008
:10434000002604500222010E0026060E022200C0A2
:10435000E9FF02C0EAFFEFCF03F0070E0116010EDE
:10436000046E015005E0E86CD8900436010FFDE3BF
:10437000041C031600C0E9FF02C0EAFF03C0EFFF00
:10438000E4CF04F0E4CF03F0E4CF02F0E4CF01F097
:10439000E4CF00F0E4CFD9FF1200D9CFE5FFE1CFA1
:1043A000D9FF00C0E5FF01C0E5FF02C0E5FF03C083
:1043B000E5FF04C0E5FF020EDBCF00F0030EDBCF0C
:1043C00001F0540E005C2DE2300E015C2AE2026A1C
:1043D0000138E8441F0B540DF450046EF3CF03F082
:1043E0000350002604500222010E0026060E02226F
:1043F00000C0E9FF02C0EAFFEFCF03F0070E01168D
:10440000010E046E015005E0E86CD8900436010FEF
:10441000FDE30450031200C0E9FF02C0EAFF03C03D
:10442000EFFFE4CF04F0E4CF03F0E4CF02F0E4CFF9
:1044300001F0E4CF00F0E4CFD9FF1200D9CFE5FFBF
:10444000E1CFD9FF00C0E5FF01C0E5FF02C0E5FFF5
:1044500003C0E5FF020EDBCF00F0030EDBCF01F05F
:10446000040EDBCF02F0050EDBCF03F0005000019D
:10447000C86F0150C96F02500001CA6F0350CB6F63
:104480000001C8510001CA03F4CF01F0F3CF00F0DE
:1044900000500001CC6F0150CD6F0001C8510001E8
:1044A000CB03F3CF00F00001C9510001CA03F3CFE1
:1044B00001F0015000260001CD5100260050CD6FC3
:1044C000CDC0F3FFCC51E4CF03F0E4CF02F0E4CF52
:1044D00001F0E4CF00F0E4CFD9FF1200E56A050E49
:1044E000E56E08EC0EF0E652E652E56A060EE56E61
:1044F00008EC0EF0E652E652E56A070EE56E08ECAF
:104500000EF0E652E652010EE56E050EE56E37EC52
:104510000FF0E652E652E56A060EE56E37EC0FF054
:10452000E652E652E56A070EE56E37EC0FF0E6520A
:10453000E652E56A010EE56E020EE56E030EE56ECB
:10454000040EE56E65EC16F0050EE1267F0EE56EB5
:1045500001EC27F0E652D890000170316F31000174
:10456000CE6FD8900001723171310001CF6F12000F
:10457000D9CFE5FFE1CFD9FF00C0E5FF01C0E5FFDE
:1045800002C0E5FF03C0E5FF020EDBCF00F0030E23
:10459000DBCF01F0040EDBCF02F0050EDBCF03F022
:1045A0000350E56E0250E56E0150E56E0050E56E79
:1045B00076EC1DF0006EF3CF01F0F4CF02F0E9CFFE
:1045C00003F0040EE126000E035C08E1000E025C1D
:1045D00005E1000E015C02E1FF0E005C02E3E86809
:1045E00001D00050E4CF03F0E4CF02F0E4CF01F0BB
:1045F000E4CF00F0E4CFD9FF1200D9CFE5FFE1CF3F
:10460000D9FF00C0E5FF01C0E5FF02C0E5FF03C020
:10461000E5FF04C0E5FF020EDBCF00F0030EDBCFA9
:1046200001F0026A0138E8441F0B540DF450046E87
:10463000F3CF03F00350002604500222010E00269F
:10464000060E022200C0E9FF02C0EAFFEFCF00F031
:10465000070E0116015005E0E86CD8900032010FFA
:10466000FDE3010E00160050E4CF04F0E4CF03F0A8
:10467000E4CF02F0E4CF01F0E4CF00F0E4CFD9FFC3
:104680001200D9CFE5FFE1CFD9FF00C0E5FF01C09F
:10469000E5FF02C0E5FF03C0E5FF020EDBCF00F03F
:1046A000016A60C002F000AE03D0010E036E01D0BB
:1046B000036A0350E56E0250E56E37EC0FF0E652E8
:1046C000E652010EE56E00016151E56E37EC0FF028
:1046D000E652E652000EE56E00016151E56E37ECE0
:1046E0000FF0E652E652D8900036012A080E015C1F
:1046F000D8E3E4CF03F0E4CF02F0E4CF01F0E4CF5D
:1047000000F0E4CFD9FF120001020408102040801D
:104710000102040810010204010204081020408074
:104720000102040810204080010101010101010182
:10473000000000000004040402020202020202025D
:104740000303030303030303E806E56E630EB7ECFC
:1047500023F0E4500BE000D0E56E630EB7EC23F0DD
:1047600000D000D00000E450E82EF6D71200E80692
:104770000000E85007E000D000D000D000D00000DA
:10478000E82EFAD71200D9CFE5FFE1CFD9FF00C05C
:10479000E5FF01C0E5FF02C0E5FF03C0E5FF020E33
:1047A000DBCF00F0030EDBCF01F0E86A01BEFF0EA5
:1047B000026EE56E0250E56E0150E56E0050E56E4A
:1047C000FBEC1CF0006EF3CF01F0F4CF02F0E9CF68
:1047D00003F0040EE12603C0E9FF02C0F4FF01C0AC
:1047E000F3FF0050E4CF03F0E4CF02F0E4CF01F098
:1047F000E4CF00F0E4CFD9FF1200D9CFE5FFE1CF3D
:10480000D9FF00C0E5FF01C0E5FF02C0E5FF020ED1
:10481000DBCF00F0030EDBCF01F0040EDBCF02F0A4
:1048200000500001856F0150866F0250876F00C0F5
:10483000E9FF01C0F3FFEFEC27F00001836F002ACE
:1048400002E3014A022A00C0E9FF01C0F3FF02505F
:10485000EFEC27F00001846FE4CF02F0E4CF01F029
:10486000E4CF00F0E4CFD9FF1200D9CFE5FFE1CFCC
:10487000D9FF00C0E5FF01C0E5FF020EDBCF00F06D
:10488000010EE56E00016251E56E37EC0FF0E65265
:10489000E65264C001F0015007E0E56A0150E56EA0
:1048A00037EC0FF0E652E6520050E56E41EC23F093
:1048B000E65264C000F0005008E0010EE56E0050C2
:1048C000E56E37EC0FF0E652E652E4CF01F0E4CFAC
:1048D00000F0E4CFD9FF1200D9CFE5FFE1CFD9FF37
:1048E00000C0E5FF01C0E5FF020EDBCF00F0E56A86
:1048F00000016251E56E37EC0FF0E652E65264C0FB
:1049000001F0015007E0E56A0150E56E37EC0FF069
:10491000E652E6520050E56E41EC23F0E65264C0E8
:1049200000F0005008E0010EE56E0050E56E37EC37
:104930000FF0E652E652E4CF01F0E4CF00F0E4CF0E
:10494000D9FF1200D9CFE5FFE1CFD9FF00C0E5FFC5
:1049500001C0E5FF02C0E5FF03C0E5FF020EDBCFAB
:1049600000F0030EDBCF01F05A0E0026D8B0012A6A
:104970000150E56E0050E56EBFEC1AF0F3CF01F088
:10498000F4CF02F0E9CF03F0E652E65203C0E9FFAC
:1049900002C0F4FF01C0F3FFE4CF03F0E4CF02F064
:1049A000E4CF01F0E4CF00F0E4CFD9FF1200D9CF7B
:1049B000E5FFE1CFD9FF00C0E5FF01C0E5FF02C080
:1049C000E5FF03C0E5FF020EDBCF00F0030EDBCFF7
:1049D00001F0040EDBCF02F0050EDBCF03F0E56A39
:1049E0000350E56EE56A0250E56EE56A0150E56E3A
:1049F000E56A0050E56E98EC09F0080EE126E4CF78
:104A000003F0E4CF02F0E4CF01F0E4CF00F0E4CF14
:104A1000D9FF1200D9CFE5FFE1CFD9FF00C0E5FFF4
:104A200001C0E5FF02C0E5FF03C0E5FF020EDBCFDA
:104A300000F0030EDBCF01F0D88001AED89009E37F
:104A40000050026E0150036E031E026CD8B4032A9C
:104A500004D000C002F001C003F003C0F3FF025015
:104A6000E4CF03F0E4CF02F0E4CF01F0E4CF00F0B4
:104A7000E4CFD9FF1200D9CFE5FFE1CFD9FF00C0C5
:104A8000E5FF01C0E5FF02C0E5FF03C0E5FF020E40
:104A9000DBCF00F0E56AE56AE56A0050E56ECDEC33
:104AA00018F0006EF3CF01F0F4CF02F0E9CF03F07D
:104AB000040EE12603C0E9FF02C0F4FF01C0F3FFCA
:104AC0000050E4CF03F0E4CF02F0E4CF01F0E4CFF4
:104AD00000F0E4CFD9FF1200D9CFE5FFE1CFD9FF35
:104AE00000C0E5FF01C0E5FF02C0E5FF020EDBCF1D
:104AF00000F0030EDBCF01F0040EDBCF02F000501C
:104B0000022602060150E56E0250E56E0150E56E88
:104B10000050E56ED7EC24F0040EE126E4CF02F05D
:104B2000E4CF01F0E4CF00F0E4CFD9FF1200D9CFF9
:104B3000E5FFE1CFD9FF00C0E5FF01C0E5FF02C0FE
:104B4000E5FF020EDBCF00F0030EDBCF01F0040E19
:104B5000DBCF02F00150022602060250E56E005043
:104B6000E56E0150E56E0050E56ED7EC24F0040EC2
:104B7000E126E4CF02F0E4CF01F0E4CF00F0E4CF8F
:104B8000D9FF1200D9CFE5FFE1CFD9FF00C0E5FF83
:104B900001C0E5FF02C0E5FF03C0E5FF020EDBCF69
:104BA00000F0030EDBCF01F0040EDBCF02F0050EA8
:104BB000DBCF03F00250E56E0050E56ECDEC21F046
:104BC000E652E652E4CF03F0E4CF02F0E4CF01F086
:104BD000E4CF00F0E4CFD9FF1200D9CFE5FFE1CF59
:104BE000D9FF00C0E5FF01C0E5FF02C0E5FF03C03B
:104BF000E5FF020EDBCF00F0030EDBCF01F0026A0F
:104C0000036A0150035C02E10050025C06E20C0EF4
:104C1000A4EC23F0024A032AF4D7E4CF03F0E4CF54
:104C200002F0E4CF01F0E4CF00F0E4CFD9FF1200AE
:104C3000D9CFE5FFE1CFD9FF00C0E5FF01C0E5FF17
:104C400002C0E5FF020EDBCF00F0030EDBCF01F068
:104C5000040EDBCF02F0E56A0250E56EE56A015012
:104C6000E56EE56A0050E56E87EC15F0060EE1266C
:104C7000E4CF02F0E4CF01F0E4CF00F0E4CFD9FFBD
:104C80001200D9CFE5FFE1CFD9FF00C0E5FF01C099
:104C9000E5FF02C0E5FF020EDBCF00F0030EDBCF25
:104CA00001F0040EDBCF02F0E56A0250E56EE56A22
:104CB0000150E56EE56A0050E56E35EC0BF0060E2E
:104CC000E126E4CF02F0E4CF01F0E4CF00F0E4CF3E
:104CD000D9FF120000C0E5FF01C0E5FF02C0E5FFFB
:104CE00003C0E5FF800EE56E070EE56EFB0EE56E78
:104CF000F0EC1DF0006EF3CF01F0F4CF02F0E9CF3D
:104D000003F0030EE12603C0E9FF02C0F4FF01C077
:104D1000F3FF0050E4CF03F0E4CF02F0E4CF01F062
:104D2000E4CF00F01200D9CFE5FFE1CFD9FF00C0FA
:104D3000E5FF01C0E5FF02C0E5FF03C0E5FF020E8D
:104D4000DBCF00F0030EDBCF01F0026A036A0150F3
:104D5000035C02E10050025C03E2024A032AF7D737
:104D6000E4CF03F0E4CF02F0E4CF01F0E4CF00F0B1
:104D7000E4CFD9FF1200D0B202D0930ED012D3509C
:104D8000030B800F7D0F02E3D3A4FED79B8C580E3C
:104D9000006E020E016E00C002F001C003F0FF0EB3
:104DA0000026012202500310F6E1A4EC27F012ECD9
:104DB00028F076EC27F06EEC22F07FEC11F0FDD7B6
:104DC0001200E8AE0AD0F3CFEAFFEE50EECFF3FFC9
:104DD000EECFF4FFEECFE9FF1200E8BC18EF28F0A9
:104DE000E9CFF6FFF3CFF7FFF86E0900F5500900A1
:104DF000F5CFF3FF0900F5CFF4FF0900F5CFE9FF88
:104E00001200D9CFE5FFE1CFD9FF00C0E5FF020EC8
:104E1000DBCF00F0210EE56E6CEC24F0E652009E34
:104E2000008E0050E56E6CEC24F0E652200EE56E2C
:104E30006CEC24F0E652E4CF00F0E4CFD9FF12008E
:104E4000D9CFE5FFE1CFD9FF00C0E5FF01C0E5FF05
:104E5000020EDBCF00F0030EDBCF01F000500001AB
:104E60007B6F7C6B006A0150766F0050776BE4CFEC
:104E700001F0E4CF00F0E4CFD9FF1200D9CFE5FF75
:104E8000E1CFD9FF00C0E5FF01C0E5FF020EDBCF97
:104E900000F0030EDBCF01F0005000017D6F7E6B50
:104EA000006A01507F6F0050806BE4CF01F0E4CFC7
:104EB00000F0E4CFD9FF1200D9CFE5FFE1CFD9FF51
:104EC00000C0E5FF01C0E5FF020EDBCF00F0016A84
:104ED000005000017B6F7C6B766F0150776BE4CFE5
:104EE00001F0E4CF00F0E4CFD9FF1200550EA76E19
:104EF000AA0EA76E0E01BF91050E0E01FD6F060EE4
:104F00000E01FC6F0B0E0E01C56F0A0E0E01C46F71
:104F1000550EA76EAA0EA76E0E01BF811200D9CF43
:104F2000E5FFE1CFD9FF00C0E5FF020EDBCF00F0C7
:104F3000005002E1010E006E00500001666FE4CFE8
:104F400000F0E4CFD9FF1200896A8A6A8B6A8C6A02
:104F50008D6A926A936A949094929494949C949E8D
:104F6000956A966A806A816A826A836A846A120094
:104F7000010EE56EF80EE56EE56A060EE56E010EB1
:104F8000E56EB0EC1FF0050EE12600017F6B806B33
:104F90007D6B7E6B1200D9CFE5FFE1CFD9FF020E0A
:104FA000DBCFFBF7030EDBCFFCF7040EDBCFFDF707
:104FB000050EDBCFFEF7E4CFD9FF1200E8AE0BD031
:104FC000F3CFEAFFE4CFEEFFF4CFEEFFF6CFEEFF34
:104FD000F7CFEEFF1200E8BC18EF28F01200E8AEA1
:104FE00004D0F3CFEAFFEE501200E8BC18EF28F02F
:104FF000E9CFF6FFF3CFF7FFF86E0900F550120086
:10500000E8AE05D0F3CFEAFFE4CFEEFF1200E8BC34
:1050100018EF28F0120001002A2700000006000007
:10502000FF0100000F0148691F0E0F01496F1200B8
:0250300012006C
:00000001FF
