:020000040000FA
:060C0000C7EF3CF01200FA
:080C0800B1EF40F00F01486953
:100C10001F0E0F01496F120026EF41F0D9CFE5FFFB
:100C2000E1CFD9FF00C0E5FF01C0E5FF02C0E5FF4D
:100C300003C0E5FF04C0E5FF05C0E5FF06C0E5FF12
:100C400007C0E5FF08C0E5FF09C0E5FF0AC0E5FFF2
:100C50000BC0E5FF0CC0E5FF0DC0E5FF0EC0E5FFD2
:100C60000FC0E5FF10C0E5FF11C0E5FF12C0E5FFB2
:100C700013C0E5FF14C0E5FF15C0E5FF16C0E5FF92
:100C8000020EDBCF00F0030EDBCF01F0040EDBCF52
:100C900002F0050EDBCF03F0060EDBCF04F0070EEB
:100CA000DBCF05F00550E56E0450E56E97EC41F0A2
:100CB000066EF3CF07F0F4CF08F0E9CF09F0E65263
:100CC000E6520350E56E0250E56E97EC41F00A6E75
:100CD000F3CF0BF0F4CF0CF0E9CF0DF0E652E65273
:100CE0000D50E56E0C50E56E0B50E56E0A50E56E4A
:100CF0000950E56E0850E56E0750E56E0650E56E4A
:100D0000F3EC19F0066EF3CF07F0F4CF08F0E9CF5B
:100D100009F0080EE12606500101006F0750016F2F
:100D20000850026F0950036F0550E56E0450E56EE0
:100D300050EC34F0066EF3CF07F0F4CF08F0E9CFB3
:100D400009F0E652E6520350E56E0250E56E97EC6C
:100D500041F00A6EF3CF0BF0F4CF0CF0E9CF0DF0B9
:100D6000E652E6520D50E56E0C50E56E0B50E56E06
:100D70000A50E56E0950E56E0850E56E0750E56EC5
:100D80000650E56EF3EC19F0066EF3CF07F0F4CFE2
:100D900008F0E9CF09F0080EE126065001010C6FBA
:100DA00007500D6F08500E6F09500F6F0350E56E1E
:100DB0000250E56E50EC34F0F3CF07F0F4CF08F0BA
:100DC000E9CF09F0E652E652097E0101186F07509B
:100DD000196F08501A6F09501B6F0550E56E0450CB
:100DE000E56E97EC41F0066EF3CF07F0F4CF08F014
:100DF000E9CF09F0E652E6520350E56E0250E56E87
:100E000050EC34F00A6EF3CF0BF0F4CF0CF0E9CFD6
:100E10000DF0E652E6520D50E56E0C50E56E0B50AB
:100E2000E56E0A50E56E0950E56E0850E56E075014
:100E3000E56E0650E56EF3EC19F0066EF3CF07F0A1
:100E4000F4CF08F0E9CF09F0080EE1260150E56E75
:100E50000050E56E50EC34F00A6EF3CF0BF0F4CF97
:100E60000CF0E9CF0DF0E652E6520D50E56E0C5055
:100E7000E56E0B50E56E0A50E56E0950E56E0850C0
:100E8000E56E0750E56E0650E56EF3EC19F0066E60
:100E9000F3CF07F0F4CF08F0E9CF09F0080EE12610
:100EA0000550E56E0450E56E50EC34F00A6EF3CF59
:100EB0000BF0F4CF0CF0E9CF0DF0E652E652015002
:100EC000E56E0050E56E97EC41F00E6EF3CF0FF03B
:100ED000F4CF10F0E9CF11F0E652E6521150E56E72
:100EE0001050E56E0F50E56E0E50E56E0D50E56E3C
:100EF0000C50E56E0B50E56E0A50E56EF3EC19F000
:100F00000A6EF3CF0BF0F4CF0CF0E9CF0DF0080E22
:100F1000E1260D50E56E0C50E56E0B50E56E0A5063
:100F2000E56E0950E56E0850E56E0750E56E065017
:100F3000E56E09EC33F0066EF3CF07F0F4CF08F05E
:100F4000E9CF09F0080EE12606500101046F0750B1
:100F5000056F0850066F0950076F0550E56E045085
:100F6000E56E50EC34F0066EF3CF07F0F4CF08F0E6
:100F7000E9CF09F0E652E6520350E56E0250E56E05
:100F800050EC34F00A6EF3CF0BF0F4CF0CF0E9CF55
:100F90000DF0E652E6520D50E56E0C50E56E0B502A
:100FA000E56E0A50E56E0950E56E0850E56E075093
:100FB000E56E0650E56EF3EC19F0066EF3CF07F020
:100FC000F4CF08F0E9CF09F0080EE1260150E56EF4
:100FD0000050E56E50EC34F00A6EF3CF0BF0F4CF16
:100FE0000CF0E9CF0DF0E652E6520D50E56E0C50D4
:100FF000E56E0B50E56E0A50E56E0950E56E08503F
:10100000E56E0750E56E0650E56EF3EC19F0066EDE
:10101000F3CF07F0F4CF08F0E9CF09F0080EE1268E
:101020000150E56E0050E56E97EC41F00A6EF3CF8B
:101030000BF0F4CF0CF0E9CF0DF0E652E65205507C
:10104000E56E0450E56E97EC41F00E6EF3CF0FF0B5
:10105000F4CF10F0E9CF11F0E652E6521150E56EF0
:101060001050E56E0F50E56E0E50E56E0D50E56EBA
:101070000C50E56E0B50E56E0A50E56EF3EC19F07E
:101080000A6EF3CF0BF0F4CF0CF0E9CF0DF0080EA1
:10109000E1260D50E56E0C50E56E0B50E56E0A50E2
:1010A000E56E0950E56E0850E56E0750E56E065096
:1010B000E56E27EC18F0066EF3CF07F0F4CF08F0DA
:1010C000E9CF09F0080EE12606500101106F075024
:1010D000116F0850126F0950136F0150E56E0050E8
:1010E000E56E50EC34F0066EF3CF07F0F4CF08F065
:1010F000E9CF09F0E652E6520350E56E0250E56E84
:1011000097EC41F00A6EF3CF0BF0F4CF0CF0E9CF7F
:101110000DF0E652E6520D50E56E0C50E56E0B50A8
:10112000E56E0A50E56E0950E56E0850E56E075011
:10113000E56E0650E56EF3EC19F0066EF3CF07F09E
:10114000F4CF08F0E9CF09F0080EE12606500101BE
:101150001C6F07501D6F08501E6F09501F6F055000
:10116000E56E0450E56E97EC41F0066EF3CF07F0A4
:10117000F4CF08F0E9CF09F0E652E6520350E56EED
:101180000250E56E50EC34F00A6EF3CF0BF0F4CF62
:101190000CF0E9CF0DF0E652E6520D50E56E0C5022
:1011A000E56E0B50E56E0A50E56E0950E56E08508D
:1011B000E56E0750E56E0650E56EF3EC19F0066E2D
:1011C000F3CF07F0F4CF08F0E9CF09F0080EE126DD
:1011D0000150E56E0050E56E97EC41F00A6EF3CFDA
:1011E0000BF0F4CF0CF0E9CF0DF0E652E6520D50C3
:1011F000E56E0C50E56E0B50E56E0A50E56E095039
:10120000E56E0850E56E0750E56E0650E56EF3ECAE
:1012100019F0066EF3CF07F0F4CF08F0E9CF09F02C
:10122000080EE1260550E56E0450E56E50EC34F0F2
:101230000A6EF3CF0BF0F4CF0CF0E9CF0DF0E652CD
:10124000E6520150E56E0050E56E50EC34F00E6E43
:10125000F3CF0FF0F4CF10F0E9CF11F0E652E652E1
:101260001150E56E1050E56E0F50E56E0E50E56EB4
:101270000D50E56E0C50E56E0B50E56E0A50E56EB4
:10128000F3EC19F00A6EF3CF0BF0F4CF0CF0E9CFCA
:101290000DF0080EE1260D50E56E0C50E56E0B507A
:1012A000E56E0A50E56E0950E56E0850E56E075090
:1012B000E56E0650E56E27EC18F0066EF3CF07F0EA
:1012C000F4CF08F0E9CF09F0080EE126065001013D
:1012D000086F0750096F08500A6F09500B6F0550CF
:1012E000E56E0450E56E50EC34F0066EF3CF07F077
:1012F000F4CF08F0E9CF09F0E652E6520350E56E6C
:101300000250E56E50EC34F00A6EF3CF0BF0F4CFE0
:101310000CF0E9CF0DF0E652E6520D50E56E0C50A0
:10132000E56E0B50E56E0A50E56E0950E56E08500B
:10133000E56E0750E56E0650E56EF3EC19F0066EAB
:10134000F3CF07F0F4CF08F0E9CF09F0080EE1265B
:101350000150E56E0050E56E97EC41F00A6EF3CF58
:101360000BF0F4CF0CF0E9CF0DF0E652E6520D5041
:10137000E56E0C50E56E0B50E56E0A50E56E0950B7
:10138000E56E0850E56E0750E56E0650E56EF3EC2D
:1013900019F0066EF3CF07F0F4CF08F0E9CF09F0AB
:1013A000080EE1260550E56E0450E56E97EC41F01D
:1013B000046EF3CF05F0F4CF0AF0E9CF0BF0E6525C
:1013C000E6520150E56E0050E56E50EC34F00C6EC4
:1013D000F3CF0DF0F4CF0EF0E9CF0FF0E652E65266
:1013E0000F50E56E0E50E56E0D50E56E0C50E56E3B
:1013F0000B50E56E0A50E56E0550E56E0450E56E43
:10140000F3EC19F0046EF3CF05F0F4CF0AF0E9CF56
:101410000BF0080EE1260B50E56E0A50E56E055004
:10142000E56E0450E56E0950E56E0850E56E075014
:10143000E56E0650E56E09EC33F0046EF3CF05F06F
:10144000F4CF06F0E9CF07F0080EE12604500101C1
:10145000146F0550156F0650166F0750176F015027
:10146000E56E0050E56E97EC41F0006EF3CF01F0B1
:10147000F4CF04F0E9CF05F0E652E6520350E56EF2
:101480000250E56E97EC41F0026EF3CF03F0F4CF1B
:1014900006F0E9CF07F0E652E6520750E56E065037
:1014A000E56E0350E56E0250E56E0550E56E0450A2
:1014B000E56E0150E56E0050E56EF3EC19F0006E3C
:1014C000F3CF01F0F4CF02F0E9CF03F0080EE126EC
:1014D00000500101206F0150216F0250226F035014
:1014E000236F0751E56E0651E56E0551E56E045117
:1014F000E56E0351E56E0251E56E0151E56E005156
:10150000E56EF3EC19F0006EF3CF01F0F4CF02F0CA
:10151000E9CF03F0080EE126037E00500101306F91
:101520000150316F0250326F0350336F010113517C
:10153000E56E1251E56E1151E56E1051E56E0F51D9
:10154000E56E0E51E56E0D51E56E0C51E56EF3EC56
:1015500019F0006EF3CF01F0F4CF02F0E9CF03F001
:10156000080EE126037E00500101346F0150356FF3
:101570000250366F0350376F01011F51E56E1E5147
:10158000E56E1D51E56E1C51E56E1B51E56E1A515D
:10159000E56E1951E56E1851E56EF3EC19F0006E29
:1015A000F3CF01F0F4CF02F0E9CF03F0080EE1260B
:1015B000037E00500101386F0150396F02503A6FBD
:1015C00003503B6F006A016A026A600E0124036ED9
:1015D000000E0220046E000E0124056E050E02208E
:1015E000066E05C0E9FF06C0EAFFEECF05F0EECFBC
:1015F00006F0EECF07F0EFCF08F00850E56E075089
:10160000E56E0650E56E0550E56E01010751E56E89
:101610000651E56E0551E56E0451E56E27EC18F0B4
:10162000056EF3CF06F0F4CF07F0E9CF08F0080E0F
:10163000E126000E0124096E050E02200A6E0950F3
:10164000040F0B6E000E0A200C6E0BC0E9FF0CC0DD
:10165000EAFFEECF0DF0EECF0EF0EECF0FF0EFCFB2
:1016600010F01050E56E0F50E56E0E50E56E0D5007
:10167000E56E01010351E56E0251E56E0151E56E23
:101680000051E56E27EC18F00D6EF3CF0EF0F4CF9D
:101690000FF0E9CF10F0080EE1261050E56E0F5064
:1016A000E56E0E50E56E0D50E56E0850E56E075084
:1016B000E56E0650E56E0550E56EF3EC19F0056E2B
:1016C000F3CF06F0F4CF07F0E9CF08F0080EE126DB
:1016D00001013351E56E3251E56E3151E56E305105
:1016E000E56E0850E56E0750E56E0650E56E055054
:1016F000E56E27EC18F0056EF3CF06F0F4CF07F097
:10170000E9CF08F0080EE12609500C0F0D6E000E0F
:101710000A200E6E0DC0E9FF0EC0EAFFEECF0FF0FB
:10172000EECF10F0EECF11F0EFCF12F01250E56EC9
:101730001150E56E1050E56E0F50E56E0850E56EE5
:101740000750E56E0650E56E0550E56E27EC18F083
:10175000056EF3CF06F0F4CF07F0E9CF08F0080EDE
:10176000E1260950080F0F6E000E0A20106E0FC000
:10177000E9FF10C0EAFFEECF11F0EECF12F0EECF8E
:1017800013F0EFCF14F01450E56E1350E56E1250C5
:10179000E56E1150E56E01010B51E56E0A51E56EE3
:1017A0000951E56E0851E56EF3EC19F0116EF3CFB7
:1017B00012F0F4CF13F0E9CF14F0080EE126145024
:1017C000E56E1350E56E1250E56E1150E56E08504F
:1017D000E56E0750E56E0650E56E0550E56E27ECA8
:1017E00018F0056EF3CF06F0F4CF07F0E9CF08F05C
:1017F000080EE12603C0E9FF04C0EAFF05C0EEFFC2
:1018000006C0EEFF07C0EEFF08C0EFFF600E012428
:10181000036E000E0220046E0350040F056E000ECE
:101820000420066E09C0E9FF0AC0EAFFEECF07F008
:10183000EECF08F0EECF11F0EFCF12F01250E56EC0
:101840001150E56E0850E56E0750E56E0101135129
:10185000E56E1251E56E1151E56E1051E56E27EC03
:1018600018F0076EF3CF08F0F4CF11F0E9CF12F0C3
:10187000080EE1260BC0E9FF0CC0EAFFEECF13F023
:10188000EECF14F0EECF15F0EFCF16F01650E56E58
:101890001550E56E1450E56E1350E56E01010F51C1
:1018A000E56E0E51E56E0D51E56E0C51E56E27ECBF
:1018B00018F0136EF3CF14F0F4CF15F0E9CF16F053
:1018C000080EE1261650E56E1550E56E1450E56ED3
:1018D0001350E56E1250E56E1150E56E0850E56E3E
:1018E0000750E56EF3EC19F0076EF3CF08F0F4CF74
:1018F00011F0E9CF12F0080EE12601013751E56E33
:101900003651E56E3551E56E3451E56E1250E56E97
:101910001150E56E0850E56E0750E56E27EC18F0A3
:10192000076EF3CF08F0F4CF11F0E9CF12F0080EF4
:10193000E1260DC0E9FF0EC0EAFFEECF13F0EECFB7
:1019400014F0EECF15F0EFCF16F01650E56E1550EF
:10195000E56E1450E56E1350E56E1250E56E1150B1
:10196000E56E0850E56E0750E56E27EC18F0076E3F
:10197000F3CF08F0F4CF11F0E9CF12F0080EE12612
:101980000FC0E9FF10C0EAFFEECF13F0EECF14F066
:10199000EECF15F0EFCF16F01650E56E1550E56E50
:1019A0001450E56E1350E56E01011751E56E1651A6
:1019B000E56E1551E56E1451E56EF3EC19F0136EFA
:1019C000F3CF14F0F4CF15F0E9CF16F0080EE126AE
:1019D0001650E56E1550E56E1450E56E1350E56E29
:1019E0001250E56E1150E56E0850E56E0750E56E39
:1019F00027EC18F0076EF3CF08F0F4CF11F0E9CF21
:101A000012F0080EE12605C0E9FF06C0EAFF07C094
:101A1000EEFF08C0EEFF11C0EEFF12C0EFFF03267D
:101A2000D8B0042A09C0E9FF0AC0EAFFEECF09F0E6
:101A3000EECF0AF0EECF05F0EFCF06F00650E56EE0
:101A40000550E56E0A50E56E0950E56E01011F5123
:101A5000E56E1E51E56E1D51E56E1C51E56E27ECDD
:101A600018F0056EF3CF06F0F4CF07F0E9CF08F0D9
:101A7000080EE1260BC0E9FF0CC0EAFFEECF0BF029
:101A8000EECF0CF0EECF09F0EFCF0AF00A50E56E82
:101A90000950E56E0C50E56E0B50E56E01011B51CF
:101AA000E56E1A51E56E1951E56E1851E56E27EC99
:101AB00018F0096EF3CF0AF0F4CF0BF0E9CF0CF079
:101AC000080EE1260C50E56E0B50E56E0A50E56EEF
:101AD0000950E56E0850E56E0750E56E0650E56E5C
:101AE0000550E56EF3EC19F0056EF3CF06F0F4CF78
:101AF00007F0E9CF08F0080EE12601013B51E56E41
:101B00003A51E56E3951E56E3851E56E0850E56E93
:101B10000750E56E0650E56E0550E56E27EC18F0AF
:101B2000056EF3CF06F0F4CF07F0E9CF08F0080E0A
:101B3000E1260DC0E9FF0EC0EAFFEECF0DF0EECFBB
:101B40000EF0EECF09F0EFCF0AF00A50E56E095023
:101B5000E56E0E50E56E0D50E56E0850E56E0750CF
:101B6000E56E0650E56E0550E56E27EC18F0056E43
:101B7000F3CF06F0F4CF07F0E9CF08F0080EE12626
:101B80000FC0E9FF10C0EAFFEECF0FF0EECF10F06C
:101B9000EECF09F0EFCF0AF00A50E56E0950E56E7E
:101BA0001050E56E0F50E56E01012351E56E225194
:101BB000E56E2151E56E2051E56EF3EC19F0096EEA
:101BC000F3CF0AF0F4CF0BF0E9CF0CF0080EE126CA
:101BD0000C50E56E0B50E56E0A50E56E0950E56E4F
:101BE0000850E56E0750E56E0650E56E0550E56E4F
:101BF00027EC18F0056EF3CF06F0F4CF07F0E9CF2D
:101C000008F0080EE12603C0E9FF04C0EAFF05C0A2
:101C1000EEFF06C0EEFF07C0EEFF08C0EFFF100E9C
:101C20000126D8B0022A002A080E005CD8A0E5EFF1
:101C30000AF0E4CF16F0E4CF15F0E4CF14F0E4CFCF
:101C400013F0E4CF12F0E4CF11F0E4CF10F0E4CFC2
:101C50000FF0E4CF0EF0E4CF0DF0E4CF0CF0E4CFC2
:101C60000BF0E4CF0AF0E4CF09F0E4CF08F0E4CFC2
:101C700007F0E4CF06F0E4CF05F0E4CF04F0E4CFC2
:101C800003F0E4CF02F0E4CF01F0E4CF00F0E4CFC2
:101C9000D9FF1200D9CFE5FFE1CFD9FF00C0E5FFA2
:101CA00001C0E5FF02C0E5FF03C0E5FF04C0E5FF9A
:101CB00005C0E5FF06C0E5FF07C0E5FF08C0E5FF7A
:101CC00009C0E5FF0AC0E5FF0BC0E5FF0CC0E5FF5A
:101CD0000DC0E5FF0EC0E5FF0FC0E5FF10C0E5FF3A
:101CE00011C0E5FF12C0E5FF13C0E5FF14C0E5FF1A
:101CF00015C0E5FF16C0E5FF17C0E5FF18C0E5FFFA
:101D000019C0E5FF020EDBCF00F0030EDBCF01F0C0
:101D1000040EDBCF02F0050EDBCF03F0060EDBCFA7
:101D200004F0070EDBCF05F0080EDBCF06F0090E3E
:101D3000DBCF07F00A0EDBCF08F0096A020E0A6E4D
:101D400003C0E9FF04C0F3FF055007EC46F00B6E3B
:101D50000B5002E110EF13F00C6A0B50250A02E061
:101D6000F7EF12F00B6A0D6A032A02E3044A052A10
:101D700003C0E9FF04C0F3FF055007EC46F00E6E08
:101D80000E50D8B410EF13F00E50250A02E1F7EF11
:101D900012F00E502D0A06E1032A02E3044A052A36
:101DA000010E0B6E03C00EF004C00FF005C010F062
:101DB0000EC0E9FF0FC0F3FF105007EC46F0300AE9
:101DC00006E10E2A02E30F4A102A0B82F1D70EC059
:101DD000E9FF0FC0F3FF105007EC46F0116E300E14
:101DE000115C13E33A0E115C10E20D500A0DF3CFB3
:101DF0000DF0D00E11260D50126E115012240D6EE2
:101E00000E2A02E30F4A102AE2D70EC003F00FC0D9
:101E100004F010C005F00EC0E9FF0FC0F3FF105032
:101E200007EC46F02E0A34E10E50010F036E000E4F
:101E30000F20046E000E1020056E0A6A03C00EF01B
:101E400004C00FF005C010F00EC0E9FF0FC0F3FF93
:101E5000105007EC46F0116E300E115C13E33A0E91
:101E6000115C10E20A500A0DF3CF0AF0D00E1126D1
:101E70000A50126E115012240A6E0E2A02E30F4A03
:101E8000102AE2D70EC003F00FC004F010C005F016
:101E900003C0E9FF04C0F3FF055007EC46F00E6EE7
:101EA000660A01E040D00650040F0F6E000E0720B6
:101EB000106E000E0820116E0FC006F010C007F063
:101EC00011C008F0FC0E0F26FF0E102211220FC0C9
:101ED000E9FF10C0F3FF11504AEC44F00F6EF3CF4E
:101EE00010F0F4CF11F0E9CF12F00A50E56EE56A78
:101EF0000B50E56E0D50E56E1250E56E1150E56E1B
:101F00001050E56E0F50E56E0250E56E0150E56E23
:101F10000050E56E60EC13F00F6E0B0EE1260F50D3
:101F200009260AEF13F00E50730A01E045D006505F
:101F3000030F0F6E000E0720106E000E0820116EAA
:101F40000FC006F010C007F011C008F0FD0E0F26FC
:101F5000FF0E102211220FC0E9FF10C0F3FF115035
:101F600000EC45F00F6EF3CF10F0F4CF11F010102D
:101F7000111006E1000E116E440E106EF40E0F6E7D
:101F80000B50E56E0D50E56E1150E56E1050E56E8C
:101F90000F50E56E0250E56E0150E56E0050E56EA3
:101FA0006CEC2EF00F6E080EE1260950106E0F50EB
:101FB0001024096E0AEF13F00E506C0A06E1032A92
:101FC00002E3044A052A010E0C6E03C0E9FF04C0B7
:101FD000F3FF055007EC46F00E6E750A01E06CD079
:101FE0000C5023E00650040F0F6E000E0720106EF9
:101FF000000E0820116E0FC006F010C007F011C0CF
:1020000008F0FC0E0F26FF0E102211220FC0E9FF70
:1020100010C0F3FF11504AEC44F00F6EF3CF10F0F4
:10202000F4CF11F0E9CF12F024D00650020F136E56
:10203000000E0720146E000E0820156E13C006F067
:1020400014C007F015C008F0FE0E1326FF0E142270
:10205000152213C0E9FF14C0F3FF15507EEC45F0C4
:10206000136EF3CF14F013C00FF014C010F0116A08
:10207000126A610EE56EE56A0B50E56E0D50E56E75
:10208000E56A0A0EE56E0C50E56E1250E56E1150D1
:10209000E56E1050E56E0F50E56E0250E56E015092
:1020A000E56E0050E56E7AEC1DF0136E0E0EE12623
:1020B000135009260AEF13F00E50640A04E00E5084
:1020C000690A01E075D00C5023E00650040F136E2E
:1020D000000E0720146E000E0820156E13C006F0C7
:1020E00014C007F015C008F0FC0E1326FF0E1422D2
:1020F000152213C0E9FF14C0F3FF15504AEC44F059
:10210000136EF3CF14F0F4CF15F0E9CF16F024D00E
:102110000650020F176E000E0720186E000E0820E2
:10212000196E17C006F018C007F019C008F0FE0EAF
:102130001726FF0E1822192217C0E9FF18C0F3FF57
:1021400019507EEC45F0176EF3CF18F017C013F05E
:1021500018C014F0156A166A13C00FF014C010F0FE
:1021600015C011F016C012F0610EE56EE56A0B5055
:10217000E56E0D50E56E010EE56E0A0EE56E0C5033
:10218000E56E1250E56E1150E56E1050E56E0F5081
:10219000E56E0250E56E0150E56E0050E56E7AEC9A
:1021A0001DF0136E0E0EE126135009260AEF13F0F0
:1021B0000E50780A04E00E50700A01E073D00C5003
:1021C00023E00650040F136E000E0720146E000E5D
:1021D0000820156E13C006F014C007F015C008F0F3
:1021E000FC0E1326FF0E1422152213C0E9FF14C0A3
:1021F000F3FF15504AEC44F0136EF3CF14F0F4CF14
:1022000015F0E9CF16F024D00650020F176E000E1D
:102210000720186E000E0820196E17C006F018C0AF
:1022200007F019C008F0FE0E1726FF0E182219221B
:1022300017C0E9FF18C0F3FF19507EEC45F0176E88
:10224000F3CF18F017C013F018C014F0156A166A0F
:1022500013C00FF014C010F015C011F016C012F02A
:10226000610EE56EE56A0B50E56E0D50E56EE56AB0
:10227000100EE56E0C50E56E1250E56E1150E56ED5
:102280001050E56E0F50E56E0250E56E0150E56EA0
:102290000050E56E7AEC1DF0136E0E0EE126135021
:1022A0000926B8D10E50580A04E00E50500A01E039
:1022B00073D00C5023E00650040F136E000E07205D
:1022C000146E000E0820156E13C006F014C007F03F
:1022D00015C008F0FC0E1326FF0E1422152213C0A1
:1022E000E9FF14C0F3FF15504AEC44F0136EF3CF2E
:1022F00014F0F4CF15F0E9CF16F024D00650020FF9
:10230000176E000E0720186E000E0820196E17C0F9
:1023100006F018C007F019C008F0FE0E1726FF0ED1
:102320001822192217C0E9FF18C0F3FF19507EECDC
:1023300045F0176EF3CF18F017C013F018C014F063
:10234000156A166A13C00FF014C010F015C011F012
:1023500016C012F0410EE56EE56A0B50E56E0D50A9
:10236000E56EE56A100EE56E0C50E56E1250E56EF6
:102370001150E56E1050E56E0F50E56E0250E56E9F
:102380000150E56E0050E56E7AEC1DF0136E0E0EF6
:10239000E126135009263ED10E50620A01E073D0A7
:1023A0000C5023E00650040F136E000E0720146E2D
:1023B000000E0820156E13C006F014C007F015C0FB
:1023C00008F0FC0E1326FF0E1422152213C0E9FF9D
:1023D00014C0F3FF15504AEC44F0136EF3CF14F021
:1023E000F4CF15F0E9CF16F024D00650020F176E87
:1023F000000E0720186E000E0820196E17C006F098
:1024000018C007F019C008F0FE0E1726FF0E18229C
:10241000192217C0E9FF18C0F3FF19507EEC45F0F0
:10242000176EF3CF18F017C013F018C014F0156A28
:10243000166A13C00FF014C010F015C011F016C0CA
:1024400012F0610EE56EE56A0B50E56E0D50E56E1B
:10245000E56A020EE56E0C50E56E1250E56E115005
:10246000E56E1050E56E0F50E56E0250E56E0150BE
:10247000E56E0050E56E7AEC1DF0136E0E0EE1264F
:1024800013500926C7D00E506F0A01E073D00C50CC
:1024900023E00650040F136E000E0720146E000E8A
:1024A0000820156E13C006F014C007F015C008F020
:1024B000FC0E1326FF0E1422152213C0E9FF14C0D0
:1024C000F3FF15504AEC44F0136EF3CF14F0F4CF41
:1024D00015F0E9CF16F024D00650020F176E000E4B
:1024E0000720186E000E0820196E17C006F018C0DD
:1024F00007F019C008F0FE0E1726FF0E1822192249
:1025000017C0E9FF18C0F3FF19507EEC45F0176EB5
:10251000F3CF18F017C013F018C014F0156A166A3C
:1025200013C00FF014C010F015C011F016C012F057
:10253000610EE56EE56A0B50E56E0D50E56EE56ADD
:10254000080EE56E0C50E56E1250E56E1150E56E0A
:102550001050E56E0F50E56E0250E56E0150E56ECD
:102560000050E56E7AEC1DF00C6E0E0EE1260C505C
:10257000092650D00E50630A01E04CD00650020FDD
:102580000C6E000E07200E6E000E08200F6E0CC0A1
:1025900006F00EC007F00FC008F0FE0E0C26FF0E6E
:1025A0000E220F220CC0E9FF0EC0F3FF0F507EEC8D
:1025B00045F001018E6F8F6B0B50E56E0D50E56E8F
:1025C000800EE56E010EE56E8E0EE56E0250E56E34
:1025D0000150E56E0050E56E6CEC2EF00B6E080EAF
:1025E000E12609500C6E0B500C24096E13D003C069
:1025F000E9FF04C0F3FF055007EC46F0E56E02501A
:10260000E56E0150E56E0050E56E16EC37F0040EF5
:10261000E126092A032A02E3044A052AA0EF0EF064
:1026200000500110021014E000C0E9FF01C0F3FFE8
:10263000025000EC45F0006EF3CF01F0F4CF02F051
:10264000E56A00C0E9FF01C0F3FF025056EC46F016
:102650000950E4CF19F0E4CF18F0E4CF17F0E4CF3D
:1026600016F0E4CF15F0E4CF14F0E4CF13F0E4CF8C
:1026700012F0E4CF11F0E4CF10F0E4CF0FF0E4CF8C
:102680000EF0E4CF0DF0E4CF0CF0E4CF0BF0E4CF8C
:102690000AF0E4CF09F0E4CF08F0E4CF07F0E4CF8C
:1026A00006F0E4CF05F0E4CF04F0E4CF03F0E4CF8C
:1026B00002F0E4CF01F0E4CF00F0E4CFD9FF120044
:1026C000D9CFE5FFE1CFD9FF00C0E5FF01C0E5FFAD
:1026D00002C0E5FF03C0E5FF04C0E5FF05C0E5FF5C
:1026E00006C0E5FF07C0E5FF08C0E5FF09C0E5FF3C
:1026F0000AC0E5FF0BC0E5FF0CC0E5FF0DC0E5FF1C
:102700000EC0E5FF0FC0E5FF10C0E5FF11C0E5FFFB
:1027100012C0E5FF13C0E5FF14C0E5FF15C0E5FFDB
:1027200016C0E5FF17C0E5FF18C0E5FF19C0E5FFBB
:102730001AC0E5FF1BC0E5FF1CC0E5FF1DC0E5FF9B
:102740001EC0E5FF1FC0E5FF20C0E5FF020EDBCF86
:1027500000F0030EDBCF01F0040EDBCF02F0050E1C
:10276000DBCF03F0060EDBCF04F0070EDBCF05F066
:10277000080EDBCF06F0090EDBCF07F00A0EDBCF29
:1027800008F00C0EDBCF09F00A6A0B6A0C6A0D6ABE
:102790000E6A0F6A106A116A050E136EF40E126E3D
:1027A000800E146E010E166E240E156E800E176EBE
:1027B000186A0B0E196E035001013C6F04503D6FF7
:1027C00005503E6F06503F6FD8803FAFD89023E34F
:1027D000075012E008A210D02D0EE56E0250E56EF3
:1027E0000150E56E0050E56E16EC37F0040EE12660
:1027F000010E186E07060FD02D0EE56E12C0E9FF10
:1028000013C0F3FF145056EC46F0122A02E3134AA9
:10281000142A0A0E196E01013E353F35036E046A13
:10282000810E03263C51046E3D51056E7F0E3E1510
:10283000066E1A6A068E0350800F610F04E2035081
:10284000800F970F1FE2690E0501F46F6E0EF56F92
:10285000660EF66FF76B0850E56E0750E56E800E5A
:10286000E56E050EE56EF40EE56E0250E56E015064
:10287000E56E0050E56E6CEC2EF01B6E080EE12646
:102880001B50AED10350800F690F25E303C01BF02E
:102890001C6A03BE1C68E90E1B26D8A01C0604C0D7
:1028A0000AF005C00BF006C00CF01AC00DF01B506A
:1028B00011E009E6E86CD8900A360B360C360D3676
:1028C000010FFAE37CD0D8900D320C320B320A3271
:1028D000010FFAE374D0D88003AED890D8B04AD0B4
:1028E00003C01BF01C6A03BE1C681B5017081D6E3A
:1028F000000E1C5404C00AF005C00BF006C00CF01A
:102900001AC00DF01D5011E009E6E86CD8900D32A8
:102910000C320B320A32010FFAE307D0D8900A3694
:102920000B360C360D36010FFAE31B4A1C2A04C085
:102930001DF005C01EF006C01FF01AC020F01B508D
:1029400011E009E6E86CD8901D361E361F36203699
:10295000010FFAE307D0D89020321F321E321D3209
:10296000010FFAE31D500E6E1E500F6E1F50106EB9
:10297000116A25D01A6A1B6A03BE1B68034A1B2A08
:102980001B1E036CD8B41B2A04C00EF005C00FF048
:1029900006C010F01AC011F0035011E009E6E86C0F
:1029A000D890113210320F320E32010FFAE307D0F5
:1029B000D8900E360F3610361136010FFAE30A5052
:1029C0000B100C100D100FE1300EE56E12C0E9FF78
:1029D00013C0F3FF145056EC46F0122A02E3134AD8
:1029E000142A190678D015C003F016C004F017C0D9
:1029F00005F0066A19C015F00A500B100C100D10E6
:102A0000D8B43CD0E56AE56AE56A0A0EE56E0D5079
:102A1000E56E0C50E56E0B50E56E0A50E56EB3ECBA
:102A200033F0166E080EE126300E162616C0E5FFAE
:102A300003C0E9FF04C0F3FF055056EC46F0032A3B
:102A400002E3044A052AE56AE56AE56A0A0EE56ECC
:102A50000D50E56E0C50E56E0B50E56E0A50E56EBC
:102A600077EC35F00A6EF3CF0BF0F4CF0CF0E9CF32
:102A70000DF0080EE126062A1506BED715C019F07E
:102A800012C00AF013C00BF014C00CF006C00DF019
:102A900006060D501AE0FF0E03260422052203C08D
:102AA000E9FF04C0F3FF055007EC46F00D6E0DC0C2
:102AB000E5FF0AC0E9FF0BC0F3FF0C5056EC46F0EF
:102AC0000A2AE4E30B4A0C2AE1D70AC012F00BC031
:102AD00013F00CC014F0070E095C02E3060E096E39
:102AE0000950195CD8A019C009F0010E095CD8A0E2
:102AF00057D02E0EE56E12C0E9FF13C0F3FF14503D
:102B000056EC46F0122A02E3134A142A12C003F0CC
:102B100013C004F014C005F0066A0950065C3AE2DE
:102B20000E500E240A6E0F340B6E10340C6E1134DE
:102B30000D6E0A500A260B360C360D360A500A2640
:102B40000B360C360D360E500E24156E0F34166EE5
:102B50001034176E1134196E15500A240E6E16506B
:102B60000B200F6E17500C20106E19500D200A6E9E
:102B7000300E0A260AC0E5FF03C0E9FF04C0F3FFD8
:102B8000055056EC46F0032A02E3044A052A116A6E
:102B9000062AC3D703C012F004C013F005C014F016
:102BA000E56A12C0E9FF13C0F3FF145056EC46F07B
:102BB0000850E56E0750E56E800EE56E050EE56E79
:102BC000F40EE56E0250E56E0150E56E0050E56EC4
:102BD0006CEC2EF0006E080EE12618500026005016
:102BE000E4CF20F0E4CF1FF0E4CF1EF0E4CF1DF0DF
:102BF000E4CF1CF0E4CF1BF0E4CF1AF0E4CF19F0DF
:102C0000E4CF18F0E4CF17F0E4CF16F0E4CF15F0DE
:102C1000E4CF14F0E4CF13F0E4CF12F0E4CF11F0DE
:102C2000E4CF10F0E4CF0FF0E4CF0EF0E4CF0DF0DE
:102C3000E4CF0CF0E4CF0BF0E4CF0AF0E4CF09F0DE
:102C4000E4CF08F0E4CF07F0E4CF06F0E4CF05F0DE
:102C5000E4CF04F0E4CF03F0E4CF02F0E4CF01F0DE
:102C6000E4CF00F0E4CFD9FF120000C0E5FF01C0BF
:102C7000E5FF02C0E5FF03C0E5FF04C0E5FF05C0B6
:102C8000E5FF06C0E5FF07C0E5FF08C0E5FF09C096
:102C9000E5FF0AC0E5FF0BC0E5FF0CC0E5FF0DC076
:102CA000E5FF0EC0E5FF0FC0E5FF10C0E5FF11C056
:102CB000E5FF12C0E5FF13C0E5FF14C0E5FF15C036
:102CC000E5FF16C0E5FF006A016A026A036A046A4A
:102CD000800E0124056E050E0220066E600E032490
:102CE000076E000E0420086E07C0E9FF08C0EAFF67
:102CF000EECF07F0EECF08F0EECF09F0EFCF0AF0FD
:102D00000A50E56E0950E56E0850E56E0750E56E15
:102D1000430EE56E800EE56E000EE56AE56AF3ECA3
:102D200019F0076EF3CF08F0F4CF09F0E9CF0AF0FD
:102D3000080EE126600E03240B6E000E04200C6EBC
:102D40000B50080F0D6E000E0C200E6E0DC0E9FF2B
:102D50000EC0EAFFEECF0FF0EECF10F0EECF11F085
:102D6000EFCF12F001019951E56E9851E56ECCEC70
:102D700041F0136EF3CF14F0F4CF15F0E9CF16F055
:102D8000E652E6521650E56E1550E56E1450E56EAB
:102D90001350E56E1250E56E1150E56E1050E56E61
:102DA0000F50E56E27EC18F00F6EF3CF10F0F4CF54
:102DB00011F0E9CF12F0080EE1261250E56E115025
:102DC000E56E1050E56E0F50E56E0A50E56E095045
:102DD000E56E0850E56E0750E56EBDEC1BF0076E22
:102DE000F3CF08F0F4CF09F0E9CF0AF0080EE1269E
:102DF00001019B51E56E9A51E56ECCEC41F00F6EEE
:102E0000F3CF10F0F4CF11F0E9CF12F0E652E65212
:102E10001250E56E1150E56E1050E56E0F50E56EE4
:102E20000A50E56E0950E56E0850E56E0750E56EF4
:102E300027EC18F0076EF3CF08F0F4CF09F0E9CFD4
:102E40000AF0080EE12605C0E9FF06C0EAFF07C048
:102E5000EEFF08C0EEFF09C0EEFF0AC0EFFF800ED4
:102E60000124056E050E0220066E040E0526D8B05C
:102E7000062A040E0B26D8B00C2A0BC0E9FF0CC0A2
:102E8000EAFFEECF0BF0EECF0CF0EECF07F0EFCF76
:102E900008F00850E56E0750E56E0C50E56E0B50DB
:102EA000E56E430EE56E800EE56E000EE56AE56A9E
:102EB000F3EC19F0076EF3CF08F0F4CF09F0E9CF87
:102EC0000AF0080EE1260DC0E9FF0EC0EAFFEECFC2
:102ED0000DF0EECF0EF0EECF0BF0EFCF0CF00101C6
:102EE0009951E56E9851E56ECCEC41F00F6EF3CF41
:102EF00010F0F4CF11F0E9CF12F0E652E652125082
:102F0000E56E1150E56E1050E56E0F50E56E0C50F9
:102F1000E56E0B50E56E0E50E56E0D50E56E27EC3C
:102F200018F00B6EF3CF0CF0F4CF0DF0E9CF0EF0EC
:102F3000080EE1260E50E56E0D50E56E0C50E56E64
:102F40000B50E56E0A50E56E0950E56E0850E56ECF
:102F50000750E56EBDEC1BF0076EF3CF08F0F4CF21
:102F600009F0E9CF0AF0080EE12601019D51E56E56
:102F70009C51E56ECCEC41F00B6EF3CF0CF0F4CF2E
:102F80000DF0E9CF0EF0E652E6520E50E56E0D5010
:102F9000E56E0C50E56E0B50E56E0A50E56E09507B
:102FA000E56E0850E56E0750E56E27EC18F0076EE9
:102FB000F3CF08F0F4CF09F0E9CF0AF0080EE126CC
:102FC00005C0E9FF06C0EAFF07C0EEFF08C0EEFF3C
:102FD00009C0EEFF0AC0EFFF0126D8B0022A100E8A
:102FE0000326D8B0042A002A080E005CD8A070D6A8
:102FF000E4CF16F0E4CF15F0E4CF14F0E4CF13F0F3
:10300000E4CF12F0E4CF11F0E4CF10F0E4CF0FF0F2
:10301000E4CF0EF0E4CF0DF0E4CF0CF0E4CF0BF0F2
:10302000E4CF0AF0E4CF09F0E4CF08F0E4CF07F0F2
:10303000E4CF06F0E4CF05F0E4CF04F0E4CF03F0F2
:10304000E4CF02F0E4CF01F0E4CF00F01200D9CFDA
:10305000E5FFE1CFD9FF00C0E5FF01C0E5FF02C0F9
:10306000E5FF03C0E5FF04C0E5FF05C0E5FF06C0BE
:10307000E5FF07C0E5FF08C0E5FF09C0E5FF0AC09E
:10308000E5FF0BC0E5FF0CC0E5FF0DC0E5FF0EC07E
:10309000E5FF0FC0E5FF10C0E5FF020EDBCF00F03B
:1030A000030EDBCF01F0040EDBCF02F0050EDBCF09
:1030B00003F0060EDBCF04F0070EDBCF05F0080EA1
:1030C000DBCF06F0090EDBCF07F0086A096A0A6A4F
:1030D0000B6A00500101806F0150816F0250826FB6
:1030E0000350836F04500101846F0550856F0650B3
:1030F000866F0750876F0101805181118211831102
:1031000009E187C1E9FF86C1F4FF85C1F3FF010131
:10311000845144D10101845185118611871109E13F
:1031200083C1E9FF82C1F4FF81C1F3FF0101805136
:1031300035D1010182358335006E016A0136026A9C
:10314000036A016A026A036A010186358735026EE5
:10315000190F046E000E0320800FF36E0150800FD4
:10316000F35C02E10050045C09E283C1E9FF82C123
:10317000F4FF81C1F3FF0101805110D10050190FFC
:10318000046E000E0120800FF36E0350800FF35C7D
:1031900002E10250045C09E287C1E9FF86C1F4FF45
:1031A00085C1F3FF01018451F9D001018051046E02
:1031B0008151056E7F0E8215066E076A068E01012B
:1031C00084510C6E85510D6E7F0E86150E6E0F6A42
:1031D0000E8E01018351800BE844106E10500AE0FE
:1031E000071E061E051E046C05E1052A03E1062ADA
:1031F000D8B4072A01018751800BE844106E1050A3
:103200000AE00F1E0E1E0D1E0C6C05E10D2A03E1D7
:103210000E2AD8B40F2A0350800FF36E0150800F8E
:10322000F35C02E10050025C1BE20250005C106E95
:1032300003500158105032E00BE6E86CD8900FBEF6
:10324000D8800F320E320D320C32010FF8E326D047
:10325000D8900C360D360E360F36010FFAE31ED01D
:103260000050025C106E01500358105013E00BE642
:10327000E86CD89007BED880073206320532043297
:10328000010FF8E307D0D890043605360636073626
:10329000010FFAE302C000F003C001F00C50042655
:1032A0000D5005220E5006220F500722D88007AE7F
:1032B000D89010E3071E061E051E046C05E1052AC2
:1032C00003E1062AD8B4072A086A096A0A6A800E46
:1032D0000B6E0AD0045005100610071005E1E96ACC
:1032E000F46AF36AE86A5AD0045006500C6E07502C
:1032F0000D6E0CBE0BD00D5009E1045004260536AE
:1033000006360736FF0E00260122EED70450026E65
:103310000550036E06500C6E07500D6E10E004A0B1
:1033200006D0020E0426000E0522062207220734CC
:103330000732063205320432004A012AE7D702502A
:10334000046E0350056E7F0E0C14066E0D50076E52
:10335000E86A013000300F6E0E6A0E320C6A0C50B3
:10336000081209120E500A120F500B1204500812C4
:103370000550091206500A1207500B12085001019D
:10338000806F0950816F0A50826F0B50836F83C129
:10339000E9FF82C1F4FF81C1F3FF8051E4CF10F057
:1033A000E4CF0FF0E4CF0EF0E4CF0DF0E4CF0CF05B
:1033B000E4CF0BF0E4CF0AF0E4CF09F0E4CF08F05B
:1033C000E4CF07F0E4CF06F0E4CF05F0E4CF04F05B
:1033D000E4CF03F0E4CF02F0E4CF01F0E4CF00F05B
:1033E000E4CFD9FF1200D9CFE5FFE1CFD9FF00C06C
:1033F000E5FF01C0E5FF02C0E5FF03C0E5FF04C033
:10340000E5FF05C0E5FF06C0E5FF07C0E5FF08C012
:10341000E5FF09C0E5FF0AC0E5FF0BC0E5FF0CC0F2
:10342000E5FF0EC0E5FF0FC0E5FF020EDBCF00F0A9
:10343000030EDBCF01F0040EDBCF02F0050EDBCF75
:1034400003F0060EDBCF04F0070EDBCF05F0080E0D
:10345000DBCF06F0090EDBCF07F0005001014C6F07
:1034600001504D6F02504E6F03504F6F04500101D9
:10347000506F0550516F0650526F0750536F010146
:103480004C514D114E114F1106E001015051511197
:103490005211531105E1E96AF46AF36AE86A4CD102
:1034A00001014F51800BE844006E01015351800B24
:1034B000E844001A01014E354F35016E036A046A73
:1034C000026A820E0126FF0E02220322042201015B
:1034D00052355335036E046A01C007F002C008F08C
:1034E00007500326085004220350016E0450026E58
:1034F00001014C51036E4D51046E7F0E4E15056E49
:10350000058E03504C6F04504D6F05504E6F4F6B3E
:1035100001015051036E5151046E7F0E5215056E1C
:10352000058E0350506F0450516F0550526F536B0E
:1035300001014D51036E4E51046E4F51056E010154
:103540005151076E5251086E5351E56AE56E0850AD
:10355000E56E0750E56EE56A0550E56E0450E56ED0
:103560000350E56EB2EC29F0036EF3CF04F0F4CF14
:1035700005F0E9CF06F0080EE12601014C51076E77
:10358000010151510B6E52510C6E5351E56AE56EBB
:103590000C50E56E0B50E56EE56AE56AE56A07508A
:1035A000E56EB2EC29F0F3CF08F0F4CF09F0E9CFE3
:1035B0000AF0080EE1260850076E0950086E0A50FE
:1035C000096E0A6A07500326085004220950052292
:1035D0000A50062201015051076E01014D510B6E38
:1035E0004E510C6E4F51E56AE56E0C50E56E0B5076
:1035F000E56EE56AE56AE56A0750E56EB2EC29F02A
:10360000F3CF08F0F4CF09F0E9CF0AF0080EE12675
:103610000850076E0950086E0A50096E0A6A075072
:10362000032608500422095005220A500622400EA3
:103630000326000E04220522062206AE0ED0400EFE
:103640000326000E0422052206220450036E0550B4
:10365000046E0650056E066A11D003340434036EFE
:10366000046A04360550E844FE0B0412053406349F
:10367000056E066A0636FF0E01260222059E0250DE
:10368000800F7F0F02E1000E015C19E3005006E09D
:10369000076A086A096A800E0A6E04D0076A086A17
:1036A000096A0A6A098E7F0E0A12075001014C6FDF
:1036B00008504D6F09504E6F0A504F6F35D0D8806B
:1036C00002AED89006E301014C6B4D6B4E6B4F6B15
:1036D0002BD0005006E0006A076A086A800E096E67
:1036E00004D0006A076A086A096AE86A0230013091
:1036F0000F6E0E6A0E320C6A0C50001207120E503A
:1037000008120F50091200500312075004120850FB
:10371000051209500612035001014C6F04504D6F01
:1037200005504E6F06504F6F4FC1E9FF4EC1F4FF79
:103730004DC1F3FF01014C51E4CF0FF0E4CF0EF087
:10374000E4CF0CF0E4CF0BF0E4CF0AF0E4CF09F0C3
:10375000E4CF08F0E4CF07F0E4CF06F0E4CF05F0C3
:10376000E4CF04F0E4CF03F0E4CF02F0E4CF01F0C3
:10377000E4CF00F0E4CFD9FF1200D9CFE5FFE1CFCD
:10378000D9FF00C0E5FF01C0E5FF02C0E5FF03C0AF
:10379000E5FF04C0E5FF05C0E5FF06C0E5FF07C083
:1037A000E5FF08C0E5FF09C0E5FF0AC0E5FF0BC063
:1037B000E5FF0CC0E5FF0DC0E5FF0EC0E5FF0FC043
:1037C000E5FF10C0E5FF11C0E5FF12C0E5FF13C023
:1037D000E5FF14C0E5FF15C0E5FF16C0E5FF020ECA
:1037E000DBCF00F0030EDBCF01F0040EDBCF02F0E5
:1037F000050EDBCF03F0060EDBCF04F0070EDBCFA8
:1038000005F0080EDBCF06F0090EDBCF07F0005005
:103810000101586F0150596F02505A6F03505B6F8E
:10382000045001015C6F05505D6F06505E6F0750DC
:103830005F6F01015A51026E5B51036E0234033413
:10384000006E016A0136026A036A016A026A036A4B
:1038500001015E51046E5F51056E0434053400C0F1
:1038600006F0076A065C026E03500758036E0250AA
:10387000006E0350016E7E0E0026D8B0012A0101B1
:103880005B51800BE844026E01015F51800BE844FC
:10389000021A5C515D115E115F110EE15C6B5D6B94
:1038A000C00E5E6F7F0E5F6F5FC1E9FF5EC1F4FF08
:1038B0005DC1F3FF5C51EDD00101585159115A110E
:1038C0005B1105E1E96AF46AF36AE86AE2D0010192
:1038D0005851036E5951046E5A51056E5B51059E45
:1038E000066A058E01015C51076E5D51086E5E51DE
:1038F000096E5F51099E0A6A098E0650800FF36EA9
:103900000A50800FF35C08E10950055C05E108509E
:10391000045C02E10750035C08E20350032604360E
:1039200005360636FF0E002601220B6A0C6A0D6A68
:10393000010E0E6E0F6A106A116A126A0B500C109B
:103940000D100E1037E00650800FF36E0A50800FF6
:10395000F35C08E10950055C05E10850045C02E1F4
:103960000750035C1CE30F50136E1050146E11507F
:10397000156E1250166E0B5013100F6E0C50141063
:10398000106E0D501510116E0E501610126E07505D
:10399000035E0850045A0950055A0A50065A03504B
:1039A0000326043605360636D8900E320D320C3218
:1039B0000B32C4D70F2A04E3102A02E3114A122A59
:1039C000004A012A12341232113210320F321150D1
:1039D000056E7F0E0514116E0150800F7F0F02E1FE
:1039E000000E005C19E3025006E0036A046A056AEF
:1039F000800E066E04D0036A046A056A066A058EA4
:103A00007F0E061203500101586F0450596F055084
:103A10005A6F06505B6F35D0D88001AED89006E360
:103A20000101586B596B5A6B5B6B2BD0025006E04F
:103A3000026A036A046A800E056E04D0026A036A91
:103A4000046A056AE86A013000300B6E0A6A0A32BD
:103A5000086A0850021203120A5004120B50051291
:103A60000F5002121050031211500412125005127E
:103A700002500101586F0350596F04505A6F05509E
:103A80005B6F5BC1E9FF5AC1F4FF59C1F3FF01014C
:103A90005851E4CF16F0E4CF15F0E4CF14F0E4CFA2
:103AA00013F0E4CF12F0E4CF11F0E4CF10F0E4CF44
:103AB0000FF0E4CF0EF0E4CF0DF0E4CF0CF0E4CF44
:103AC0000BF0E4CF0AF0E4CF09F0E4CF08F0E4CF44
:103AD00007F0E4CF06F0E4CF05F0E4CF04F0E4CF44
:103AE00003F0E4CF02F0E4CF01F0E4CF00F0E4CF44
:103AF000D9FF1200D9CFE5FFE1CFD9FF00C0E5FF24
:103B000001C0E5FF02C0E5FF03C0E5FF04C0E5FF1B
:103B100005C0E5FF06C0E5FF07C0E5FF08C0E5FFFB
:103B200009C0E5FF0AC0E5FF0BC0E5FF0CC0E5FFDB
:103B30000DC0E5FF0EC0E5FF0FC0E5FF10C0E5FFBB
:103B400011C0E5FF12C0E5FF13C0E5FF14C0E5FF9B
:103B500015C0E5FF16C0E5FF17C0E5FF18C0E5FF7B
:103B600019C0E5FF1AC0E5FF1BC0E5FF020EDBCF61
:103B700000F0030EDBCF01F0040EDBCF02F0050EE8
:103B8000DBCF03F0060EDBCF04F0070EDBCF05F032
:103B9000080EDBCF06F0090EDBCF07F00A0EDBCFF5
:103BA00008F00B0EDBCF09F00C0EDBCF0AF00D0E88
:103BB000DBCF0BF00F0EDBCF0CF00D6A0E6A03C0EB
:103BC0000FF004C010F005C011F006C012F0035051
:103BD0000410051006101BE1300E0501E86FE96BBB
:103BE0000B50E56E0A50E56E800EE56E050EE56E33
:103BF000E80EE56E0250E56E0150E56E0050E56E90
:103C00006CEC2EF0136E080EE1261350ECD0095028
:103C100036E008500A0A33E107501CE00350096EF1
:103C20000450136E0550146E0650156ED88015AEF4
:103C3000D89010E3010E0D6E151C126E141C116E3F
:103C4000131C106E091C0F6E0F2A04E1102A02E1EA
:103C5000114A122A075013E1D88004AED8900FE31E
:103C6000010E0D6E041E036CD8B4042A03C00FF0BD
:103C700004C010F0E86A04BEFF0E116E126E050E4D
:103C8000046EF30E036E800E056EE56A03C0E9FF55
:103C900004C0F3FF56EC46F003C006F004C007F082
:103CA00005C009F00F50101011101210D8B45AD0DE
:103CB00008C013F0146A156A166AE56AE56AE56ACF
:103CC0001350E56E1250E56E1150E56E1050E56E22
:103CD0000F50E56EB3EC33F0176EF3CF18F0F4CF5E
:103CE00019F0E9CF1AF0080EE126000E1A5C08E17F
:103CF000000E195C05E1000E185C02E10A0E175C6B
:103D000006E30CC01BF0C60E1B261B501726FF0E29
:103D1000062607220922300E172617C0E5FF06C027
:103D2000E9FF07C0F3FF095056EC46F01650E56E68
:103D30001550E56E1450E56E1350E56E1250E56EA9
:103D40001150E56E1050E56E0F50E56E77EC35F0D2
:103D50000F6EF3CF10F0F4CF11F0E9CF12F0080E90
:103D6000E126A0D706C003F007C004F009C005F0A3
:103D70000D5021E00A5012E00BA210D02D0EE56E7E
:103D80000250E56E0150E56E0050E56E16EC37F01E
:103D9000040EE126010E0E6E0A060DD0FF0E03265C
:103DA000042205222D0EE56E03C0E9FF04C0F3FFD7
:103DB000055056EC46F00B50E56E0A50E56E055086
:103DC000E56E0450E56E0350E56E0250E56E01505D
:103DD000E56E0050E56E6CEC2EF0006E080EE126EC
:103DE0000E5000260050E4CF1BF0E4CF1AF0E4CFD1
:103DF00019F0E4CF18F0E4CF17F0E4CF16F0E4CFD9
:103E000015F0E4CF14F0E4CF13F0E4CF12F0E4CFD8
:103E100011F0E4CF10F0E4CF0FF0E4CF0EF0E4CFD8
:103E20000DF0E4CF0CF0E4CF0BF0E4CF0AF0E4CFD8
:103E300009F0E4CF08F0E4CF07F0E4CF06F0E4CFD8
:103E400005F0E4CF04F0E4CF03F0E4CF02F0E4CFD8
:103E500001F0E4CF00F0E4CFD9FF1200D9CFE5FFA5
:103E6000E1CFD9FF00C0E5FF01C0E5FF02C0E5FFDB
:103E700003C0E5FF04C0E5FF05C0E5FF06C0E5FFA0
:103E800007C0E5FF08C0E5FF09C0E5FF0AC0E5FF80
:103E90000BC0E5FF0CC0E5FF0DC0E5FF0EC0E5FF60
:103EA0000FC0E5FF020EDBCF90F1030EDBCF91F1E7
:103EB000040EDBCF92F1050EDBCF93F1060EDBCFC4
:103EC00094F1070EDBCF95F1080EDBCF96F1090ECA
:103ED000DBCF97F1010192510101965D006E010166
:103EE000935101019759E56E0050E56E34EC42F0B4
:103EF000006EF3CF01F0E652E6520101905101014C
:103F0000945D026E0101915101019559E56E0250D7
:103F1000E56E34EC42F0026EF3CF03F0E652E65267
:103F20000350800FF36E0150800FF35C02E10050EC
:103F3000025CD870006A0036016A00BE0168005059
:103F40000110D8B440D0920E900A03E1010E010A8C
:103F50001AE0010192510101905F010193510101A9
:103F6000915B90510101922701019151010193232D
:103F7000010190510101925D0101906F9151010188
:103F800093590101916F960E940A03E1010E010A03
:103F90001AE0010196510101945F0101975101015D
:103FA000955B9451010196270101955101019723D9
:103FB000010194510101965D0101946F9551010138
:103FC00097590101956F010191510101955D04E13E
:103FD000010190510101945DD8B040D0940E900A37
:103FE00003E1010E010A1AE0010194510101905F01
:103FF000010195510101915B90510101942701014B
:10400000915101019523010190510101945D01013C
:10401000906F9151010195590101916F960E920A8D
:1040200003E1010E010A1AE0010196510101925FBC
:10403000010197510101935B925101019627010102
:10404000935101019723010192510101965D0101F4
:10405000926F9351010197590101936F01019051A2
:104060000101945D026E0101915101019559036EA8
:10407000010192510101965D046E0101935101010C
:104080009759E56E0450E56E34EC42F0046EF3CFC0
:1040900005F0E652E652066A076A92C108F093C13B
:1040A00009F0010197510101935D04E1010196516D
:1040B0000101925D04E2010E0A6E0B6A02D00A68E9
:1040C0000B6890C10CF091C10DF00C500E6E0D50AC
:1040D0000F6E010195510F5C02E194510E5C38E2C4
:1040E000005001100DE00D50E56E0C50E56E0950CA
:1040F000E56E0850E56EE6EC42F0040EE1260CD0C9
:104100000950E56E0850E56E0D50E56E0C50E56EF9
:10411000E6EC42F0040EE126045006260550072284
:1041200006500E6E0E260734800FF36E0350800F7C
:10413000F35C02E102500E5C08E30A5008260B50C3
:1041400009220250065E0350075A0C4A0D2ABDD7B9
:10415000E4CF0FF0E4CF0EF0E4CF0DF0E4CF0CF09D
:10416000E4CF0BF0E4CF0AF0E4CF09F0E4CF08F09D
:10417000E4CF07F0E4CF06F0E4CF05F0E4CF04F09D
:10418000E4CF03F0E4CF02F0E4CF01F0E4CF00F09D
:10419000E4CFD9FF1200D9CFE5FFE1CFD9FF00C0AE
:1041A000E5FF01C0E5FF02C0E5FF03C0E5FF04C075
:1041B000E5FF05C0E5FF06C0E5FF07C0E5FF08C055
:1041C000E5FF09C0E5FF0AC0E5FF0BC0E5FF0CC035
:1041D000E5FF0DC0E5FF0EC0E5FF0FC0E5FF10C015
:1041E000E5FF11C0E5FF12C0E5FF13C0E5FF14C0F5
:1041F000E5FF15C0E5FF16C0E5FF17C0E5FF020E9D
:10420000DBCF00F0030EDBCF01F0040EDBCF02F0BA
:10421000050EDBCF03F0060EDBCF04F0070EDBCF7D
:1042200005F004500108066E000E0554076E055097
:10423000E56E0450E56EE568FE0EE56E0AEC3FF0B3
:10424000086EF3CF09F0040EE126045002240A6E32
:1042500005500320E56E0A50E56E0150E56E0050F2
:10426000E56EE6EC42F0040EE1260450025C0A6EB4
:1042700005500358E56E0A50E56E0150E56E00509A
:10428000E56EE6EC42F0040EE126045000240A6ECE
:10429000055001200B6E0350E56E0250E56E0B5089
:1042A000E56E0A50E56EE6EC42F0040EE12604509D
:1042B000005C0A6E055001580B6E0350E56E02500B
:1042C000E56E0B50E56E0A50E56EE6EC42F0040E2A
:1042D000E1260A6A0B6A010E0C6E0D6A0B50800F04
:1042E000F36E0550800FF35C02E104500A5CD8B015
:1042F000AED0D88007AED8900BE2FF0E0426052280
:10430000020E0826D8B0092A0850062609500722AE
:104310000A4A0B2A020E0C26D8B00D2A0C5006268B
:104320000D5007220A500E6E0B500F6E0E500024D7
:10433000106E0F500120116E0450126E0550136E56
:1043400012500224146E13500320156EE56E1450A3
:10435000E56E1150E56E1050E56EE6EC42F0040E8D
:10436000E1260E50005C166E0F500158176E155066
:10437000E56E1450E56E1750E56E1650E56EE6ECEE
:1043800042F0040EE1261250025C146E13500358E2
:10439000156EE56E1450E56E1150E56E1050E56E29
:1043A000E6EC42F0040EE1261550E56E1450E56E81
:1043B0001750E56E1650E56EE6EC42F0040EE1266D
:1043C00012500024106E13500120116E0E50022462
:1043D000146E0F500320156EE56E1450E56E1150EB
:1043E000E56E1050E56EE6EC42F0040EE126125048
:1043F000005C126E13500158136E1550E56E145088
:10440000E56E1350E56E1250E56EE6EC42F0040ED8
:10441000E1260E50025C0E6E0F5003580F6EE56ED3
:104420000E50E56E1150E56E1050E56EE6EC42F070
:10443000040EE1260F50E56E0E50E56E1350E56E4A
:104440001250E56EE6EC42F0040EE12647D7E4CFC9
:1044500017F0E4CF16F0E4CF15F0E4CF14F0E4CF7A
:1044600013F0E4CF12F0E4CF11F0E4CF10F0E4CF7A
:104470000FF0E4CF0EF0E4CF0DF0E4CF0CF0E4CF7A
:104480000BF0E4CF0AF0E4CF09F0E4CF08F0E4CF7A
:1044900007F0E4CF06F0E4CF05F0E4CF04F0E4CF7A
:1044A00003F0E4CF02F0E4CF01F0E4CF00F0E4CF7A
:1044B000D9FF120001020408102040800102040804
:1044C00010010204010204081020408001020408C7
:1044D00010204080010101010101010100000000E4
:1044E00000040404020202020202020203030303A4
:1044F00003030303286E756C6C2900000608000096
:104500000000000000002F00000000030003000076
:10451000143E143E1400242A7F2A1200221008049C
:1045200022001824241E0400000003000000001CC8
:10453000224100000041221C00002A1C3E1C2A00CF
:1045400008083E080800004020000000080808088D
:10455000080000002000000000C0300C03001E29ED
:104560002D251E0000223F20000032292929260087
:10457000122129291600070808083E0017252525BD
:1045800018001E2525251800010109093E001A25DD
:1045900025251A00060909093E0000002200000036
:1045A00000402200000000081422410014141414DA
:1045B00014000041221408000201290906001E21EE
:1045C0002D2D06003E1111113E003E2525251A0015
:1045D0001E21212112003E2121221C003F292921D8
:1045E00021003F09090101001E2129291A003F0865
:1045F00008083F0000213F210000102021211F005A
:104600003F080C1221001F20202020003E0106013F
:104610003E003E0101023C001E2121211E003E11F0
:1046200011110E001E2129715E003E090909360094
:1046300012252525180001013F0101001F2020201F
:104640001F000F1020100F001F2018201F00310A1C
:10465000040A3100072828281F00312925232100BA
:10466000007F4141000000030C30C0000041417F49
:1046700000000002010200004040404040000102F2
:10468000000000001C2222223C001F2222221C00CB
:104690001C22222220001C2222221F001C2A2A2A3D
:1046A0000400087E090101000C5252523C003F02F6
:1046B00002023C0000003D000000204040403D0060
:1046C0003F0808142200001F202000003C020402C2
:1046D0003C003C0202023C001C2222221C007C12F4
:1046E00012120C000C1212127E003C020202040094
:1046F000242A2A2A10001F22222010001E202020F7
:104700001E000E1020100E001E2010201E0022146D
:10471000081422000E5050503E0022322A26220059
:1047200000083641000000007F000000004136080C
:10473000000000020102010006030201127A0000DB
:1047400048E8010090D0030020A1070040420F007C
:1047500080841E0000093D0000127A0025756670F5
:104760007320286D61782E2575290000E806E56E16
:10477000630EC9EC23F0E4500BE000D0E56E630E4D
:10478000C9EC23F000D000D00000E450E82EF6D7AA
:104790001200E8060000E85007E000D000D000D08A
:1047A00000D00000E82EFAD71200D9CFE5FFE1CF04
:1047B000D9FF00C0E5FF01C0E5FF02C0E5FF03C06F
:1047C000E5FF04C0E5FF05C0E5FF06C0E5FF07C043
:1047D000E5FF08C0E5FF09C0E5FF0AC0E5FF0BC023
:1047E000E5FF020EDBCF00F0030EDBCF01F001503E
:1047F000E56E0050E56EECEC40F0006EF3CF01F09A
:10480000F4CF02F0E9CF03F0E652E6520350E56E32
:104810000250E56E0150E56E0050E56E3C0EE56E0F
:104820008E0EE56EFA0EE56E340EE56EF3EC19F0C1
:10483000006EF3CF01F0F4CF02F0E9CF03F0080EE1
:10484000E1260350E56E0250E56E0150E56E005022
:10485000E56E3F0EE56EA20EE56EF90EE56E830E77
:10486000E56EF3EC19F0046EF3CF05F0F4CF06F02B
:10487000E9CF07F0080EE1260350E56E0250E56E21
:104880000150E56E0050E56EBE0EE56ECF0EE56E92
:10489000810EE56E7B0EE56EF3EC19F0086EF3CF3A
:1048A00009F0F4CF0AF0E9CF0BF0080EE12603502F
:1048B000E56E0250E56E0150E56E0050E56E0B505E
:1048C000E56E0A50E56E0950E56E0850E56EF3ECB2
:1048D00019F0006EF3CF01F0F4CF02F0E9CF03F04E
:1048E000080EE1260350E56E0250E56E0150E56EBC
:1048F0000050E56E0750E56E0650E56E0550E56E1A
:104900000450E56E27EC18F0006EF3CF01F0F4CF01
:1049100002F0E9CF03F0080EE1260350E56E0250E5
:10492000E56E0150E56E0050E56E0350E56E0250F5
:10493000E56E0150E56E0050E56EF3EC19F0046E83
:10494000F3CF05F0F4CF06F0E9CF07F0080EE1262B
:104950000350E56E0250E56E0150E56E0050E56EC5
:104960000750E56E0650E56E0550E56E0450E56EA5
:1049700009EC33F0046EF3CF05F0F4CF06F0E9CF85
:1049800007F0080EE1260750E56E0650E56E05506B
:10499000E56E0450E56E3E0EE56E660EE56EE56E64
:1049A000E56EF3EC19F0046EF3CF05F0F4CF06F0EA
:1049B000E9CF07F0080EE1260350E56E0250E56EE0
:1049C0000150E56E0050E56E0750E56E0650E56E4D
:1049D0000550E56E0450E56E27EC18F0006EF3CF3D
:1049E00001F0F4CF02F0E9CF03F0080EE12603C096
:1049F000E9FF02C0F4FF01C0F3FF0050E4CF0BF069
:104A0000E4CF0AF0E4CF09F0E4CF08F0E4CF07F0F8
:104A1000E4CF06F0E4CF05F0E4CF04F0E4CF03F0F8
:104A2000E4CF02F0E4CF01F0E4CF00F0E4CFD9FF0F
:104A30001200D9CFE5FFE1CFD9FF00C0E5FF01C0EB
:104A4000E5FF02C0E5FF03C0E5FF04C0E5FF020E7D
:104A5000DBCF00F0030EDBCF01F0D40E0024026E9A
:104A6000036A440E0322046A000E042202C0F6FF09
:104A700003C0F7FF04C0F8FF0900F5CF02F0050EF0
:104A8000025CD8B0F8D0FA6AFB6A0234FA36E8342D
:104A9000FA36FC0BA40FE56E4A0EFA22000EFB223A
:104AA000E450F96E5CEF25F089EF25F0B6EF25F0C4
:104AB000E3EF25F010EF26F0015015E0B40E0024CE
:104AC000026E036A440E0322046A000E042202C02E
:104AD000F6FF03C0F7FF04C0F8FF0900F5CF02F0AE
:104AE00002509212C8D0B40E0024026E036A440E23
:104AF0000322046A000E042202C0F6FF03C0F7FF7F
:104B000004C0F8FF0900F5CF02F00250FF0892162A
:104B1000B2D0015015E0B40E0024026E036A440EB8
:104B20000322046A000E042202C0F6FF03C0F7FF4E
:104B300004C0F8FF0900F5CF02F0025093129BD099
:104B4000B40E0024026E036A440E0322046A000EAF
:104B5000042202C0F6FF03C0F7FF04C0F8FF0900FB
:104B6000F5CF02F00250FF08931685D0015015E0F2
:104B7000B40E0024026E036A440E0322046A000E7F
:104B8000042202C0F6FF03C0F7FF04C0F8FF0900CB
:104B9000F5CF02F0025094126ED0B40E0024026ED3
:104BA000036A440E0322046A000E042202C0F6FFC8
:104BB00003C0F7FF04C0F8FF0900F5CF02F0025070
:104BC000FF08941658D0015015E0B40E0024026E70
:104BD000036A440E0322046A000E042202C0F6FF98
:104BE00003C0F7FF04C0F8FF0900F5CF02F0025040
:104BF000951241D0B40E0024026E036A440E0322C3
:104C0000046A000E042202C0F6FF03C0F7FF04C0CE
:104C1000F8FF0900F5CF02F00250FF0895162BD0DF
:104C2000015015E0B40E0024016E026A440E022207
:104C3000036A000E032201C0F6FF02C0F7FF03C0A3
:104C4000F8FF0900F5CF01F00150961214D0016A67
:104C5000026AB40E0026440E0122000E022200C099
:104C6000F6FF01C0F7FF02C0F8FF0900F5CF00F022
:104C70000050FF089616E4CF04F0E4CF03F0E4CF31
:104C800002F0E4CF01F0E4CF00F0E4CFD9FF12004E
:104C9000D9CFE5FFE1CFD9FF00C0E5FF01C0E5FFB7
:104CA00002C0E5FF03C0E5FF04C0E5FF020EDBCF55
:104CB00000F0030EDBCF01F0D40E0024026E036A75
:104CC000440E0322046A000E042202C0F6FF03C051
:104CD000F7FF04C0F8FF0900F5CF02F0050E025CF3
:104CE000D8B0F8D0FA6AFB6A0234FA36E834FA36F9
:104CF000FC0B020FE56E4D0EFA22000EFB22E45073
:104D0000F96E8BEF26F0B8EF26F0E5EF26F012EF04
:104D100027F03FEF27F0015015E0B40E0024026E9B
:104D2000036A440E0322046A000E042202C0F6FF46
:104D300003C0F7FF04C0F8FF0900F5CF02F00250EE
:104D40008912C8D0B40E0024026E036A440E0322F6
:104D5000046A000E042202C0F6FF03C0F7FF04C07D
:104D6000F8FF0900F5CF02F00250FF088916B2D013
:104D7000015015E0B40E0024026E036A440E0322B3
:104D8000046A000E042202C0F6FF03C0F7FF04C04D
:104D9000F8FF0900F5CF02F002508A129BD0B40E42
:104DA0000024026E036A440E0322046A000E0422E9
:104DB00002C0F6FF03C0F7FF04C0F8FF0900F5CFFB
:104DC00002F00250FF088A1685D0015015E0B40E9B
:104DD0000024026E036A440E0322046A000E0422B9
:104DE00002C0F6FF03C0F7FF04C0F8FF0900F5CFCB
:104DF00002F002508B126ED0B40E0024026E036AD1
:104E0000440E0322046A000E042202C0F6FF03C00F
:104E1000F7FF04C0F8FF0900F5CF02F00250FF08C9
:104E20008B1658D0015015E0B40E0024026E036AB0
:104E3000440E0322046A000E042202C0F6FF03C0DF
:104E4000F7FF04C0F8FF0900F5CF02F002508C1202
:104E500041D0B40E0024026E036A440E0322046A99
:104E6000000E042202C0F6FF03C0F7FF04C0F8FFE3
:104E70000900F5CF02F00250FF088C162BD001502C
:104E800015E0B40E0024016E026A440E0222036A89
:104E9000000E032201C0F6FF02C0F7FF03C0F8FFB7
:104EA0000900F5CF01F001508D1214D0016A026A99
:104EB000B40E0026440E0122000E022200C0F6FFAE
:104EC00001C0F7FF02C0F8FF0900F5CF00F0005065
:104ED000FF088D16E4CF04F0E4CF03F0E4CF02F036
:104EE000E4CF01F0E4CF00F0E4CFD9FF120000C01E
:104EF000E5FF01C0E5FF02C0E5FF03C0E5FF04C018
:104F0000E5FF05C0E5FF06C0E5FF07C0E5FF08C0F7
:104F1000E5FF09C0E5FF0AC0E5FF0BC0E5FF0CC0D7
:104F2000E5FF0501006B016BC80E026FC20E036F37
:104F3000046B056BC80E066FC20E076F086B096B1A
:104F4000C80E0A6FC20E0B6F106B116BC80E126F7A
:104F5000420E136F146B156BC80E166FC20E176FCF
:104F6000186B196BC80E1A6FC20E1B6F206B216B6A
:104F7000C80E226F420E236F246B256BC80E266F5E
:104F8000420E276F286B296BC80E2A6FC20E2B6F3B
:104F9000306B316BC80E326FC20E336F346B356BB2
:104FA000C80E366F420E376F386B396BC80E3A6FCA
:104FB000C20E3B6F406B416BC80E426F420E436F97
:104FC000446B456BC80E466FC20E476F486B496B0A
:104FD000C80E4A6F420E4B6F506B516BC80E526F2A
:104FE000C20E536F546B556BC80E566FC20E576F7F
:104FF000586B596BC80E5A6F420E5B6F606B616BDA
:10500000C80E626FC20E636F646B656BC80E666F0D
:10501000420E676F686B696BC80E6A6F420E6B6FEA
:10502000706B716BC80E726F420E736F746B756B21
:10503000C80E766F420E776F786B796BC80E7A6FF9
:10504000420E7B6F006A016A026A000E0124036E41
:10505000050E0220046E03500C0F056E000E042096
:10506000066E03C0E9FF04C0EAFFEECF07F0EECF03
:1050700008F0EECF09F0EFCF0AF00A7E040E032607
:10508000D8B0042A03C0E9FF04C0EAFFEECF03F062
:10509000EECF04F0EECF0BF0EFCF0CF00C50E56E3E
:1050A0000B50E56E0450E56E0350E56E0A50E56E58
:1050B0000950E56E0850E56E0750E56EF3EC19F007
:1050C000036EF3CF04F0F4CF07F0E9CF08F0080E39
:1050D000E12605C0E9FF06C0EAFF03C0EEFF04C0F9
:1050E000EEFF07C0EEFF08C0EFFF100E0126D8B09C
:1050F000022A002A080E005CD8A0A7D7E4CF0CF043
:10510000E4CF0BF0E4CF0AF0E4CF09F0E4CF08F0ED
:10511000E4CF07F0E4CF06F0E4CF05F0E4CF04F0ED
:10512000E4CF03F0E4CF02F0E4CF01F0E4CF00F0ED
:105130001200D9CFE5FFE1CFD9FF00C0E5FF01C0E4
:10514000E5FF02C0E5FF03C0E5FF04C0E5FF05C0C1
:10515000E5FF06C0E5FF07C0E5FF08C0E5FF09C0A1
:10516000E5FF0AC0E5FF0BC0E5FF020EDBCF00F054
:10517000DDC501F0DEC502F0E3C503F0E56A0350CA
:10518000E56E0501D051E56ECF51E56E72EC3DF054
:10519000036EF3CF04F0040EE1260450025C02E13A
:1051A0000350015C14E30350015E0450025A0150A5
:1051B0000501DD6F0250DE6FDFC501F0E0C502F0D2
:1051C000014A022A0150DF6F0250E06FD1D7DFC5DC
:1051D00001F0E0C502F0000E025C02E1060E015C87
:1051E00003E38DEC36F0F3D70050036E090A13E0A9
:1051F00003500A0A04E003500D0A09E01AD0014ADC
:10520000022A01500501DF6F0250E06F90D00501C6
:10521000DD6BDE6B8CD00501DD51040F016E000EDD
:10522000DE21030E0116026A0150DD6F0250DE6BB3
:105230007ED0016AE3C502F00250015CD8B06CD0A8
:10524000E56A0250E56E0501DE51E56EDD51E56E61
:105250000AEC3FF0026EF3CF03F0040EE1260501E5
:10526000D051E56ECF51E56EE051E56EDF51E56E50
:105270000AEC3FF0046EF3CF05F0040EE126045073
:1052800002260550032201C004F0056A0450076A93
:10529000022607500322060E0226060E0322E5C54B
:1052A00006F0E6C507F0E7C508F000C009F00A6A95
:1052B000E00E0926D8A00A06E3C50BF0E56A0B50FC
:1052C000E56E0A50E56E0950E56E0AEC3FF0096E96
:1052D000F3CF0AF0040EE126020E0926D8B00A2AFE
:1052E000095004260A5005220450062605500722BC
:1052F000E86A05BEE868082206C0E9FF07C0F3FFB8
:10530000085007EC46F0066E02C0E9FF03C0EAFF52
:1053100006C0EFFF012A8ED7DDC500F0DEC501F023
:10532000004A012A00500501DD6F0150DE6FE4CF15
:105330000BF0E4CF0AF0E4CF09F0E4CF08F0E4CFBB
:1053400007F0E4CF06F0E4CF05F0E4CF04F0E4CFBB
:1053500003F0E4CF02F0E4CF01F0E4CF00F0E4CFBB
:10536000D9FF1200D9CFE5FFE1CFD9FF00C0E5FF9B
:1053700001C0E5FF02C0E5FF03C0E5FF04C0E5FF93
:1053800005C0E5FF06C0E5FF07C0E5FF020EDBCF65
:1053900000F0030EDBCF01F0040EDBCF02F0050EB0
:1053A000DBCF03F0060EDBCF04F0070EDBCF05F0FA
:1053B000080EDBCF06F0090EDBCF07F0005001012D
:1053C0006C6F01506D6F02506E6F03506F6F045021
:1053D0000101706F0550716F0650726F0750736F47
:1053E00001016C5101017203F4CF01F0F3CF00F021
:1053F00000500101766F0150776F01016C5101017E
:105400007003F4CF01F0F3CF00F000500101746F8E
:105410000150756F01016F5101017003F3CF00F06E
:105420000101775100260050776F01016E51010193
:105430007103F3CF00F00101775100260050776F20
:1054400001016E5101017003F4CF01F0F3CF00F0C0
:10545000010176510026775101220050766F0150EC
:10546000776F01016D5101017103F4CF01F0F3CFAA
:1054700000F0010176510026775101220050766F2D
:105480000150776F01016D5101017203F3CF00F0FC
:10549000005001017B6F01016D5101017003F4CFD8
:1054A00001F0F3CF00F000500101796F01507A6FE5
:1054B00001016C5101017303F3CF00F000500101B1
:1054C0007F6F01016C5101017103F4CF01F0F3CF43
:1054D00000F0005001017D6F01507E6F0101786B7B
:1054E00001017C6B0101785101017425006E0101FD
:1054F000795101017521016E01017A510101762175
:10550000026E01017B5101017721036E0050746F1F
:105510000150756F0250766F0350776F01017C5117
:1055200001017425006E01017D5101017521016E9B
:1055300001017E5101017621026E01017F510101BD
:105540007721036E03C0E9FF02C0F4FF01C0F3FF3F
:105550000050E4CF07F0E4CF06F0E4CF05F0E4CF4D
:1055600004F0E4CF03F0E4CF02F0E4CF01F0E4CFA5
:1055700000F0E4CFD9FF1200000002020180000019
:10558000000000000000000000000000000000001B
:10559000000000000000000000000000000000000B
:1055A00000000000C0E0F0F8FCFCFEFFFCE00000A2
:1055B00000000000000000000000000000000000EB
:1055C00000000000000000000000000000000000DB
:1055D00000000000000000000000000000000000CB
:1055E000000000F8F8F8F8F8F8F8F8F8F8F8F8F02B
:1055F000F0E0E0C080C0FCFFFFFFFF7F3F7FFFFFC8
:10560000FFFFFF000000000000000000000000009D
:10561000000000000000000000000000000000008A
:10562000000000000000000000000000000000007A
:1056300000000000000000000F1F3F7FFFFFFFFF82
:10564000FFFFFFFFE7C7C7878F9F9FFFFFFFC1C017
:10565000E0FCFFFFFFFFFFFCFCFCFCFEFEFEFCFC91
:10566000F8F8F0E0C0C000000000000000000000FA
:10567000000000000000000000000000000000002A
:10568000000000000000000000000000000000809A
:10569000C0E0F1FBFFFFFFFFFF7F1F0F0F87E7FF5A
:1056A000FFFF1F1F3FF9F8F8F8F8F8F8FDFFFFFFBC
:1056B000FFFFFFFFFFFF7F3F0F070100000000001B
:1056C00000000000000000000000000000000000DA
:1056D00000000000000000000000000000000000CA
:1056E00000F0FEFFFFFFFFFFFFFFFFFFFFFE7E3F1B
:1056F0003F0F1FFFFFFFFCF0E0F1FFFFFFFFFFFC8C
:10570000F0010101010101010100000000000000A1
:105710000000000000000000000000000000000089
:105720000000000000000000000000000000000079
:10573000000000000003030303030303030101014E
:105740000100000000000000030F1F3F7F7FFFFFEC
:10575000FFFF7F7F1F03000000000000000000002B
:105760000000000000000000000000000000000039
:105770000000000000000000000000000000000029
:1057800001000000D9CFE5FFE1CFD9FF00C0E5FF60
:1057900001C0E5FF02C0E5FF03C0E5FF04C0E5FF6F
:1057A00005C0E5FF06C0E5FF07C0E5FF08C0E5FF4F
:1057B00009C0E5FF0AC0E5FF0BC0E5FF0CC0E5FF2F
:1057C0000DC0E5FF0EC0E5FF0FC0E5FF10C0E5FF0F
:1057D00011C0E5FF12C0E5FF13C0E5FF020EDBCFED
:1057E00000F0030EDBCF01F0040EDBCF02F0050E5C
:1057F000DBCF03F0060EDBCF04F0070EDBCF05F0A6
:10580000080EDBCF06F0090EDBCF07F00A0EDBCF68
:1058100008F00B0EDBCF09F00C0EDBCF0AF00D0EFB
:10582000DBCF0BF00E0EDBCF0CF00F0EDBCF0DF04D
:10583000100EDBCF0EF0110EDBCF0FF0120EDBCF10
:1058400010F0130EDBCF11F0140EDBCF12F0150E9B
:10585000DBCF13F00450005E0550015A0650025A87
:105860000750035A0C50105E0D50115A0E50125A28
:105870000F50135A1350E56E1250E56E1150E56E3D
:105880001050E56E0350E56E0250E56E0150E56E76
:105890000050E56EB2EC29F0006EF3CF01F0F4CFCA
:1058A00002F0E9CF03F0080EE1260450085C046E14
:1058B00005500958056E06500A58066E07500B58D9
:1058C000E56E0650E56E0550E56E0450E56E03503A
:1058D000E56E0250E56E0150E56E0050E56E3EEC5F
:1058E0002FF0006EF3CF01F0F4CF02F0E9CF03F018
:1058F000080EE12600500C2601500D2202500E2207
:1059000003500F220FC0E9FF0EC0F4FF0DC0F3FFDC
:105910000C50E4CF13F0E4CF12F0E4CF11F0E4CF59
:1059200010F0E4CF0FF0E4CF0EF0E4CF0DF0E4CFB1
:105930000CF0E4CF0BF0E4CF0AF0E4CF09F0E4CFB1
:1059400008F0E4CF07F0E4CF06F0E4CF05F0E4CFB1
:1059500004F0E4CF03F0E4CF02F0E4CF01F0E4CFB1
:1059600000F0E4CFD9FF1200D9CFE5FFE1CFD9FF96
:1059700000C0E5FF01C0E5FF02C0E5FF03C0E5FF91
:1059800004C0E5FF05C0E5FF06C0E5FF07C0E5FF71
:1059900008C0E5FF09C0E5FF0AC0E5FF0BC0E5FF51
:1059A0000CC0E5FF0DC0E5FF0EC0E5FF0FC0E5FF31
:1059B00010C0E5FF11C0E5FF12C0E5FF13C0E5FF11
:1059C000020EDBCF00F0030EDBCF01F0040EDBCFC5
:1059D00002F0050EDBCF03F0060EDBCF04F0070E5E
:1059E000DBCF05F0051C076E041C066E064A072A6D
:1059F00006C008F007C009F00550E56E0450E56EDA
:105A00000550E56E0450E56E0AEC3FF00A6EF3CFE8
:105A10000BF0040EE12608500C6E0950055C02E103
:105A20000C50045CD8A053D00950E56E0850E56EC8
:105A30000950E56E0850E56E0AEC3FF00C6EF3CFAE
:105A40000DF0040EE12606C00EF007C00FF00E5058
:105A5000106E0F50116E055C02E11050045C34E3CF
:105A60000F50E56E0E50E56E0F50E56E0E50E56E70
:105A70000AEC3FF0126EF3CF13F0040EE1260C5047
:105A800012260D50132213500B5C02E112500A5CD7
:105A900018E300501026015011220850126E0950D0
:105AA000136E02501226035013221350E56E12504B
:105AB000E56E1150E56E1050E56EE6EC42F0040E16
:105AC000E1260E4A0F2AC3D7084A092AA4D7E4CFF1
:105AD00013F0E4CF12F0E4CF11F0E4CF10F0E4CFF4
:105AE0000FF0E4CF0EF0E4CF0DF0E4CF0CF0E4CFF4
:105AF0000BF0E4CF0AF0E4CF09F0E4CF08F0E4CFF4
:105B000007F0E4CF06F0E4CF05F0E4CF04F0E4CFF3
:105B100003F0E4CF02F0E4CF01F0E4CF00F0E4CFF3
:105B2000D9FF120000C0E5FF01C0E5FF02C0E5FF9C
:105B300003C0E5FF04C0E5FF05C0E5FF06C0E5FFC3
:105B400007C0E5FF08C0E5FF09C0E5FF07EC44F02A
:105B5000006EF3CF01F0F4CF02F0E9CF03F0E80ECE
:105B60000026030E0122000E02220322046A056AA7
:105B700007EC44F0066EF3CF07F0F4CF08F0E9CF5E
:105B800009F00350095C08E10250085C05E101508E
:105B9000075C02E10050065CD8B077D008010751DD
:105BA000E56E0651E56E08010551E56E0451E56E9E
:105BB00008010351E56E0251E56E0EEC06F0060E8B
:105BC000E12635EC16F0BDEC45F008010151E56E1B
:105BD0000051E56E0701FF51E56EFE51E56E000EC6
:105BE000E56E470EE56E5C0EE56EFAEC3AF0070ED8
:105BF000E1269AEC3AF013EC3CF008010251010F57
:105C0000066E000E0321076E010EE56E680EE56E4E
:105C10000750E56E0650E56EB6EC3BF00801026FEA
:105C2000F3CF03F8040EE12608010451030F066EBA
:105C3000000E0521076E010EE56E680EE56E075039
:105C4000E56E0650E56EB6EC3BF00801046FF3CF4D
:105C500005F8040EE12608010651010F066E000E3C
:105C60000721076E010EE56E680EE56E0750E56EC2
:105C70000650E56EB6EC3BF00801066FF3CF07F86F
:105C8000040EE126044A052A73D704C0FEF705C0B6
:105C9000FFF70701FF510801015D04E10701FE5113
:105CA0000801005D04E2FEC700F8FFC701F8E4CF79
:105CB00009F0E4CF08F0E4CF07F0E4CF06F0E4CF3A
:105CC00005F0E4CF04F0E4CF03F0E4CF02F0E4CF3A
:105CD00001F0E4CF00F01200D9CFE5FFE1CFD9FF0A
:105CE00000C0E5FF01C0E5FF02C0E5FF03C0E5FF1E
:105CF00004C0E5FF05C0E5FF06C0E5FF07C0E5FFFE
:105D000008C0E5FF09C0E5FF0AC0E5FF0BC0E5FFDD
:105D10000CC0E5FF0DC0E5FF0EC0E5FF020EDBCFB6
:105D200000F0030EDBCF01F0040EDBCF02F0050E16
:105D3000DBCF03F0060EDBCF04F0070EDBCF05F060
:105D4000080EDBCF06F0090EDBCF07F0086A200E45
:105D5000096E065022E00A6A03C00BF004C00CF082
:105D600005C00DF00BC0E9FF0CC0F3FF0D5007ECB0
:105D700046F00E6E0E5006E00A2A0B2AF3E30C4A98
:105D80000D2AF0D706500A5C02E3066A02D00A50D8
:105D9000065E07A202D0300E096E07B019D0076A5E
:105DA00006C00AF00A5005E107C008F00AC006F074
:105DB0000FD00950E56E0250E56E0150E56E0050BF
:105DC000E56E16EC37F0040EE126072A0A06EAD73C
:105DD00008C007F003C0E9FF04C0F3FF055007EC5B
:105DE00046F0086E085012E00850E56E0250E56E6D
:105DF0000150E56E0050E56E16EC37F0040EE1261A
:105E0000072A032AE7E3044A052AE4D707C003F078
:105E100006C004F004500FE00950E56E0250E56E34
:105E20000150E56E0050E56E16EC37F0040EE126E9
:105E3000032A0406EFD7F36A0350E4CF0EF0E4CF51
:105E40000DF0E4CF0CF0E4CF0BF0E4CF0AF0E4CF98
:105E500009F0E4CF08F0E4CF07F0E4CF06F0E4CF98
:105E600005F0E4CF04F0E4CF03F0E4CF02F0E4CF98
:105E700001F0E4CF00F0E4CFD9FF1200D9CFE5FF65
:105E8000E1CFD9FF00C0E5FF01C0E5FF02C0E5FF9B
:105E900003C0E5FF04C0E5FF05C0E5FF06C0E5FF60
:105EA00007C0E5FF08C0E5FF09C0E5FF0AC0E5FF40
:105EB0000BC0E5FF0CC0E5FF0DC0E5FF020EDBCF18
:105EC00000F0030EDBCF01F0040EDBCF02F0050E75
:105ED000DBCF03F0060EDBCF04F0070EDBCF05F0BF
:105EE000080EDBCF06F0090EDBCF07F0D88003AE3B
:105EF000D890086A083608500FE0031C0C6E021C8C
:105F00000B6E011C0A6E001C096E092A0DE10A2A9B
:105F10000BE10B4A0C2A08D000C009F001C00AF0BE
:105F200002C00BF003C00CF0D88007AED890006A16
:105F3000003600500FE0071C0D6E061C036E051C9A
:105F4000026E041C016E012A0DE1022A0BE1034AD4
:105F50000D2A08D004C001F005C002F006C003F00D
:105F600007C00DF00D50E56E0350E56E0250E56E72
:105F70000150E56E0C50E56E0B50E56E0A50E56E73
:105F80000950E56E77EC35F0016EF3CF02F0F4CFF7
:105F900003F0E9CF04F0080EE1260050081A08507B
:105FA00016E0041C076E031C066E021C056E011C25
:105FB000006E002A04E1052A02E1064A072A07C00A
:105FC000E9FF06C0F4FF05C0F3FF005007D004C08E
:105FD000E9FF03C0F4FF02C0F3FF0150E4CF0DF06E
:105FE000E4CF0CF0E4CF0BF0E4CF0AF0E4CF09F0FB
:105FF000E4CF08F0E4CF07F0E4CF06F0E4CF05F0FB
:10600000E4CF04F0E4CF03F0E4CF02F0E4CF01F0FA
:10601000E4CF00F0E4CFD9FF120000C0E5FF01C0DB
:10602000E5FF02C0E5FF03C0E5FF04C0E5FFD35074
:10603000030B006EFA6AFB6A0034FA36E834FA366B
:10604000FC0B520FE56E600EFA22000EFB22E450AC
:10605000F96E31EF30F093EF30F099EF30F099EFC7
:1060600030F0E56A010EE56EE568F90EE56E6FEC5D
:106070003CF0006E040EE126030E0016380E0024DC
:10608000016E026A470E0222036A000E032201C05B
:10609000F6FF02C0F7FF03C0F8FF0900F5CF00F0DC
:1060A0009BAC22D000C001F0E56AE56AE56A0150C8
:1060B000E56E020EE56EDC0EE56E6C0EE56E000E12
:1060C000E56A77EC35F0016EF3CF02F0F4CF03F020
:1060D000E9CF04F0080EE12604C0E9FF03C0F4FF95
:1060E00002C0F3FF015054D0E56AE56AE56A00504A
:1060F000E56EE56A7A0EE56E120EE56E000EE56A53
:106100003EEC2FF0006EF3CF01F0F4CF02F0E9CFB8
:1061100003F0080EE12603C0E9FF02C0F4FF01C04E
:10612000F3FF005035D0E96AF46A800EF36EE86A36
:106130002FD0D350E838070BE56AE56EE56A040E08
:10614000E56E0AEC3FF0006EF3CF01F0040EE1269D
:10615000026A3C0E0026470E0122000E022200C0F9
:10616000F6FF01C0F7FF02C0F8FF0900F5CF00F00D
:106170000900F5CF01F00900F5CF02F00900F5CFD5
:1061800003F003C0E9FF02C0F4FF01C0F3FF0050B9
:10619000E4CF04F0E4CF03F0E4CF02F0E4CF01F069
:1061A000E4CF00F01200D9CFE5FFE1CFD9FF00C066
:1061B000E5FF01C0E5FF02C0E5FF03C0E5FF04C045
:1061C000E5FF05C0E5FF06C0E5FF07C0E5FF08C025
:1061D000E5FF09C0E5FF0AC0E5FF0BC0E5FF0CC005
:1061E000E5FF020EDBCF00F0030EDBCF01F0040E63
:1061F000DBCF02F0050EDBCF03F0060EDBCF04F0A1
:10620000070EDBCF05F0080EDBCF06F0090EDBCF63
:1062100007F0D88003AED890086A083608500FE01F
:10622000031C0C6E021C0B6E011C0A6E001C096E16
:10623000092A0DE10A2A0BE10B4A0C2A08D000C0FA
:1062400009F001C00AF002C00BF003C00CF0D880C6
:1062500007AED8900FE3071C036E061C026E051CE8
:10626000016E041C006E002A0DE1012A0BE1024AB6
:10627000032A08D004C000F005C001F006C002F0F7
:1062800007C003F00350E56E0250E56E0150E56E65
:106290000050E56E0C50E56E0B50E56E0A50E56E51
:1062A0000950E56EB3EC33F0006EF3CF01F0F4CF9C
:1062B00002F0E9CF03F0080EE126085016E0031CB7
:1062C000076E021C066E011C056E001C046E042A7B
:1062D00004E1052A02E1064A072A07C0E9FF06C0D1
:1062E000F4FF05C0F3FF045007D003C0E9FF02C06C
:1062F000F4FF01C0F3FF0050E4CF0CF0E4CF0BF04B
:10630000E4CF0AF0E4CF09F0E4CF08F0E4CF07F0DF
:10631000E4CF06F0E4CF05F0E4CF04F0E4CF03F0DF
:10632000E4CF02F0E4CF01F0E4CF00F0E4CFD9FFF6
:106330001200D9CFE5FFE1CFD9FF00C0E5FF01C0D2
:10634000E5FF02C0E5FF03C0E5FF04C0E5FF05C0AF
:10635000E5FF06C0E5FF07C0E5FF020EDBCF00F05A
:10636000030EDBCF01F00050080DF450026EF3CFA6
:1063700000F0800E0024036E050E0220046E03C0A0
:10638000E9FF04C0EAFFEECF03F0EECF04F0EECF5A
:1063900005F0EFCF06F00650E56E0550E56E0450AF
:1063A000E56E0350E56EA3EC3FF0036E040EE126AC
:1063B000800E0026050E0222040E0026D8B0022A06
:1063C00000C0E9FF02C0EAFFEECF00F0EECF02F01E
:1063D000EECF04F0EFCF05F00550E56E0450E56E0A
:1063E0000250E56E0050E56EA3EC3FF0006E040E27
:1063F000E1260150080DF450026EF3CF01F0800E3B
:106400000124046E050E0220056E04C0E9FF05C0DC
:10641000EAFFEECF04F0EECF05F0EECF06F0EFCFBF
:1064200007F00750E56E0650E56E0550E56E045026
:10643000E56EA3EC3FF0046E040EE126800E01260B
:10644000050E0222040E0126D8B0022A01C0E9FF7F
:1064500002C0EAFFEECF01F0EECF02F0EECF05F082
:10646000EFCF06F00650E56E0550E56E0250E56E82
:106470000150E56EA3EC3FF0016E040EE1260150E1
:10648000E56E0450E56E0050E56E0350E56E01ECDC
:1064900042F0040EE126E4CF07F0E4CF06F0E4CFAB
:1064A00005F0E4CF04F0E4CF03F0E4CF02F0E4CF52
:1064B00001F0E4CF00F0E4CFD9FF1200D9CFE5FF1F
:1064C000E1CFD9FF00C0E5FF01C0E5FF02C0E5FF55
:1064D00003C0E5FF04C0E5FF05C0E5FF06C0E5FF1A
:1064E00007C0E5FF08C0E5FF09C0E5FF0AC0E5FFFA
:1064F0000BC0E5FF020EDBCF00F0030EDBCF01F097
:10650000040EDBCF02F0050EDBCF03F000500110CC
:106510000210031005E1E96AF46AF36AE86A5ED0E2
:10652000960E046E056A035008E0D89003320232DA
:1065300001320032044A052AF6D704C006F005C02D
:1065400007F002BE12D0035010E1005000260136C1
:1065500002360336FF0E0426052202BE02D0035087
:10656000F4E004C006F005C007F00050046E0150CE
:10657000056E7F0E0214086E096A0450FF0A08E1D6
:106580000550FF0A05E108507F0A02E1095001E0C9
:1065900006D0006A016A026A036A064A072A029E56
:1065A000E86A073006300B6E0A6A0A32086A085039
:1065B000001201120A5002120B5003120050010186
:1065C000546F0150556F0250566F0350576F57C1AB
:1065D000E9FF56C1F4FF55C1F3FF5451E4CF0BF06E
:1065E000E4CF0AF0E4CF09F0E4CF08F0E4CF07F0FD
:1065F000E4CF06F0E4CF05F0E4CF04F0E4CF03F0FD
:10660000E4CF02F0E4CF01F0E4CF00F0E4CFD9FF13
:106610001200D9CFE5FFE1CFD9FF00C0E5FF01C0EF
:10662000E5FF02C0E5FF03C0E5FF04C0E5FF05C0CC
:10663000E5FF06C0E5FF07C0E5FF020EDBCF00F077
:10664000030EDBCF01F0040EDBCF02F0050EDBCF33
:1066500003F0060EDBCF04F0070EDBCF05F0080ECB
:10666000DBCF06F0090EDBCF07F000500101646FAD
:106670000150656F0250666F0350676F045001014F
:10668000686F0550696F06506A6F07506B6F6851ED
:1066900069116A116B1109E167C1E9FF66C1F4FF75
:1066A00065C1F3FF010164514BD0010164516511D3
:1066B0006611671111E168C100F069C101F06AC19A
:1066C00002F06BC103F0037E03C0E9FF02C0F4FFD8
:1066D00001C0F3FF005034D001016851006E6951D0
