:020000040000FA
:10000000B4EF05F0A8EF05F004EF06F0CD6A606AE2
:100010009288899838EC05F00CEF06F0D9CFE5FF0F
:10002000E1CFD9FF00C0E5FF01C0E5FF02C0E5FF59
:1000300003C0E5FF04C0E5FF05C0E5FF020EDBCF0E
:1000400000F089880044FE0B016E0128006E040D4B
:10005000F45000BE0408026EF3CF00F0000E00243E
:10006000036E040E0220046E034A042A03C0E9FF53
:1000700004C0EAFF000EEF6E84C4F8FF83C4F7FFEC
:1000800082C4F6FF04018051FF0A05E106EC00F08E
:1000900000EF06F090D00401805113E1080E826F4A
:1000A000040E836F000E0024036E040E0220046E03
:1000B000034A042A03C0E9FF04C0EAFF040EEF6EFE
:1000C0007AD004018051010A27E1036A04018151B9
:1000D000035C0FE20900850E0324046E056A040E1A
:1000E000052204C0E9FF05C0EAFFF5CFEFFF032AB0
:1000F000EDD7000E0024036E040E0220046E034AA6
:10010000042A050E04018125056E03C0E9FF04C021
:10011000EAFF05C0EFFF4FD004018051020A28E139
:10012000036A04018151035C0FE2850E0324046E0F
:10013000056A040E052204C0E9FF05C0EAFFEFCFFF
:10014000F5FF0D00032AEDD70A00840EA66ED2EC4F
:1001500005F0000E0024036E040E0220046E034A14
:10016000042A03C0E9FF04C0EAFF010EEF6E23D0AA
:1001700004018051030A1FE1940EA66E036A040174
:100180008151035C0AE2A688D2EC05F0A698400EE5
:10019000F626000EF722032AF2D7000E0024036E83
:1001A000040E0220046E034A042A03C0E9FF04C0BF
:1001B000EAFF010EEF6E000E0026040E0222004A36
:1001C000022A00C0E9FF02C0EAFFEFCF00F00050B2
:1001D00009E004010CAD03D0880E0C6F03D0C80EEB
:1001E00004010C6F0150040DF45001BE0408006EB0
:1001F000F3CF01F0000E0124026E040E0020036E06
:10020000024A032A02C0E9FF03C0EAFF400EEF6E74
:10021000000E0126040E002201C0E9FF00C0EAFF23
:10022000800EEF6EE4CF05F0E4CF04F0E4CF03F0EE
:10023000E4CF02F0E4CF01F0E4CF00F0E4CFD9FF47
:100240001200D9CFE5FFE1CFD9FF00C0E5FF01C023
:10025000E5FF02C0E5FF03C0E5FF04C0E5FF05C000
:10026000E5FF06C0E5FF07C0E5FF08C0E5FF020E99
:10027000DBCF00F0000E0401C95D02E1400EC85D55
:1002800005E2C8C401F0C9C402F003D0400E016EFB
:10029000026A0044FE0B036E0328040DF450036E43
:1002A000F3CF00F0000E0024046E040E0320056E50
:1002B000000E0024066E040E0320076E06C0E9FF40
:1002C00007C0EAFFEFCF06F0FC0E061604C0E9FFF8
:1002D00005C0EAFF06C0EFFF000E0024046E040E06
:1002E0000320056E000E0024066E040E0320076E28
:1002F00006C0E9FF07C0EAFFEFCF06F0030E0214C5
:10030000061204C0E9FF05C0EAFF06C0EFFF000EB9
:100310000024046E040E0320056E044A052A0150D1
:10032000066E04C0E9FF05C0EAFF06C0EFFF000E3D
:100330000026040E0322020E0026D8B0032A400E27
:10034000046E050E056E00C0E9FF03C0EAFF04C09D
:10035000EEFF05C0EFFF01500401C85F0250C95B0A
:10036000050E0401C46F400EC36F800EC56F006A96
:1003700000C003F0046A0250045C02E10150035C17
:100380002BE2C3C403F0C4C404F0C5C405F0C0C468
:1003900006F0C1C407F0C2C408F006C0E9FF07C0F8
:1003A000F3FF08506DEC05F0066E0401C02B03E36B
:1003B000C13F01D0C22B06C0E5FF03C0E9FF04C066
:1003C000F3FF0550BFEC05F00401C32B03E3C43F6A
:1003D00001D0C52B002ACCD7E4CF08F0E4CF07F03A
:1003E000E4CF06F0E4CF05F0E4CF04F0E4CF03F06F
:1003F000E4CF02F0E4CF01F0E4CF00F0E4CFD9FF86
:100400001200D9CFE5FFE1CFD9FF00C0E5FF01C061
:10041000E5FF02C0E5FF03C0E5FF04C0E5FF05C03E
:10042000E5FF06C0E5FF07C0E5FF08C0E5FF09C01E
:10043000E5FF020EDBCF00F00044FE0B040DF4508C
:10044000026EF3CF00F0000E0024016E040E0220B5
:10045000036E01C0E9FF03C0EAFFEFCF01F0030E16
:1004600001160150056E046A000E0026040E0222D9
:10047000004A022A00C0E9FF02C0EAFFEFCF00F005
:10048000016A045000120550011200500401C827EF
:100490000150C923050E0401C16F400EC06F800ECC
:1004A000C26F026A036A0150035C02E10050025C01
:1004B0002CE2C3C404F0C4C405F0C5C406F0C0C433
:1004C00007F0C1C408F0C2C409F007C0E9FF08C0C2
:1004D000F3FF09506DEC05F0076E0401C02B03E338
:1004E000C13F01D0C22B07C0E5FF04C0E9FF05C032
:1004F000F3FF0650BFEC05F00401C32B03E3C43F38
:1005000001D0C52B024A032ACED7E4CF09F0E4CFAD
:1005100008F0E4CF07F0E4CF06F0E4CF05F0E4CF35
:1005200004F0E4CF03F0E4CF02F0E4CF01F0E4CF35
:1005300000F0E4CFD9FF120000C0E5FF01C0E5FFE5
:1005400002C0E5FF05010051800A01E064D0050109
:100550000351010A0FE1010E0401CC6F000E0401EA
:10056000C26F0A0EC16F080EC06F120E0401C86F71
:10057000C96B51D005010351020A17E1010E0401B4
:10058000CC6F000E0401C26F0A0EC16F1A0EC06F4D
:100590001C0EF66E0A0EF76E000EF86E0900F5CF0F
:1005A000C8F40900F5CFC9F436D005010351030A98
:1005B00032E1010E0401CC6F05010251030DF4502C
:1005C000016EF3CF00F0026A660E00260A0E0122C9
:1005D000000E022200C0F6FF01C0F7FF02C0F8FFC4
:1005E0000900F5CFC0F40900F5CFC1F40900F5CF3B
:1005F000C2F4C0C400F0C1C401F0C2C402F000C023
:10060000E9FF01C0F3FF02506DEC05F0006E00C081
:10061000C8F40401C96BE4CF02F0E4CF01F0E4CFE9
:1006200000F0120000C0E5FF04010451006E009EBE
:100630000050046F0051006E009E0050006F0401D6
:10064000CF6B0401CC6B0401C86BC96BD0EC03F019
:100650000401CC510BE1400E0401016F000E026F4A
:10066000050E036F840E006F046F38D0050100AFD4
:1006700026D00401C9510501075D04E10401C851F8
:100680000501065D04E206C5C8F407C5C9F4000EFD
:10069000E56A21EC01F0E652020E0401CF6F400E34
:1006A0000401016F000E026F050E036F800E006FD4
:1006B000400E066F050E076FC80E046F0FD0010EB7
:1006C0000401CF6F0401056BC80E046F400E016F6B
:1006D000400E026F050E036FC80E006F6098E4CFE6
:1006E00000F0120000C0E5FF01C0E5FF6138E844FA
:1006F0001F0B006E0050D8A447D061B422D03C0E2E
:1007000004010015016E0140E8403F0B0D0A03E1B2
:1007100012EC03F040D00401CF51010A0FE1000EAA
:10072000E56A01EC02F0E652040100AD03D0880E48
:10073000006F31D0C80E0401006F2DD09BEC05F086
:100740002AD063500BE10401CD51040A07E102C530
:1007500063FF635003E1030E0401CD6F0401CF5129
:10076000020A0FE1000EE56A21EC01F0E6520401F5
:1007700004AD03D0880E046F0ED0C80E0401046FC0
:100780000AD09BEC05F007D061B405D00050E56EAF
:100790000EEC00F0E652E4CF01F0E4CF00F01200DE
:1007A00005010051600BD8A458D00151050A09E198
:1007B000010E0401CC6F040E0401CD6F02C5CBF411
:1007C0004CD005010151060A03E19CEC02F045D032
:1007D00005010151090A12E1010E0401CC6F8EECF2
:1007E00005F002C5CEF40401CE5104E1040E04016B
:1007F000CD6F33D0050E0401CD6F2FD0050101510F
:10080000080A0FE1010E0401CC6F040E0401C16F50
:10081000CE0EC06F800EC26F010E0401C86FC96B8F
:100820001CD0050101510A0A11E1010E0401CC6F2F
:100830000501406B050E0401C16F400EC06F800EB4
:10084000C26F010E0401C86FC96B07D005010151C9
:100850000B0A03E1010E0401CC6F1200B20EF66E1A
:100860000B0EF76E000EF86E0900F550056E0900CC
:10087000F550066E055002E106503BE00900F550C8
:10088000006E0900F550016E0900F550026E090076
:100890000900F550E96E0900F550EA6E09000900FB
:1008A0000900F550036E0900F550046E09000900B7
:1008B000F6CF07F0F7CF08F0F8CF09F000C0F6FF49
:1008C00001C0F7FF02C0F8FF035002E1045007E047
:1008D0000900F550EE6E0306F8E20406F9D707C0EA
:1008E000F6FF08C0F7FF09C0F8FF0506C4E20606D8
:1008F000C5D71200700ED36ED3A4FED75B6B5C6BB2
:100900005D6BD08E92988988310ECD6EA66A140EDA
:100910000F01626F800E006E040E016E026A036AA0
:10092000026A036A005004010E6F01500F6F040148
:10093000CE6B0401CD6B57EC05F0C0EC04F0040164
:10094000CD51050AF8E1006A016A026AC0EC04F0C0
:100950000050011002E1100E891A004A012A036AB0
:100960009EB0032A0350010AF1E1022A9E90E60E8E
:10097000025CECE306EC00F000EF06F0E7D71200B3
:1009800000C0E5FF0401CD51D8B43BD065A405D02B
:1009900064A403D0609264946594006A60B2002AF3
:1009A0000050010A2EE065A01DD064A01BD0676A2C
:1009B000656A9F0E666E7B0E646E636A160E6A6EC3
:1009C000006A65B6002A0050010A02E16596F8D770
:1009D00060989BEC05F00401CA6B0401CE6B030E1A
:1009E0000401CD6F65A202D064B26592030E0401CA
:1009F000CD5D07E365A605D064A603D072EC03F0D5
:100A00006596E4CF00F0120012010002FF00FF40E3
:100A1000D804AAFE08040102000109022000010115
:100A200000C0140904000002FFFFFF0007050102D7
:100A3000400000070581024000000403090416037A
:100A400052002E0042006C0061006E0063006800DE
:100A50006F0074001203500069006E00670075009B
:100A600069006E006F003A0A003E0A00540A000056
:100A700000C0E5FF01C0E5FF02C0E5FF03C0E5FFE0
:100A8000C6C400F0C7C401F000C002F001C003F00A
:100A9000FF0E0026012202500310F6E1E4CF03F01E
:100AA000E4CF02F0E4CF01F0E4CF00F0120060B632
:100AB00006D0606A646A6086010E0401CD6F04018D
:100AC000CD51010A09E160BA07D0656A646A6480A1
:100AD0006488020E0401CD6F1200E8AE04D0F3CF9B
:100AE000EAFFEE501200E8BC02EF00F0E9CFF6FF9B
:100AF000F3CFF7FFF86E0900F5501200F2CFEAFFCE
:100B0000F29EA69EA69CA684E9CFA9FFE4CFA8FFEB
:100B1000CAEC05F0A694EABEF28E12001E0E6B6EB1
:100B2000400E04010C6F096F800E0A6F040E0B6FEC
:100B3000800E086F12000401CF6B400E0401016F9C
:100B4000000E026F050E036F880E006F046B12001B
:100B5000F2CFF6FFF29EA69EA69CE9CFA9FFA68043
:100B6000A850F6BEF28E120011EEFFF021EEFFF05B
:100B7000F86AA69CA68E2EEC04F07AEC04F0E8AE9F
:100B800005D0F3CFEAFFE4CFEEFF1200E8BCE0EFC0
:100B900005F01200550EA76EAA0EA76EA682A6B289
:100BA000FED7A94A550EA76EAA0EA76EA682000010
:100BB00012000100C40B0000D0040000010000007E
:060BC0007EEF05F00000CD
:020000040030CA
:0E00000003285F3EFF9181FF0FC00FE00F400D
:00000001FF
