:020000040000FA
:100C0000D1EF1FF0689C12002BEF23F00F0EC16E86
:060C1000070EB46E120095
:080C180068EF23F0D9CFE5FFDE
:100C2000E1CFD9FF00C0E5FF01C0E5FF02C0E5FF4D
:100C300003C0E5FF04C0E5FF05C0E5FF06C0E5FF12
:100C400007C0E5FF08C0E5FF09C0E5FF0AC0E5FFF2
:100C50000BC0E5FF0CC0E5FF0DC0E5FF0EC0E5FFD2
:100C60000FC0E5FF10C0E5FF11C0E5FF12C0E5FFB2
:100C700013C0E5FF14C0E5FF15C0E5FF16C0E5FF92
:100C800017C0E5FF18C0E5FF19C0E5FF020EDBCF76
:100C900000F0030EDBCF01F0040EDBCF02F0050EF7
:100CA000DBCF03F0060EDBCF04F0070EDBCF05F041
:100CB000080EDBCF06F0090EDBCF07F00A0EDBCF04
:100CC00008F0096A020E0A6E03C0E9FF04C0F3FFD0
:100CD0000550C6EC26F00B6E0B5002E1D4EF0AF083
:100CE0000C6A0B50250A02E0BBEF0AF00B6A0D6A92
:100CF000032A02E3044A052A03C0E9FF04C0F3FF04
:100D00000550C6EC26F00E6E0E50D8B4D4EF0AF0A3
:100D10000E50250A02E1BBEF0AF00E502D0A06E143
:100D2000032A02E3044A052A010E0B6E03C00EF0EB
:100D300004C00FF005C010F00EC0E9FF0FC0F3FFB4
:100D40001050C6EC26F0300A06E10E2A02E30F4AE4
:100D5000102A0B82F1D70EC0E9FF0FC0F3FF10502D
:100D6000C6EC26F0116E300E115C13E33A0E115CE6
:100D700010E20D500A0DF3CF0DF0D00E11260D50DC
:100D8000126E115012240D6E0E2A02E30F4A102A21
:100D9000E2D70EC003F00FC004F010C005F00EC083
:100DA000E9FF0FC0F3FF1050C6EC26F02E0A34E125
:100DB0000E50010F036E000E0F20046E000E102067
:100DC000056E0A6A03C00EF004C00FF005C010F0F3
:100DD0000EC0E9FF0FC0F3FF1050C6EC26F0116EF5
:100DE000300E115C13E33A0E115C10E20A500A0D4A
:100DF000F3CF0AF0D00E11260A50126E11501224B1
:100E00000A6E0E2A02E30F4A102AE2D70EC003F040
:100E10000FC004F010C005F003C0E9FF04C0F3FFE9
:100E20000550C6EC26F00E6E660A01E040D0065072
:100E3000040F0F6E000E0720106E000E0820116EBA
:100E40000FC006F010C007F011C008F0FC0E0F260E
:100E5000FF0E102211220FC0E9FF10C0F3FF115046
:100E600072EC25F00F6EF3CF10F0F4CF11F0E9CF54
:100E700012F00A50E56EE56A0B50E56E0D50E56E16
:100E80001250E56E1150E56E1050E56E0F50E56E94
:100E90000250E56E0150E56E0050E56E24EC0BF05B
:100EA0000F6E0B0EE1260F500926CEEF0AF00E5002
:100EB000730A01E045D00650030F0F6E000E0720A5
:100EC000106E000E0820116E0FC006F010C007F063
:100ED00011C008F0FD0E0F26FF0E102211220FC0C8
:100EE000E9FF10C0F3FF1150AEEC25F00F6EF3CF09
:100EF00010F0F4CF11F01010111006E1000E116E79
:100F0000330E106E040E0F6E0B50E56E0D50E56E35
:100F10001150E56E1050E56E0F50E56E0250E56E13
:100F20000150E56E0050E56E02EC15F00F6E080EF4
:100F3000E1260950106E0F501024096ECEEF0AF012
:100F40000E506C0A06E1032A02E3044A052A010E48
:100F50000C6E03C0E9FF04C0F3FF0550C6EC26F099
:100F60000E6E750A01E06CD00C5023E00650040FA1
:100F70000F6E000E0720106E000E0820116E0FC0BD
:100F800006F010C007F011C008F0FC0E0F26FF0E8F
:100F9000102211220FC0E9FF10C0F3FF115072ECB4
:100FA00025F00F6EF3CF10F0F4CF11F0E9CF12F06F
:100FB00024D00650020F136E000E0720146E000E90
:100FC0000820156E13C006F014C007F015C008F015
:100FD000FE0E1326FF0E1422152213C0E9FF14C0C3
:100FE000F3FF155053EC26F0136EF3CF14F013C03B
:100FF0000FF014C010F0116A126A610EE56EE56A16
:101000000B50E56E0D50E56EE56A0A0EE56E0C506C
:10101000E56E1250E56E1150E56E1050E56E0F5002
:10102000E56E0250E56E0150E56E0050E56EF9EC9C
:101030000DF0136E0E0EE12613500926CEEF0AF0C6
:101040000E50640A04E00E50690A01E075D00C509D
:1010500023E00650040F136E000E0720146E000EDE
:101060000820156E13C006F014C007F015C008F074
:10107000FC0E1326FF0E1422152213C0E9FF14C024
:10108000F3FF155072EC25F0136EF3CF14F0F4CF8C
:1010900015F0E9CF16F024D00650020F176E000E9F
:1010A0000720186E000E0820196E17C006F018C031
:1010B00007F019C008F0FE0E1726FF0E182219229D
:1010C00017C0E9FF18C0F3FF195053EC26F0176E54
:1010D000F3CF18F017C013F018C014F0156A166A91
:1010E00013C00FF014C010F015C011F016C012F0AC
:1010F000610EE56EE56A0B50E56E0D50E56E010E72
:10110000E56E0A0EE56E0C50E56E1250E56E11505C
:10111000E56E1050E56E0F50E56E0250E56E015021
:10112000E56E0050E56EF9EC0DF0136E0E0EE12643
:1011300013500926CEEF0AF00E50780A04E00E5044
:10114000700A01E073D00C5023E00650040F136EB8
:10115000000E0720146E000E0820156E13C006F056
:1011600014C007F015C008F0FC0E1326FF0E142261
:10117000152213C0E9FF14C0F3FF155072EC25F0DF
:10118000136EF3CF14F0F4CF15F0E9CF16F024D09E
:101190000650020F176E000E0720186E000E082072
:1011A000196E17C006F018C007F019C008F0FE0E3F
:1011B0001726FF0E1822192217C0E9FF18C0F3FFE7
:1011C000195053EC26F0176EF3CF18F017C013F038
:1011D00018C014F0156A166A13C00FF014C010F08E
:1011E00015C011F016C012F0610EE56EE56A0B50E5
:1011F000E56E0D50E56EE56A100EE56E0C50E56E7D
:101200001250E56E1150E56E1050E56E0F50E56E10
:101210000250E56E0150E56E0050E56EF9EC0DF000
:10122000136E0E0EE12613500926B8D10E50580A3F
:1012300004E00E50500A01E073D00C5023E0065039
:10124000040F136E000E0720146E000E0820156E9A
:1012500013C006F014C007F015C008F0FC0E1326EA
:10126000FF0E1422152213C0E9FF14C0F3FF15501E
:1012700072EC25F0136EF3CF14F0F4CF15F0E9CF34
:1012800016F024D00650020F176E000E0720186EBD
:10129000000E0820196E17C006F018C007F019C01C
:1012A00008F0FE0E1726FF0E1822192217C0E9FFBC
:1012B00018C0F3FF195053EC26F0176EF3CF18F057
:1012C00017C013F018C014F0156A166A13C00FF097
:1012D00014C010F015C011F016C012F0410EE56EEA
:1012E000E56A0B50E56E0D50E56EE56A100EE56E91
:1012F0000C50E56E1250E56E1150E56E1050E56E23
:101300000F50E56E0250E56E0150E56E0050E56E3F
:10131000F9EC0DF0136E0E0EE126135009263ED1A6
:101320000E50620A01E073D00C5023E00650040F07
:10133000136E000E0720146E000E0820156E13C0E9
:1013400006F014C007F015C008F0FC0E1326FF0EBF
:101350001422152213C0E9FF14C0F3FF155072ECDC
:1013600025F0136EF3CF14F0F4CF15F0E9CF16F09B
:1013700024D00650020F176E000E0720186E000EC4
:101380000820196E17C006F018C007F019C008F041
:10139000FE0E1726FF0E1822192217C0E9FF18C0EB
:1013A000F3FF195053EC26F0176EF3CF18F017C067
:1013B00013F018C014F0156A166A13C00FF014C0A9
:1013C00010F015C011F016C012F0610EE56EE56A5E
:1013D0000B50E56E0D50E56EE56A020EE56E0C50A1
:1013E000E56E1250E56E1150E56E1050E56E0F502F
:1013F000E56E0250E56E0150E56E0050E56EF9ECC9
:101400000DF0136E0E0EE12613500926C7D00E50B4
:101410006F0A01E073D00C5023E00650040F136EE6
:10142000000E0720146E000E0820156E13C006F083
:1014300014C007F015C008F0FC0E1326FF0E14228E
:10144000152213C0E9FF14C0F3FF155072EC25F00C
:10145000136EF3CF14F0F4CF15F0E9CF16F024D0CB
:101460000650020F176E000E0720186E000E08209F
:10147000196E17C006F018C007F019C008F0FE0E6C
:101480001726FF0E1822192217C0E9FF18C0F3FF14
:10149000195053EC26F0176EF3CF18F017C013F065
:1014A00018C014F0156A166A13C00FF014C010F0BB
:1014B00015C011F016C012F0610EE56EE56A0B5012
:1014C000E56E0D50E56EE56A080EE56E0C50E56EB2
:1014D0001250E56E1150E56E1050E56E0F50E56E3E
:1014E0000250E56E0150E56E0050E56EF9EC0DF02E
:1014F0000C6E0E0EE1260C50092650D00E50630AD9
:1015000001E04CD00650020F0C6E000E07200E6E4C
:10151000000E08200F6E0CC006F00EC007F00FC0C2
:1015200008F0FE0E0C26FF0E0E220F220CC0E9FF63
:101530000EC0F3FF0F5053EC26F006013F6F406BD7
:101540000B50E56E0D50E56E800EE56E060EE56EF5
:101550003F0EE56E0250E56E0150E56E0050E56EFF
:1015600002EC15F00B6E080EE12609500C6E0B50C4
:101570000C24096E13D003C0E9FF04C0F3FF05502B
:10158000C6EC26F0E56E0250E56E0150E56E0050A7
:10159000E56E81EC1CF0040EE126092A032A02E321
:1015A000044A052A64EF06F000500110021014E00E
:1015B00000C0E9FF01C0F3FF0250AEEC25F0006E61
:1015C000F3CF01F0F4CF02F0E56A00C0E9FF01C0FB
:1015D000F3FF02503CEC27F00950E4CF19F0E4CFC0
:1015E00018F0E4CF17F0E4CF16F0E4CF15F0E4CF15
:1015F00014F0E4CF13F0E4CF12F0E4CF11F0E4CF15
:1016000010F0E4CF0FF0E4CF0EF0E4CF0DF0E4CF14
:101610000CF0E4CF0BF0E4CF0AF0E4CF09F0E4CF14
:1016200008F0E4CF07F0E4CF06F0E4CF05F0E4CF14
:1016300004F0E4CF03F0E4CF02F0E4CF01F0E4CF14
:1016400000F0E4CFD9FF1200D9CFE5FFE1CFD9FFF9
:1016500000C0E5FF01C0E5FF02C0E5FF03C0E5FFF4
:1016600004C0E5FF05C0E5FF06C0E5FF07C0E5FFD4
:1016700008C0E5FF09C0E5FF0AC0E5FF0BC0E5FFB4
:101680000CC0E5FF0DC0E5FF0EC0E5FF0FC0E5FF94
:1016900010C0E5FF11C0E5FF12C0E5FF13C0E5FF74
:1016A00014C0E5FF15C0E5FF16C0E5FF17C0E5FF54
:1016B00018C0E5FF19C0E5FF1AC0E5FF1BC0E5FF34
:1016C0001CC0E5FF1DC0E5FF1EC0E5FF1FC0E5FF14
:1016D00020C0E5FF020EDBCF00F0030EDBCF01F0F0
:1016E000040EDBCF02F0050EDBCF03F0060EDBCFDE
:1016F00004F0070EDBCF05F0080EDBCF06F0090E75
:10170000DBCF07F00A0EDBCF08F00C0EDBCF09F0C1
:101710000A6A0B6A0C6A0D6A0E6A0F6A106A116A0D
:10172000040E136EDC0E126E800E146E040E166E16
:10173000E80E156E800E176E186A0B0E196E0350A8
:1017400006010D6F04500E6F05500F6F0650106F9D
:10175000D88010AFD89023E3075012E008A210D031
:101760002D0EE56E0250E56E0150E56E0050E56EFF
:1017700081EC1CF0040EE126010E186E07060FD056
:101780002D0EE56E12C0E9FF13C0F3FF14503CECC0
:1017900027F0122A02E3134A142A0A0E196E0601D0
:1017A0000F351035036E046A810E03260D51046E49
:1017B0000E51056E7F0E0F15066E1A6A068E0350C7
:1017C000800F610F04E20350800F970F1FE2690E34
:1017D0000401DC6F6E0EDD6F660EDE6FDF6B08508E
:1017E000E56E0750E56E800EE56E040EE56EDC0ECC
:1017F000E56E0250E56E0150E56E0050E56E02ECBC
:1018000015F01B6E080EE1261B50AED10350800F61
:10181000690F25E303C01BF01C6A03BE1C68E90EB8
:101820001B26D8A01C0604C00AF005C00BF006C099
:101830000CF01AC00DF01B5011E009E6E86CD890CE
:101840000A360B360C360D36010FFAE37CD0D890F1
:101850000D320C320B320A32010FFAE374D0D88009
:1018600003AED890D8B04AD003C01BF01C6A03BEA8
:101870001C681B5017081D6E000E1C5404C00AF093
:1018800005C00BF006C00CF01AC00DF01D5011E0A1
:1018900009E6E86CD8900D320C320B320A32010F97
:1018A000FAE307D0D8900A360B360C360D36010F06
:1018B000FAE31B4A1C2A04C01DF005C01EF006C036
:1018C0001FF01AC020F01B5011E009E6E86CD89018
:1018D0001D361E361F362036010FFAE307D0D8908A
:1018E00020321F321E321D32010FFAE31D500E6EE0
:1018F0001E500F6E1F50106E116A25D01A6A1B6A97
:1019000003BE1B68034A1B2A1B1E036CD8B41B2A88
:1019100004C00EF005C00FF006C010F01AC011F0A0
:10192000035011E009E6E86CD890113210320F3202
:101930000E32010FFAE307D0D8900E360F3610366C
:101940001136010FFAE30A500B100C100D100FE1C5
:10195000300EE56E12C0E9FF13C0F3FF14503CECEB
:1019600027F0122A02E3134A142A190678D015C068
:1019700003F016C004F017C005F0066A19C015F090
:101980000A500B100C100D10D8B43CD0E56AE56A73
:10199000E56A0A0EE56E0D50E56E0C50E56E0B50D3
:1019A000E56E0A50E56E69EC17F0166E080EE1263A
:1019B000300E162616C0E5FF03C0E9FF04C0F3FF92
:1019C00005503CEC27F0032A02E3044A052AE56AA5
:1019D000E56AE56A0A0EE56E0D50E56E0C50E56E9F
:1019E0000B50E56E0A50E56EEAEC1AF00A6EF3CF82
:1019F0000BF0F4CF0CF0E9CF0DF0080EE126062A2B
:101A00001506BED715C019F012C00AF013C00BF0AE
:101A100014C00CF006C00DF006060D501AE0FF0EC3
:101A200003260422052203C0E9FF04C0F3FF05508A
:101A3000C6EC26F00D6E0DC0E5FF0AC0E9FF0BC035
:101A4000F3FF0C503CEC27F00A2AE4E30B4A0C2A83
:101A5000E1D70AC012F00BC013F00CC014F0070E4F
:101A6000095C02E3060E096E0950195CD8A019C082
:101A700009F0010E095CD8A057D02E0EE56E12C0F9
:101A8000E9FF13C0F3FF14503CEC27F0122A02E3E5
:101A9000134A142A12C003F013C004F014C005F056
:101AA000066A0950065C3AE20E500E240A6E0F34A4
:101AB0000B6E10340C6E11340D6E0A500A260B3664
:101AC0000C360D360A500A260B360C360D360E50E3
:101AD0000E24156E0F34166E1034176E1134196EF5
:101AE00015500A240E6E16500B200F6E17500C2046
:101AF000106E19500D200A6E300E0A260AC0E5FF3E
:101B000003C0E9FF04C0F3FF05503CEC27F0032AB3
:101B100002E3044A052A116A062AC3D703C012F059
:101B200004C013F005C014F0E56A12C0E9FF13C049
:101B3000F3FF14503CEC27F00850E56E0750E56EBB
:101B4000800EE56E040EE56EDC0EE56E0250E56E6D
:101B50000150E56E0050E56E02EC15F0006E080EC7
:101B6000E126185000260050E4CF20F0E4CF1FF00B
:101B7000E4CF1EF0E4CF1DF0E4CF1CF0E4CF1BF067
:101B8000E4CF1AF0E4CF19F0E4CF18F0E4CF17F067
:101B9000E4CF16F0E4CF15F0E4CF14F0E4CF13F067
:101BA000E4CF12F0E4CF11F0E4CF10F0E4CF0FF067
:101BB000E4CF0EF0E4CF0DF0E4CF0CF0E4CF0BF067
:101BC000E4CF0AF0E4CF09F0E4CF08F0E4CF07F067
:101BD000E4CF06F0E4CF05F0E4CF04F0E4CF03F067
:101BE000E4CF02F0E4CF01F0E4CF00F0E4CFD9FF7E
:101BF0001200D9CFE5FFE1CFD9FF00C0E5FF01C05A
:101C0000E5FF02C0E5FF03C0E5FF04C0E5FF05C036
:101C1000E5FF06C0E5FF07C0E5FF08C0E5FF09C016
:101C2000E5FF0AC0E5FF0BC0E5FF0CC0E5FF0DC0F6
:101C3000E5FF0EC0E5FF0FC0E5FF10C0E5FF11C0D6
:101C4000E5FF12C0E5FF13C0E5FF14C0E5FF15C0B6
:101C5000E5FF16C0E5FF17C0E5FF18C0E5FF19C096
:101C6000E5FF1AC0E5FF1BC0E5FF020EDBCF00F069
:101C7000030EDBCF01F0040EDBCF02F0050EDBCF4D
:101C800003F0060EDBCF04F0070EDBCF05F0080EE5
:101C9000DBCF06F0090EDBCF07F00A0EDBCF08F032
:101CA0000B0EDBCF09F00C0EDBCF0AF00D0EDBCFF5
:101CB0000BF00F0EDBCF0CF00D6A0E6A03C00FF0B5
:101CC00004C010F005C011F006C012F0035004105B
:101CD000051006101BE1300E0401D06FD16B0B50C4
:101CE000E56E0A50E56E800EE56E040EE56ED00ED0
:101CF000E56E0250E56E0150E56E0050E56E02ECB7
:101D000015F0136E080EE1261350ECD0095036E0A2
:101D100008500A0A33E107501CE00350096E0450D2
:101D2000136E0550146E0650156ED88015AED890FF
:101D300010E3010E0D6E151C126E141C116E131C97
:101D4000106E091C0F6E0F2A04E1102A02E1114ADD
:101D5000122A075013E1D88004AED8900FE3010E89
:101D60000D6E041E036CD8B4042A03C00FF004C027
:101D700010F0E86A04BEFF0E116E126E040E046EBF
:101D8000DB0E036E800E056EE56A03C0E9FF04C03A
:101D9000F3FF3CEC27F003C006F004C007F005C0D9
:101DA00009F00F50101011101210D8B45AD008C0FA
:101DB00013F0146A156A166AE56AE56AE56A135053
:101DC000E56E1250E56E1150E56E1050E56E0F5045
:101DD000E56E69EC17F0176EF3CF18F0F4CF19F039
:101DE000E9CF1AF0080EE126000E1A5C08E1000E99
:101DF000195C05E1000E185C02E10A0E175C06E3AF
:101E00000CC01BF0C60E1B261B501726FF0E062605
:101E100007220922300E172617C0E5FF06C0E9FF8A
:101E200007C0F3FF09503CEC27F01650E56E155043
:101E3000E56E1450E56E1350E56E1250E56E1150CC
:101E4000E56E1050E56E0F50E56EEAEC1AF00F6E7D
:101E5000F3CF10F0F4CF11F0E9CF12F0080EE12625
:101E6000A0D706C003F007C004F009C005F00D506C
:101E700021E00A5012E00BA210D02D0EE56E0250A8
:101E8000E56E0150E56E0050E56E81EC1CF0040E2D
:101E9000E126010E0E6E0A060DD0FF0E0326042267
:101EA00005222D0EE56E03C0E9FF04C0F3FF0550C7
:101EB0003CEC27F00B50E56E0A50E56E0550E56EE0
:101EC0000450E56E0350E56E0250E56E0150E56E7C
:101ED0000050E56E02EC15F0006E080EE1260E5083
:101EE00000260050E4CF1BF0E4CF1AF0E4CF19F045
:101EF000E4CF18F0E4CF17F0E4CF16F0E4CF15F0FC
:101F0000E4CF14F0E4CF13F0E4CF12F0E4CF11F0FB
:101F1000E4CF10F0E4CF0FF0E4CF0EF0E4CF0DF0FB
:101F2000E4CF0CF0E4CF0BF0E4CF0AF0E4CF09F0FB
:101F3000E4CF08F0E4CF07F0E4CF06F0E4CF05F0FB
:101F4000E4CF04F0E4CF03F0E4CF02F0E4CF01F0FB
:101F5000E4CF00F0E4CFD9FF1200D9CFE5FFE1CF05
:101F6000D9FF00C0E5FF01C0E5FF02C0E5FF020E9A
:101F7000D924006E000EDA20016E800E026E030E70
:101F80000026000E0122022200C0E9FF01C0F3FF7B
:101F9000025072EC25F0006E010A01E19AD0005067
:101FA000020A01E1F0D00050080A01E1BFD0005060
:101FB0000A0A35E00050100A01E15ED00050200A04
:101FC00001E00ED107C0E5FF08C0E5FF09C0E5FF4D
:101FD000020EDBCF07F0030EDBCF08F0040EDBCFE1
:101FE00009F007C000F008C001F009C002F0E4CF1A
:101FF00009F0E4CF08F0E4CF07F0E56A0250E56E9F
:102000000150E56E0050E56E000EE56E330EE56E94
:102010000C0EE56EA3EC22F0070EE12615D107C0E9
:10202000E5FF08C0E5FF09C0E5FF020EDBCF07F0C2
:10203000030EDBCF08F0040EDBCF09F007C000F081
:1020400008C001F009C002F0E4CF09F0E4CF08F0C5
:10205000E4CF07F0E56A0250E56E0150E56E0050EE
:10206000E56E000EE56E330EE56E100EE56EA3EC28
:1020700022F0070EE126E8D007C0E5FF08C0E5FF23
:1020800009C0E5FF020EDBCF07F0030EDBCF08F03F
:10209000040EDBCF09F007C000F008C001F009C052
:1020A00002F0E4CF09F0E4CF08F0E4CF07F0E56AEE
:1020B0000250E56E0150E56E0050E56E000EE56ED3
:1020C000330EE56E140EE56EA3EC22F0070EE1264A
:1020D000BBD007C0E5FF08C0E5FF09C0E5FF020E61
:1020E000DBCF07F0030EDBCF08F0040EDBCF09F0E7
:1020F00007C000F008C001F009C002F0E4CF09F009
:10210000E4CF08F0E4CF07F0E56A0250E56E015035
:10211000E56E0050E56E000EE56E330EE56E100EB6
:10212000E56EA3EC22F0070EE1268ED007C0E5FF96
:1021300008C0E5FF09C0E5FF020EDBCF07F0030E84
:10214000DBCF08F0040EDBCF09F007C000F008C0B9
:1021500001F009C002F0E4CF09F0E4CF08F0E4CFC9
:1021600007F0E56A0250E56E0150E56E0050E56E3D
:10217000000EE56E330EE56E180EE56EA3EC22F050
:10218000070EE12661D007C0E5FF08C0E5FF09C0E2
:10219000E5FF020EDBCF07F0030EDBCF08F0040EE5
:1021A000DBCF09F007C000F008C001F009C002F061
:1021B000E4CF09F0E4CF08F0E4CF07F0E56A02507D
:1021C000E56E0150E56E0050E56E000EE56E330ED3
:1021D000E56E1C0EE56EA3EC22F0070EE12634D06E
:1021E00007C0E5FF08C0E5FF09C0E5FF020EDBCF31
:1021F00007F0030EDBCF08F0040EDBCF09F0E4CFCD
:1022000009F0E4CF08F0E4CF07F007C0E5FF08C00D
:10221000E5FF09C0E5FF020EDBCF07F0030EDBCFC1
:1022200008F0040EDBCF09F00950E56E0850E56EAA
:102230000750E56EE4CF09F0E4CF08F0E4CF07F0F3
:10224000A3EC22F0030EE126E4CF02F0E4CF01F08C
:10225000E4CF00F0E4CFD9FF1200D9CFE5FFE1CF02
:10226000D9FF00C0E5FF01C0E5FF02C0E5FF03C0E4
:10227000E5FF04C0E5FF05C0E5FF06C0E5FF07C0B8
:10228000E5FF020EDBCF00F0030EDBCF01F0040E02
:10229000DBCF02F0050EDBCF03F0060EDBCF04F040
:1022A000070EDBCF05F0080EDBCF06F0090EDBCF03
:1022B00007F0005006011D6F01501E6F02501F6F86
:1022C0000350206F04500601216F0550226F065005
:1022D000236F0750246F06011D5106012303F4CF1D
:1022E00001F0F3CF00F000500601276F0150286F76
:1022F00006011D5106012103F4CF01F0F3CF00F0D8
:1023000000500601256F0150266F0601205106017D
:102310002103F3CF00F00601285100260050286F5A
:1023200006011F5106012203F3CF00F006012851D8
:1023300000260050286F06011F5106012103F4CF2B
:1023400001F0F3CF00F006012751002628510122A9
:102350000050276F0150286F06011E51060122030D
:10236000F4CF01F0F3CF00F00601275100262851E9
:1023700001220050276F0150286F06011E510601EF
:102380002303F3CF00F0005006012C6F06011E510D
:1023900006012103F4CF01F0F3CF00F00050060155
:1023A0002A6F01502B6F06011D5106012403F3CF44
:1023B00000F000500601306F06011D510601220396
:1023C000F4CF01F0F3CF00F0005006012E6F015062
:1023D0002F6F0601296B06012D6B0601295106019D
:1023E0002525006E06012A5106012621016E0601EF
:1023F0002B5106012721026E06012C5106012821CE
:10240000036E0050256F0150266F0250276F035056
:10241000286F06012D5106012525006E06012E515B
:1024200006012621016E06012F5106012721026EA9
:102430000601305106012821036E03C0E9FF02C0E6
:10244000F4FF01C0F3FF0050E4CF07F0E4CF06F043
:10245000E4CF05F0E4CF04F0E4CF03F0E4CF02F0E2
:10246000E4CF01F0E4CF00F0E4CFD9FF120000C0C8
:10247000E5FF01C0E5FF02C0E5FF03C0E5FF04C0C2
:10248000E5FF05C0E5FFD350030B006EFA6AFB6A57
:102490000034FA36E834FA36FC0BAA0FE56E240E47
:1024A000FA22000EFB22E450F96E5DEF12F0EEEF1F
:1024B00012F0F4EF12F0F4EF12F0E56A300EE56E70
:1024C000000EE56AE56A79EC1FF0006E040EE12665
:1024D000180E0016016AD89001320032D8900132ED
:1024E0000032D890013200322C0E0024016E026AB4
:1024F000330E0222036A000E032201C0F6FF02C05F
:10250000F7FF03C0F8FF0900F5CF01F0E56A300ED0
:10251000E56EE56A010EE56E79EC1FF0026E040EC1
:10252000E1260F0E0216280E0024036E046A330EF5
:102530000422056A000E052203C0F6FF04C0F7FF5F
:1025400005C0F8FF0900F5CF00F0D8900232025024
:1025500006E00250020A03E00250060A1FE1E56AA3
:10256000E56AE56A0150E56EE56A7A0EE56E120EDF
:10257000E56E000EE56AD4EC15F0016EF3CF02F0C3
:10258000F4CF03F0E9CF04F0080EE12604C0E9FF20
:1025900003C0F4FF02C0F3FF015055D0E56AE56ABD
:1025A000E56A0050E56E050EE56EB80EE56ED80ED4
:1025B000E56E000EE56AEAEC1AF0006EF3CF01F06A
:1025C000F4CF02F0E9CF03F0080EE12603C0E9FFE3
:1025D00002C0F4FF01C0F3FF005035D0E96AF46A8D
:1025E000800EF36EE86A2FD0D350E838070BE56A07
:1025F000E56EE56A040EE56EC3EC21F0006EF3CFE4
:1026000001F0040EE126026A300E0026330E01228C
:10261000000E022200C0F6FF01C0F7FF02C0F8FF63
:102620000900F5CF00F00900F5CF01F00900F5CF62
:1026300002F00900F5CF03F003C0E9FF02C0F4FF88
:1026400001C0F3FF0050E4CF05F0E4CF04F0E4CF85
:1026500003F0E4CF02F0E4CF01F0E4CF00F0120089
:10266000D9CFE5FFE1CFD9FF00C0E5FF01C0E5FF0D
:1026700002C0E5FF03C0E5FF04C0E5FF05C0E5FFBC
:1026800006C0E5FF07C0E5FF08C0E5FF09C0E5FF9C
:102690000AC0E5FF0BC0E5FF0CC0E5FF0DC0E5FF7C
:1026A0000EC0E5FF0FC0E5FF10C0E5FF11C0E5FF5C
:1026B00012C0E5FF13C0E5FF020EDBCF00F0030EF2
:1026C000DBCF01F0040EDBCF02F0050EDBCF03F011
:1026D000060EDBCF04F0070EDBCF05F0080EDBCFD4
:1026E00006F0090EDBCF07F00A0EDBCF08F00B0E69
:1026F000DBCF09F00C0EDBCF0AF00D0EDBCF0BF0B9
:102700000E0EDBCF0CF00F0EDBCF0DF0100EDBCF7B
:102710000EF0110EDBCF0FF0120EDBCF10F0130E08
:10272000DBCF11F0140EDBCF12F0150EDBCF13F060
:102730000450005E0550015A0650025A0750035AD1
:102740000C50105E0D50115A0E50125A0F50135A61
:102750001350E56E1250E56E1150E56E1050E56EA7
:102760000350E56E0250E56E0150E56E0050E56ED7
:102770002DEC11F0006EF3CF01F0F4CF02F0E9CFB1
:1027800003F0080EE1260450085C046E0550095859
:10279000056E06500A58066E07500B58E56E065037
:1027A000E56E0550E56E0450E56E0350E56E02508F
:1027B000E56E0150E56E0050E56ED4EC15F0006E4C
:1027C000F3CF01F0F4CF02F0E9CF03F0080EE126D9
:1027D00000500C2601500D2202500E2203500F22F1
:1027E0000FC0E9FF0EC0F4FF0DC0F3FF0C50E4CFA3
:1027F00013F0E4CF12F0E4CF11F0E4CF10F0E4CF07
:102800000FF0E4CF0EF0E4CF0DF0E4CF0CF0E4CF06
:102810000BF0E4CF0AF0E4CF09F0E4CF08F0E4CF06
:1028200007F0E4CF06F0E4CF05F0E4CF04F0E4CF06
:1028300003F0E4CF02F0E4CF01F0E4CF00F0E4CF06
:10284000D9FF1200D9CFE5FFE1CFD9FF00C0E5FFE6
:1028500001C0E5FF02C0E5FF03C0E5FF04C0E5FFDE
:1028600005C0E5FF06C0E5FF07C0E5FF08C0E5FFBE
:10287000020EDBCF00F0000E06013E5D02E1400ECD
:102880003D5D05E23DC601F03EC602F003D0400EBC
:10289000016E026A0044FE0B036E0328040DF4501F
:1028A000036EF3CF00F0000E0024046E040E03202C
:1028B000056E000E0024066E040E0320076E06C08F
:1028C000E9FF07C0EAFFEFCF06F0FC0E061604C0D2
:1028D000E9FF05C0EAFF06C0EFFF000E0024046E0A
:1028E000040E0320056E000E0024066E040E032065
:1028F000076E06C0E9FF07C0EAFFEFCF06F0030E40
:102900000214061204C0E9FF05C0EAFF06C0EFFF8B
:10291000000E0024046E040E0320056E044A052AEE
:102920000150066E04C0E9FF05C0EAFF06C0EFFFD4
:10293000000E0026040E0322020E0026D8B0032A41
:10294000400E046E050E056E00C0E9FF03C0EAFFED
:1029500004C0EEFF05C0EFFF015006013D5F0250CD
:102960003E5B050E0601386F400E376F800E396FE3
:10297000006A00C003F0046A0250045C02E10150E6
:10298000035C2BE237C603F038C604F039C605F005
:1029900034C606F035C607F036C608F006C0E9FFB3
:1029A00007C0F3FF0850C6EC26F0066E0601342B74
:1029B00003E3353F01D0362B06C0E5FF03C0E9FF36
:1029C00004C0F3FF05503CEC27F00601372B03E36E
:1029D000383F01D0392B002ACCD7E4CF08F0E4CF20
:1029E00007F0E4CF06F0E4CF05F0E4CF04F0E4CF45
:1029F00003F0E4CF02F0E4CF01F0E4CF00F0E4CF45
:102A0000D9FF1200D9CFE5FFE1CFD9FF00C0E5FF24
:102A100001C0E5FF02C0E5FF03C0E5FF04C0E5FF1C
:102A200005C0E5FF06C0E5FF07C0E5FF08C0E5FFFC
:102A300009C0E5FF0AC0E5FF0BC0E5FF0CC0E5FFDC
:102A40000DC0E5FF0EC0E5FF020EDBCF00F0030E68
:102A5000DBCF01F0040EDBCF02F0050EDBCF03F07D
:102A6000060EDBCF04F0070EDBCF05F0080EDBCF40
:102A700006F0090EDBCF07F0086A200E096E06503B
:102A800022E00A6A03C00BF004C00CF005C00DF090
:102A90000BC0E9FF0CC0F3FF0D50C6EC26F00E6E24
:102AA0000E5006E00A2A0B2AF3E30C4A0D2AF0D74F
:102AB00006500A5C02E3066A02D00A50065E07A2CC
:102AC00002D0300E096E07B019D0076A06C00AF0AE
:102AD0000A5005E107C008F00AC006F00FD00950FF
:102AE000E56E0250E56E0150E56E0050E56E81EC3A
:102AF0001CF0040EE126072A0A06EAD708C007F0F0
:102B000003C0E9FF04C0F3FF0550C6EC26F0086ED1
:102B1000085012E00850E56E0250E56E0150E56E77
:102B20000050E56E81EC1CF0040EE126072A032A12
:102B3000E7E3044A052AE4D707C003F006C004F01F
:102B400004500FE00950E56E0250E56E0150E56E4D
:102B50000050E56E81EC1CF0040EE126032A040609
:102B6000EFD7F36A0350E4CF0EF0E4CF0DF0E4CFDB
:102B70000CF0E4CF0BF0E4CF0AF0E4CF09F0E4CF9F
:102B800008F0E4CF07F0E4CF06F0E4CF05F0E4CF9F
:102B900004F0E4CF03F0E4CF02F0E4CF01F0E4CF9F
:102BA00000F0E4CFD9FF1200D9CFE5FFE1CFD9FF84
:102BB00000C0E5FF01C0E5FF02C0E5FF03C0E5FF7F
:102BC00004C0E5FF05C0E5FF06C0E5FF07C0E5FF5F
:102BD00008C0E5FF09C0E5FF0AC0E5FF0BC0E5FF3F
:102BE0000CC0E5FF0DC0E5FF020EDBCF00F0030EC9
:102BF000DBCF01F0040EDBCF02F0050EDBCF03F0DC
:102C0000060EDBCF04F0070EDBCF05F0080EDBCF9E
:102C100006F0090EDBCF07F0D88003AED890086A23
:102C2000083608500FE0031C0C6E021C0B6E011CD2
:102C30000A6E001C096E092A0DE10A2A0BE10B4AF3
:102C40000C2A08D000C009F001C00AF002C00BF045
:102C500003C00CF0D88007AED890006A0036005050
:102C60000FE0071C0D6E061C036E051C026E041C93
:102C7000016E012A0DE1022A0BE1034A0D2A08D058
:102C800004C001F005C002F006C003F007C00DF05B
:102C90000D50E56E0350E56E0250E56E0150E56E95
:102CA0000C50E56E0B50E56E0A50E56E0950E56E6E
:102CB000EAEC1AF0016EF3CF02F0F4CF03F0E9CFA3
:102CC00004F0080EE1260050081A085016E0041C13
:102CD000076E031C066E021C056E011C006E002AA6
:102CE00004E1052A02E1064A072A07C0E9FF06C0F7
:102CF000F4FF05C0F3FF005007D004C0E9FF03C094
:102D0000F4FF02C0F3FF0150E4CF0DF0E4CF0CF06C
:102D1000E4CF0BF0E4CF0AF0E4CF09F0E4CF08F001
:102D2000E4CF07F0E4CF06F0E4CF05F0E4CF04F001
:102D3000E4CF03F0E4CF02F0E4CF01F0E4CF00F001
:102D4000E4CFD9FF1200D9CFE5FFE1CFD9FF00C012
:102D5000E5FF01C0E5FF02C0E5FF03C0E5FF04C0D9
:102D6000E5FF05C0E5FF06C0E5FF07C0E5FF08C0B9
:102D7000E5FF09C0E5FF0AC0E5FF0BC0E5FF0CC099
:102D8000E5FF020EDBCF00F0030EDBCF01F0040EF7
:102D9000DBCF02F0050EDBCF03F0060EDBCF04F035
:102DA000070EDBCF05F0080EDBCF06F0090EDBCFF8
:102DB00007F0D88003AED890086A083608500FE0B4
:102DC000031C0C6E021C0B6E011C0A6E001C096EAB
:102DD000092A0DE10A2A0BE10B4A0C2A08D000C08F
:102DE00009F001C00AF002C00BF003C00CF0D8805B
:102DF00007AED8900FE3071C036E061C026E051C7D
:102E0000016E041C006E002A0DE1012A0BE1024A4A
:102E1000032A08D004C000F005C001F006C002F08B
:102E200007C003F00350E56E0250E56E0150E56EF9
:102E30000050E56E0C50E56E0B50E56E0A50E56EE5
:102E40000950E56E69EC17F0006EF3CF01F0F4CF96
:102E500002F0E9CF03F0080EE126085016E0031C4B
:102E6000076E021C066E011C056E001C046E042A0F
:102E700004E1052A02E1064A072A07C0E9FF06C065
:102E8000F4FF05C0F3FF045007D003C0E9FF02C000
:102E9000F4FF01C0F3FF0050E4CF0CF0E4CF0BF0DF
:102EA000E4CF0AF0E4CF09F0E4CF08F0E4CF07F074
:102EB000E4CF06F0E4CF05F0E4CF04F0E4CF03F074
:102EC000E4CF02F0E4CF01F0E4CF00F0E4CFD9FF8B
:102ED0001200D9CFE5FFE1CFD9FF00C0E5FF01C067
:102EE000E5FF02C0E5FF03C0E5FF04C0E5FF05C044
:102EF000E5FF06C0E5FF07C0E5FF08C0E5FF09C024
:102F0000E5FF0AC0E5FF020EDBCF00F0030EDBCFCA
:102F100001F0040EDBCF02F0050EDBCF03F0060E4E
:102F2000DBCF04F0070EDBCF05F0080EDBCF06F099
:102F3000090EDBCF07F0086A0450051006100710D1
:102F400005E1E968F468F368E86847D0096A075062
:102F5000800BE8440A6E0A501BE104500426053633
:102F6000063607360750035C08E10650025C05E1AF
:102F70000550015C02E10450005C06E2D890073283
:102F800006320532043204D0092A09C008F0DFD71E
:102F90000750035C08E10650025C05E10550015C46
:102FA00002E10450005C08E30450005E0550015A41
:102FB0000650025A0750035AD8900732063205329B
:102FC000043208C009F008060950E2E103C0E9FF35
:102FD00002C0F4FF01C0F3FF0050E4CF0AF0E4CFD9
:102FE00009F0E4CF08F0E4CF07F0E4CF06F0E4CF37
:102FF00005F0E4CF04F0E4CF03F0E4CF02F0E4CF37
:1030000001F0E4CF00F0E4CFD9FF1200D9CFE5FF03
:10301000E1CFD9FF00C0E5FF01C0E5FF02C0E5FF39
:1030200003C0E5FF04C0E5FF05C0E5FF06C0E5FFFE
:1030300007C0E5FF08C0E5FF09C0E5FF020EDBCFD2
:1030400000F00044FE0B040DF450026EF3CF00F0CC
:10305000000E0024016E040E0220036E01C0E9FF81
:1030600003C0EAFFEFCF01F0030E01160150056E19
:10307000046A000E0026040E0222004A022A00C042
:10308000E9FF02C0EAFFEFCF00F0016A045000122E
:1030900005500112005006013D2701503E23050E48
:1030A0000601356F400E346F800E366F026A036A78
:1030B0000150035C02E10050025C2CE237C604F0D0
:1030C00038C605F039C606F034C607F035C608F034
:1030D00036C609F007C0E9FF08C0F3FF0950C6EC87
:1030E00026F0076E0601342B03E3353F01D0362B63
:1030F00007C0E5FF04C0E9FF05C0F3FF06503CEC44
:1031000027F00601372B03E3383F01D0392B024A61
:10311000032ACED7E4CF09F0E4CF08F0E4CF07F0DC
:10312000E4CF06F0E4CF05F0E4CF04F0E4CF03F001
:10313000E4CF02F0E4CF01F0E4CF00F0E4CFD9FF18
:10314000120000C0E5FF01C0E5FF02C0E5FF03C0BB
:10315000E5FF04C0E5FF05C0E5FF1F0E05010015F2
:10316000006E02C501F0005012E10150010A01E0B9
:1031700076D0010E06014C6F05010151030A04E1EE
:10318000010E06014E6F6BD006014E6B68D00050E9
:10319000020A01E064D00F0E05010415006E800ED6
:1031A0000415026E0150D8A45AD00050D8B457D09C
:1031B000010E06014C6F040E036E000E016E800EB0
:1031C000046E0050080DF450056EF3CF00F000506F
:1031D00001240601376F05500320386FE86A05BEE9
:1031E000E8680420396F025005E0040E3727000E0E
:1031F0003823392305010151030A10E137C600F0D5
:1032000038C601F039C603F0840EE56E00C0E9FF50
:1032100001C0F3FF03503CEC27F021D00250010A1B
:103220000FE137C600F038C601F039C602F0E56A92
:1032300000C0E9FF01C0F3FF02503CEC27F00FD0C3
:1032400037C600F038C601F039C602F0880EE56EC8
:1032500000C0E9FF01C0F3FF02503CEC27F0E4CFCF
:1032600005F0E4CF04F0E4CF03F0E4CF02F0E4CFC4
:1032700001F0E4CF00F01200120100020200004051
:10328000D804ABFE00000102000109024300020164
:1032900000C014090400000102020100052400100E
:1032A0000104240200052406000105240100010791
:1032B00005820310000209040100020A0000000751
:1032C00005030240000007058302400000000403DC
:1032D000090416034A00500020004D0041004E0032
:1032E00044004F004E0020001203500069006E00A1
:1032F0006700750069006E006F00CE3200D23200A8
:10330000E8320000286E756C6C290000256600000C
:103310002564000025780000256F0000256200006C
:103320000A0D0000256300000203040601020304E5
:10333000127A000048E8010090D0030020A10700A5
:1033400040420F0080841E0000093D0000127A00F8
:1033500072616E646F6D3D25640D0A00E806E56ECE
:10336000630EC1EC19F0E4500BE000D0E56E630E83
:10337000C1EC19F000D000D00000E450E82EF6D7E0
:103380001200E8060000E85007E000D000D000D0AE
:1033900000D00000E82EFAD71200D9CFE5FFE1CF28
:1033A000D9FF00C0E5FF01C0E5FF02C0E5FF03C093
:1033B000E5FF04C0E5FF05C0E5FF06C0E5FF07C067
:1033C000E5FF08C0E5FF09C0E5FF020EDBCF00F016
:1033D000030EDBCF01F0040EDBCF02F0036A06011F
:1033E0004F51050A02E0E86A50D00601085102E197
:1033F000E86A4BD0040118BF47D0400E195DD8A031
:1034000019C4E8FF046A04011951045C20E2045065
:103410000024056EE86A0120066EE86A0220076E45
:10342000800E0424086E096A050E092208C0E9FF0F
:1034300009C0EAFFEFCF08F008C0E5FF05C0E9FFCB
:1034400006C0F3FF07503CEC27F0042ADCD704C089
:1034500003F0400E04011815186F006A18BD002A09
:103460000050D880E866D890006A00360050010B02
:10347000E840E840F46E1851BF0BF410186F400E8E
:10348000196F880E1811186F0350E4CF09F0E4CFBC
:1034900008F0E4CF07F0E4CF06F0E4CF05F0E4CF86
:1034A00004F0E4CF03F0E4CF02F0E4CF01F0E4CF86
:1034B00000F0E4CFD9FF1200D9CFE5FFE1CFD9FF6B
:1034C00000C0E5FF01C0E5FF02C0E5FF03C0E5FF66
:1034D00004C0E5FF05C0E5FF06C0E5FF07C0E5FF46
:1034E00008C0E5FF09C0E5FF020EDBCF00F0030EC8
:1034F000DBCF01F0040EDBCF02F0050EDBCF03F0D3
:10350000046A06014F51050A02E0E86A4CD0060140
:10351000085102E1E86A47D004011CBF43D0410EC4
:10352000035C02E3400E036E056A0350055C1DE276
:10353000C00E0524066E076A050E072205500024FA
:10354000086EE86A0120096EE86A022008C0E9FFF7
:1035500009C0F3FFC6EC26F0086E06C0E9FF07C0FD
:10356000EAFF08C0EFFF052AE0D705C004F00550C8
:1035700004011D6F400E1C151C6F006A1CBD002A43
:103580000050D880E866D890006A00360050010BE1
:10359000E840E840F46E1C51BF0BF4101C6F880E1D
:1035A0001C111C6F0450E4CF09F0E4CF08F0E4CF05
:1035B00007F0E4CF06F0E4CF05F0E4CF04F0E4CF69
:1035C00003F0E4CF02F0E4CF01F0E4CF00F0E4CF69
:1035D000D9FF1200D9CFE5FFE1CFD9FF00C0E5FF49
:1035E00001C0E5FF02C0E5FF03C0E5FF04C0E5FF41
:1035F00005C0E5FF06C0E5FF07C0E5FF08C0E5FF21
:1036000009C0E5FF0AC0E5FF0BC0E5FF0CC0E5FF00
:103610000DC0E5FF020EDBCF00F0030EDBCF01F0A3
:10362000040EDBCF02F0050EDBCF03F0060EDBCF7E
:1036300004F0070EDBCF05F0080EDBCF06F0090E15
:10364000DBCF07F0086A096A0A6A0B6A200E0C6E63
:103650000350800BE8440D6E005000260136023600
:1036600003360850082609360A360B360D50D8A402
:10367000088007500B5C08E106500A5C05E1055024
:10368000095C02E10450085C09E30450085E05503F
:10369000095A06500A5A07500B5A00800C2ED8D7E8
:1036A00003C0E9FF02C0F4FF01C0F3FF0050E4CF04
:1036B0000DF0E4CF0CF0E4CF0BF0E4CF0AF0E4CF50
:1036C00009F0E4CF08F0E4CF07F0E4CF06F0E4CF50
:1036D00005F0E4CF04F0E4CF03F0E4CF02F0E4CF50
:1036E00001F0E4CF00F0E4CFD9FF120000C0E5FF05
:1036F00001C0E5FF02C0E5FF03C0E5FF04C0E5FF30
:1037000005C0E5FF1F0E05010015006E0501406BA9
:10371000416B005013E1010E06014C6F06014D5143
:1037200004E0010E05014011406F06014E51D8B46E
:103730004CD0020E05014011406F47D00050010AE5
:1037400004E1010E06014C6F40D00050020A01E076
:103750003CD00F0E05010415006E800E0415016E9D
:10376000010E06014C6F040E036E000E026E800EF9
:10377000046E0050080DF450056EF3CF00F00050B9
:1037800002240601376F05500320386FE86A05BE32
:10379000E8680420396F015005E0040E3727000E59
:1037A0003823392337C600F038C601F039C602F095
:1037B00000C0E9FF01C0F3FF0250C6EC26F0006E26
:1037C00000A403D0010E0501406F06014C510BE02F
:1037D000050E0601356F400E346F800E366F020EF7
:1037E00006013D6F3E6BE4CF05F0E4CF04F0E4CF7B
:1037F00003F0E4CF02F0E4CF01F0E4CF00F01200D8
:1038000000C0E5FF01C0E5FF02C0E5FF03C0E5FF22
:1038100005010051800A01E06BD003C500F002C52C
:1038200001F00050010A0FE1010E06014C6F000E7D
:103830000601366F320E356F780E346F120E0601A8
:103840003D6F3E6B55D00050020A17E1010E060194
:103850004C6F000E0601366F320E356F8A0E346FD4
:103860008C0EF66E320EF76E000EF86E0900F5CF74
:103870003DF60900F5CF3EF63BD00050030A32E199
:10388000010E06014C6F0150030DF450026EF3CF90
:1038900001F0036AFA0E0126320E0222000E032204
:1038A00001C0F6FF02C0F7FF03C0F8FF0900F5CF23
:1038B00034F60900F5CF35F60900F5CF36F634C6F3
:1038C00001F035C602F036C603F001C0E9FF02C0C0
:1038D000F3FF0350C6EC26F0016E01C03DF6060171
:1038E0003E6B06D00050060A03E1010E06014C6F44
:1038F000E4CF03F0E4CF02F0E4CF01F0E4CF00F036
:103900001200D9CFE5FFE1CFD9FF00C0E5FF01C02C
:10391000E5FF02C0E5FF03C0E5FF04C0E5FF05C009
:10392000E5FF06C0E5FF020EDBCF00F0030EDBCFA4
:1039300001F0040EDBCF02F0050EDBCF03F00050E8
:103940000110021033E000C0E9FF01C0F3FF025094
:10395000AEEC25F0046EF3CF05F0F4CF06F003C013
:10396000E5FF04C0E9FF05C0F3FF06503CEC27F07B
:1039700000C0E9FF01C0F3FF0250AEEC25F0046E79
:10398000F3CF05F0F4CF06F0042A02E3054A062A35
:1039900004C0E5FF05C0F4FF06C0F6FF00C0E9FF64
:1039A00001C0F3FF025006EC27F016D00350E56E7D
:1039B000F2CFE5FFF29E0500D60EFD6E390EFE6ECB
:1039C000000EFF6EE4BEF28E33C6FBFF32C6FAFF76
:1039D00006013151F96EE652E4CF06F0E4CF05F06E
:1039E000E4CF04F0E4CF03F0E4CF02F0E4CF01F041
:1039F000E4CF00F0E4CFD9FF1200D9CFE5FFE1CF4B
:103A0000D9FF00C0E5FF01C0E5FF02C0E5FF03C02C
:103A1000E5FF04C0E5FF05C0E5FF06C0E5FF020EB7
:103A2000DBCF00F0030EDBCF01F0040EDBCF02F0A2
:103A300000C0E9FF01C0F3FF025072EC25F0036EF5
:103A4000F3CF04F0F4CF05F0E9CF06F00650E56EB1
:103A50000550E56E0450E56E0350E56E410EE56ECF
:103A6000C60EE56E4E0EE56E6D0EE56E2DEC11F098
:103A7000036EF3CF04F0F4CF05F0E9CF06F0080EA3
:103A8000E126390E0326300E0422000E05220622FE
:103A900003C0E5FF04C0F4FF05C0F6FF06C0F7FF52
:103AA00000C0E9FF01C0F3FF0250B5EC26F0069E0E
:103AB00006C0E9FF05C0F4FF04C0F3FF0350E4CFE4
:103AC00006F0E4CF05F0E4CF04F0E4CF03F0E4CF58
:103AD00002F0E4CF01F0E4CF00F0E4CFD9FF120010
:103AE000D9CFE5FFE1CFD9FF00C0E5FF01C0E5FF79
:103AF00002C0E5FF03C0E5FF04C0E5FF05C0E5FF28
:103B000006C0E5FF020EDBCF00F0030EDBCF01F0B5
:103B1000040EDBCF02F000C0E9FF01C0F3FF02504A
:103B200072EC25F00601196FF3CF1AF6F4CF1BF6ED
:103B3000E9CF1CF6800EE56E060EE56E190EE56EF9
:103B4000FDEC1CF0036EF3CF04F0F4CF05F0E9CFE9
:103B500006F0030EE12603C0E5FF04C0F4FF05C034
:103B6000F6FF06C0F7FF00C0E9FF01C0F3FF0250F7
:103B7000B5EC26F000C0E9FF01C0F3FF025072EC83
:103B800025F0F3CF01F0F4CF02F0E9CF03F003C04A
:103B9000E9FF02C0F4FF01C0F3FFE4CF06F0E4CF79
:103BA00005F0E4CF04F0E4CF03F0E4CF02F0E4CF7B
:103BB00001F0E4CF00F0E4CFD9FF120000C0E5FF30
:103BC00001C500F005010051600BD8A461D0005080
:103BD000050A09E1010E06014C6F040E06014F6F44
:103BE00002C547F655D00050060A03E100EC1CF070
:103BF0004FD00050090A12E1010E06014C6F02C5B8
:103C000050F60601505104E1040E06014F6F40D0FA
:103C1000050E06014F6F0AEC24F03AD00050080A56
:103C20000FE1010E06014C6F060E0601356F500EB6
:103C3000346F800E366F010E06013D6F3E6B28D04B
:103C4000005003E176EC1BF023D00050010A03E0A2
:103C50000050030A03E1A1EC18F01AD000500A0A40
:103C600011E1010E06014C6F0501406B050E0601C6
:103C7000356F400E346F800E366F010E06013D6FBA
:103C80003E6B06D000500B0A03E1010E06014C6F9B
:103C9000E4CF00F0120000C0E5FF04010451006E03
:103CA000009E0050046F0051006E009E0050006F97
:103CB0000601516B06014C6B0601486B06013D6B1A
:103CC0003E6BDEEC1DF01F0E05010015010A02E13E
:103CD0007CEC20F006014C510BE1400E0401016F19
:103CE000000E026F050E036F840E006F046F38D054
:103CF000050100AF26D006013E510501075D04E134
:103D000006013D510501065D04E206C53DF607C505
:103D10003EF6000EE56A22EC14F0E652020E0601B1
:103D2000516F400E0401016F000E026F050E036F0C
:103D3000800E006F400E066F050E076FC80E046FF1
:103D40000FD0010E0601516F0401056BC80E046F00
:103D5000400E016F400E026F050E036FC80E006F1C
:103D60006D98E4CF00F01200D9CFE5FFE1CFD9FF85
:103D700000C0E5FF01C0E5FF02C0E5FF020ED92447
:103D8000006E000EDA20016E800E026E030E002619
:103D9000000E0122022203C0E5FF04C0E5FF05C0BA
:103DA000E5FF020EDBCF03F0030EDBCF04F0040EC1
:103DB000DBCF05F0E4CF05F0E4CF04F0E4CF03F06F
:103DC0000250E56E0150E56E0050E56E03C0E5FF60
:103DD00004C0E5FF05C0E5FF020EDBCF03F0030ED4
:103DE000DBCF04F0040EDBCF05F00550E56E045088
:103DF000E56E0350E56EE4CF05F0E4CF04F0E4CFC8
:103E000003F0A3EC22F0060EE126000EE56E330E61
:103E1000E56E200EE56EA3EC22F0030EE126E4CF62
:103E200002F0E4CF01F0E4CF00F0E4CFD9FF1200BC
:103E3000D9CFE5FFE1CFD9FF00C0E5FF01C0E5FF25
:103E400002C0E5FF03C0E5FF04C0E5FF05C0E5FFD4
:103E500006C0E5FF07C0E5FF08C0E5FF020EDBCFA7
:103E600000F0030EDBCF01F0040EDBCF02F0050EF5
:103E7000DBCF03F0BCEC24F0046EF3CF05F0F4CFFD
:103E800006F0E9CF07F0E86A03BEFF0E086EE56EA4
:103E90000850E56E0350E56E0250E56E0750E56E82
:103EA0000650E56E0550E56E0450E56EA3EC16F085
:103EB000026EF3CF03F0080EE126005002260150F7
:103EC000032203C0F3FF0250E4CF08F0E4CF07F071
:103ED000E4CF06F0E4CF05F0E4CF04F0E4CF03F044
:103EE000E4CF02F0E4CF01F0E4CF00F0E4CFD9FF5B
:103EF0001200D9CFE5FFE1CFD9FF00C0E5FF01C037
:103F0000E5FF02C0E5FF03C0E5FF04C0E5FF05C013
:103F1000E5FF06C0E5FF07C0E5FF020EDBCF00F0BE
:103F2000030EDBCF01F0040EDBCF02F0050EDBCF7A
:103F300003F00250046E0350056E066A076A0450CF
:103F4000F86E0150046E0250056E0350066E076A4B
:103F50000450F76E0050F66E0900F5CF00F009002E
:103F6000F5CF01F0026A0150046E036A056A005041
:103F700003260550042204C0F3FF0350E4CF07F0EA
:103F8000E4CF06F0E4CF05F0E4CF04F0E4CF03F093
:103F9000E4CF02F0E4CF01F0E4CF00F0E4CFD9FFAA
:103FA000120011EEFFF021EEFFF0F86AA68EA69C3B
:103FB000BF0EE96E0E0EEA6E0068ED6A0050FDE17C
:103FC000B00EF66E4E0EF76E000EF86E0900F5CFCD
:103FD00005F00900F5CF06F034D00900F5CF00F068
:103FE0000900F5CF01F00900F5CF02F00900090042
:103FF000F5CFE9FF0900F5CFEAFF09000900090044
:10400000F5CF03F00900F5CF04F009000900F6CF61
:1040100007F0F7CF08F0F8CF09F000C0F6FF01C0B5
:10402000F7FF02C0F8FF03D00900F5CFEEFF03064B
:10403000FBE20406F9E207C0F6FF08C0F7FF09C07B
:10404000F8FF0506CAE20606C8E2C9EC25F0FFD76C
:1040500000C0E5FF01C0E5FF02C0E5FF03C0E5FFCA
:10406000F29EF29C080ED56E66EC24F0006EF3CF43
:1040700001F0F4CF02F0E9CF03F0E56AE56A030E40
:10408000E56EE80EE56E0350E56E0250E56E0150F8
:10409000E56E0050E56EEAEC1AF0006EF3CF01F029
:1040A000F4CF02F0E9CF03F0080EE1260050FF083C
:1040B0000601116FFF0E0154126F000E0254136FB0
:1040C000000E0354146F1251006ED76E1151D66E4C
:1040D000F184F294F28AD58EF28EF28C0601156B81
:1040E000166B176B186BE4CF03F0E4CF02F0E4CF4C
:1040F00001F0E4CF00F0120000C0E5FF600E050102
:104100000015200A01E049D001C500F0005001E18E
:1041100044D00050010A01E140D00050200A07E0DD
:104120000050210A13E00050220A1FE036D0060E8C
:104130000601356F000E346F800E366F070E0601D4
:104140003D6F3E6B010E06014C6F27D0060E060137
:10415000356F000E346F800E366F070E06013D6F0F
:104160003E6B010E06014C6F18D005010251030A87
:1041700004E1010E0601086F02D00601086B040E6F
:104180000601356FF40E346F800E366F080E06018F
:104190003D6F3E6B010E06014C6FE4CF00F0120044
:1041A000D9CFE5FFE1CFD9FF00C0E5FF01C0E5FFB2
:1041B00002C0E5FF03C0E5FF04C0E5FF05C0E5FF61
:1041C000020EDBCF3AF6030EDBCF3BF6040EDBCF5D
:1041D0003CF6050EDBCF00F0060EDBCF01F0070E3C
:1041E000DBCF02F0080EDBCF03F0090EDBCF04F0CB
:1041F0000A0EDBCF05F00550E56E0450E56E035066
:10420000E56E0250E56E0150E56E0050E56E800EE1
:10421000E56E060EE56E3A0EE56E0EEC06F0006EEB
:10422000090EE1260050E4CF05F0E4CF04F0E4CF1E
:1042300003F0E4CF02F0E4CF01F0E4CF00F0E4CFEC
:10424000D9FF120000C0E5FF6CB422D03C0E04017F
:104250000015006E0040E8403F0B0D0A03E14BECF7
:104260001EF03ED006015151010A0FE1000EE56A31
:1042700006EC18F0E652040100AD03D0880E006F82
:104280002FD0C80E0401006F2BD023EC27F028D0CC
:10429000006A6CB4002A0050010A22E16E500BE162
:1042A00006014F51040A07E102C56EFF6E5003E19B
:1042B000030E06014F6F06015151020A0FE1000E75
:1042C000E56A22EC14F0E652040104AD03D0880E36
:1042D000046F06D0C80E0401046F02D023EC27F04F
:1042E000E4CF00F01200D9CFE5FFE1CFD9FF00C045
:1042F000E5FF01C0E5FF02C0E5FF03C0E5FF04C024
:10430000E5FF05C0E5FF020EDBCF31F6030EDBCF84
:1043100032F6040EDBCF33F6050EDBCF00F0060ECF
:10432000DBCF01F0070EDBCF02F0080EDBCF03F08E
:10433000090EDBCF04F00A0EDBCF05F00550E56E69
:104340000450E56E0350E56E0250E56E0150E56ED7
:104350000050E56E000EE56AE56AE56A0EEC06F0CF
:10436000006E090EE1260050E4CF05F0E4CF04F022
:10437000E4CF03F0E4CF02F0E4CF01F0E4CF00F0AB
:10438000E4CFD9FF1200D9CFE5FFE1CFD9FF00C0BC
:10439000E5FF01C0E5FF02C0E5FF03C0E5FF020E37
:1043A000DBCF00F0030EDBCF01F0040EDBCF02F019
:1043B000050EDBCF03F000500601416F0150426F44
:1043C00002500601436F0350446F0601415106013C
:1043D0004303F4CF01F0F3CF00F000500601456F26
:1043E0000150466F0601415106014403F3CF00F02E
:1043F0000601425106014303F3CF01F001500026AC
:104400000601465100260050466F46C6F3FF45514F
:10441000E4CF03F0E4CF02F0E4CF01F0E4CF00F00A
:10442000E4CFD9FF1200D9CFE5FFE1CFD9FF00C01B
:10443000E5FF01C0E5FF02C0E5FF03C0E5FF04C0E2
:10444000E5FF050ED924006E000EDA20016E800E05
:10445000026E030E0026000E01220222020ED92453
:10446000036E000EDA20046E0250E56E0150E56E18
:104470000050E56E070EDBCFE5FF060EDBCFE5FF54
:10448000050EDBCFE5FF800EE56E0450E56E0350B0
:10449000E56E0EEC06F0006E090EE1260050E4CF4A
:1044A00004F0E4CF03F0E4CF02F0E4CF01F0E4CF76
:1044B00000F0E4CFD9FF120000C0E5FF01C0E5FF26
:1044C00002C0E5FF03C0E5FF006A69EC26F0016E5B
:1044D00001C002F0E56A0250E56E000EE56E330E93
:1044E000E56E240EE56EA3EC22F0050EE12600C079
:1044F00002F0002A036A800E0226040E032202C084
:10450000E9FF03C0EAFF01C0EFFF01500D0ADDE142
:10451000016A800E0026040E012200C0E9FF01C0DE
:10452000EAFFEF6A016E800E026E02C0F4FF01C066
:10453000F3FF800EE4CF03F0E4CF02F0E4CF01F00C
:10454000E4CF00F01200D9CFE5FFE1CFD9FF00C0E2
:10455000E5FF01C0E5FF02C0E5FF020ED924006EB1
:10456000000EDA20016E800E026E030E0026000E91
:10457000012202220250E56E0150E56E0050E56E08
:10458000040EDBCFE5FF030EDBCFE5FF020EDBCF32
:10459000E5FF800EE56E040EE56E800EE56ED0EC54
:1045A00020F0006E090EE1260050E56E800EE56EEB
:1045B000040EE56E800EE56E5CEC1AF0040EE1264A
:1045C000E4CF02F0E4CF01F0E4CF00F0E4CFD9FF74
:1045D000120000C0E5FF01C0E5FF02C0E5FF03C017
:1045E000E5FFF29A66EC24F0006EF3CF01F0F4CF11
:1045F00002F0E9CF03F0E56AE56A030EE56EE80E26
:10460000E56E0350E56E0250E56E0150E56E005018
:10461000E56EEAEC1AF0006EF3CF01F0F4CF02F091
:10462000E9CF03F0080EE1260050FF080601116FE4
:10463000FF0E0154126F000E0254136F000E03544C
:10464000146FF28AE4CF03F0E4CF02F0E4CF01F07C
:10465000E4CF00F01200D8CFE5FFE0CFE5FFE56E34
:10466000F3CFE5FFF4CFE5FFE9CFE5FFEACFE5FFC4
:10467000FACFE5FFFBCFE5FFD9CFE5FFE1CFD9FFCB
:10468000F6CFE5FFF7CFE5FFF8CFE5FFF5CFE5FF84
:1046900047EC27F011EC26F0E4CFF5FFE4CFF8FF6C
:1046A000E4CFF7FFE4CFF6FFE4CFD9FFE4CFFBFF81
:1046B000E4CFFAFFE4CFEAFFE4CFE9FFE4CFF4FF71
:1046C000E4CFF3FFE450E4CFE0FFE4CFD8FF1000E5
:1046D000D8CFE5FFE0CFE5FFE56EF3CFE5FFF4CF00
:1046E000E5FFE9CFE5FFEACFE5FFFACFE5FFFBCF36
:1046F000E5FFD9CFE5FFE1CFD9FFF6CFE5FFF7CF53
:10470000E5FFF8CFE5FFF5CFE5FFE4CFF5FFE4CF18
:10471000F8FFE4CFF7FFE4CFF6FFE4CFD9FFE4CF13
:10472000FBFFE4CFFAFFE4CFEAFFE4CFE9FFE4CFF9
:10473000F4FFE4CFF3FFE450E4CFE0FFE4CFD8FF91
:10474000100000C0E5FF06014F512EE068A403D021
:1047500069B45FEC27F0006A6DB2002A0050010ACC
:1047600023E068A003D069B02FEC25F068A803D03F
:1047700069B8A4EC26F068AC03D069BC02EC06F082
:1047800068AA03D069BAF7EC26F068A202D069B231
:104790006892030E06014F5D07E368A605D069A67F
:1047A00003D022EC21F06896E4CF00F01200F29ED4
:1047B000F29C6D6A6F6A706A716A726A736A746A6F
:1047C000756A766A776A786A796A7A6A7B6A7C6AD5
:1047D0007D6A7E6A7F6A070EE56ED00EE56E91EC0B
:1047E00024F0E652E652140E6F6E06014F6B06017E
:1047F0004E6B0601506B06014F51050A05E03DEC7A
:1048000026F0A1EC23F0F7D7A19AA08AA28AF28E13
:10481000F28C12000601006BC20E016F010E026FD6
:10482000036B046B056B080E066F0401F46BF56BEC
:10483000F66BF76BF86BF96BFA6BFB6B1A0E726E1B
:104840001E0E736EC00E0401166F040E176F400E1D
:10485000146F196F800E1A6F050E1B6F880E186F7C
:10486000C00E1E6F050E1F6F400E1C6F050E060159
:104870004F6F120000C0E5FF01C0E5FFE56A0A0EB8
:10488000E56EE56A010EE56E18EC1FF0006EF3CFE1
:1048900001F0040EE1260150E56E0050E56E000EB9
:1048A000E56E330EE56E500EE56EA3EC22F0050EBC
:1048B000E126030EE56EE80EE56E91EC24F0E6527B
:1048C000E652E4CF01F0E4CF00F0120000C0E5FFB3
:1048D00001C0E5FF02C0E5FF03C0E5FF37EC12F0C1
:1048E000006EF3CF01F0F4CF02F0E9CF03F0D890DF
:1048F0000332023201320032D890033202320132E6
:10490000003203C0E9FF02C0F4FF01C0F3FF005012
:10491000E4CF03F0E4CF02F0E4CF01F0E4CF00F005
:104920001200D9CFE5FFE1CFD9FF00C0E5FF01C0FC
:10493000E5FF02C0E5FF03C0E5FF020EDBCF00F09C
:10494000030EDBCF01F0026A036A0150035C02E14F
:104950000050025C06E20C0EAEEC19F0024A032A8B
:10496000F4D7E4CF03F0E4CF02F0E4CF01F0E4CFDA
:1049700000F0E4CFD9FF120000C0E5FF01C0E5FF61
:1049800002C0E5FF03C0E5FF800EE56E060EE56E92
:10499000090EE56EFDEC1CF0006EF3CF01F0F4CFD4
:1049A00002F0E9CF03F0030EE12603C0E9FF02C0E5
:1049B000F4FF01C0F3FF0050E4CF03F0E4CF02F0B6
:1049C000E4CF01F0E4CF00F01200D9CFE5FFE1CF52
:1049D000D9FF00C0E5FF01C0E5FF02C0E5FF03C04D
:1049E000E5FF020EDBCF00F0030EDBCF01F0026A21
:1049F000036A0150035C02E10050025C03E2024AD8
:104A0000032AF7D7E4CF03F0E4CF02F0E4CF01F0BC
:104A1000E4CF00F0E4CFD9FF120000C0E5FF01C0F1
:104A2000E5FF02C0E5FF03C0E5FFF29A15C600F0FE
:104A300016C601F017C602F018C603F0F28A03C0CA
:104A4000E9FF02C0F4FF01C0F3FF0050E4CF03F020
:104A5000E4CF02F0E4CF01F0E4CF00F0120000C098
:104A6000E5FF6A6A686A9F0E6B6E7B0E696E6E6AFE
:104A7000160E706E006A68B6002A0050010A02E144
:104A80006896F8D76D9823EC27F006014E6B060167
:104A90004D6B0601506B030E06014F6FE4CF00F023
:104AA000120000C0E5FF01C0E5FF02C0E5FF0DEC0C
:104AB00025F0006EF3CF01F0E86A01BEFF0E026E32
:104AC000E56E0250E56E0150E56E0050E56E91EC2A
:104AD00026F0040EE126E4CF02F0E4CF01F0E4CFAB
:104AE00000F01200E8AE0AD0F3CFEAFFEE50EECFAE
:104AF000F3FFEECFF4FFEECFE9FF1200E8BC6CEF5E
:104B000027F0E9CFF6FFF3CFF7FFF86E0900F55075
:104B10000900F5CFF3FF0900F5CFF4FF0900F5CF49
:104B2000E9FF1200F2CFEAFFF29EA69EA69CA684A1
:104B3000E9CFA9FFE4CFA8FF50EC27F0F4CFA8FFFE
:104B400050EC27F0F6CFA8FF50EC27F0F7CFA8FFE6
:104B500050EC27F0A694EABEF28E1200E8AE08D020
:104B6000F3CFEAFFEE50EECFF3FFEECFF4FF1200EB
:104B7000E8BC6AEF27F0E9CFF6FFF3CFF7FFF86E56
:104B80000900F5500900F5CFF3FF0900F5CFF4FF58
:104B90001200D350030B800F7D0F02E3D3A4FED786
:104BA000D08EF29EF29C15EC27F006EC06F0D7ECC6
:104BB00023F028EC20F051EC25F03AEC24F0FDD75E
:104BC0001200F2CFEAFFF29EA69EA69CA684E9CF31
:104BD000A9FFE4CFA8FF50EC27F0F4CFA8FF50ECDA
:104BE00027F0F6CFA8FF50EC27F0A694EABEF28E8D
:104BF0001200F2CFF6FFF29EA69EA69CE9CFA9FF77
:104C0000A680A850A92AA680A8CFF3FFA92AA6802B
:104C1000A8CFF4FFA92AA680A8CFEAFFF6BEF28E9D
:104C2000120000C0E5FFF2A40FD0F2940601125169
:104C3000006ED76E1151D66E0601152B05E3162BAB
:104C400003E3173F01D0182BE4CF00F01200D9CFB7
:104C5000E5FFE1CFD9FF020EDBCF52F6010EE56E84
:104C6000800EE56E060EE56E520EE56E5CEC1AF0F7
:104C7000040EE126E4CFD9FF12006DB606D06D6AAE
:104C8000696A6D86010E06014F6F06014F51010AD8
:104C900009E16DBA07D0686A696A69806988020E9D
:104CA00006014F6F1200E8AE06D0F3CFEAFFEE50D8
:104CB000EECFF3FF1200E8BC68EF27F0E9CFF6FF74
:104CC000F3CFF7FFF86E0900F5500900F5CFF3FFB9
:104CD000120000C0E5FF800EE56E040EE56E800E4A
:104CE000E56ECDEC19F0006E030EE1260050F3E006
:104CF00004018051E4CF00F01200F2CFF6FFF29EE3
:104D0000A69EA69CE9CFA9FFA680A850A92AA680A6
:104D1000A8CFF3FFA92AA680A8CFF4FFF6BEF28E93
:104D20001200D9CFE5FFE1CFD9FF020EDBCF09F6A4
:104D3000030EDBCF0AF6040EDBCF0BF6050EDBCF3E
:104D40000CF6E4CFD9FF1200D9CFE5FFE1CFD9FFB0
:104D5000698468986D82A19AF290A08AF286030015
:104D6000A09AF296E4CFD9FF1200E8AE0BD0F3CFB1
:104D7000EAFFE4CFEEFFF4CFEEFFF6CFEEFFF7CF82
:104D8000EEFF1200E8BC72EF27F01200E8AE04D08C
:104D9000F3CFEAFFEE501200E8BC66EF27F0E9CF50
:104DA000F6FFF3CFF7FFF86E0900F5501200F2CFCF
:104DB000EAFFF29EA69EA69CA684E9CFA9FFE4CFB7
:104DC000A8FF50EC27F0A694EABEF28E1200F2CFB4
:104DD000F6FFF29EA69EA69CE9CFA9FFA680A8504A
:104DE000A92AA680A8CFF3FFF6BEF28E120000C05B
:104DF000E5FF006A70B0002A0050010A03E123ECCD
:104E000027F07090689AE4CF00F01200E8AE09D065
:104E1000F3CFEAFFE4CFEEFFF4CFEEFFF6CFEEFFE5
:104E20001200E8BC70EF27F01200926A936A949027
:104E300094929494949C949E896A8A6A8B6A806AFC
:104E4000816A826A12000601516B400E0401016FF3
:104E5000000E026F050E036F880E006F046B1200C8
:104E6000F2CFF6FFF29EA69EA69CE9CFA9FFA680F0
:104E7000A850F6BEF28E1200E8AE05D0F3CFEAFFDE
:104E8000E4CFEEFF1200E8BC6EEF27F01200A1AAFB
:104E900006D0A19AA1EC23F0689C68906A6A12007F
:104EA000550EA76EAA0EA76EA682A6B2FED7A94A75
:104EB0000100C64E000007060000060000006D92CB
:104EC00069946894120000000100000030EF27F0A0
:104ED000E7EF26F07DEF26F0F9EF25F0D7EF26F08B
:084EE000E1EF25F092EF25F04F
:00000001FF
