:020000040000FA
:040000004CEF04F0CD
:10080000C40EF66E080EF76E000EF86E0900F55075
:10081000056E0900F550066E055002E106503BE0FA
:100820000900F550006E0900F550016E0900F55001
:10083000026E09000900F550E96E0900F550EA6EF4
:10084000090009000900F550036E0900F550046E17
:1008500009000900F6CF07F0F7CF08F0F8CF09F04C
:1008600000C0F6FF01C0F7FF02C0F8FF035002E12D
:10087000045007E00900F550EE6E0306F8E20406A6
:10088000F9D707C0F6FF08C0F7FF09C0F8FF050653
:10089000C4E20606C5D7120012EEFEF022EEFEF00C
:1008A000F86AA68EA69C00EC04F058EC04F0FFD782
:1008B0009D6AA06A0F0EC16E6DEC04F06CEC04F042
:1008C000FDD712000100D208000000000000010066
:0C08D000000000001200120012001200D4
:00000001FF
